{
	"contracts/PetRegistry.sol": {
		"PetRegistry": {
			"abi": [
				{
					"inputs": [],
					"stateMutability": "nonpayable",
					"type": "constructor"
				},
				{
					"inputs": [
						{
							"internalType": "address",
							"name": "sender",
							"type": "address"
						},
						{
							"internalType": "uint256",
							"name": "tokenId",
							"type": "uint256"
						},
						{
							"internalType": "address",
							"name": "owner",
							"type": "address"
						}
					],
					"name": "ERC721IncorrectOwner",
					"type": "error"
				},
				{
					"inputs": [
						{
							"internalType": "address",
							"name": "operator",
							"type": "address"
						},
						{
							"internalType": "uint256",
							"name": "tokenId",
							"type": "uint256"
						}
					],
					"name": "ERC721InsufficientApproval",
					"type": "error"
				},
				{
					"inputs": [
						{
							"internalType": "address",
							"name": "approver",
							"type": "address"
						}
					],
					"name": "ERC721InvalidApprover",
					"type": "error"
				},
				{
					"inputs": [
						{
							"internalType": "address",
							"name": "operator",
							"type": "address"
						}
					],
					"name": "ERC721InvalidOperator",
					"type": "error"
				},
				{
					"inputs": [
						{
							"internalType": "address",
							"name": "owner",
							"type": "address"
						}
					],
					"name": "ERC721InvalidOwner",
					"type": "error"
				},
				{
					"inputs": [
						{
							"internalType": "address",
							"name": "receiver",
							"type": "address"
						}
					],
					"name": "ERC721InvalidReceiver",
					"type": "error"
				},
				{
					"inputs": [
						{
							"internalType": "address",
							"name": "sender",
							"type": "address"
						}
					],
					"name": "ERC721InvalidSender",
					"type": "error"
				},
				{
					"inputs": [
						{
							"internalType": "uint256",
							"name": "tokenId",
							"type": "uint256"
						}
					],
					"name": "ERC721NonexistentToken",
					"type": "error"
				},
				{
					"anonymous": false,
					"inputs": [
						{
							"indexed": true,
							"internalType": "address",
							"name": "owner",
							"type": "address"
						},
						{
							"indexed": true,
							"internalType": "address",
							"name": "approved",
							"type": "address"
						},
						{
							"indexed": true,
							"internalType": "uint256",
							"name": "tokenId",
							"type": "uint256"
						}
					],
					"name": "Approval",
					"type": "event"
				},
				{
					"anonymous": false,
					"inputs": [
						{
							"indexed": true,
							"internalType": "address",
							"name": "owner",
							"type": "address"
						},
						{
							"indexed": true,
							"internalType": "address",
							"name": "operator",
							"type": "address"
						},
						{
							"indexed": false,
							"internalType": "bool",
							"name": "approved",
							"type": "bool"
						}
					],
					"name": "ApprovalForAll",
					"type": "event"
				},
				{
					"anonymous": false,
					"inputs": [
						{
							"indexed": true,
							"internalType": "uint256",
							"name": "petId",
							"type": "uint256"
						},
						{
							"indexed": true,
							"internalType": "address",
							"name": "owner",
							"type": "address"
						},
						{
							"indexed": false,
							"internalType": "string",
							"name": "name",
							"type": "string"
						}
					],
					"name": "PetRegistered",
					"type": "event"
				},
				{
					"anonymous": false,
					"inputs": [
						{
							"indexed": true,
							"internalType": "address",
							"name": "from",
							"type": "address"
						},
						{
							"indexed": true,
							"internalType": "address",
							"name": "to",
							"type": "address"
						},
						{
							"indexed": true,
							"internalType": "uint256",
							"name": "tokenId",
							"type": "uint256"
						}
					],
					"name": "Transfer",
					"type": "event"
				},
				{
					"inputs": [
						{
							"internalType": "address",
							"name": "to",
							"type": "address"
						},
						{
							"internalType": "uint256",
							"name": "tokenId",
							"type": "uint256"
						}
					],
					"name": "approve",
					"outputs": [],
					"stateMutability": "nonpayable",
					"type": "function"
				},
				{
					"inputs": [
						{
							"internalType": "address",
							"name": "owner",
							"type": "address"
						}
					],
					"name": "balanceOf",
					"outputs": [
						{
							"internalType": "uint256",
							"name": "",
							"type": "uint256"
						}
					],
					"stateMutability": "view",
					"type": "function"
				},
				{
					"inputs": [],
					"name": "counter",
					"outputs": [
						{
							"internalType": "uint256",
							"name": "",
							"type": "uint256"
						}
					],
					"stateMutability": "view",
					"type": "function"
				},
				{
					"inputs": [
						{
							"internalType": "uint256",
							"name": "tokenId",
							"type": "uint256"
						}
					],
					"name": "getApproved",
					"outputs": [
						{
							"internalType": "address",
							"name": "",
							"type": "address"
						}
					],
					"stateMutability": "view",
					"type": "function"
				},
				{
					"inputs": [],
					"name": "getBalance",
					"outputs": [
						{
							"internalType": "uint256",
							"name": "",
							"type": "uint256"
						}
					],
					"stateMutability": "view",
					"type": "function"
				},
				{
					"inputs": [],
					"name": "getEthPriceInUsd",
					"outputs": [
						{
							"internalType": "uint256",
							"name": "",
							"type": "uint256"
						}
					],
					"stateMutability": "view",
					"type": "function"
				},
				{
					"inputs": [],
					"name": "getEthRegistrationFeeInWei",
					"outputs": [
						{
							"internalType": "uint256",
							"name": "",
							"type": "uint256"
						}
					],
					"stateMutability": "view",
					"type": "function"
				},
				{
					"inputs": [
						{
							"internalType": "address",
							"name": "owner",
							"type": "address"
						},
						{
							"internalType": "address",
							"name": "operator",
							"type": "address"
						}
					],
					"name": "isApprovedForAll",
					"outputs": [
						{
							"internalType": "bool",
							"name": "",
							"type": "bool"
						}
					],
					"stateMutability": "view",
					"type": "function"
				},
				{
					"inputs": [],
					"name": "name",
					"outputs": [
						{
							"internalType": "string",
							"name": "",
							"type": "string"
						}
					],
					"stateMutability": "view",
					"type": "function"
				},
				{
					"inputs": [],
					"name": "owner",
					"outputs": [
						{
							"internalType": "address",
							"name": "",
							"type": "address"
						}
					],
					"stateMutability": "view",
					"type": "function"
				},
				{
					"inputs": [
						{
							"internalType": "uint256",
							"name": "tokenId",
							"type": "uint256"
						}
					],
					"name": "ownerOf",
					"outputs": [
						{
							"internalType": "address",
							"name": "",
							"type": "address"
						}
					],
					"stateMutability": "view",
					"type": "function"
				},
				{
					"inputs": [
						{
							"internalType": "uint256",
							"name": "",
							"type": "uint256"
						}
					],
					"name": "pets",
					"outputs": [
						{
							"internalType": "uint256",
							"name": "petId",
							"type": "uint256"
						},
						{
							"internalType": "string",
							"name": "name",
							"type": "string"
						},
						{
							"internalType": "enum PetRegistry.Species",
							"name": "species",
							"type": "uint8"
						},
						{
							"internalType": "string",
							"name": "breed",
							"type": "string"
						},
						{
							"internalType": "string",
							"name": "color",
							"type": "string"
						},
						{
							"internalType": "uint256",
							"name": "birthDate",
							"type": "uint256"
						},
						{
							"internalType": "uint256",
							"name": "weight",
							"type": "uint256"
						},
						{
							"internalType": "address",
							"name": "owner",
							"type": "address"
						}
					],
					"stateMutability": "view",
					"type": "function"
				},
				{
					"inputs": [],
					"name": "priceFeedAddress",
					"outputs": [
						{
							"internalType": "address",
							"name": "",
							"type": "address"
						}
					],
					"stateMutability": "view",
					"type": "function"
				},
				{
					"inputs": [
						{
							"internalType": "string",
							"name": "_name",
							"type": "string"
						},
						{
							"internalType": "enum PetRegistry.Species",
							"name": "_species",
							"type": "uint8"
						},
						{
							"internalType": "string",
							"name": "_breed",
							"type": "string"
						},
						{
							"internalType": "string",
							"name": "_color",
							"type": "string"
						},
						{
							"internalType": "uint256",
							"name": "_birthDate",
							"type": "uint256"
						},
						{
							"internalType": "uint256",
							"name": "_weight",
							"type": "uint256"
						}
					],
					"name": "registerPet",
					"outputs": [],
					"stateMutability": "payable",
					"type": "function"
				},
				{
					"inputs": [
						{
							"internalType": "address",
							"name": "from",
							"type": "address"
						},
						{
							"internalType": "address",
							"name": "to",
							"type": "address"
						},
						{
							"internalType": "uint256",
							"name": "tokenId",
							"type": "uint256"
						}
					],
					"name": "safeTransferFrom",
					"outputs": [],
					"stateMutability": "nonpayable",
					"type": "function"
				},
				{
					"inputs": [
						{
							"internalType": "address",
							"name": "from",
							"type": "address"
						},
						{
							"internalType": "address",
							"name": "to",
							"type": "address"
						},
						{
							"internalType": "uint256",
							"name": "tokenId",
							"type": "uint256"
						},
						{
							"internalType": "bytes",
							"name": "data",
							"type": "bytes"
						}
					],
					"name": "safeTransferFrom",
					"outputs": [],
					"stateMutability": "nonpayable",
					"type": "function"
				},
				{
					"inputs": [
						{
							"internalType": "address",
							"name": "operator",
							"type": "address"
						},
						{
							"internalType": "bool",
							"name": "approved",
							"type": "bool"
						}
					],
					"name": "setApprovalForAll",
					"outputs": [],
					"stateMutability": "nonpayable",
					"type": "function"
				},
				{
					"inputs": [
						{
							"internalType": "bytes4",
							"name": "interfaceId",
							"type": "bytes4"
						}
					],
					"name": "supportsInterface",
					"outputs": [
						{
							"internalType": "bool",
							"name": "",
							"type": "bool"
						}
					],
					"stateMutability": "view",
					"type": "function"
				},
				{
					"inputs": [],
					"name": "symbol",
					"outputs": [
						{
							"internalType": "string",
							"name": "",
							"type": "string"
						}
					],
					"stateMutability": "view",
					"type": "function"
				},
				{
					"inputs": [
						{
							"internalType": "uint256",
							"name": "tokenId",
							"type": "uint256"
						}
					],
					"name": "tokenURI",
					"outputs": [
						{
							"internalType": "string",
							"name": "",
							"type": "string"
						}
					],
					"stateMutability": "view",
					"type": "function"
				},
				{
					"inputs": [
						{
							"internalType": "address",
							"name": "from",
							"type": "address"
						},
						{
							"internalType": "address",
							"name": "to",
							"type": "address"
						},
						{
							"internalType": "uint256",
							"name": "tokenId",
							"type": "uint256"
						}
					],
					"name": "transferFrom",
					"outputs": [],
					"stateMutability": "nonpayable",
					"type": "function"
				},
				{
					"inputs": [
						{
							"internalType": "uint256",
							"name": "_newFee",
							"type": "uint256"
						}
					],
					"name": "updateRegistrationFee",
					"outputs": [],
					"stateMutability": "nonpayable",
					"type": "function"
				},
				{
					"inputs": [],
					"name": "usdRegistrationFee",
					"outputs": [
						{
							"internalType": "uint256",
							"name": "",
							"type": "uint256"
						}
					],
					"stateMutability": "view",
					"type": "function"
				},
				{
					"inputs": [],
					"name": "withdraw",
					"outputs": [],
					"stateMutability": "nonpayable",
					"type": "function"
				}
			],
			"devdoc": {
				"errors": {
					"ERC721IncorrectOwner(address,uint256,address)": [
						{
							"details": "Indicates an error related to the ownership over a particular token. Used in transfers.",
							"params": {
								"owner": "Address of the current owner of a token.",
								"sender": "Address whose tokens are being transferred.",
								"tokenId": "Identifier number of a token."
							}
						}
					],
					"ERC721InsufficientApproval(address,uint256)": [
						{
							"details": "Indicates a failure with the `operator`’s approval. Used in transfers.",
							"params": {
								"operator": "Address that may be allowed to operate on tokens without being their owner.",
								"tokenId": "Identifier number of a token."
							}
						}
					],
					"ERC721InvalidApprover(address)": [
						{
							"details": "Indicates a failure with the `approver` of a token to be approved. Used in approvals.",
							"params": {
								"approver": "Address initiating an approval operation."
							}
						}
					],
					"ERC721InvalidOperator(address)": [
						{
							"details": "Indicates a failure with the `operator` to be approved. Used in approvals.",
							"params": {
								"operator": "Address that may be allowed to operate on tokens without being their owner."
							}
						}
					],
					"ERC721InvalidOwner(address)": [
						{
							"details": "Indicates that an address can't be an owner. For example, `address(0)` is a forbidden owner in EIP-20. Used in balance queries.",
							"params": {
								"owner": "Address of the current owner of a token."
							}
						}
					],
					"ERC721InvalidReceiver(address)": [
						{
							"details": "Indicates a failure with the token `receiver`. Used in transfers.",
							"params": {
								"receiver": "Address to which tokens are being transferred."
							}
						}
					],
					"ERC721InvalidSender(address)": [
						{
							"details": "Indicates a failure with the token `sender`. Used in transfers.",
							"params": {
								"sender": "Address whose tokens are being transferred."
							}
						}
					],
					"ERC721NonexistentToken(uint256)": [
						{
							"details": "Indicates a `tokenId` whose `owner` is the zero address.",
							"params": {
								"tokenId": "Identifier number of a token."
							}
						}
					]
				},
				"events": {
					"Approval(address,address,uint256)": {
						"details": "Emitted when `owner` enables `approved` to manage the `tokenId` token."
					},
					"ApprovalForAll(address,address,bool)": {
						"details": "Emitted when `owner` enables or disables (`approved`) `operator` to manage all of its assets."
					},
					"Transfer(address,address,uint256)": {
						"details": "Emitted when `tokenId` token is transferred from `from` to `to`."
					}
				},
				"kind": "dev",
				"methods": {
					"approve(address,uint256)": {
						"details": "See {IERC721-approve}."
					},
					"balanceOf(address)": {
						"details": "See {IERC721-balanceOf}."
					},
					"getApproved(uint256)": {
						"details": "See {IERC721-getApproved}."
					},
					"isApprovedForAll(address,address)": {
						"details": "See {IERC721-isApprovedForAll}."
					},
					"name()": {
						"details": "See {IERC721Metadata-name}."
					},
					"ownerOf(uint256)": {
						"details": "See {IERC721-ownerOf}."
					},
					"safeTransferFrom(address,address,uint256)": {
						"details": "See {IERC721-safeTransferFrom}."
					},
					"safeTransferFrom(address,address,uint256,bytes)": {
						"details": "See {IERC721-safeTransferFrom}."
					},
					"setApprovalForAll(address,bool)": {
						"details": "See {IERC721-setApprovalForAll}."
					},
					"supportsInterface(bytes4)": {
						"details": "See {IERC165-supportsInterface}."
					},
					"symbol()": {
						"details": "See {IERC721Metadata-symbol}."
					},
					"tokenURI(uint256)": {
						"details": "See {IERC721Metadata-tokenURI}."
					},
					"transferFrom(address,address,uint256)": {
						"details": "See {IERC721-transferFrom}."
					}
				},
				"version": 1
			},
			"evm": {
				"assembly": "    /* \"contracts/PetRegistry.sol\":199:3199  contract PetRegistry is ERC721 {... */\n  mstore(0x40, 0x80)\n    /* \"contracts/PetRegistry.sol\":740:1006  constructor () ERC721(\"PetNFT\", \"PET\") {... */\n  callvalue\n  dup1\n  iszero\n  tag_1\n  jumpi\n  0x00\n  dup1\n  revert\ntag_1:\n  pop\n    /* \"@openzeppelin/contracts/token/ERC721/ERC721.sol\":1381:1494  constructor(string memory name_, string memory symbol_) {... */\n  mload(0x40)\n  dup1\n  0x40\n  add\n  0x40\n  mstore\n  dup1\n  0x06\n  dup2\n  mstore\n  0x20\n  add\n  0x5065744e46540000000000000000000000000000000000000000000000000000\n  dup2\n  mstore\n  pop\n  mload(0x40)\n  dup1\n  0x40\n  add\n  0x40\n  mstore\n  dup1\n  0x03\n  dup2\n  mstore\n  0x20\n  add\n  0x5045540000000000000000000000000000000000000000000000000000000000\n  dup2\n  mstore\n  pop\n    /* \"@openzeppelin/contracts/token/ERC721/ERC721.sol\":1455:1460  name_ */\n  dup2\n    /* \"@openzeppelin/contracts/token/ERC721/ERC721.sol\":1447:1452  _name */\n  0x00\n    /* \"@openzeppelin/contracts/token/ERC721/ERC721.sol\":1447:1460  _name = name_ */\n  swap1\n  dup2\n  tag_5\n  swap2\n  swap1\n  tag_6\n  jump\t// in\ntag_5:\n  pop\n    /* \"@openzeppelin/contracts/token/ERC721/ERC721.sol\":1480:1487  symbol_ */\n  dup1\n    /* \"@openzeppelin/contracts/token/ERC721/ERC721.sol\":1470:1477  _symbol */\n  0x01\n    /* \"@openzeppelin/contracts/token/ERC721/ERC721.sol\":1470:1487  _symbol = symbol_ */\n  swap1\n  dup2\n  tag_7\n  swap2\n  swap1\n  tag_6\n  jump\t// in\ntag_7:\n  pop\n    /* \"@openzeppelin/contracts/token/ERC721/ERC721.sol\":1381:1494  constructor(string memory name_, string memory symbol_) {... */\n  pop\n  pop\n    /* \"contracts/PetRegistry.sol\":800:801  0 */\n  0x00\n    /* \"contracts/PetRegistry.sol\":790:797  counter */\n  0x09\n    /* \"contracts/PetRegistry.sol\":790:801  counter = 0 */\n  dup2\n  swap1\n  sstore\n  pop\n    /* \"contracts/PetRegistry.sol\":820:830  msg.sender */\n  caller\n    /* \"contracts/PetRegistry.sol\":812:817  owner */\n  0x0b\n  0x00\n    /* \"contracts/PetRegistry.sol\":812:830  owner = msg.sender */\n  0x0100\n  exp\n  dup2\n  sload\n  dup2\n  0xffffffffffffffffffffffffffffffffffffffff\n  mul\n  not\n  and\n  swap1\n  dup4\n  0xffffffffffffffffffffffffffffffffffffffff\n  and\n  mul\n  or\n  swap1\n  sstore\n  pop\n    /* \"contracts/PetRegistry.sol\":862:864  10 */\n  0x0a\n    /* \"contracts/PetRegistry.sol\":841:859  usdRegistrationFee */\n  dup1\n    /* \"contracts/PetRegistry.sol\":841:864  usdRegistrationFee = 10 */\n  dup2\n  swap1\n  sstore\n  pop\n    /* \"contracts/PetRegistry.sol\":894:936  0x694AA1769357215DE4FAC081bf1f309aDC325306 */\n  0x694aa1769357215de4fac081bf1f309adc325306\n    /* \"contracts/PetRegistry.sol\":875:891  priceFeedAddress */\n  0x07\n  0x00\n    /* \"contracts/PetRegistry.sol\":875:936  priceFeedAddress = 0x694AA1769357215DE4FAC081bf1f309aDC325306 */\n  0x0100\n  exp\n  dup2\n  sload\n  dup2\n  0xffffffffffffffffffffffffffffffffffffffff\n  mul\n  not\n  and\n  swap1\n  dup4\n  0xffffffffffffffffffffffffffffffffffffffff\n  and\n  mul\n  or\n  swap1\n  sstore\n  pop\n    /* \"contracts/PetRegistry.sol\":981:997  priceFeedAddress */\n  0x07\n  0x00\n  swap1\n  sload\n  swap1\n  0x0100\n  exp\n  swap1\n  div\n  0xffffffffffffffffffffffffffffffffffffffff\n  and\n    /* \"contracts/PetRegistry.sol\":947:956  priceFeed */\n  0x06\n  0x00\n    /* \"contracts/PetRegistry.sol\":947:998  priceFeed = AggregatorV3Interface(priceFeedAddress) */\n  0x0100\n  exp\n  dup2\n  sload\n  dup2\n  0xffffffffffffffffffffffffffffffffffffffff\n  mul\n  not\n  and\n  swap1\n  dup4\n  0xffffffffffffffffffffffffffffffffffffffff\n  and\n  mul\n  or\n  swap1\n  sstore\n  pop\n    /* \"contracts/PetRegistry.sol\":199:3199  contract PetRegistry is ERC721 {... */\n  jump(tag_9)\n    /* \"#utility.yul\":7:106   */\ntag_10:\n    /* \"#utility.yul\":59:65   */\n  0x00\n    /* \"#utility.yul\":93:98   */\n  dup2\n    /* \"#utility.yul\":87:99   */\n  mload\n    /* \"#utility.yul\":77:99   */\n  swap1\n  pop\n    /* \"#utility.yul\":7:106   */\n  swap2\n  swap1\n  pop\n  jump\t// out\n    /* \"#utility.yul\":112:292   */\ntag_11:\n    /* \"#utility.yul\":160:237   */\n  0x4e487b7100000000000000000000000000000000000000000000000000000000\n    /* \"#utility.yul\":157:158   */\n  0x00\n    /* \"#utility.yul\":150:238   */\n  mstore\n    /* \"#utility.yul\":257:261   */\n  0x41\n    /* \"#utility.yul\":254:255   */\n  0x04\n    /* \"#utility.yul\":247:262   */\n  mstore\n    /* \"#utility.yul\":281:285   */\n  0x24\n    /* \"#utility.yul\":278:279   */\n  0x00\n    /* \"#utility.yul\":271:286   */\n  revert\n    /* \"#utility.yul\":298:478   */\ntag_12:\n    /* \"#utility.yul\":346:423   */\n  0x4e487b7100000000000000000000000000000000000000000000000000000000\n    /* \"#utility.yul\":343:344   */\n  0x00\n    /* \"#utility.yul\":336:424   */\n  mstore\n    /* \"#utility.yul\":443:447   */\n  0x22\n    /* \"#utility.yul\":440:441   */\n  0x04\n    /* \"#utility.yul\":433:448   */\n  mstore\n    /* \"#utility.yul\":467:471   */\n  0x24\n    /* \"#utility.yul\":464:465   */\n  0x00\n    /* \"#utility.yul\":457:472   */\n  revert\n    /* \"#utility.yul\":484:804   */\ntag_13:\n    /* \"#utility.yul\":528:534   */\n  0x00\n    /* \"#utility.yul\":565:566   */\n  0x02\n    /* \"#utility.yul\":559:563   */\n  dup3\n    /* \"#utility.yul\":555:567   */\n  div\n    /* \"#utility.yul\":545:567   */\n  swap1\n  pop\n    /* \"#utility.yul\":612:613   */\n  0x01\n    /* \"#utility.yul\":606:610   */\n  dup3\n    /* \"#utility.yul\":602:614   */\n  and\n    /* \"#utility.yul\":633:651   */\n  dup1\n    /* \"#utility.yul\":623:704   */\n  tag_35\n  jumpi\n    /* \"#utility.yul\":689:693   */\n  0x7f\n    /* \"#utility.yul\":681:687   */\n  dup3\n    /* \"#utility.yul\":677:694   */\n  and\n    /* \"#utility.yul\":667:694   */\n  swap2\n  pop\n    /* \"#utility.yul\":623:704   */\ntag_35:\n    /* \"#utility.yul\":751:753   */\n  0x20\n    /* \"#utility.yul\":743:749   */\n  dup3\n    /* \"#utility.yul\":740:754   */\n  lt\n    /* \"#utility.yul\":720:738   */\n  dup2\n    /* \"#utility.yul\":717:755   */\n  sub\n    /* \"#utility.yul\":714:798   */\n  tag_36\n  jumpi\n    /* \"#utility.yul\":770:788   */\n  tag_37\n  tag_12\n  jump\t// in\ntag_37:\n    /* \"#utility.yul\":714:798   */\ntag_36:\n    /* \"#utility.yul\":535:804   */\n  pop\n    /* \"#utility.yul\":484:804   */\n  swap2\n  swap1\n  pop\n  jump\t// out\n    /* \"#utility.yul\":810:951   */\ntag_14:\n    /* \"#utility.yul\":859:863   */\n  0x00\n    /* \"#utility.yul\":882:885   */\n  dup2\n    /* \"#utility.yul\":874:885   */\n  swap1\n  pop\n    /* \"#utility.yul\":905:908   */\n  dup2\n    /* \"#utility.yul\":902:903   */\n  0x00\n    /* \"#utility.yul\":895:909   */\n  mstore\n    /* \"#utility.yul\":939:943   */\n  0x20\n    /* \"#utility.yul\":936:937   */\n  0x00\n    /* \"#utility.yul\":926:944   */\n  keccak256\n    /* \"#utility.yul\":918:944   */\n  swap1\n  pop\n    /* \"#utility.yul\":810:951   */\n  swap2\n  swap1\n  pop\n  jump\t// out\n    /* \"#utility.yul\":957:1050   */\ntag_15:\n    /* \"#utility.yul\":994:1000   */\n  0x00\n    /* \"#utility.yul\":1041:1043   */\n  0x20\n    /* \"#utility.yul\":1036:1038   */\n  0x1f\n    /* \"#utility.yul\":1029:1034   */\n  dup4\n    /* \"#utility.yul\":1025:1039   */\n  add\n    /* \"#utility.yul\":1021:1044   */\n  div\n    /* \"#utility.yul\":1011:1044   */\n  swap1\n  pop\n    /* \"#utility.yul\":957:1050   */\n  swap2\n  swap1\n  pop\n  jump\t// out\n    /* \"#utility.yul\":1056:1163   */\ntag_16:\n    /* \"#utility.yul\":1100:1108   */\n  0x00\n    /* \"#utility.yul\":1150:1155   */\n  dup3\n    /* \"#utility.yul\":1144:1148   */\n  dup3\n    /* \"#utility.yul\":1140:1156   */\n  shl\n    /* \"#utility.yul\":1119:1156   */\n  swap1\n  pop\n    /* \"#utility.yul\":1056:1163   */\n  swap3\n  swap2\n  pop\n  pop\n  jump\t// out\n    /* \"#utility.yul\":1169:1562   */\ntag_17:\n    /* \"#utility.yul\":1238:1244   */\n  0x00\n    /* \"#utility.yul\":1288:1289   */\n  0x08\n    /* \"#utility.yul\":1276:1286   */\n  dup4\n    /* \"#utility.yul\":1272:1290   */\n  mul\n    /* \"#utility.yul\":1311:1408   */\n  tag_42\n    /* \"#utility.yul\":1341:1407   */\n  0xffffffffffffffffffffffffffffffffffffffffffffffffffffffffffffffff\n    /* \"#utility.yul\":1330:1339   */\n  dup3\n    /* \"#utility.yul\":1311:1408   */\n  tag_16\n  jump\t// in\ntag_42:\n    /* \"#utility.yul\":1429:1468   */\n  tag_43\n    /* \"#utility.yul\":1459:1467   */\n  dup7\n    /* \"#utility.yul\":1448:1457   */\n  dup4\n    /* \"#utility.yul\":1429:1468   */\n  tag_16\n  jump\t// in\ntag_43:\n    /* \"#utility.yul\":1417:1468   */\n  swap6\n  pop\n    /* \"#utility.yul\":1501:1505   */\n  dup1\n    /* \"#utility.yul\":1497:1506   */\n  not\n    /* \"#utility.yul\":1490:1495   */\n  dup5\n    /* \"#utility.yul\":1486:1507   */\n  and\n    /* \"#utility.yul\":1477:1507   */\n  swap4\n  pop\n    /* \"#utility.yul\":1550:1554   */\n  dup1\n    /* \"#utility.yul\":1540:1548   */\n  dup7\n    /* \"#utility.yul\":1536:1555   */\n  and\n    /* \"#utility.yul\":1529:1534   */\n  dup5\n    /* \"#utility.yul\":1526:1556   */\n  or\n    /* \"#utility.yul\":1516:1556   */\n  swap3\n  pop\n    /* \"#utility.yul\":1245:1562   */\n  pop\n  pop\n    /* \"#utility.yul\":1169:1562   */\n  swap4\n  swap3\n  pop\n  pop\n  pop\n  jump\t// out\n    /* \"#utility.yul\":1568:1645   */\ntag_18:\n    /* \"#utility.yul\":1605:1612   */\n  0x00\n    /* \"#utility.yul\":1634:1639   */\n  dup2\n    /* \"#utility.yul\":1623:1639   */\n  swap1\n  pop\n    /* \"#utility.yul\":1568:1645   */\n  swap2\n  swap1\n  pop\n  jump\t// out\n    /* \"#utility.yul\":1651:1711   */\ntag_19:\n    /* \"#utility.yul\":1679:1682   */\n  0x00\n    /* \"#utility.yul\":1700:1705   */\n  dup2\n    /* \"#utility.yul\":1693:1705   */\n  swap1\n  pop\n    /* \"#utility.yul\":1651:1711   */\n  swap2\n  swap1\n  pop\n  jump\t// out\n    /* \"#utility.yul\":1717:1859   */\ntag_20:\n    /* \"#utility.yul\":1767:1776   */\n  0x00\n    /* \"#utility.yul\":1800:1853   */\n  tag_47\n    /* \"#utility.yul\":1818:1852   */\n  tag_48\n    /* \"#utility.yul\":1827:1851   */\n  tag_49\n    /* \"#utility.yul\":1845:1850   */\n  dup5\n    /* \"#utility.yul\":1827:1851   */\n  tag_18\n  jump\t// in\ntag_49:\n    /* \"#utility.yul\":1818:1852   */\n  tag_19\n  jump\t// in\ntag_48:\n    /* \"#utility.yul\":1800:1853   */\n  tag_18\n  jump\t// in\ntag_47:\n    /* \"#utility.yul\":1787:1853   */\n  swap1\n  pop\n    /* \"#utility.yul\":1717:1859   */\n  swap2\n  swap1\n  pop\n  jump\t// out\n    /* \"#utility.yul\":1865:1940   */\ntag_21:\n    /* \"#utility.yul\":1908:1911   */\n  0x00\n    /* \"#utility.yul\":1929:1934   */\n  dup2\n    /* \"#utility.yul\":1922:1934   */\n  swap1\n  pop\n    /* \"#utility.yul\":1865:1940   */\n  swap2\n  swap1\n  pop\n  jump\t// out\n    /* \"#utility.yul\":1946:2215   */\ntag_22:\n    /* \"#utility.yul\":2056:2095   */\n  tag_52\n    /* \"#utility.yul\":2087:2094   */\n  dup4\n    /* \"#utility.yul\":2056:2095   */\n  tag_20\n  jump\t// in\ntag_52:\n    /* \"#utility.yul\":2117:2208   */\n  tag_53\n    /* \"#utility.yul\":2166:2207   */\n  tag_54\n    /* \"#utility.yul\":2190:2206   */\n  dup3\n    /* \"#utility.yul\":2166:2207   */\n  tag_21\n  jump\t// in\ntag_54:\n    /* \"#utility.yul\":2158:2164   */\n  dup5\n    /* \"#utility.yul\":2151:2155   */\n  dup5\n    /* \"#utility.yul\":2145:2156   */\n  sload\n    /* \"#utility.yul\":2117:2208   */\n  tag_17\n  jump\t// in\ntag_53:\n    /* \"#utility.yul\":2111:2115   */\n  dup3\n    /* \"#utility.yul\":2104:2209   */\n  sstore\n    /* \"#utility.yul\":2022:2215   */\n  pop\n    /* \"#utility.yul\":1946:2215   */\n  pop\n  pop\n  pop\n  jump\t// out\n    /* \"#utility.yul\":2221:2294   */\ntag_23:\n    /* \"#utility.yul\":2266:2269   */\n  0x00\n    /* \"#utility.yul\":2221:2294   */\n  swap1\n  jump\t// out\n    /* \"#utility.yul\":2300:2489   */\ntag_24:\n    /* \"#utility.yul\":2377:2409   */\n  tag_57\n  tag_23\n  jump\t// in\ntag_57:\n    /* \"#utility.yul\":2418:2483   */\n  tag_58\n    /* \"#utility.yul\":2476:2482   */\n  dup2\n    /* \"#utility.yul\":2468:2474   */\n  dup5\n    /* \"#utility.yul\":2462:2466   */\n  dup5\n    /* \"#utility.yul\":2418:2483   */\n  tag_22\n  jump\t// in\ntag_58:\n    /* \"#utility.yul\":2353:2489   */\n  pop\n    /* \"#utility.yul\":2300:2489   */\n  pop\n  pop\n  jump\t// out\n    /* \"#utility.yul\":2495:2681   */\ntag_25:\n    /* \"#utility.yul\":2555:2675   */\ntag_60:\n    /* \"#utility.yul\":2572:2575   */\n  dup2\n    /* \"#utility.yul\":2565:2570   */\n  dup2\n    /* \"#utility.yul\":2562:2576   */\n  lt\n    /* \"#utility.yul\":2555:2675   */\n  iszero\n  tag_62\n  jumpi\n    /* \"#utility.yul\":2626:2665   */\n  tag_63\n    /* \"#utility.yul\":2663:2664   */\n  0x00\n    /* \"#utility.yul\":2656:2661   */\n  dup3\n    /* \"#utility.yul\":2626:2665   */\n  tag_24\n  jump\t// in\ntag_63:\n    /* \"#utility.yul\":2599:2600   */\n  0x01\n    /* \"#utility.yul\":2592:2597   */\n  dup2\n    /* \"#utility.yul\":2588:2601   */\n  add\n    /* \"#utility.yul\":2579:2601   */\n  swap1\n  pop\n    /* \"#utility.yul\":2555:2675   */\n  jump(tag_60)\ntag_62:\n    /* \"#utility.yul\":2495:2681   */\n  pop\n  pop\n  jump\t// out\n    /* \"#utility.yul\":2687:3230   */\ntag_26:\n    /* \"#utility.yul\":2788:2790   */\n  0x1f\n    /* \"#utility.yul\":2783:2786   */\n  dup3\n    /* \"#utility.yul\":2780:2791   */\n  gt\n    /* \"#utility.yul\":2777:3223   */\n  iszero\n  tag_65\n  jumpi\n    /* \"#utility.yul\":2822:2860   */\n  tag_66\n    /* \"#utility.yul\":2854:2859   */\n  dup2\n    /* \"#utility.yul\":2822:2860   */\n  tag_14\n  jump\t// in\ntag_66:\n    /* \"#utility.yul\":2906:2935   */\n  tag_67\n    /* \"#utility.yul\":2924:2934   */\n  dup5\n    /* \"#utility.yul\":2906:2935   */\n  tag_15\n  jump\t// in\ntag_67:\n    /* \"#utility.yul\":2896:2904   */\n  dup2\n    /* \"#utility.yul\":2892:2936   */\n  add\n    /* \"#utility.yul\":3089:3091   */\n  0x20\n    /* \"#utility.yul\":3077:3087   */\n  dup6\n    /* \"#utility.yul\":3074:3092   */\n  lt\n    /* \"#utility.yul\":3071:3120   */\n  iszero\n  tag_68\n  jumpi\n    /* \"#utility.yul\":3110:3118   */\n  dup2\n    /* \"#utility.yul\":3095:3118   */\n  swap1\n  pop\n    /* \"#utility.yul\":3071:3120   */\ntag_68:\n    /* \"#utility.yul\":3133:3213   */\n  tag_69\n    /* \"#utility.yul\":3189:3211   */\n  tag_70\n    /* \"#utility.yul\":3207:3210   */\n  dup6\n    /* \"#utility.yul\":3189:3211   */\n  tag_15\n  jump\t// in\ntag_70:\n    /* \"#utility.yul\":3179:3187   */\n  dup4\n    /* \"#utility.yul\":3175:3212   */\n  add\n    /* \"#utility.yul\":3162:3173   */\n  dup3\n    /* \"#utility.yul\":3133:3213   */\n  tag_25\n  jump\t// in\ntag_69:\n    /* \"#utility.yul\":2792:3223   */\n  pop\n  pop\n    /* \"#utility.yul\":2777:3223   */\ntag_65:\n    /* \"#utility.yul\":2687:3230   */\n  pop\n  pop\n  pop\n  jump\t// out\n    /* \"#utility.yul\":3236:3353   */\ntag_27:\n    /* \"#utility.yul\":3290:3298   */\n  0x00\n    /* \"#utility.yul\":3340:3345   */\n  dup3\n    /* \"#utility.yul\":3334:3338   */\n  dup3\n    /* \"#utility.yul\":3330:3346   */\n  shr\n    /* \"#utility.yul\":3309:3346   */\n  swap1\n  pop\n    /* \"#utility.yul\":3236:3353   */\n  swap3\n  swap2\n  pop\n  pop\n  jump\t// out\n    /* \"#utility.yul\":3359:3528   */\ntag_28:\n    /* \"#utility.yul\":3403:3409   */\n  0x00\n    /* \"#utility.yul\":3436:3487   */\n  tag_73\n    /* \"#utility.yul\":3484:3485   */\n  0x00\n    /* \"#utility.yul\":3480:3486   */\n  not\n    /* \"#utility.yul\":3472:3477   */\n  dup5\n    /* \"#utility.yul\":3469:3470   */\n  0x08\n    /* \"#utility.yul\":3465:3478   */\n  mul\n    /* \"#utility.yul\":3436:3487   */\n  tag_27\n  jump\t// in\ntag_73:\n    /* \"#utility.yul\":3432:3488   */\n  not\n    /* \"#utility.yul\":3517:3521   */\n  dup1\n    /* \"#utility.yul\":3511:3515   */\n  dup4\n    /* \"#utility.yul\":3507:3522   */\n  and\n    /* \"#utility.yul\":3497:3522   */\n  swap2\n  pop\n    /* \"#utility.yul\":3410:3528   */\n  pop\n    /* \"#utility.yul\":3359:3528   */\n  swap3\n  swap2\n  pop\n  pop\n  jump\t// out\n    /* \"#utility.yul\":3533:3828   */\ntag_29:\n    /* \"#utility.yul\":3609:3613   */\n  0x00\n    /* \"#utility.yul\":3755:3784   */\n  tag_75\n    /* \"#utility.yul\":3780:3783   */\n  dup4\n    /* \"#utility.yul\":3774:3778   */\n  dup4\n    /* \"#utility.yul\":3755:3784   */\n  tag_28\n  jump\t// in\ntag_75:\n    /* \"#utility.yul\":3747:3784   */\n  swap2\n  pop\n    /* \"#utility.yul\":3817:3820   */\n  dup3\n    /* \"#utility.yul\":3814:3815   */\n  0x02\n    /* \"#utility.yul\":3810:3821   */\n  mul\n    /* \"#utility.yul\":3804:3808   */\n  dup3\n    /* \"#utility.yul\":3801:3822   */\n  or\n    /* \"#utility.yul\":3793:3822   */\n  swap1\n  pop\n    /* \"#utility.yul\":3533:3828   */\n  swap3\n  swap2\n  pop\n  pop\n  jump\t// out\n    /* \"#utility.yul\":3833:5228   */\ntag_6:\n    /* \"#utility.yul\":3950:3987   */\n  tag_77\n    /* \"#utility.yul\":3983:3986   */\n  dup3\n    /* \"#utility.yul\":3950:3987   */\n  tag_10\n  jump\t// in\ntag_77:\n    /* \"#utility.yul\":4052:4070   */\n  0xffffffffffffffff\n    /* \"#utility.yul\":4044:4050   */\n  dup2\n    /* \"#utility.yul\":4041:4071   */\n  gt\n    /* \"#utility.yul\":4038:4094   */\n  iszero\n  tag_78\n  jumpi\n    /* \"#utility.yul\":4074:4092   */\n  tag_79\n  tag_11\n  jump\t// in\ntag_79:\n    /* \"#utility.yul\":4038:4094   */\ntag_78:\n    /* \"#utility.yul\":4118:4156   */\n  tag_80\n    /* \"#utility.yul\":4150:4154   */\n  dup3\n    /* \"#utility.yul\":4144:4155   */\n  sload\n    /* \"#utility.yul\":4118:4156   */\n  tag_13\n  jump\t// in\ntag_80:\n    /* \"#utility.yul\":4203:4270   */\n  tag_81\n    /* \"#utility.yul\":4263:4269   */\n  dup3\n    /* \"#utility.yul\":4255:4261   */\n  dup3\n    /* \"#utility.yul\":4249:4253   */\n  dup6\n    /* \"#utility.yul\":4203:4270   */\n  tag_26\n  jump\t// in\ntag_81:\n    /* \"#utility.yul\":4297:4298   */\n  0x00\n    /* \"#utility.yul\":4321:4325   */\n  0x20\n    /* \"#utility.yul\":4308:4325   */\n  swap1\n  pop\n    /* \"#utility.yul\":4353:4355   */\n  0x1f\n    /* \"#utility.yul\":4345:4351   */\n  dup4\n    /* \"#utility.yul\":4342:4356   */\n  gt\n    /* \"#utility.yul\":4370:4371   */\n  0x01\n    /* \"#utility.yul\":4365:4983   */\n  dup2\n  eq\n  tag_83\n  jumpi\n    /* \"#utility.yul\":5027:5028   */\n  0x00\n    /* \"#utility.yul\":5044:5050   */\n  dup5\n    /* \"#utility.yul\":5041:5118   */\n  iszero\n  tag_84\n  jumpi\n    /* \"#utility.yul\":5093:5102   */\n  dup3\n    /* \"#utility.yul\":5088:5091   */\n  dup8\n    /* \"#utility.yul\":5084:5103   */\n  add\n    /* \"#utility.yul\":5078:5104   */\n  mload\n    /* \"#utility.yul\":5069:5104   */\n  swap1\n  pop\n    /* \"#utility.yul\":5041:5118   */\ntag_84:\n    /* \"#utility.yul\":5144:5211   */\n  tag_85\n    /* \"#utility.yul\":5204:5210   */\n  dup6\n    /* \"#utility.yul\":5197:5202   */\n  dup3\n    /* \"#utility.yul\":5144:5211   */\n  tag_29\n  jump\t// in\ntag_85:\n    /* \"#utility.yul\":5138:5142   */\n  dup7\n    /* \"#utility.yul\":5131:5212   */\n  sstore\n    /* \"#utility.yul\":5000:5222   */\n  pop\n    /* \"#utility.yul\":4335:5222   */\n  jump(tag_82)\n    /* \"#utility.yul\":4365:4983   */\ntag_83:\n    /* \"#utility.yul\":4417:4421   */\n  0x1f\n    /* \"#utility.yul\":4413:4422   */\n  not\n    /* \"#utility.yul\":4405:4411   */\n  dup5\n    /* \"#utility.yul\":4401:4423   */\n  and\n    /* \"#utility.yul\":4451:4488   */\n  tag_86\n    /* \"#utility.yul\":4483:4487   */\n  dup7\n    /* \"#utility.yul\":4451:4488   */\n  tag_14\n  jump\t// in\ntag_86:\n    /* \"#utility.yul\":4510:4511   */\n  0x00\n    /* \"#utility.yul\":4524:4732   */\ntag_87:\n    /* \"#utility.yul\":4538:4545   */\n  dup3\n    /* \"#utility.yul\":4535:4536   */\n  dup2\n    /* \"#utility.yul\":4532:4546   */\n  lt\n    /* \"#utility.yul\":4524:4732   */\n  iszero\n  tag_89\n  jumpi\n    /* \"#utility.yul\":4617:4626   */\n  dup5\n    /* \"#utility.yul\":4612:4615   */\n  dup10\n    /* \"#utility.yul\":4608:4627   */\n  add\n    /* \"#utility.yul\":4602:4628   */\n  mload\n    /* \"#utility.yul\":4594:4600   */\n  dup3\n    /* \"#utility.yul\":4587:4629   */\n  sstore\n    /* \"#utility.yul\":4668:4669   */\n  0x01\n    /* \"#utility.yul\":4660:4666   */\n  dup3\n    /* \"#utility.yul\":4656:4670   */\n  add\n    /* \"#utility.yul\":4646:4670   */\n  swap2\n  pop\n    /* \"#utility.yul\":4715:4717   */\n  0x20\n    /* \"#utility.yul\":4704:4713   */\n  dup6\n    /* \"#utility.yul\":4700:4718   */\n  add\n    /* \"#utility.yul\":4687:4718   */\n  swap5\n  pop\n    /* \"#utility.yul\":4561:4565   */\n  0x20\n    /* \"#utility.yul\":4558:4559   */\n  dup2\n    /* \"#utility.yul\":4554:4566   */\n  add\n    /* \"#utility.yul\":4549:4566   */\n  swap1\n  pop\n    /* \"#utility.yul\":4524:4732   */\n  jump(tag_87)\ntag_89:\n    /* \"#utility.yul\":4760:4766   */\n  dup7\n    /* \"#utility.yul\":4751:4758   */\n  dup4\n    /* \"#utility.yul\":4748:4767   */\n  lt\n    /* \"#utility.yul\":4745:4924   */\n  iszero\n  tag_90\n  jumpi\n    /* \"#utility.yul\":4818:4827   */\n  dup5\n    /* \"#utility.yul\":4813:4816   */\n  dup10\n    /* \"#utility.yul\":4809:4828   */\n  add\n    /* \"#utility.yul\":4803:4829   */\n  mload\n    /* \"#utility.yul\":4861:4909   */\n  tag_91\n    /* \"#utility.yul\":4903:4907   */\n  0x1f\n    /* \"#utility.yul\":4895:4901   */\n  dup10\n    /* \"#utility.yul\":4891:4908   */\n  and\n    /* \"#utility.yul\":4880:4889   */\n  dup3\n    /* \"#utility.yul\":4861:4909   */\n  tag_28\n  jump\t// in\ntag_91:\n    /* \"#utility.yul\":4853:4859   */\n  dup4\n    /* \"#utility.yul\":4846:4910   */\n  sstore\n    /* \"#utility.yul\":4768:4924   */\n  pop\n    /* \"#utility.yul\":4745:4924   */\ntag_90:\n    /* \"#utility.yul\":4970:4971   */\n  0x01\n    /* \"#utility.yul\":4966:4967   */\n  0x02\n    /* \"#utility.yul\":4958:4964   */\n  dup9\n    /* \"#utility.yul\":4954:4968   */\n  mul\n    /* \"#utility.yul\":4950:4972   */\n  add\n    /* \"#utility.yul\":4944:4948   */\n  dup9\n    /* \"#utility.yul\":4937:4973   */\n  sstore\n    /* \"#utility.yul\":4372:4983   */\n  pop\n  pop\n  pop\n    /* \"#utility.yul\":4335:5222   */\ntag_82:\n  pop\n    /* \"#utility.yul\":3925:5228   */\n  pop\n  pop\n  pop\n    /* \"#utility.yul\":3833:5228   */\n  pop\n  pop\n  jump\t// out\n    /* \"contracts/PetRegistry.sol\":199:3199  contract PetRegistry is ERC721 {... */\ntag_9:\n  dataSize(sub_0)\n  dup1\n  dataOffset(sub_0)\n  0x00\n  codecopy\n  0x00\n  return\nstop\n\nsub_0: assembly {\n        /* \"contracts/PetRegistry.sol\":199:3199  contract PetRegistry is ERC721 {... */\n      mstore(0x40, 0x80)\n      jumpi(tag_1, lt(calldatasize, 0x04))\n      shr(0xe0, calldataload(0x00))\n      dup1\n      0x70a08231\n      gt\n      tag_26\n      jumpi\n      dup1\n      0xb92d9ad2\n      gt\n      tag_27\n      jumpi\n      dup1\n      0xb92d9ad2\n      eq\n      tag_20\n      jumpi\n      dup1\n      0xc87b56dd\n      eq\n      tag_21\n      jumpi\n      dup1\n      0xcfb869bf\n      eq\n      tag_22\n      jumpi\n      dup1\n      0xd67b98a9\n      eq\n      tag_23\n      jumpi\n      dup1\n      0xe0abca0b\n      eq\n      tag_24\n      jumpi\n      dup1\n      0xe985e9c5\n      eq\n      tag_25\n      jumpi\n      jump(tag_1)\n    tag_27:\n      dup1\n      0x70a08231\n      eq\n      tag_14\n      jumpi\n      dup1\n      0x8da5cb5b\n      eq\n      tag_15\n      jumpi\n      dup1\n      0x95d89b41\n      eq\n      tag_16\n      jumpi\n      dup1\n      0xa22cb465\n      eq\n      tag_17\n      jumpi\n      dup1\n      0xaf582c6b\n      eq\n      tag_18\n      jumpi\n      dup1\n      0xb88d4fde\n      eq\n      tag_19\n      jumpi\n      jump(tag_1)\n    tag_26:\n      dup1\n      0x23fb9afb\n      gt\n      tag_28\n      jumpi\n      dup1\n      0x23fb9afb\n      eq\n      tag_8\n      jumpi\n      dup1\n      0x3ccfd60b\n      eq\n      tag_9\n      jumpi\n      dup1\n      0x42842e0e\n      eq\n      tag_10\n      jumpi\n      dup1\n      0x43e62f28\n      eq\n      tag_11\n      jumpi\n      dup1\n      0x61bc221a\n      eq\n      tag_12\n      jumpi\n      dup1\n      0x6352211e\n      eq\n      tag_13\n      jumpi\n      jump(tag_1)\n    tag_28:\n      dup1\n      0x01ffc9a7\n      eq\n      tag_2\n      jumpi\n      dup1\n      0x06fdde03\n      eq\n      tag_3\n      jumpi\n      dup1\n      0x081812fc\n      eq\n      tag_4\n      jumpi\n      dup1\n      0x095ea7b3\n      eq\n      tag_5\n      jumpi\n      dup1\n      0x12065fe0\n      eq\n      tag_6\n      jumpi\n      dup1\n      0x23b872dd\n      eq\n      tag_7\n      jumpi\n    tag_1:\n      0x00\n      dup1\n      revert\n        /* \"@openzeppelin/contracts/token/ERC721/ERC721.sol\":1561:1861  function supportsInterface(bytes4 interfaceId) public view virtual override(ERC165, IERC165) returns (bool) {... */\n    tag_2:\n      callvalue\n      dup1\n      iszero\n      tag_29\n      jumpi\n      0x00\n      dup1\n      revert\n    tag_29:\n      pop\n      tag_30\n      0x04\n      dup1\n      calldatasize\n      sub\n      dup2\n      add\n      swap1\n      tag_31\n      swap2\n      swap1\n      tag_32\n      jump\t// in\n    tag_31:\n      tag_33\n      jump\t// in\n    tag_30:\n      mload(0x40)\n      tag_34\n      swap2\n      swap1\n      tag_35\n      jump\t// in\n    tag_34:\n      mload(0x40)\n      dup1\n      swap2\n      sub\n      swap1\n      return\n        /* \"@openzeppelin/contracts/token/ERC721/ERC721.sol\":2365:2454  function name() public view virtual returns (string memory) {... */\n    tag_3:\n      callvalue\n      dup1\n      iszero\n      tag_36\n      jumpi\n      0x00\n      dup1\n      revert\n    tag_36:\n      pop\n      tag_37\n      tag_38\n      jump\t// in\n    tag_37:\n      mload(0x40)\n      tag_39\n      swap2\n      swap1\n      tag_40\n      jump\t// in\n    tag_39:\n      mload(0x40)\n      dup1\n      swap2\n      sub\n      swap1\n      return\n        /* \"@openzeppelin/contracts/token/ERC721/ERC721.sol\":3497:3651  function getApproved(uint256 tokenId) public view virtual returns (address) {... */\n    tag_4:\n      callvalue\n      dup1\n      iszero\n      tag_41\n      jumpi\n      0x00\n      dup1\n      revert\n    tag_41:\n      pop\n      tag_42\n      0x04\n      dup1\n      calldatasize\n      sub\n      dup2\n      add\n      swap1\n      tag_43\n      swap2\n      swap1\n      tag_44\n      jump\t// in\n    tag_43:\n      tag_45\n      jump\t// in\n    tag_42:\n      mload(0x40)\n      tag_46\n      swap2\n      swap1\n      tag_47\n      jump\t// in\n    tag_46:\n      mload(0x40)\n      dup1\n      swap2\n      sub\n      swap1\n      return\n        /* \"@openzeppelin/contracts/token/ERC721/ERC721.sol\":3323:3436  function approve(address to, uint256 tokenId) public virtual {... */\n    tag_5:\n      callvalue\n      dup1\n      iszero\n      tag_48\n      jumpi\n      0x00\n      dup1\n      revert\n    tag_48:\n      pop\n      tag_49\n      0x04\n      dup1\n      calldatasize\n      sub\n      dup2\n      add\n      swap1\n      tag_50\n      swap2\n      swap1\n      tag_51\n      jump\t// in\n    tag_50:\n      tag_52\n      jump\t// in\n    tag_49:\n      stop\n        /* \"contracts/PetRegistry.sol\":3097:3196  function getBalance() public view returns (uint256) {... */\n    tag_6:\n      callvalue\n      dup1\n      iszero\n      tag_53\n      jumpi\n      0x00\n      dup1\n      revert\n    tag_53:\n      pop\n      tag_54\n      tag_55\n      jump\t// in\n    tag_54:\n      mload(0x40)\n      tag_56\n      swap2\n      swap1\n      tag_57\n      jump\t// in\n    tag_56:\n      mload(0x40)\n      dup1\n      swap2\n      sub\n      swap1\n      return\n        /* \"@openzeppelin/contracts/token/ERC721/ERC721.sol\":4143:4721  function transferFrom(address from, address to, uint256 tokenId) public virtual {... */\n    tag_7:\n      callvalue\n      dup1\n      iszero\n      tag_58\n      jumpi\n      0x00\n      dup1\n      revert\n    tag_58:\n      pop\n      tag_59\n      0x04\n      dup1\n      calldatasize\n      sub\n      dup2\n      add\n      swap1\n      tag_60\n      swap2\n      swap1\n      tag_61\n      jump\t// in\n    tag_60:\n      tag_62\n      jump\t// in\n    tag_59:\n      stop\n        /* \"contracts/PetRegistry.sol\":671:704  uint256 public usdRegistrationFee */\n    tag_8:\n      callvalue\n      dup1\n      iszero\n      tag_63\n      jumpi\n      0x00\n      dup1\n      revert\n    tag_63:\n      pop\n      tag_64\n      tag_65\n      jump\t// in\n    tag_64:\n      mload(0x40)\n      tag_66\n      swap2\n      swap1\n      tag_57\n      jump\t// in\n    tag_66:\n      mload(0x40)\n      dup1\n      swap2\n      sub\n      swap1\n      return\n        /* \"contracts/PetRegistry.sol\":2987:3089  function withdraw() public onlyOwner {... */\n    tag_9:\n      callvalue\n      dup1\n      iszero\n      tag_67\n      jumpi\n      0x00\n      dup1\n      revert\n    tag_67:\n      pop\n      tag_68\n      tag_69\n      jump\t// in\n    tag_68:\n      stop\n        /* \"@openzeppelin/contracts/token/ERC721/ERC721.sol\":4787:4919  function safeTransferFrom(address from, address to, uint256 tokenId) public {... */\n    tag_10:\n      callvalue\n      dup1\n      iszero\n      tag_70\n      jumpi\n      0x00\n      dup1\n      revert\n    tag_70:\n      pop\n      tag_71\n      0x04\n      dup1\n      calldatasize\n      sub\n      dup2\n      add\n      swap1\n      tag_72\n      swap2\n      swap1\n      tag_61\n      jump\t// in\n    tag_72:\n      tag_73\n      jump\t// in\n    tag_71:\n      stop\n        /* \"contracts/PetRegistry.sol\":2552:2979  function registerPet(... */\n    tag_11:\n      tag_74\n      0x04\n      dup1\n      calldatasize\n      sub\n      dup2\n      add\n      swap1\n      tag_75\n      swap2\n      swap1\n      tag_76\n      jump\t// in\n    tag_75:\n      tag_77\n      jump\t// in\n    tag_74:\n      stop\n        /* \"contracts/PetRegistry.sol\":642:664  uint256 public counter */\n    tag_12:\n      callvalue\n      dup1\n      iszero\n      tag_78\n      jumpi\n      0x00\n      dup1\n      revert\n    tag_78:\n      pop\n      tag_79\n      tag_80\n      jump\t// in\n    tag_79:\n      mload(0x40)\n      tag_81\n      swap2\n      swap1\n      tag_57\n      jump\t// in\n    tag_81:\n      mload(0x40)\n      dup1\n      swap2\n      sub\n      swap1\n      return\n        /* \"@openzeppelin/contracts/token/ERC721/ERC721.sol\":2185:2303  function ownerOf(uint256 tokenId) public view virtual returns (address) {... */\n    tag_13:\n      callvalue\n      dup1\n      iszero\n      tag_82\n      jumpi\n      0x00\n      dup1\n      revert\n    tag_82:\n      pop\n      tag_83\n      0x04\n      dup1\n      calldatasize\n      sub\n      dup2\n      add\n      swap1\n      tag_84\n      swap2\n      swap1\n      tag_44\n      jump\t// in\n    tag_84:\n      tag_85\n      jump\t// in\n    tag_83:\n      mload(0x40)\n      tag_86\n      swap2\n      swap1\n      tag_47\n      jump\t// in\n    tag_86:\n      mload(0x40)\n      dup1\n      swap2\n      sub\n      swap1\n      return\n        /* \"@openzeppelin/contracts/token/ERC721/ERC721.sol\":1920:2128  function balanceOf(address owner) public view virtual returns (uint256) {... */\n    tag_14:\n      callvalue\n      dup1\n      iszero\n      tag_87\n      jumpi\n      0x00\n      dup1\n      revert\n    tag_87:\n      pop\n      tag_88\n      0x04\n      dup1\n      calldatasize\n      sub\n      dup2\n      add\n      swap1\n      tag_89\n      swap2\n      swap1\n      tag_90\n      jump\t// in\n    tag_89:\n      tag_91\n      jump\t// in\n    tag_88:\n      mload(0x40)\n      tag_92\n      swap2\n      swap1\n      tag_57\n      jump\t// in\n    tag_92:\n      mload(0x40)\n      dup1\n      swap2\n      sub\n      swap1\n      return\n        /* \"contracts/PetRegistry.sol\":711:731  address public owner */\n    tag_15:\n      callvalue\n      dup1\n      iszero\n      tag_93\n      jumpi\n      0x00\n      dup1\n      revert\n    tag_93:\n      pop\n      tag_94\n      tag_95\n      jump\t// in\n    tag_94:\n      mload(0x40)\n      tag_96\n      swap2\n      swap1\n      tag_47\n      jump\t// in\n    tag_96:\n      mload(0x40)\n      dup1\n      swap2\n      sub\n      swap1\n      return\n        /* \"@openzeppelin/contracts/token/ERC721/ERC721.sol\":2518:2611  function symbol() public view virtual returns (string memory) {... */\n    tag_16:\n      callvalue\n      dup1\n      iszero\n      tag_97\n      jumpi\n      0x00\n      dup1\n      revert\n    tag_97:\n      pop\n      tag_98\n      tag_99\n      jump\t// in\n    tag_98:\n      mload(0x40)\n      tag_100\n      swap2\n      swap1\n      tag_40\n      jump\t// in\n    tag_100:\n      mload(0x40)\n      dup1\n      swap2\n      sub\n      swap1\n      return\n        /* \"@openzeppelin/contracts/token/ERC721/ERC721.sol\":3718:3862  function setApprovalForAll(address operator, bool approved) public virtual {... */\n    tag_17:\n      callvalue\n      dup1\n      iszero\n      tag_101\n      jumpi\n      0x00\n      dup1\n      revert\n    tag_101:\n      pop\n      tag_102\n      0x04\n      dup1\n      calldatasize\n      sub\n      dup2\n      add\n      swap1\n      tag_103\n      swap2\n      swap1\n      tag_104\n      jump\t// in\n    tag_103:\n      tag_105\n      jump\t// in\n    tag_102:\n      stop\n        /* \"contracts/PetRegistry.sol\":1823:1935  function updateRegistrationFee(uint256 _newFee) public onlyOwner {... */\n    tag_18:\n      callvalue\n      dup1\n      iszero\n      tag_106\n      jumpi\n      0x00\n      dup1\n      revert\n    tag_106:\n      pop\n      tag_107\n      0x04\n      dup1\n      calldatasize\n      sub\n      dup2\n      add\n      swap1\n      tag_108\n      swap2\n      swap1\n      tag_44\n      jump\t// in\n    tag_108:\n      tag_109\n      jump\t// in\n    tag_107:\n      stop\n        /* \"@openzeppelin/contracts/token/ERC721/ERC721.sol\":4985:5193  function safeTransferFrom(address from, address to, uint256 tokenId, bytes memory data) public virtual {... */\n    tag_19:\n      callvalue\n      dup1\n      iszero\n      tag_110\n      jumpi\n      0x00\n      dup1\n      revert\n    tag_110:\n      pop\n      tag_111\n      0x04\n      dup1\n      calldatasize\n      sub\n      dup2\n      add\n      swap1\n      tag_112\n      swap2\n      swap1\n      tag_113\n      jump\t// in\n    tag_112:\n      tag_114\n      jump\t// in\n    tag_111:\n      stop\n        /* \"contracts/PetRegistry.sol\":1593:1815  function getEthRegistrationFeeInWei() public view returns (uint256) {... */\n    tag_20:\n      callvalue\n      dup1\n      iszero\n      tag_115\n      jumpi\n      0x00\n      dup1\n      revert\n    tag_115:\n      pop\n      tag_116\n      tag_117\n      jump\t// in\n    tag_116:\n      mload(0x40)\n      tag_118\n      swap2\n      swap1\n      tag_57\n      jump\t// in\n    tag_118:\n      mload(0x40)\n      dup1\n      swap2\n      sub\n      swap1\n      return\n        /* \"@openzeppelin/contracts/token/ERC721/ERC721.sol\":2677:2932  function tokenURI(uint256 tokenId) public view virtual returns (string memory) {... */\n    tag_21:\n      callvalue\n      dup1\n      iszero\n      tag_119\n      jumpi\n      0x00\n      dup1\n      revert\n    tag_119:\n      pop\n      tag_120\n      0x04\n      dup1\n      calldatasize\n      sub\n      dup2\n      add\n      swap1\n      tag_121\n      swap2\n      swap1\n      tag_44\n      jump\t// in\n    tag_121:\n      tag_122\n      jump\t// in\n    tag_120:\n      mload(0x40)\n      tag_123\n      swap2\n      swap1\n      tag_40\n      jump\t// in\n    tag_123:\n      mload(0x40)\n      dup1\n      swap2\n      sub\n      swap1\n      return\n        /* \"contracts/PetRegistry.sol\":598:633  mapping(uint256 => Pet) public pets */\n    tag_22:\n      callvalue\n      dup1\n      iszero\n      tag_124\n      jumpi\n      0x00\n      dup1\n      revert\n    tag_124:\n      pop\n      tag_125\n      0x04\n      dup1\n      calldatasize\n      sub\n      dup2\n      add\n      swap1\n      tag_126\n      swap2\n      swap1\n      tag_44\n      jump\t// in\n    tag_126:\n      tag_127\n      jump\t// in\n    tag_125:\n      mload(0x40)\n      tag_128\n      swap9\n      swap8\n      swap7\n      swap6\n      swap5\n      swap4\n      swap3\n      swap2\n      swap1\n      tag_129\n      jump\t// in\n    tag_128:\n      mload(0x40)\n      dup1\n      swap2\n      sub\n      swap1\n      return\n        /* \"contracts/PetRegistry.sol\":1241:1585  function getEthPriceInUsd() public view returns (uint256){... */\n    tag_23:\n      callvalue\n      dup1\n      iszero\n      tag_130\n      jumpi\n      0x00\n      dup1\n      revert\n    tag_130:\n      pop\n      tag_131\n      tag_132\n      jump\t// in\n    tag_131:\n      mload(0x40)\n      tag_133\n      swap2\n      swap1\n      tag_57\n      jump\t// in\n    tag_133:\n      mload(0x40)\n      dup1\n      swap2\n      sub\n      swap1\n      return\n        /* \"contracts/PetRegistry.sol\":288:319  address public priceFeedAddress */\n    tag_24:\n      callvalue\n      dup1\n      iszero\n      tag_134\n      jumpi\n      0x00\n      dup1\n      revert\n    tag_134:\n      pop\n      tag_135\n      tag_136\n      jump\t// in\n    tag_135:\n      mload(0x40)\n      tag_137\n      swap2\n      swap1\n      tag_47\n      jump\t// in\n    tag_137:\n      mload(0x40)\n      dup1\n      swap2\n      sub\n      swap1\n      return\n        /* \"@openzeppelin/contracts/token/ERC721/ERC721.sol\":3928:4081  function isApprovedForAll(address owner, address operator) public view virtual returns (bool) {... */\n    tag_25:\n      callvalue\n      dup1\n      iszero\n      tag_138\n      jumpi\n      0x00\n      dup1\n      revert\n    tag_138:\n      pop\n      tag_139\n      0x04\n      dup1\n      calldatasize\n      sub\n      dup2\n      add\n      swap1\n      tag_140\n      swap2\n      swap1\n      tag_141\n      jump\t// in\n    tag_140:\n      tag_142\n      jump\t// in\n    tag_139:\n      mload(0x40)\n      tag_143\n      swap2\n      swap1\n      tag_35\n      jump\t// in\n    tag_143:\n      mload(0x40)\n      dup1\n      swap2\n      sub\n      swap1\n      return\n        /* \"@openzeppelin/contracts/token/ERC721/ERC721.sol\":1561:1861  function supportsInterface(bytes4 interfaceId) public view virtual override(ERC165, IERC165) returns (bool) {... */\n    tag_33:\n        /* \"@openzeppelin/contracts/token/ERC721/ERC721.sol\":1663:1667  bool */\n      0x00\n        /* \"@openzeppelin/contracts/token/ERC721/ERC721.sol\":1713:1738  type(IERC721).interfaceId */\n      0x80ac58cd00000000000000000000000000000000000000000000000000000000\n        /* \"@openzeppelin/contracts/token/ERC721/ERC721.sol\":1698:1738  interfaceId == type(IERC721).interfaceId */\n      not(0xffffffffffffffffffffffffffffffffffffffffffffffffffffffff)\n      and\n        /* \"@openzeppelin/contracts/token/ERC721/ERC721.sol\":1698:1709  interfaceId */\n      dup3\n        /* \"@openzeppelin/contracts/token/ERC721/ERC721.sol\":1698:1738  interfaceId == type(IERC721).interfaceId */\n      not(0xffffffffffffffffffffffffffffffffffffffffffffffffffffffff)\n      and\n      eq\n        /* \"@openzeppelin/contracts/token/ERC721/ERC721.sol\":1698:1802  interfaceId == type(IERC721).interfaceId ||... */\n      dup1\n      tag_145\n      jumpi\n      pop\n        /* \"@openzeppelin/contracts/token/ERC721/ERC721.sol\":1769:1802  type(IERC721Metadata).interfaceId */\n      0x5b5e139f00000000000000000000000000000000000000000000000000000000\n        /* \"@openzeppelin/contracts/token/ERC721/ERC721.sol\":1754:1802  interfaceId == type(IERC721Metadata).interfaceId */\n      not(0xffffffffffffffffffffffffffffffffffffffffffffffffffffffff)\n      and\n        /* \"@openzeppelin/contracts/token/ERC721/ERC721.sol\":1754:1765  interfaceId */\n      dup3\n        /* \"@openzeppelin/contracts/token/ERC721/ERC721.sol\":1754:1802  interfaceId == type(IERC721Metadata).interfaceId */\n      not(0xffffffffffffffffffffffffffffffffffffffffffffffffffffffff)\n      and\n      eq\n        /* \"@openzeppelin/contracts/token/ERC721/ERC721.sol\":1698:1802  interfaceId == type(IERC721).interfaceId ||... */\n    tag_145:\n        /* \"@openzeppelin/contracts/token/ERC721/ERC721.sol\":1698:1854  interfaceId == type(IERC721).interfaceId ||... */\n      dup1\n      tag_146\n      jumpi\n      pop\n        /* \"@openzeppelin/contracts/token/ERC721/ERC721.sol\":1818:1854  super.supportsInterface(interfaceId) */\n      tag_147\n        /* \"@openzeppelin/contracts/token/ERC721/ERC721.sol\":1842:1853  interfaceId */\n      dup3\n        /* \"@openzeppelin/contracts/token/ERC721/ERC721.sol\":1818:1841  super.supportsInterface */\n      tag_148\n        /* \"@openzeppelin/contracts/token/ERC721/ERC721.sol\":1818:1854  super.supportsInterface(interfaceId) */\n      jump\t// in\n    tag_147:\n        /* \"@openzeppelin/contracts/token/ERC721/ERC721.sol\":1698:1854  interfaceId == type(IERC721).interfaceId ||... */\n    tag_146:\n        /* \"@openzeppelin/contracts/token/ERC721/ERC721.sol\":1679:1854  return... */\n      swap1\n      pop\n        /* \"@openzeppelin/contracts/token/ERC721/ERC721.sol\":1561:1861  function supportsInterface(bytes4 interfaceId) public view virtual override(ERC165, IERC165) returns (bool) {... */\n      swap2\n      swap1\n      pop\n      jump\t// out\n        /* \"@openzeppelin/contracts/token/ERC721/ERC721.sol\":2365:2454  function name() public view virtual returns (string memory) {... */\n    tag_38:\n        /* \"@openzeppelin/contracts/token/ERC721/ERC721.sol\":2410:2423  string memory */\n      0x60\n        /* \"@openzeppelin/contracts/token/ERC721/ERC721.sol\":2442:2447  _name */\n      0x00\n        /* \"@openzeppelin/contracts/token/ERC721/ERC721.sol\":2435:2447  return _name */\n      dup1\n      sload\n      tag_150\n      swap1\n      tag_151\n      jump\t// in\n    tag_150:\n      dup1\n      0x1f\n      add\n      0x20\n      dup1\n      swap2\n      div\n      mul\n      0x20\n      add\n      mload(0x40)\n      swap1\n      dup2\n      add\n      0x40\n      mstore\n      dup1\n      swap3\n      swap2\n      swap1\n      dup2\n      dup2\n      mstore\n      0x20\n      add\n      dup3\n      dup1\n      sload\n      tag_152\n      swap1\n      tag_151\n      jump\t// in\n    tag_152:\n      dup1\n      iszero\n      tag_153\n      jumpi\n      dup1\n      0x1f\n      lt\n      tag_154\n      jumpi\n      0x0100\n      dup1\n      dup4\n      sload\n      div\n      mul\n      dup4\n      mstore\n      swap2\n      0x20\n      add\n      swap2\n      jump(tag_153)\n    tag_154:\n      dup3\n      add\n      swap2\n      swap1\n      0x00\n      mstore\n      keccak256(0x00, 0x20)\n      swap1\n    tag_155:\n      dup2\n      sload\n      dup2\n      mstore\n      swap1\n      0x01\n      add\n      swap1\n      0x20\n      add\n      dup1\n      dup4\n      gt\n      tag_155\n      jumpi\n      dup3\n      swap1\n      sub\n      0x1f\n      and\n      dup3\n      add\n      swap2\n    tag_153:\n      pop\n      pop\n      pop\n      pop\n      pop\n      swap1\n      pop\n        /* \"@openzeppelin/contracts/token/ERC721/ERC721.sol\":2365:2454  function name() public view virtual returns (string memory) {... */\n      swap1\n      jump\t// out\n        /* \"@openzeppelin/contracts/token/ERC721/ERC721.sol\":3497:3651  function getApproved(uint256 tokenId) public view virtual returns (address) {... */\n    tag_45:\n        /* \"@openzeppelin/contracts/token/ERC721/ERC721.sol\":3564:3571  address */\n      0x00\n        /* \"@openzeppelin/contracts/token/ERC721/ERC721.sol\":3583:3605  _requireOwned(tokenId) */\n      tag_157\n        /* \"@openzeppelin/contracts/token/ERC721/ERC721.sol\":3597:3604  tokenId */\n      dup3\n        /* \"@openzeppelin/contracts/token/ERC721/ERC721.sol\":3583:3596  _requireOwned */\n      tag_158\n        /* \"@openzeppelin/contracts/token/ERC721/ERC721.sol\":3583:3605  _requireOwned(tokenId) */\n      jump\t// in\n    tag_157:\n      pop\n        /* \"@openzeppelin/contracts/token/ERC721/ERC721.sol\":3623:3644  _getApproved(tokenId) */\n      tag_159\n        /* \"@openzeppelin/contracts/token/ERC721/ERC721.sol\":3636:3643  tokenId */\n      dup3\n        /* \"@openzeppelin/contracts/token/ERC721/ERC721.sol\":3623:3635  _getApproved */\n      tag_160\n        /* \"@openzeppelin/contracts/token/ERC721/ERC721.sol\":3623:3644  _getApproved(tokenId) */\n      jump\t// in\n    tag_159:\n        /* \"@openzeppelin/contracts/token/ERC721/ERC721.sol\":3616:3644  return _getApproved(tokenId) */\n      swap1\n      pop\n        /* \"@openzeppelin/contracts/token/ERC721/ERC721.sol\":3497:3651  function getApproved(uint256 tokenId) public view virtual returns (address) {... */\n      swap2\n      swap1\n      pop\n      jump\t// out\n        /* \"@openzeppelin/contracts/token/ERC721/ERC721.sol\":3323:3436  function approve(address to, uint256 tokenId) public virtual {... */\n    tag_52:\n        /* \"@openzeppelin/contracts/token/ERC721/ERC721.sol\":3394:3429  _approve(to, tokenId, _msgSender()) */\n      tag_162\n        /* \"@openzeppelin/contracts/token/ERC721/ERC721.sol\":3403:3405  to */\n      dup3\n        /* \"@openzeppelin/contracts/token/ERC721/ERC721.sol\":3407:3414  tokenId */\n      dup3\n        /* \"@openzeppelin/contracts/token/ERC721/ERC721.sol\":3416:3428  _msgSender() */\n      tag_163\n        /* \"@openzeppelin/contracts/token/ERC721/ERC721.sol\":3416:3426  _msgSender */\n      tag_164\n        /* \"@openzeppelin/contracts/token/ERC721/ERC721.sol\":3416:3428  _msgSender() */\n      jump\t// in\n    tag_163:\n        /* \"@openzeppelin/contracts/token/ERC721/ERC721.sol\":3394:3402  _approve */\n      tag_165\n        /* \"@openzeppelin/contracts/token/ERC721/ERC721.sol\":3394:3429  _approve(to, tokenId, _msgSender()) */\n      jump\t// in\n    tag_162:\n        /* \"@openzeppelin/contracts/token/ERC721/ERC721.sol\":3323:3436  function approve(address to, uint256 tokenId) public virtual {... */\n      pop\n      pop\n      jump\t// out\n        /* \"contracts/PetRegistry.sol\":3097:3196  function getBalance() public view returns (uint256) {... */\n    tag_55:\n        /* \"contracts/PetRegistry.sol\":3140:3147  uint256 */\n      0x00\n        /* \"contracts/PetRegistry.sol\":3167:3188  address(this).balance */\n      selfbalance\n        /* \"contracts/PetRegistry.sol\":3160:3188  return address(this).balance */\n      swap1\n      pop\n        /* \"contracts/PetRegistry.sol\":3097:3196  function getBalance() public view returns (uint256) {... */\n      swap1\n      jump\t// out\n        /* \"@openzeppelin/contracts/token/ERC721/ERC721.sol\":4143:4721  function transferFrom(address from, address to, uint256 tokenId) public virtual {... */\n    tag_62:\n        /* \"@openzeppelin/contracts/token/ERC721/ERC721.sol\":4251:4252  0 */\n      0x00\n        /* \"@openzeppelin/contracts/token/ERC721/ERC721.sol\":4237:4253  to == address(0) */\n      0xffffffffffffffffffffffffffffffffffffffff\n      and\n        /* \"@openzeppelin/contracts/token/ERC721/ERC721.sol\":4237:4239  to */\n      dup3\n        /* \"@openzeppelin/contracts/token/ERC721/ERC721.sol\":4237:4253  to == address(0) */\n      0xffffffffffffffffffffffffffffffffffffffff\n      and\n      sub\n        /* \"@openzeppelin/contracts/token/ERC721/ERC721.sol\":4233:4320  if (to == address(0)) {... */\n      tag_168\n      jumpi\n        /* \"@openzeppelin/contracts/token/ERC721/ERC721.sol\":4306:4307  0 */\n      0x00\n        /* \"@openzeppelin/contracts/token/ERC721/ERC721.sol\":4276:4309  ERC721InvalidReceiver(address(0)) */\n      mload(0x40)\n      0x64a0ae9200000000000000000000000000000000000000000000000000000000\n      dup2\n      mstore\n      0x04\n      add\n      tag_169\n      swap2\n      swap1\n      tag_47\n      jump\t// in\n    tag_169:\n      mload(0x40)\n      dup1\n      swap2\n      sub\n      swap1\n      revert\n        /* \"@openzeppelin/contracts/token/ERC721/ERC721.sol\":4233:4320  if (to == address(0)) {... */\n    tag_168:\n        /* \"@openzeppelin/contracts/token/ERC721/ERC721.sol\":4538:4559  address previousOwner */\n      0x00\n        /* \"@openzeppelin/contracts/token/ERC721/ERC721.sol\":4562:4596  _update(to, tokenId, _msgSender()) */\n      tag_170\n        /* \"@openzeppelin/contracts/token/ERC721/ERC721.sol\":4570:4572  to */\n      dup4\n        /* \"@openzeppelin/contracts/token/ERC721/ERC721.sol\":4574:4581  tokenId */\n      dup4\n        /* \"@openzeppelin/contracts/token/ERC721/ERC721.sol\":4583:4595  _msgSender() */\n      tag_171\n        /* \"@openzeppelin/contracts/token/ERC721/ERC721.sol\":4583:4593  _msgSender */\n      tag_164\n        /* \"@openzeppelin/contracts/token/ERC721/ERC721.sol\":4583:4595  _msgSender() */\n      jump\t// in\n    tag_171:\n        /* \"@openzeppelin/contracts/token/ERC721/ERC721.sol\":4562:4569  _update */\n      tag_172\n        /* \"@openzeppelin/contracts/token/ERC721/ERC721.sol\":4562:4596  _update(to, tokenId, _msgSender()) */\n      jump\t// in\n    tag_170:\n        /* \"@openzeppelin/contracts/token/ERC721/ERC721.sol\":4538:4596  address previousOwner = _update(to, tokenId, _msgSender()) */\n      swap1\n      pop\n        /* \"@openzeppelin/contracts/token/ERC721/ERC721.sol\":4627:4631  from */\n      dup4\n        /* \"@openzeppelin/contracts/token/ERC721/ERC721.sol\":4610:4631  previousOwner != from */\n      0xffffffffffffffffffffffffffffffffffffffff\n      and\n        /* \"@openzeppelin/contracts/token/ERC721/ERC721.sol\":4610:4623  previousOwner */\n      dup2\n        /* \"@openzeppelin/contracts/token/ERC721/ERC721.sol\":4610:4631  previousOwner != from */\n      0xffffffffffffffffffffffffffffffffffffffff\n      and\n      eq\n        /* \"@openzeppelin/contracts/token/ERC721/ERC721.sol\":4606:4715  if (previousOwner != from) {... */\n      tag_173\n      jumpi\n        /* \"@openzeppelin/contracts/token/ERC721/ERC721.sol\":4675:4679  from */\n      dup4\n        /* \"@openzeppelin/contracts/token/ERC721/ERC721.sol\":4681:4688  tokenId */\n      dup3\n        /* \"@openzeppelin/contracts/token/ERC721/ERC721.sol\":4690:4703  previousOwner */\n      dup3\n        /* \"@openzeppelin/contracts/token/ERC721/ERC721.sol\":4654:4704  ERC721IncorrectOwner(from, tokenId, previousOwner) */\n      mload(0x40)\n      0x64283d7b00000000000000000000000000000000000000000000000000000000\n      dup2\n      mstore\n      0x04\n      add\n      tag_174\n      swap4\n      swap3\n      swap2\n      swap1\n      tag_175\n      jump\t// in\n    tag_174:\n      mload(0x40)\n      dup1\n      swap2\n      sub\n      swap1\n      revert\n        /* \"@openzeppelin/contracts/token/ERC721/ERC721.sol\":4606:4715  if (previousOwner != from) {... */\n    tag_173:\n        /* \"@openzeppelin/contracts/token/ERC721/ERC721.sol\":4223:4721  {... */\n      pop\n        /* \"@openzeppelin/contracts/token/ERC721/ERC721.sol\":4143:4721  function transferFrom(address from, address to, uint256 tokenId) public virtual {... */\n      pop\n      pop\n      pop\n      jump\t// out\n        /* \"contracts/PetRegistry.sol\":671:704  uint256 public usdRegistrationFee */\n    tag_65:\n      sload(0x0a)\n      dup2\n      jump\t// out\n        /* \"contracts/PetRegistry.sol\":2987:3089  function withdraw() public onlyOwner {... */\n    tag_69:\n        /* \"contracts/PetRegistry.sol\":1154:1159  owner */\n      0x0b\n      0x00\n      swap1\n      sload\n      swap1\n      0x0100\n      exp\n      swap1\n      div\n      0xffffffffffffffffffffffffffffffffffffffff\n      and\n        /* \"contracts/PetRegistry.sol\":1140:1159  msg.sender == owner */\n      0xffffffffffffffffffffffffffffffffffffffff\n      and\n        /* \"contracts/PetRegistry.sol\":1140:1150  msg.sender */\n      caller\n        /* \"contracts/PetRegistry.sol\":1140:1159  msg.sender == owner */\n      0xffffffffffffffffffffffffffffffffffffffff\n      and\n      eq\n        /* \"contracts/PetRegistry.sol\":1132:1213  require(msg.sender == owner, \"Only owner of contract can execute this function.\") */\n      tag_177\n      jumpi\n      mload(0x40)\n      0x08c379a000000000000000000000000000000000000000000000000000000000\n      dup2\n      mstore\n      0x04\n      add\n      tag_178\n      swap1\n      tag_179\n      jump\t// in\n    tag_178:\n      mload(0x40)\n      dup1\n      swap2\n      sub\n      swap1\n      revert\n    tag_177:\n        /* \"contracts/PetRegistry.sol\":3043:3048  owner */\n      0x0b\n      0x00\n      swap1\n      sload\n      swap1\n      0x0100\n      exp\n      swap1\n      div\n      0xffffffffffffffffffffffffffffffffffffffff\n      and\n        /* \"contracts/PetRegistry.sol\":3035:3058  payable(owner).transfer */\n      0xffffffffffffffffffffffffffffffffffffffff\n      and\n        /* \"contracts/PetRegistry.sol\":3035:3081  payable(owner).transfer(address(this).balance) */\n      0x08fc\n        /* \"contracts/PetRegistry.sol\":3059:3080  address(this).balance */\n      selfbalance\n        /* \"contracts/PetRegistry.sol\":3035:3081  payable(owner).transfer(address(this).balance) */\n      swap1\n      dup2\n      iszero\n      mul\n      swap1\n      mload(0x40)\n      0x00\n      mload(0x40)\n      dup1\n      dup4\n      sub\n      dup2\n      dup6\n      dup9\n      dup9\n      call\n      swap4\n      pop\n      pop\n      pop\n      pop\n      iszero\n      dup1\n      iszero\n      tag_182\n      jumpi\n      returndatasize\n      0x00\n      dup1\n      returndatacopy\n      revert(0x00, returndatasize)\n    tag_182:\n      pop\n        /* \"contracts/PetRegistry.sol\":2987:3089  function withdraw() public onlyOwner {... */\n      jump\t// out\n        /* \"@openzeppelin/contracts/token/ERC721/ERC721.sol\":4787:4919  function safeTransferFrom(address from, address to, uint256 tokenId) public {... */\n    tag_73:\n        /* \"@openzeppelin/contracts/token/ERC721/ERC721.sol\":4873:4912  safeTransferFrom(from, to, tokenId, \"\") */\n      tag_184\n        /* \"@openzeppelin/contracts/token/ERC721/ERC721.sol\":4890:4894  from */\n      dup4\n        /* \"@openzeppelin/contracts/token/ERC721/ERC721.sol\":4896:4898  to */\n      dup4\n        /* \"@openzeppelin/contracts/token/ERC721/ERC721.sol\":4900:4907  tokenId */\n      dup4\n        /* \"@openzeppelin/contracts/token/ERC721/ERC721.sol\":4873:4912  safeTransferFrom(from, to, tokenId, \"\") */\n      mload(0x40)\n      dup1\n      0x20\n      add\n      0x40\n      mstore\n      dup1\n      0x00\n      dup2\n      mstore\n      pop\n        /* \"@openzeppelin/contracts/token/ERC721/ERC721.sol\":4873:4889  safeTransferFrom */\n      tag_114\n        /* \"@openzeppelin/contracts/token/ERC721/ERC721.sol\":4873:4912  safeTransferFrom(from, to, tokenId, \"\") */\n      jump\t// in\n    tag_184:\n        /* \"@openzeppelin/contracts/token/ERC721/ERC721.sol\":4787:4919  function safeTransferFrom(address from, address to, uint256 tokenId) public {... */\n      pop\n      pop\n      pop\n      jump\t// out\n        /* \"contracts/PetRegistry.sol\":2552:2979  function registerPet(... */\n    tag_77:\n        /* \"contracts/PetRegistry.sol\":2781:2800  uint256 requiredFee */\n      0x00\n        /* \"contracts/PetRegistry.sol\":2803:2831  getEthRegistrationFeeInWei() */\n      tag_186\n        /* \"contracts/PetRegistry.sol\":2803:2829  getEthRegistrationFeeInWei */\n      tag_117\n        /* \"contracts/PetRegistry.sol\":2803:2831  getEthRegistrationFeeInWei() */\n      jump\t// in\n    tag_186:\n        /* \"contracts/PetRegistry.sol\":2781:2831  uint256 requiredFee = getEthRegistrationFeeInWei() */\n      swap1\n      pop\n        /* \"contracts/PetRegistry.sol\":2864:2875  requiredFee */\n      dup1\n        /* \"contracts/PetRegistry.sol\":2851:2860  msg.value */\n      callvalue\n        /* \"contracts/PetRegistry.sol\":2851:2875  msg.value >= requiredFee */\n      lt\n      iszero\n        /* \"contracts/PetRegistry.sol\":2843:2896  require(msg.value >= requiredFee, \"not enough funds\") */\n      tag_187\n      jumpi\n      mload(0x40)\n      0x08c379a000000000000000000000000000000000000000000000000000000000\n      dup2\n      mstore\n      0x04\n      add\n      tag_188\n      swap1\n      tag_189\n      jump\t// in\n    tag_188:\n      mload(0x40)\n      dup1\n      swap2\n      sub\n      swap1\n      revert\n    tag_187:\n        /* \"contracts/PetRegistry.sol\":2907:2971  _createPet(_name, _species, _breed, _color, _birthDate, _weight) */\n      tag_190\n        /* \"contracts/PetRegistry.sol\":2918:2923  _name */\n      dup8\n        /* \"contracts/PetRegistry.sol\":2925:2933  _species */\n      dup8\n        /* \"contracts/PetRegistry.sol\":2935:2941  _breed */\n      dup8\n        /* \"contracts/PetRegistry.sol\":2943:2949  _color */\n      dup8\n        /* \"contracts/PetRegistry.sol\":2951:2961  _birthDate */\n      dup8\n        /* \"contracts/PetRegistry.sol\":2963:2970  _weight */\n      dup8\n        /* \"contracts/PetRegistry.sol\":2907:2917  _createPet */\n      tag_191\n        /* \"contracts/PetRegistry.sol\":2907:2971  _createPet(_name, _species, _breed, _color, _birthDate, _weight) */\n      jump\t// in\n    tag_190:\n        /* \"contracts/PetRegistry.sol\":2770:2979  {... */\n      pop\n        /* \"contracts/PetRegistry.sol\":2552:2979  function registerPet(... */\n      pop\n      pop\n      pop\n      pop\n      pop\n      pop\n      jump\t// out\n        /* \"contracts/PetRegistry.sol\":642:664  uint256 public counter */\n    tag_80:\n      sload(0x09)\n      dup2\n      jump\t// out\n        /* \"@openzeppelin/contracts/token/ERC721/ERC721.sol\":2185:2303  function ownerOf(uint256 tokenId) public view virtual returns (address) {... */\n    tag_85:\n        /* \"@openzeppelin/contracts/token/ERC721/ERC721.sol\":2248:2255  address */\n      0x00\n        /* \"@openzeppelin/contracts/token/ERC721/ERC721.sol\":2274:2296  _requireOwned(tokenId) */\n      tag_193\n        /* \"@openzeppelin/contracts/token/ERC721/ERC721.sol\":2288:2295  tokenId */\n      dup3\n        /* \"@openzeppelin/contracts/token/ERC721/ERC721.sol\":2274:2287  _requireOwned */\n      tag_158\n        /* \"@openzeppelin/contracts/token/ERC721/ERC721.sol\":2274:2296  _requireOwned(tokenId) */\n      jump\t// in\n    tag_193:\n        /* \"@openzeppelin/contracts/token/ERC721/ERC721.sol\":2267:2296  return _requireOwned(tokenId) */\n      swap1\n      pop\n        /* \"@openzeppelin/contracts/token/ERC721/ERC721.sol\":2185:2303  function ownerOf(uint256 tokenId) public view virtual returns (address) {... */\n      swap2\n      swap1\n      pop\n      jump\t// out\n        /* \"@openzeppelin/contracts/token/ERC721/ERC721.sol\":1920:2128  function balanceOf(address owner) public view virtual returns (uint256) {... */\n    tag_91:\n        /* \"@openzeppelin/contracts/token/ERC721/ERC721.sol\":1983:1990  uint256 */\n      0x00\n        /* \"@openzeppelin/contracts/token/ERC721/ERC721.sol\":2023:2024  0 */\n      dup1\n        /* \"@openzeppelin/contracts/token/ERC721/ERC721.sol\":2006:2025  owner == address(0) */\n      0xffffffffffffffffffffffffffffffffffffffff\n      and\n        /* \"@openzeppelin/contracts/token/ERC721/ERC721.sol\":2006:2011  owner */\n      dup3\n        /* \"@openzeppelin/contracts/token/ERC721/ERC721.sol\":2006:2025  owner == address(0) */\n      0xffffffffffffffffffffffffffffffffffffffff\n      and\n      sub\n        /* \"@openzeppelin/contracts/token/ERC721/ERC721.sol\":2002:2089  if (owner == address(0)) {... */\n      tag_195\n      jumpi\n        /* \"@openzeppelin/contracts/token/ERC721/ERC721.sol\":2075:2076  0 */\n      0x00\n        /* \"@openzeppelin/contracts/token/ERC721/ERC721.sol\":2048:2078  ERC721InvalidOwner(address(0)) */\n      mload(0x40)\n      0x89c62b6400000000000000000000000000000000000000000000000000000000\n      dup2\n      mstore\n      0x04\n      add\n      tag_196\n      swap2\n      swap1\n      tag_47\n      jump\t// in\n    tag_196:\n      mload(0x40)\n      dup1\n      swap2\n      sub\n      swap1\n      revert\n        /* \"@openzeppelin/contracts/token/ERC721/ERC721.sol\":2002:2089  if (owner == address(0)) {... */\n    tag_195:\n        /* \"@openzeppelin/contracts/token/ERC721/ERC721.sol\":2105:2114  _balances */\n      0x03\n        /* \"@openzeppelin/contracts/token/ERC721/ERC721.sol\":2105:2121  _balances[owner] */\n      0x00\n        /* \"@openzeppelin/contracts/token/ERC721/ERC721.sol\":2115:2120  owner */\n      dup4\n        /* \"@openzeppelin/contracts/token/ERC721/ERC721.sol\":2105:2121  _balances[owner] */\n      0xffffffffffffffffffffffffffffffffffffffff\n      and\n      0xffffffffffffffffffffffffffffffffffffffff\n      and\n      dup2\n      mstore\n      0x20\n      add\n      swap1\n      dup2\n      mstore\n      0x20\n      add\n      0x00\n      keccak256\n      sload\n        /* \"@openzeppelin/contracts/token/ERC721/ERC721.sol\":2098:2121  return _balances[owner] */\n      swap1\n      pop\n        /* \"@openzeppelin/contracts/token/ERC721/ERC721.sol\":1920:2128  function balanceOf(address owner) public view virtual returns (uint256) {... */\n      swap2\n      swap1\n      pop\n      jump\t// out\n        /* \"contracts/PetRegistry.sol\":711:731  address public owner */\n    tag_95:\n      0x0b\n      0x00\n      swap1\n      sload\n      swap1\n      0x0100\n      exp\n      swap1\n      div\n      0xffffffffffffffffffffffffffffffffffffffff\n      and\n      dup2\n      jump\t// out\n        /* \"@openzeppelin/contracts/token/ERC721/ERC721.sol\":2518:2611  function symbol() public view virtual returns (string memory) {... */\n    tag_99:\n        /* \"@openzeppelin/contracts/token/ERC721/ERC721.sol\":2565:2578  string memory */\n      0x60\n        /* \"@openzeppelin/contracts/token/ERC721/ERC721.sol\":2597:2604  _symbol */\n      0x01\n        /* \"@openzeppelin/contracts/token/ERC721/ERC721.sol\":2590:2604  return _symbol */\n      dup1\n      sload\n      tag_198\n      swap1\n      tag_151\n      jump\t// in\n    tag_198:\n      dup1\n      0x1f\n      add\n      0x20\n      dup1\n      swap2\n      div\n      mul\n      0x20\n      add\n      mload(0x40)\n      swap1\n      dup2\n      add\n      0x40\n      mstore\n      dup1\n      swap3\n      swap2\n      swap1\n      dup2\n      dup2\n      mstore\n      0x20\n      add\n      dup3\n      dup1\n      sload\n      tag_199\n      swap1\n      tag_151\n      jump\t// in\n    tag_199:\n      dup1\n      iszero\n      tag_200\n      jumpi\n      dup1\n      0x1f\n      lt\n      tag_201\n      jumpi\n      0x0100\n      dup1\n      dup4\n      sload\n      div\n      mul\n      dup4\n      mstore\n      swap2\n      0x20\n      add\n      swap2\n      jump(tag_200)\n    tag_201:\n      dup3\n      add\n      swap2\n      swap1\n      0x00\n      mstore\n      keccak256(0x00, 0x20)\n      swap1\n    tag_202:\n      dup2\n      sload\n      dup2\n      mstore\n      swap1\n      0x01\n      add\n      swap1\n      0x20\n      add\n      dup1\n      dup4\n      gt\n      tag_202\n      jumpi\n      dup3\n      swap1\n      sub\n      0x1f\n      and\n      dup3\n      add\n      swap2\n    tag_200:\n      pop\n      pop\n      pop\n      pop\n      pop\n      swap1\n      pop\n        /* \"@openzeppelin/contracts/token/ERC721/ERC721.sol\":2518:2611  function symbol() public view virtual returns (string memory) {... */\n      swap1\n      jump\t// out\n        /* \"@openzeppelin/contracts/token/ERC721/ERC721.sol\":3718:3862  function setApprovalForAll(address operator, bool approved) public virtual {... */\n    tag_105:\n        /* \"@openzeppelin/contracts/token/ERC721/ERC721.sol\":3803:3855  _setApprovalForAll(_msgSender(), operator, approved) */\n      tag_204\n        /* \"@openzeppelin/contracts/token/ERC721/ERC721.sol\":3822:3834  _msgSender() */\n      tag_205\n        /* \"@openzeppelin/contracts/token/ERC721/ERC721.sol\":3822:3832  _msgSender */\n      tag_164\n        /* \"@openzeppelin/contracts/token/ERC721/ERC721.sol\":3822:3834  _msgSender() */\n      jump\t// in\n    tag_205:\n        /* \"@openzeppelin/contracts/token/ERC721/ERC721.sol\":3836:3844  operator */\n      dup4\n        /* \"@openzeppelin/contracts/token/ERC721/ERC721.sol\":3846:3854  approved */\n      dup4\n        /* \"@openzeppelin/contracts/token/ERC721/ERC721.sol\":3803:3821  _setApprovalForAll */\n      tag_206\n        /* \"@openzeppelin/contracts/token/ERC721/ERC721.sol\":3803:3855  _setApprovalForAll(_msgSender(), operator, approved) */\n      jump\t// in\n    tag_204:\n        /* \"@openzeppelin/contracts/token/ERC721/ERC721.sol\":3718:3862  function setApprovalForAll(address operator, bool approved) public virtual {... */\n      pop\n      pop\n      jump\t// out\n        /* \"contracts/PetRegistry.sol\":1823:1935  function updateRegistrationFee(uint256 _newFee) public onlyOwner {... */\n    tag_109:\n        /* \"contracts/PetRegistry.sol\":1154:1159  owner */\n      0x0b\n      0x00\n      swap1\n      sload\n      swap1\n      0x0100\n      exp\n      swap1\n      div\n      0xffffffffffffffffffffffffffffffffffffffff\n      and\n        /* \"contracts/PetRegistry.sol\":1140:1159  msg.sender == owner */\n      0xffffffffffffffffffffffffffffffffffffffff\n      and\n        /* \"contracts/PetRegistry.sol\":1140:1150  msg.sender */\n      caller\n        /* \"contracts/PetRegistry.sol\":1140:1159  msg.sender == owner */\n      0xffffffffffffffffffffffffffffffffffffffff\n      and\n      eq\n        /* \"contracts/PetRegistry.sol\":1132:1213  require(msg.sender == owner, \"Only owner of contract can execute this function.\") */\n      tag_208\n      jumpi\n      mload(0x40)\n      0x08c379a000000000000000000000000000000000000000000000000000000000\n      dup2\n      mstore\n      0x04\n      add\n      tag_209\n      swap1\n      tag_179\n      jump\t// in\n    tag_209:\n      mload(0x40)\n      dup1\n      swap2\n      sub\n      swap1\n      revert\n    tag_208:\n        /* \"contracts/PetRegistry.sol\":1920:1927  _newFee */\n      dup1\n        /* \"contracts/PetRegistry.sol\":1899:1917  usdRegistrationFee */\n      0x0a\n        /* \"contracts/PetRegistry.sol\":1899:1927  usdRegistrationFee = _newFee */\n      dup2\n      swap1\n      sstore\n      pop\n        /* \"contracts/PetRegistry.sol\":1823:1935  function updateRegistrationFee(uint256 _newFee) public onlyOwner {... */\n      pop\n      jump\t// out\n        /* \"@openzeppelin/contracts/token/ERC721/ERC721.sol\":4985:5193  function safeTransferFrom(address from, address to, uint256 tokenId, bytes memory data) public virtual {... */\n    tag_114:\n        /* \"@openzeppelin/contracts/token/ERC721/ERC721.sol\":5098:5129  transferFrom(from, to, tokenId) */\n      tag_212\n        /* \"@openzeppelin/contracts/token/ERC721/ERC721.sol\":5111:5115  from */\n      dup5\n        /* \"@openzeppelin/contracts/token/ERC721/ERC721.sol\":5117:5119  to */\n      dup5\n        /* \"@openzeppelin/contracts/token/ERC721/ERC721.sol\":5121:5128  tokenId */\n      dup5\n        /* \"@openzeppelin/contracts/token/ERC721/ERC721.sol\":5098:5110  transferFrom */\n      tag_62\n        /* \"@openzeppelin/contracts/token/ERC721/ERC721.sol\":5098:5129  transferFrom(from, to, tokenId) */\n      jump\t// in\n    tag_212:\n        /* \"@openzeppelin/contracts/token/ERC721/ERC721.sol\":5139:5186  _checkOnERC721Received(from, to, tokenId, data) */\n      tag_213\n        /* \"@openzeppelin/contracts/token/ERC721/ERC721.sol\":5162:5166  from */\n      dup5\n        /* \"@openzeppelin/contracts/token/ERC721/ERC721.sol\":5168:5170  to */\n      dup5\n        /* \"@openzeppelin/contracts/token/ERC721/ERC721.sol\":5172:5179  tokenId */\n      dup5\n        /* \"@openzeppelin/contracts/token/ERC721/ERC721.sol\":5181:5185  data */\n      dup5\n        /* \"@openzeppelin/contracts/token/ERC721/ERC721.sol\":5139:5161  _checkOnERC721Received */\n      tag_214\n        /* \"@openzeppelin/contracts/token/ERC721/ERC721.sol\":5139:5186  _checkOnERC721Received(from, to, tokenId, data) */\n      jump\t// in\n    tag_213:\n        /* \"@openzeppelin/contracts/token/ERC721/ERC721.sol\":4985:5193  function safeTransferFrom(address from, address to, uint256 tokenId, bytes memory data) public virtual {... */\n      pop\n      pop\n      pop\n      pop\n      jump\t// out\n        /* \"contracts/PetRegistry.sol\":1593:1815  function getEthRegistrationFeeInWei() public view returns (uint256) {... */\n    tag_117:\n        /* \"contracts/PetRegistry.sol\":1652:1659  uint256 */\n      0x00\n        /* \"contracts/PetRegistry.sol\":1672:1688  uint256 ethPrice */\n      dup1\n        /* \"contracts/PetRegistry.sol\":1691:1709  getEthPriceInUsd() */\n      tag_216\n        /* \"contracts/PetRegistry.sol\":1691:1707  getEthPriceInUsd */\n      tag_132\n        /* \"contracts/PetRegistry.sol\":1691:1709  getEthPriceInUsd() */\n      jump\t// in\n    tag_216:\n        /* \"contracts/PetRegistry.sol\":1672:1709  uint256 ethPrice = getEthPriceInUsd() */\n      swap1\n      pop\n        /* \"contracts/PetRegistry.sol\":1720:1736  uint256 feeInWei */\n      0x00\n        /* \"contracts/PetRegistry.sol\":1773:1781  ethPrice */\n      dup2\n        /* \"contracts/PetRegistry.sol\":1761:1769  10 ** 18 */\n      0x0de0b6b3a7640000\n        /* \"contracts/PetRegistry.sol\":1740:1758  usdRegistrationFee */\n      sload(0x0a)\n        /* \"contracts/PetRegistry.sol\":1740:1769  usdRegistrationFee * 10 ** 18 */\n      tag_217\n      swap2\n      swap1\n      tag_218\n      jump\t// in\n    tag_217:\n        /* \"contracts/PetRegistry.sol\":1739:1781  (usdRegistrationFee * 10 ** 18) / ethPrice */\n      tag_219\n      swap2\n      swap1\n      tag_220\n      jump\t// in\n    tag_219:\n        /* \"contracts/PetRegistry.sol\":1720:1781  uint256 feeInWei = (usdRegistrationFee * 10 ** 18) / ethPrice */\n      swap1\n      pop\n        /* \"contracts/PetRegistry.sol\":1799:1807  feeInWei */\n      dup1\n        /* \"contracts/PetRegistry.sol\":1792:1807  return feeInWei */\n      swap3\n      pop\n      pop\n      pop\n        /* \"contracts/PetRegistry.sol\":1593:1815  function getEthRegistrationFeeInWei() public view returns (uint256) {... */\n      swap1\n      jump\t// out\n        /* \"@openzeppelin/contracts/token/ERC721/ERC721.sol\":2677:2932  function tokenURI(uint256 tokenId) public view virtual returns (string memory) {... */\n    tag_122:\n        /* \"@openzeppelin/contracts/token/ERC721/ERC721.sol\":2741:2754  string memory */\n      0x60\n        /* \"@openzeppelin/contracts/token/ERC721/ERC721.sol\":2766:2788  _requireOwned(tokenId) */\n      tag_222\n        /* \"@openzeppelin/contracts/token/ERC721/ERC721.sol\":2780:2787  tokenId */\n      dup3\n        /* \"@openzeppelin/contracts/token/ERC721/ERC721.sol\":2766:2779  _requireOwned */\n      tag_158\n        /* \"@openzeppelin/contracts/token/ERC721/ERC721.sol\":2766:2788  _requireOwned(tokenId) */\n      jump\t// in\n    tag_222:\n      pop\n        /* \"@openzeppelin/contracts/token/ERC721/ERC721.sol\":2799:2820  string memory baseURI */\n      0x00\n        /* \"@openzeppelin/contracts/token/ERC721/ERC721.sol\":2823:2833  _baseURI() */\n      tag_223\n        /* \"@openzeppelin/contracts/token/ERC721/ERC721.sol\":2823:2831  _baseURI */\n      tag_224\n        /* \"@openzeppelin/contracts/token/ERC721/ERC721.sol\":2823:2833  _baseURI() */\n      jump\t// in\n    tag_223:\n        /* \"@openzeppelin/contracts/token/ERC721/ERC721.sol\":2799:2833  string memory baseURI = _baseURI() */\n      swap1\n      pop\n        /* \"@openzeppelin/contracts/token/ERC721/ERC721.sol\":2874:2875  0 */\n      0x00\n        /* \"@openzeppelin/contracts/token/ERC721/ERC721.sol\":2856:2863  baseURI */\n      dup2\n        /* \"@openzeppelin/contracts/token/ERC721/ERC721.sol\":2850:2871  bytes(baseURI).length */\n      mload\n        /* \"@openzeppelin/contracts/token/ERC721/ERC721.sol\":2850:2875  bytes(baseURI).length > 0 */\n      gt\n        /* \"@openzeppelin/contracts/token/ERC721/ERC721.sol\":2850:2925  bytes(baseURI).length > 0 ? string.concat(baseURI, tokenId.toString()) : \"\" */\n      tag_225\n      jumpi\n      mload(0x40)\n      dup1\n      0x20\n      add\n      0x40\n      mstore\n      dup1\n      0x00\n      dup2\n      mstore\n      pop\n      jump(tag_226)\n    tag_225:\n        /* \"@openzeppelin/contracts/token/ERC721/ERC721.sol\":2892:2899  baseURI */\n      dup1\n        /* \"@openzeppelin/contracts/token/ERC721/ERC721.sol\":2901:2919  tokenId.toString() */\n      tag_227\n        /* \"@openzeppelin/contracts/token/ERC721/ERC721.sol\":2901:2908  tokenId */\n      dup5\n        /* \"@openzeppelin/contracts/token/ERC721/ERC721.sol\":2901:2917  tokenId.toString */\n      tag_228\n        /* \"@openzeppelin/contracts/token/ERC721/ERC721.sol\":2901:2919  tokenId.toString() */\n      jump\t// in\n    tag_227:\n        /* \"@openzeppelin/contracts/token/ERC721/ERC721.sol\":2878:2920  string.concat(baseURI, tokenId.toString()) */\n      add(0x20, mload(0x40))\n      tag_229\n      swap3\n      swap2\n      swap1\n      tag_230\n      jump\t// in\n    tag_229:\n      mload(0x40)\n      0x20\n      dup2\n      dup4\n      sub\n      sub\n      dup2\n      mstore\n      swap1\n      0x40\n      mstore\n        /* \"@openzeppelin/contracts/token/ERC721/ERC721.sol\":2850:2925  bytes(baseURI).length > 0 ? string.concat(baseURI, tokenId.toString()) : \"\" */\n    tag_226:\n        /* \"@openzeppelin/contracts/token/ERC721/ERC721.sol\":2843:2925  return bytes(baseURI).length > 0 ? string.concat(baseURI, tokenId.toString()) : \"\" */\n      swap2\n      pop\n      pop\n        /* \"@openzeppelin/contracts/token/ERC721/ERC721.sol\":2677:2932  function tokenURI(uint256 tokenId) public view virtual returns (string memory) {... */\n      swap2\n      swap1\n      pop\n      jump\t// out\n        /* \"contracts/PetRegistry.sol\":598:633  mapping(uint256 => Pet) public pets */\n    tag_127:\n      mstore(0x20, 0x08)\n      dup1\n      0x00\n      mstore\n      keccak256(0x00, 0x40)\n      0x00\n      swap2\n      pop\n      swap1\n      pop\n      dup1\n      0x00\n      add\n      sload\n      swap1\n      dup1\n      0x01\n      add\n      dup1\n      sload\n      tag_231\n      swap1\n      tag_151\n      jump\t// in\n    tag_231:\n      dup1\n      0x1f\n      add\n      0x20\n      dup1\n      swap2\n      div\n      mul\n      0x20\n      add\n      mload(0x40)\n      swap1\n      dup2\n      add\n      0x40\n      mstore\n      dup1\n      swap3\n      swap2\n      swap1\n      dup2\n      dup2\n      mstore\n      0x20\n      add\n      dup3\n      dup1\n      sload\n      tag_232\n      swap1\n      tag_151\n      jump\t// in\n    tag_232:\n      dup1\n      iszero\n      tag_233\n      jumpi\n      dup1\n      0x1f\n      lt\n      tag_234\n      jumpi\n      0x0100\n      dup1\n      dup4\n      sload\n      div\n      mul\n      dup4\n      mstore\n      swap2\n      0x20\n      add\n      swap2\n      jump(tag_233)\n    tag_234:\n      dup3\n      add\n      swap2\n      swap1\n      0x00\n      mstore\n      keccak256(0x00, 0x20)\n      swap1\n    tag_235:\n      dup2\n      sload\n      dup2\n      mstore\n      swap1\n      0x01\n      add\n      swap1\n      0x20\n      add\n      dup1\n      dup4\n      gt\n      tag_235\n      jumpi\n      dup3\n      swap1\n      sub\n      0x1f\n      and\n      dup3\n      add\n      swap2\n    tag_233:\n      pop\n      pop\n      pop\n      pop\n      pop\n      swap1\n      dup1\n      0x02\n      add\n      0x00\n      swap1\n      sload\n      swap1\n      0x0100\n      exp\n      swap1\n      div\n      0xff\n      and\n      swap1\n      dup1\n      0x03\n      add\n      dup1\n      sload\n      tag_236\n      swap1\n      tag_151\n      jump\t// in\n    tag_236:\n      dup1\n      0x1f\n      add\n      0x20\n      dup1\n      swap2\n      div\n      mul\n      0x20\n      add\n      mload(0x40)\n      swap1\n      dup2\n      add\n      0x40\n      mstore\n      dup1\n      swap3\n      swap2\n      swap1\n      dup2\n      dup2\n      mstore\n      0x20\n      add\n      dup3\n      dup1\n      sload\n      tag_237\n      swap1\n      tag_151\n      jump\t// in\n    tag_237:\n      dup1\n      iszero\n      tag_238\n      jumpi\n      dup1\n      0x1f\n      lt\n      tag_239\n      jumpi\n      0x0100\n      dup1\n      dup4\n      sload\n      div\n      mul\n      dup4\n      mstore\n      swap2\n      0x20\n      add\n      swap2\n      jump(tag_238)\n    tag_239:\n      dup3\n      add\n      swap2\n      swap1\n      0x00\n      mstore\n      keccak256(0x00, 0x20)\n      swap1\n    tag_240:\n      dup2\n      sload\n      dup2\n      mstore\n      swap1\n      0x01\n      add\n      swap1\n      0x20\n      add\n      dup1\n      dup4\n      gt\n      tag_240\n      jumpi\n      dup3\n      swap1\n      sub\n      0x1f\n      and\n      dup3\n      add\n      swap2\n    tag_238:\n      pop\n      pop\n      pop\n      pop\n      pop\n      swap1\n      dup1\n      0x04\n      add\n      dup1\n      sload\n      tag_241\n      swap1\n      tag_151\n      jump\t// in\n    tag_241:\n      dup1\n      0x1f\n      add\n      0x20\n      dup1\n      swap2\n      div\n      mul\n      0x20\n      add\n      mload(0x40)\n      swap1\n      dup2\n      add\n      0x40\n      mstore\n      dup1\n      swap3\n      swap2\n      swap1\n      dup2\n      dup2\n      mstore\n      0x20\n      add\n      dup3\n      dup1\n      sload\n      tag_242\n      swap1\n      tag_151\n      jump\t// in\n    tag_242:\n      dup1\n      iszero\n      tag_243\n      jumpi\n      dup1\n      0x1f\n      lt\n      tag_244\n      jumpi\n      0x0100\n      dup1\n      dup4\n      sload\n      div\n      mul\n      dup4\n      mstore\n      swap2\n      0x20\n      add\n      swap2\n      jump(tag_243)\n    tag_244:\n      dup3\n      add\n      swap2\n      swap1\n      0x00\n      mstore\n      keccak256(0x00, 0x20)\n      swap1\n    tag_245:\n      dup2\n      sload\n      dup2\n      mstore\n      swap1\n      0x01\n      add\n      swap1\n      0x20\n      add\n      dup1\n      dup4\n      gt\n      tag_245\n      jumpi\n      dup3\n      swap1\n      sub\n      0x1f\n      and\n      dup3\n      add\n      swap2\n    tag_243:\n      pop\n      pop\n      pop\n      pop\n      pop\n      swap1\n      dup1\n      0x05\n      add\n      sload\n      swap1\n      dup1\n      0x06\n      add\n      sload\n      swap1\n      dup1\n      0x07\n      add\n      0x00\n      swap1\n      sload\n      swap1\n      0x0100\n      exp\n      swap1\n      div\n      0xffffffffffffffffffffffffffffffffffffffff\n      and\n      swap1\n      pop\n      dup9\n      jump\t// out\n        /* \"contracts/PetRegistry.sol\":1241:1585  function getEthPriceInUsd() public view returns (uint256){... */\n    tag_132:\n        /* \"contracts/PetRegistry.sol\":1290:1297  uint256 */\n      0x00\n        /* \"contracts/PetRegistry.sol\":1359:1371  int256 price */\n      dup1\n        /* \"contracts/PetRegistry.sol\":1498:1507  priceFeed */\n      0x06\n      0x00\n      swap1\n      sload\n      swap1\n      0x0100\n      exp\n      swap1\n      div\n      0xffffffffffffffffffffffffffffffffffffffff\n      and\n        /* \"contracts/PetRegistry.sol\":1498:1523  priceFeed.latestRoundData */\n      0xffffffffffffffffffffffffffffffffffffffff\n      and\n      0xfeaf968c\n        /* \"contracts/PetRegistry.sol\":1498:1525  priceFeed.latestRoundData() */\n      mload(0x40)\n      dup2\n      0xffffffff\n      and\n      0xe0\n      shl\n      dup2\n      mstore\n      0x04\n      add\n      0xa0\n      mload(0x40)\n      dup1\n      dup4\n      sub\n      dup2\n      dup7\n      gas\n      staticcall\n      iszero\n      dup1\n      iszero\n      tag_248\n      jumpi\n      returndatasize\n      0x00\n      dup1\n      returndatacopy\n      revert(0x00, returndatasize)\n    tag_248:\n      pop\n      pop\n      pop\n      pop\n      mload(0x40)\n      returndatasize\n      not(0x1f)\n      0x1f\n      dup3\n      add\n      and\n      dup3\n      add\n      dup1\n      0x40\n      mstore\n      pop\n      dup2\n      add\n      swap1\n      tag_249\n      swap2\n      swap1\n      tag_250\n      jump\t// in\n    tag_249:\n        /* \"contracts/PetRegistry.sol\":1309:1525  (... */\n      pop\n      pop\n      pop\n      swap2\n      pop\n      pop\n        /* \"contracts/PetRegistry.sol\":1569:1576  10 ** 8 */\n      0x05f5e100\n        /* \"contracts/PetRegistry.sol\":1561:1566  price */\n      dup2\n        /* \"contracts/PetRegistry.sol\":1561:1576  price / 10 ** 8 */\n      tag_251\n      swap2\n      swap1\n      tag_252\n      jump\t// in\n    tag_251:\n        /* \"contracts/PetRegistry.sol\":1546:1577  return uint256(price / 10 ** 8) */\n      swap2\n      pop\n      pop\n        /* \"contracts/PetRegistry.sol\":1241:1585  function getEthPriceInUsd() public view returns (uint256){... */\n      swap1\n      jump\t// out\n        /* \"contracts/PetRegistry.sol\":288:319  address public priceFeedAddress */\n    tag_136:\n      0x07\n      0x00\n      swap1\n      sload\n      swap1\n      0x0100\n      exp\n      swap1\n      div\n      0xffffffffffffffffffffffffffffffffffffffff\n      and\n      dup2\n      jump\t// out\n        /* \"@openzeppelin/contracts/token/ERC721/ERC721.sol\":3928:4081  function isApprovedForAll(address owner, address operator) public view virtual returns (bool) {... */\n    tag_142:\n        /* \"@openzeppelin/contracts/token/ERC721/ERC721.sol\":4016:4020  bool */\n      0x00\n        /* \"@openzeppelin/contracts/token/ERC721/ERC721.sol\":4039:4057  _operatorApprovals */\n      0x05\n        /* \"@openzeppelin/contracts/token/ERC721/ERC721.sol\":4039:4064  _operatorApprovals[owner] */\n      0x00\n        /* \"@openzeppelin/contracts/token/ERC721/ERC721.sol\":4058:4063  owner */\n      dup5\n        /* \"@openzeppelin/contracts/token/ERC721/ERC721.sol\":4039:4064  _operatorApprovals[owner] */\n      0xffffffffffffffffffffffffffffffffffffffff\n      and\n      0xffffffffffffffffffffffffffffffffffffffff\n      and\n      dup2\n      mstore\n      0x20\n      add\n      swap1\n      dup2\n      mstore\n      0x20\n      add\n      0x00\n      keccak256\n        /* \"@openzeppelin/contracts/token/ERC721/ERC721.sol\":4039:4074  _operatorApprovals[owner][operator] */\n      0x00\n        /* \"@openzeppelin/contracts/token/ERC721/ERC721.sol\":4065:4073  operator */\n      dup4\n        /* \"@openzeppelin/contracts/token/ERC721/ERC721.sol\":4039:4074  _operatorApprovals[owner][operator] */\n      0xffffffffffffffffffffffffffffffffffffffff\n      and\n      0xffffffffffffffffffffffffffffffffffffffff\n      and\n      dup2\n      mstore\n      0x20\n      add\n      swap1\n      dup2\n      mstore\n      0x20\n      add\n      0x00\n      keccak256\n      0x00\n      swap1\n      sload\n      swap1\n      0x0100\n      exp\n      swap1\n      div\n      0xff\n      and\n        /* \"@openzeppelin/contracts/token/ERC721/ERC721.sol\":4032:4074  return _operatorApprovals[owner][operator] */\n      swap1\n      pop\n        /* \"@openzeppelin/contracts/token/ERC721/ERC721.sol\":3928:4081  function isApprovedForAll(address owner, address operator) public view virtual returns (bool) {... */\n      swap3\n      swap2\n      pop\n      pop\n      jump\t// out\n        /* \"@openzeppelin/contracts/utils/introspection/ERC165.sol\":762:908  function supportsInterface(bytes4 interfaceId) public view virtual returns (bool) {... */\n    tag_148:\n        /* \"@openzeppelin/contracts/utils/introspection/ERC165.sol\":838:842  bool */\n      0x00\n        /* \"@openzeppelin/contracts/utils/introspection/ERC165.sol\":876:901  type(IERC165).interfaceId */\n      0x01ffc9a700000000000000000000000000000000000000000000000000000000\n        /* \"@openzeppelin/contracts/utils/introspection/ERC165.sol\":861:901  interfaceId == type(IERC165).interfaceId */\n      not(0xffffffffffffffffffffffffffffffffffffffffffffffffffffffff)\n      and\n        /* \"@openzeppelin/contracts/utils/introspection/ERC165.sol\":861:872  interfaceId */\n      dup3\n        /* \"@openzeppelin/contracts/utils/introspection/ERC165.sol\":861:901  interfaceId == type(IERC165).interfaceId */\n      not(0xffffffffffffffffffffffffffffffffffffffffffffffffffffffff)\n      and\n      eq\n        /* \"@openzeppelin/contracts/utils/introspection/ERC165.sol\":854:901  return interfaceId == type(IERC165).interfaceId */\n      swap1\n      pop\n        /* \"@openzeppelin/contracts/utils/introspection/ERC165.sol\":762:908  function supportsInterface(bytes4 interfaceId) public view virtual returns (bool) {... */\n      swap2\n      swap1\n      pop\n      jump\t// out\n        /* \"@openzeppelin/contracts/token/ERC721/ERC721.sol\":16138:16379  function _requireOwned(uint256 tokenId) internal view returns (address) {... */\n    tag_158:\n        /* \"@openzeppelin/contracts/token/ERC721/ERC721.sol\":16201:16208  address */\n      0x00\n        /* \"@openzeppelin/contracts/token/ERC721/ERC721.sol\":16220:16233  address owner */\n      dup1\n        /* \"@openzeppelin/contracts/token/ERC721/ERC721.sol\":16236:16253  _ownerOf(tokenId) */\n      tag_256\n        /* \"@openzeppelin/contracts/token/ERC721/ERC721.sol\":16245:16252  tokenId */\n      dup4\n        /* \"@openzeppelin/contracts/token/ERC721/ERC721.sol\":16236:16244  _ownerOf */\n      tag_257\n        /* \"@openzeppelin/contracts/token/ERC721/ERC721.sol\":16236:16253  _ownerOf(tokenId) */\n      jump\t// in\n    tag_256:\n        /* \"@openzeppelin/contracts/token/ERC721/ERC721.sol\":16220:16253  address owner = _ownerOf(tokenId) */\n      swap1\n      pop\n        /* \"@openzeppelin/contracts/token/ERC721/ERC721.sol\":16284:16285  0 */\n      0x00\n        /* \"@openzeppelin/contracts/token/ERC721/ERC721.sol\":16267:16286  owner == address(0) */\n      0xffffffffffffffffffffffffffffffffffffffff\n      and\n        /* \"@openzeppelin/contracts/token/ERC721/ERC721.sol\":16267:16272  owner */\n      dup2\n        /* \"@openzeppelin/contracts/token/ERC721/ERC721.sol\":16267:16286  owner == address(0) */\n      0xffffffffffffffffffffffffffffffffffffffff\n      and\n      sub\n        /* \"@openzeppelin/contracts/token/ERC721/ERC721.sol\":16263:16351  if (owner == address(0)) {... */\n      tag_258\n      jumpi\n        /* \"@openzeppelin/contracts/token/ERC721/ERC721.sol\":16332:16339  tokenId */\n      dup3\n        /* \"@openzeppelin/contracts/token/ERC721/ERC721.sol\":16309:16340  ERC721NonexistentToken(tokenId) */\n      mload(0x40)\n      0x7e27328900000000000000000000000000000000000000000000000000000000\n      dup2\n      mstore\n      0x04\n      add\n      tag_259\n      swap2\n      swap1\n      tag_57\n      jump\t// in\n    tag_259:\n      mload(0x40)\n      dup1\n      swap2\n      sub\n      swap1\n      revert\n        /* \"@openzeppelin/contracts/token/ERC721/ERC721.sol\":16263:16351  if (owner == address(0)) {... */\n    tag_258:\n        /* \"@openzeppelin/contracts/token/ERC721/ERC721.sol\":16367:16372  owner */\n      dup1\n        /* \"@openzeppelin/contracts/token/ERC721/ERC721.sol\":16360:16372  return owner */\n      swap2\n      pop\n      pop\n        /* \"@openzeppelin/contracts/token/ERC721/ERC721.sol\":16138:16379  function _requireOwned(uint256 tokenId) internal view returns (address) {... */\n      swap2\n      swap1\n      pop\n      jump\t// out\n        /* \"@openzeppelin/contracts/token/ERC721/ERC721.sol\":5938:6065  function _getApproved(uint256 tokenId) internal view virtual returns (address) {... */\n    tag_160:\n        /* \"@openzeppelin/contracts/token/ERC721/ERC721.sol\":6008:6015  address */\n      0x00\n        /* \"@openzeppelin/contracts/token/ERC721/ERC721.sol\":6034:6049  _tokenApprovals */\n      0x04\n        /* \"@openzeppelin/contracts/token/ERC721/ERC721.sol\":6034:6058  _tokenApprovals[tokenId] */\n      0x00\n        /* \"@openzeppelin/contracts/token/ERC721/ERC721.sol\":6050:6057  tokenId */\n      dup4\n        /* \"@openzeppelin/contracts/token/ERC721/ERC721.sol\":6034:6058  _tokenApprovals[tokenId] */\n      dup2\n      mstore\n      0x20\n      add\n      swap1\n      dup2\n      mstore\n      0x20\n      add\n      0x00\n      keccak256\n      0x00\n      swap1\n      sload\n      swap1\n      0x0100\n      exp\n      swap1\n      div\n      0xffffffffffffffffffffffffffffffffffffffff\n      and\n        /* \"@openzeppelin/contracts/token/ERC721/ERC721.sol\":6027:6058  return _tokenApprovals[tokenId] */\n      swap1\n      pop\n        /* \"@openzeppelin/contracts/token/ERC721/ERC721.sol\":5938:6065  function _getApproved(uint256 tokenId) internal view virtual returns (address) {... */\n      swap2\n      swap1\n      pop\n      jump\t// out\n        /* \"@openzeppelin/contracts/utils/Context.sol\":656:752  function _msgSender() internal view virtual returns (address) {... */\n    tag_164:\n        /* \"@openzeppelin/contracts/utils/Context.sol\":709:716  address */\n      0x00\n        /* \"@openzeppelin/contracts/utils/Context.sol\":735:745  msg.sender */\n      caller\n        /* \"@openzeppelin/contracts/utils/Context.sol\":728:745  return msg.sender */\n      swap1\n      pop\n        /* \"@openzeppelin/contracts/utils/Context.sol\":656:752  function _msgSender() internal view virtual returns (address) {... */\n      swap1\n      jump\t// out\n        /* \"@openzeppelin/contracts/token/ERC721/ERC721.sol\":14418:14538  function _approve(address to, uint256 tokenId, address auth) internal {... */\n    tag_165:\n        /* \"@openzeppelin/contracts/token/ERC721/ERC721.sol\":14498:14531  _approve(to, tokenId, auth, true) */\n      tag_263\n        /* \"@openzeppelin/contracts/token/ERC721/ERC721.sol\":14507:14509  to */\n      dup4\n        /* \"@openzeppelin/contracts/token/ERC721/ERC721.sol\":14511:14518  tokenId */\n      dup4\n        /* \"@openzeppelin/contracts/token/ERC721/ERC721.sol\":14520:14524  auth */\n      dup4\n        /* \"@openzeppelin/contracts/token/ERC721/ERC721.sol\":14526:14530  true */\n      0x01\n        /* \"@openzeppelin/contracts/token/ERC721/ERC721.sol\":14498:14506  _approve */\n      tag_264\n        /* \"@openzeppelin/contracts/token/ERC721/ERC721.sol\":14498:14531  _approve(to, tokenId, auth, true) */\n      jump\t// in\n    tag_263:\n        /* \"@openzeppelin/contracts/token/ERC721/ERC721.sol\":14418:14538  function _approve(address to, uint256 tokenId, address auth) internal {... */\n      pop\n      pop\n      pop\n      jump\t// out\n        /* \"@openzeppelin/contracts/token/ERC721/ERC721.sol\":8838:9633  function _update(address to, uint256 tokenId, address auth) internal virtual returns (address) {... */\n    tag_172:\n        /* \"@openzeppelin/contracts/token/ERC721/ERC721.sol\":8924:8931  address */\n      0x00\n        /* \"@openzeppelin/contracts/token/ERC721/ERC721.sol\":8943:8955  address from */\n      dup1\n        /* \"@openzeppelin/contracts/token/ERC721/ERC721.sol\":8958:8975  _ownerOf(tokenId) */\n      tag_266\n        /* \"@openzeppelin/contracts/token/ERC721/ERC721.sol\":8967:8974  tokenId */\n      dup5\n        /* \"@openzeppelin/contracts/token/ERC721/ERC721.sol\":8958:8966  _ownerOf */\n      tag_257\n        /* \"@openzeppelin/contracts/token/ERC721/ERC721.sol\":8958:8975  _ownerOf(tokenId) */\n      jump\t// in\n    tag_266:\n        /* \"@openzeppelin/contracts/token/ERC721/ERC721.sol\":8943:8975  address from = _ownerOf(tokenId) */\n      swap1\n      pop\n        /* \"@openzeppelin/contracts/token/ERC721/ERC721.sol\":9051:9052  0 */\n      0x00\n        /* \"@openzeppelin/contracts/token/ERC721/ERC721.sol\":9035:9053  auth != address(0) */\n      0xffffffffffffffffffffffffffffffffffffffff\n      and\n        /* \"@openzeppelin/contracts/token/ERC721/ERC721.sol\":9035:9039  auth */\n      dup4\n        /* \"@openzeppelin/contracts/token/ERC721/ERC721.sol\":9035:9053  auth != address(0) */\n      0xffffffffffffffffffffffffffffffffffffffff\n      and\n      eq\n        /* \"@openzeppelin/contracts/token/ERC721/ERC721.sol\":9031:9117  if (auth != address(0)) {... */\n      tag_267\n      jumpi\n        /* \"@openzeppelin/contracts/token/ERC721/ERC721.sol\":9069:9106  _checkAuthorized(from, auth, tokenId) */\n      tag_268\n        /* \"@openzeppelin/contracts/token/ERC721/ERC721.sol\":9086:9090  from */\n      dup2\n        /* \"@openzeppelin/contracts/token/ERC721/ERC721.sol\":9092:9096  auth */\n      dup5\n        /* \"@openzeppelin/contracts/token/ERC721/ERC721.sol\":9098:9105  tokenId */\n      dup7\n        /* \"@openzeppelin/contracts/token/ERC721/ERC721.sol\":9069:9085  _checkAuthorized */\n      tag_269\n        /* \"@openzeppelin/contracts/token/ERC721/ERC721.sol\":9069:9106  _checkAuthorized(from, auth, tokenId) */\n      jump\t// in\n    tag_268:\n        /* \"@openzeppelin/contracts/token/ERC721/ERC721.sol\":9031:9117  if (auth != address(0)) {... */\n    tag_267:\n        /* \"@openzeppelin/contracts/token/ERC721/ERC721.sol\":9177:9178  0 */\n      0x00\n        /* \"@openzeppelin/contracts/token/ERC721/ERC721.sol\":9161:9179  from != address(0) */\n      0xffffffffffffffffffffffffffffffffffffffff\n      and\n        /* \"@openzeppelin/contracts/token/ERC721/ERC721.sol\":9161:9165  from */\n      dup2\n        /* \"@openzeppelin/contracts/token/ERC721/ERC721.sol\":9161:9179  from != address(0) */\n      0xffffffffffffffffffffffffffffffffffffffff\n      and\n      eq\n        /* \"@openzeppelin/contracts/token/ERC721/ERC721.sol\":9157:9413  if (from != address(0)) {... */\n      tag_270\n      jumpi\n        /* \"@openzeppelin/contracts/token/ERC721/ERC721.sol\":9277:9325  _approve(address(0), tokenId, address(0), false) */\n      tag_271\n        /* \"@openzeppelin/contracts/token/ERC721/ERC721.sol\":9294:9295  0 */\n      0x00\n        /* \"@openzeppelin/contracts/token/ERC721/ERC721.sol\":9298:9305  tokenId */\n      dup6\n        /* \"@openzeppelin/contracts/token/ERC721/ERC721.sol\":9315:9316  0 */\n      0x00\n        /* \"@openzeppelin/contracts/token/ERC721/ERC721.sol\":9319:9324  false */\n      dup1\n        /* \"@openzeppelin/contracts/token/ERC721/ERC721.sol\":9277:9285  _approve */\n      tag_264\n        /* \"@openzeppelin/contracts/token/ERC721/ERC721.sol\":9277:9325  _approve(address(0), tokenId, address(0), false) */\n      jump\t// in\n    tag_271:\n        /* \"@openzeppelin/contracts/token/ERC721/ERC721.sol\":9387:9388  1 */\n      0x01\n        /* \"@openzeppelin/contracts/token/ERC721/ERC721.sol\":9368:9377  _balances */\n      0x03\n        /* \"@openzeppelin/contracts/token/ERC721/ERC721.sol\":9368:9383  _balances[from] */\n      0x00\n        /* \"@openzeppelin/contracts/token/ERC721/ERC721.sol\":9378:9382  from */\n      dup4\n        /* \"@openzeppelin/contracts/token/ERC721/ERC721.sol\":9368:9383  _balances[from] */\n      0xffffffffffffffffffffffffffffffffffffffff\n      and\n      0xffffffffffffffffffffffffffffffffffffffff\n      and\n      dup2\n      mstore\n      0x20\n      add\n      swap1\n      dup2\n      mstore\n      0x20\n      add\n      0x00\n      keccak256\n      0x00\n        /* \"@openzeppelin/contracts/token/ERC721/ERC721.sol\":9368:9388  _balances[from] -= 1 */\n      dup3\n      dup3\n      sload\n      sub\n      swap3\n      pop\n      pop\n      dup2\n      swap1\n      sstore\n      pop\n        /* \"@openzeppelin/contracts/token/ERC721/ERC721.sol\":9157:9413  if (from != address(0)) {... */\n    tag_270:\n        /* \"@openzeppelin/contracts/token/ERC721/ERC721.sol\":9441:9442  0 */\n      0x00\n        /* \"@openzeppelin/contracts/token/ERC721/ERC721.sol\":9427:9443  to != address(0) */\n      0xffffffffffffffffffffffffffffffffffffffff\n      and\n        /* \"@openzeppelin/contracts/token/ERC721/ERC721.sol\":9427:9429  to */\n      dup6\n        /* \"@openzeppelin/contracts/token/ERC721/ERC721.sol\":9427:9443  to != address(0) */\n      0xffffffffffffffffffffffffffffffffffffffff\n      and\n      eq\n        /* \"@openzeppelin/contracts/token/ERC721/ERC721.sol\":9423:9530  if (to != address(0)) {... */\n      tag_272\n      jumpi\n        /* \"@openzeppelin/contracts/token/ERC721/ERC721.sol\":9504:9505  1 */\n      0x01\n        /* \"@openzeppelin/contracts/token/ERC721/ERC721.sol\":9487:9496  _balances */\n      0x03\n        /* \"@openzeppelin/contracts/token/ERC721/ERC721.sol\":9487:9500  _balances[to] */\n      0x00\n        /* \"@openzeppelin/contracts/token/ERC721/ERC721.sol\":9497:9499  to */\n      dup8\n        /* \"@openzeppelin/contracts/token/ERC721/ERC721.sol\":9487:9500  _balances[to] */\n      0xffffffffffffffffffffffffffffffffffffffff\n      and\n      0xffffffffffffffffffffffffffffffffffffffff\n      and\n      dup2\n      mstore\n      0x20\n      add\n      swap1\n      dup2\n      mstore\n      0x20\n      add\n      0x00\n      keccak256\n      0x00\n        /* \"@openzeppelin/contracts/token/ERC721/ERC721.sol\":9487:9505  _balances[to] += 1 */\n      dup3\n      dup3\n      sload\n      add\n      swap3\n      pop\n      pop\n      dup2\n      swap1\n      sstore\n      pop\n        /* \"@openzeppelin/contracts/token/ERC721/ERC721.sol\":9423:9530  if (to != address(0)) {... */\n    tag_272:\n        /* \"@openzeppelin/contracts/token/ERC721/ERC721.sol\":9559:9561  to */\n      dup5\n        /* \"@openzeppelin/contracts/token/ERC721/ERC721.sol\":9540:9547  _owners */\n      0x02\n        /* \"@openzeppelin/contracts/token/ERC721/ERC721.sol\":9540:9556  _owners[tokenId] */\n      0x00\n        /* \"@openzeppelin/contracts/token/ERC721/ERC721.sol\":9548:9555  tokenId */\n      dup7\n        /* \"@openzeppelin/contracts/token/ERC721/ERC721.sol\":9540:9556  _owners[tokenId] */\n      dup2\n      mstore\n      0x20\n      add\n      swap1\n      dup2\n      mstore\n      0x20\n      add\n      0x00\n      keccak256\n      0x00\n        /* \"@openzeppelin/contracts/token/ERC721/ERC721.sol\":9540:9561  _owners[tokenId] = to */\n      0x0100\n      exp\n      dup2\n      sload\n      dup2\n      0xffffffffffffffffffffffffffffffffffffffff\n      mul\n      not\n      and\n      swap1\n      dup4\n      0xffffffffffffffffffffffffffffffffffffffff\n      and\n      mul\n      or\n      swap1\n      sstore\n      pop\n        /* \"@openzeppelin/contracts/token/ERC721/ERC721.sol\":9596:9603  tokenId */\n      dup4\n        /* \"@openzeppelin/contracts/token/ERC721/ERC721.sol\":9592:9594  to */\n      dup6\n        /* \"@openzeppelin/contracts/token/ERC721/ERC721.sol\":9577:9604  Transfer(from, to, tokenId) */\n      0xffffffffffffffffffffffffffffffffffffffff\n      and\n        /* \"@openzeppelin/contracts/token/ERC721/ERC721.sol\":9586:9590  from */\n      dup3\n        /* \"@openzeppelin/contracts/token/ERC721/ERC721.sol\":9577:9604  Transfer(from, to, tokenId) */\n      0xffffffffffffffffffffffffffffffffffffffff\n      and\n      0xddf252ad1be2c89b69c2b068fc378daa952ba7f163c4a11628f55a4df523b3ef\n      mload(0x40)\n      mload(0x40)\n      dup1\n      swap2\n      sub\n      swap1\n      log4\n        /* \"@openzeppelin/contracts/token/ERC721/ERC721.sol\":9622:9626  from */\n      dup1\n        /* \"@openzeppelin/contracts/token/ERC721/ERC721.sol\":9615:9626  return from */\n      swap2\n      pop\n      pop\n        /* \"@openzeppelin/contracts/token/ERC721/ERC721.sol\":8838:9633  function _update(address to, uint256 tokenId, address auth) internal virtual returns (address) {... */\n      swap4\n      swap3\n      pop\n      pop\n      pop\n      jump\t// out\n        /* \"contracts/PetRegistry.sol\":2092:2544  function _createPet(... */\n    tag_191:\n        /* \"contracts/PetRegistry.sol\":2313:2326  uint256 petId */\n      0x00\n        /* \"contracts/PetRegistry.sol\":2329:2345  _generatePetId() */\n      tag_274\n        /* \"contracts/PetRegistry.sol\":2329:2343  _generatePetId */\n      tag_275\n        /* \"contracts/PetRegistry.sol\":2329:2345  _generatePetId() */\n      jump\t// in\n    tag_274:\n        /* \"contracts/PetRegistry.sol\":2313:2345  uint256 petId = _generatePetId() */\n      swap1\n      pop\n        /* \"contracts/PetRegistry.sol\":2370:2446  Pet(petId, _name, _species, _breed, _color, _birthDate, _weight, msg.sender) */\n      mload(0x40)\n      dup1\n      0x0100\n      add\n      0x40\n      mstore\n      dup1\n        /* \"contracts/PetRegistry.sol\":2374:2379  petId */\n      dup3\n        /* \"contracts/PetRegistry.sol\":2370:2446  Pet(petId, _name, _species, _breed, _color, _birthDate, _weight, msg.sender) */\n      dup2\n      mstore\n      0x20\n      add\n        /* \"contracts/PetRegistry.sol\":2381:2386  _name */\n      dup9\n        /* \"contracts/PetRegistry.sol\":2370:2446  Pet(petId, _name, _species, _breed, _color, _birthDate, _weight, msg.sender) */\n      dup2\n      mstore\n      0x20\n      add\n        /* \"contracts/PetRegistry.sol\":2388:2396  _species */\n      dup8\n        /* \"contracts/PetRegistry.sol\":2370:2446  Pet(petId, _name, _species, _breed, _color, _birthDate, _weight, msg.sender) */\n      0x03\n      dup2\n      gt\n      iszero\n      tag_276\n      jumpi\n      tag_277\n      tag_278\n      jump\t// in\n    tag_277:\n    tag_276:\n      dup2\n      mstore\n      0x20\n      add\n        /* \"contracts/PetRegistry.sol\":2398:2404  _breed */\n      dup7\n        /* \"contracts/PetRegistry.sol\":2370:2446  Pet(petId, _name, _species, _breed, _color, _birthDate, _weight, msg.sender) */\n      dup2\n      mstore\n      0x20\n      add\n        /* \"contracts/PetRegistry.sol\":2406:2412  _color */\n      dup6\n        /* \"contracts/PetRegistry.sol\":2370:2446  Pet(petId, _name, _species, _breed, _color, _birthDate, _weight, msg.sender) */\n      dup2\n      mstore\n      0x20\n      add\n        /* \"contracts/PetRegistry.sol\":2414:2424  _birthDate */\n      dup5\n        /* \"contracts/PetRegistry.sol\":2370:2446  Pet(petId, _name, _species, _breed, _color, _birthDate, _weight, msg.sender) */\n      dup2\n      mstore\n      0x20\n      add\n        /* \"contracts/PetRegistry.sol\":2426:2433  _weight */\n      dup4\n        /* \"contracts/PetRegistry.sol\":2370:2446  Pet(petId, _name, _species, _breed, _color, _birthDate, _weight, msg.sender) */\n      dup2\n      mstore\n      0x20\n      add\n        /* \"contracts/PetRegistry.sol\":2435:2445  msg.sender */\n      caller\n        /* \"contracts/PetRegistry.sol\":2370:2446  Pet(petId, _name, _species, _breed, _color, _birthDate, _weight, msg.sender) */\n      0xffffffffffffffffffffffffffffffffffffffff\n      and\n      dup2\n      mstore\n      pop\n        /* \"contracts/PetRegistry.sol\":2356:2360  pets */\n      0x08\n        /* \"contracts/PetRegistry.sol\":2356:2367  pets[petId] */\n      0x00\n        /* \"contracts/PetRegistry.sol\":2361:2366  petId */\n      dup4\n        /* \"contracts/PetRegistry.sol\":2356:2367  pets[petId] */\n      dup2\n      mstore\n      0x20\n      add\n      swap1\n      dup2\n      mstore\n      0x20\n      add\n      0x00\n      keccak256\n        /* \"contracts/PetRegistry.sol\":2356:2446  pets[petId] = Pet(petId, _name, _species, _breed, _color, _birthDate, _weight, msg.sender) */\n      0x00\n      dup3\n      add\n      mload\n      dup2\n      0x00\n      add\n      sstore\n      0x20\n      dup3\n      add\n      mload\n      dup2\n      0x01\n      add\n      swap1\n      dup2\n      tag_279\n      swap2\n      swap1\n      tag_280\n      jump\t// in\n    tag_279:\n      pop\n      0x40\n      dup3\n      add\n      mload\n      dup2\n      0x02\n      add\n      exp(0x0100, 0x00)\n      dup2\n      sload\n      dup2\n      0xff\n      mul\n      not\n      and\n      swap1\n      dup4\n      0x03\n      dup2\n      gt\n      iszero\n      tag_281\n      jumpi\n      tag_282\n      tag_278\n      jump\t// in\n    tag_282:\n    tag_281:\n      mul\n      or\n      swap1\n      sstore\n      pop\n      0x60\n      dup3\n      add\n      mload\n      dup2\n      0x03\n      add\n      swap1\n      dup2\n      tag_283\n      swap2\n      swap1\n      tag_280\n      jump\t// in\n    tag_283:\n      pop\n      0x80\n      dup3\n      add\n      mload\n      dup2\n      0x04\n      add\n      swap1\n      dup2\n      tag_284\n      swap2\n      swap1\n      tag_280\n      jump\t// in\n    tag_284:\n      pop\n      0xa0\n      dup3\n      add\n      mload\n      dup2\n      0x05\n      add\n      sstore\n      0xc0\n      dup3\n      add\n      mload\n      dup2\n      0x06\n      add\n      sstore\n      0xe0\n      dup3\n      add\n      mload\n      dup2\n      0x07\n      add\n      exp(0x0100, 0x00)\n      dup2\n      sload\n      dup2\n      0xffffffffffffffffffffffffffffffffffffffff\n      mul\n      not\n      and\n      swap1\n      dup4\n      0xffffffffffffffffffffffffffffffffffffffff\n      and\n      mul\n      or\n      swap1\n      sstore\n      pop\n      swap1\n      pop\n      pop\n        /* \"contracts/PetRegistry.sol\":2457:2481  _mint(msg.sender, petId) */\n      tag_285\n        /* \"contracts/PetRegistry.sol\":2463:2473  msg.sender */\n      caller\n        /* \"contracts/PetRegistry.sol\":2475:2480  petId */\n      dup3\n        /* \"contracts/PetRegistry.sol\":2457:2462  _mint */\n      tag_286\n        /* \"contracts/PetRegistry.sol\":2457:2481  _mint(msg.sender, petId) */\n      jump\t// in\n    tag_285:\n        /* \"contracts/PetRegistry.sol\":2518:2528  msg.sender */\n      caller\n        /* \"contracts/PetRegistry.sol\":2497:2536  PetRegistered(petId, msg.sender, _name) */\n      0xffffffffffffffffffffffffffffffffffffffff\n      and\n        /* \"contracts/PetRegistry.sol\":2511:2516  petId */\n      dup2\n        /* \"contracts/PetRegistry.sol\":2497:2536  PetRegistered(petId, msg.sender, _name) */\n      0x3c0aadacdb910e58fe38928aad07e1b89dc0baee588d7ca1e9bba80e1e3f3964\n        /* \"contracts/PetRegistry.sol\":2530:2535  _name */\n      dup10\n        /* \"contracts/PetRegistry.sol\":2497:2536  PetRegistered(petId, msg.sender, _name) */\n      mload(0x40)\n      tag_287\n      swap2\n      swap1\n      tag_40\n      jump\t// in\n    tag_287:\n      mload(0x40)\n      dup1\n      swap2\n      sub\n      swap1\n      log3\n        /* \"contracts/PetRegistry.sol\":2302:2544  {... */\n      pop\n        /* \"contracts/PetRegistry.sol\":2092:2544  function _createPet(... */\n      pop\n      pop\n      pop\n      pop\n      pop\n      pop\n      jump\t// out\n        /* \"@openzeppelin/contracts/token/ERC721/ERC721.sol\":15591:15903  function _setApprovalForAll(address owner, address operator, bool approved) internal virtual {... */\n    tag_206:\n        /* \"@openzeppelin/contracts/token/ERC721/ERC721.sol\":15718:15719  0 */\n      0x00\n        /* \"@openzeppelin/contracts/token/ERC721/ERC721.sol\":15698:15720  operator == address(0) */\n      0xffffffffffffffffffffffffffffffffffffffff\n      and\n        /* \"@openzeppelin/contracts/token/ERC721/ERC721.sol\":15698:15706  operator */\n      dup3\n        /* \"@openzeppelin/contracts/token/ERC721/ERC721.sol\":15698:15720  operator == address(0) */\n      0xffffffffffffffffffffffffffffffffffffffff\n      and\n      sub\n        /* \"@openzeppelin/contracts/token/ERC721/ERC721.sol\":15694:15785  if (operator == address(0)) {... */\n      tag_289\n      jumpi\n        /* \"@openzeppelin/contracts/token/ERC721/ERC721.sol\":15765:15773  operator */\n      dup2\n        /* \"@openzeppelin/contracts/token/ERC721/ERC721.sol\":15743:15774  ERC721InvalidOperator(operator) */\n      mload(0x40)\n      0x5b08ba1800000000000000000000000000000000000000000000000000000000\n      dup2\n      mstore\n      0x04\n      add\n      tag_290\n      swap2\n      swap1\n      tag_47\n      jump\t// in\n    tag_290:\n      mload(0x40)\n      dup1\n      swap2\n      sub\n      swap1\n      revert\n        /* \"@openzeppelin/contracts/token/ERC721/ERC721.sol\":15694:15785  if (operator == address(0)) {... */\n    tag_289:\n        /* \"@openzeppelin/contracts/token/ERC721/ERC721.sol\":15832:15840  approved */\n      dup1\n        /* \"@openzeppelin/contracts/token/ERC721/ERC721.sol\":15794:15812  _operatorApprovals */\n      0x05\n        /* \"@openzeppelin/contracts/token/ERC721/ERC721.sol\":15794:15819  _operatorApprovals[owner] */\n      0x00\n        /* \"@openzeppelin/contracts/token/ERC721/ERC721.sol\":15813:15818  owner */\n      dup6\n        /* \"@openzeppelin/contracts/token/ERC721/ERC721.sol\":15794:15819  _operatorApprovals[owner] */\n      0xffffffffffffffffffffffffffffffffffffffff\n      and\n      0xffffffffffffffffffffffffffffffffffffffff\n      and\n      dup2\n      mstore\n      0x20\n      add\n      swap1\n      dup2\n      mstore\n      0x20\n      add\n      0x00\n      keccak256\n        /* \"@openzeppelin/contracts/token/ERC721/ERC721.sol\":15794:15829  _operatorApprovals[owner][operator] */\n      0x00\n        /* \"@openzeppelin/contracts/token/ERC721/ERC721.sol\":15820:15828  operator */\n      dup5\n        /* \"@openzeppelin/contracts/token/ERC721/ERC721.sol\":15794:15829  _operatorApprovals[owner][operator] */\n      0xffffffffffffffffffffffffffffffffffffffff\n      and\n      0xffffffffffffffffffffffffffffffffffffffff\n      and\n      dup2\n      mstore\n      0x20\n      add\n      swap1\n      dup2\n      mstore\n      0x20\n      add\n      0x00\n      keccak256\n      0x00\n        /* \"@openzeppelin/contracts/token/ERC721/ERC721.sol\":15794:15840  _operatorApprovals[owner][operator] = approved */\n      0x0100\n      exp\n      dup2\n      sload\n      dup2\n      0xff\n      mul\n      not\n      and\n      swap1\n      dup4\n      iszero\n      iszero\n      mul\n      or\n      swap1\n      sstore\n      pop\n        /* \"@openzeppelin/contracts/token/ERC721/ERC721.sol\":15877:15885  operator */\n      dup2\n        /* \"@openzeppelin/contracts/token/ERC721/ERC721.sol\":15855:15896  ApprovalForAll(owner, operator, approved) */\n      0xffffffffffffffffffffffffffffffffffffffff\n      and\n        /* \"@openzeppelin/contracts/token/ERC721/ERC721.sol\":15870:15875  owner */\n      dup4\n        /* \"@openzeppelin/contracts/token/ERC721/ERC721.sol\":15855:15896  ApprovalForAll(owner, operator, approved) */\n      0xffffffffffffffffffffffffffffffffffffffff\n      and\n      0x17307eab39ab6107e8899845ad3d59bd9653f200f220920489ca2b5937696c31\n        /* \"@openzeppelin/contracts/token/ERC721/ERC721.sol\":15887:15895  approved */\n      dup4\n        /* \"@openzeppelin/contracts/token/ERC721/ERC721.sol\":15855:15896  ApprovalForAll(owner, operator, approved) */\n      mload(0x40)\n      tag_291\n      swap2\n      swap1\n      tag_35\n      jump\t// in\n    tag_291:\n      mload(0x40)\n      dup1\n      swap2\n      sub\n      swap1\n      log3\n        /* \"@openzeppelin/contracts/token/ERC721/ERC721.sol\":15591:15903  function _setApprovalForAll(address owner, address operator, bool approved) internal virtual {... */\n      pop\n      pop\n      pop\n      jump\t// out\n        /* \"@openzeppelin/contracts/token/ERC721/ERC721.sol\":16918:17700  function _checkOnERC721Received(address from, address to, uint256 tokenId, bytes memory data) private {... */\n    tag_214:\n        /* \"@openzeppelin/contracts/token/ERC721/ERC721.sol\":17051:17052  0 */\n      0x00\n        /* \"@openzeppelin/contracts/token/ERC721/ERC721.sol\":17034:17036  to */\n      dup4\n        /* \"@openzeppelin/contracts/token/ERC721/ERC721.sol\":17034:17048  to.code.length */\n      0xffffffffffffffffffffffffffffffffffffffff\n      and\n      extcodesize\n        /* \"@openzeppelin/contracts/token/ERC721/ERC721.sol\":17034:17052  to.code.length > 0 */\n      gt\n        /* \"@openzeppelin/contracts/token/ERC721/ERC721.sol\":17030:17694  if (to.code.length > 0) {... */\n      iszero\n      tag_293\n      jumpi\n        /* \"@openzeppelin/contracts/token/ERC721/ERC721.sol\":17088:17090  to */\n      dup3\n        /* \"@openzeppelin/contracts/token/ERC721/ERC721.sol\":17072:17108  IERC721Receiver(to).onERC721Received */\n      0xffffffffffffffffffffffffffffffffffffffff\n      and\n      0x150b7a02\n        /* \"@openzeppelin/contracts/token/ERC721/ERC721.sol\":17109:17121  _msgSender() */\n      tag_294\n        /* \"@openzeppelin/contracts/token/ERC721/ERC721.sol\":17109:17119  _msgSender */\n      tag_164\n        /* \"@openzeppelin/contracts/token/ERC721/ERC721.sol\":17109:17121  _msgSender() */\n      jump\t// in\n    tag_294:\n        /* \"@openzeppelin/contracts/token/ERC721/ERC721.sol\":17123:17127  from */\n      dup7\n        /* \"@openzeppelin/contracts/token/ERC721/ERC721.sol\":17129:17136  tokenId */\n      dup6\n        /* \"@openzeppelin/contracts/token/ERC721/ERC721.sol\":17138:17142  data */\n      dup6\n        /* \"@openzeppelin/contracts/token/ERC721/ERC721.sol\":17072:17143  IERC721Receiver(to).onERC721Received(_msgSender(), from, tokenId, data) */\n      mload(0x40)\n      dup6\n      0xffffffff\n      and\n      0xe0\n      shl\n      dup2\n      mstore\n      0x04\n      add\n      tag_295\n      swap5\n      swap4\n      swap3\n      swap2\n      swap1\n      tag_296\n      jump\t// in\n    tag_295:\n      0x20\n      mload(0x40)\n      dup1\n      dup4\n      sub\n      dup2\n      0x00\n      dup8\n      gas\n      call\n      swap3\n      pop\n      pop\n      pop\n      dup1\n      iszero\n      tag_297\n      jumpi\n      pop\n      mload(0x40)\n      returndatasize\n      not(0x1f)\n      0x1f\n      dup3\n      add\n      and\n      dup3\n      add\n      dup1\n      0x40\n      mstore\n      pop\n      dup2\n      add\n      swap1\n      tag_298\n      swap2\n      swap1\n      tag_299\n      jump\t// in\n    tag_298:\n      0x01\n    tag_297:\n        /* \"@openzeppelin/contracts/token/ERC721/ERC721.sol\":17068:17684  try IERC721Receiver(to).onERC721Received(_msgSender(), from, tokenId, data) returns (bytes4 retval) {... */\n      tag_300\n      jumpi\n      returndatasize\n      dup1\n      0x00\n      dup2\n      eq\n      tag_305\n      jumpi\n      mload(0x40)\n      swap2\n      pop\n      and(add(returndatasize, 0x3f), not(0x1f))\n      dup3\n      add\n      0x40\n      mstore\n      returndatasize\n      dup3\n      mstore\n      returndatasize\n      0x00\n      0x20\n      dup5\n      add\n      returndatacopy\n      jump(tag_304)\n    tag_305:\n      0x60\n      swap2\n      pop\n    tag_304:\n      pop\n        /* \"@openzeppelin/contracts/token/ERC721/ERC721.sol\":17398:17399  0 */\n      0x00\n        /* \"@openzeppelin/contracts/token/ERC721/ERC721.sol\":17381:17387  reason */\n      dup2\n        /* \"@openzeppelin/contracts/token/ERC721/ERC721.sol\":17381:17394  reason.length */\n      mload\n        /* \"@openzeppelin/contracts/token/ERC721/ERC721.sol\":17381:17399  reason.length == 0 */\n      sub\n        /* \"@openzeppelin/contracts/token/ERC721/ERC721.sol\":17377:17670  if (reason.length == 0) {... */\n      tag_306\n      jumpi\n        /* \"@openzeppelin/contracts/token/ERC721/ERC721.sol\":17452:17454  to */\n      dup4\n        /* \"@openzeppelin/contracts/token/ERC721/ERC721.sol\":17430:17455  ERC721InvalidReceiver(to) */\n      mload(0x40)\n      0x64a0ae9200000000000000000000000000000000000000000000000000000000\n      dup2\n      mstore\n      0x04\n      add\n      tag_307\n      swap2\n      swap1\n      tag_47\n      jump\t// in\n    tag_307:\n      mload(0x40)\n      dup1\n      swap2\n      sub\n      swap1\n      revert\n        /* \"@openzeppelin/contracts/token/ERC721/ERC721.sol\":17377:17670  if (reason.length == 0) {... */\n    tag_306:\n        /* \"@openzeppelin/contracts/token/ERC721/ERC721.sol\":17622:17628  reason */\n      dup1\n        /* \"@openzeppelin/contracts/token/ERC721/ERC721.sol\":17616:17629  mload(reason) */\n      mload\n        /* \"@openzeppelin/contracts/token/ERC721/ERC721.sol\":17607:17613  reason */\n      dup2\n        /* \"@openzeppelin/contracts/token/ERC721/ERC721.sol\":17603:17605  32 */\n      0x20\n        /* \"@openzeppelin/contracts/token/ERC721/ERC721.sol\":17599:17614  add(32, reason) */\n      add\n        /* \"@openzeppelin/contracts/token/ERC721/ERC721.sol\":17592:17630  revert(add(32, reason), mload(reason)) */\n      revert\n        /* \"@openzeppelin/contracts/token/ERC721/ERC721.sol\":17068:17684  try IERC721Receiver(to).onERC721Received(_msgSender(), from, tokenId, data) returns (bytes4 retval) {... */\n    tag_300:\n        /* \"@openzeppelin/contracts/token/ERC721/ERC721.sol\":17200:17241  IERC721Receiver.onERC721Received.selector */\n      shl(0xe0, 0x150b7a02)\n        /* \"@openzeppelin/contracts/token/ERC721/ERC721.sol\":17190:17241  retval != IERC721Receiver.onERC721Received.selector */\n      not(0xffffffffffffffffffffffffffffffffffffffffffffffffffffffff)\n      and\n        /* \"@openzeppelin/contracts/token/ERC721/ERC721.sol\":17190:17196  retval */\n      dup2\n        /* \"@openzeppelin/contracts/token/ERC721/ERC721.sol\":17190:17241  retval != IERC721Receiver.onERC721Received.selector */\n      not(0xffffffffffffffffffffffffffffffffffffffffffffffffffffffff)\n      and\n      eq\n        /* \"@openzeppelin/contracts/token/ERC721/ERC721.sol\":17186:17316  if (retval != IERC721Receiver.onERC721Received.selector) {... */\n      tag_310\n      jumpi\n        /* \"@openzeppelin/contracts/token/ERC721/ERC721.sol\":17294:17296  to */\n      dup4\n        /* \"@openzeppelin/contracts/token/ERC721/ERC721.sol\":17272:17297  ERC721InvalidReceiver(to) */\n      mload(0x40)\n      0x64a0ae9200000000000000000000000000000000000000000000000000000000\n      dup2\n      mstore\n      0x04\n      add\n      tag_311\n      swap2\n      swap1\n      tag_47\n      jump\t// in\n    tag_311:\n      mload(0x40)\n      dup1\n      swap2\n      sub\n      swap1\n      revert\n        /* \"@openzeppelin/contracts/token/ERC721/ERC721.sol\":17186:17316  if (retval != IERC721Receiver.onERC721Received.selector) {... */\n    tag_310:\n        /* \"@openzeppelin/contracts/token/ERC721/ERC721.sol\":17144:17330  returns (bytes4 retval) {... */\n      pop\n        /* \"@openzeppelin/contracts/token/ERC721/ERC721.sol\":17030:17694  if (to.code.length > 0) {... */\n    tag_293:\n        /* \"@openzeppelin/contracts/token/ERC721/ERC721.sol\":16918:17700  function _checkOnERC721Received(address from, address to, uint256 tokenId, bytes memory data) private {... */\n      pop\n      pop\n      pop\n      pop\n      jump\t// out\n        /* \"@openzeppelin/contracts/token/ERC721/ERC721.sol\":3174:3266  function _baseURI() internal view virtual returns (string memory) {... */\n    tag_224:\n        /* \"@openzeppelin/contracts/token/ERC721/ERC721.sol\":3225:3238  string memory */\n      0x60\n        /* \"@openzeppelin/contracts/token/ERC721/ERC721.sol\":3250:3259  return \"\" */\n      mload(0x40)\n      dup1\n      0x20\n      add\n      0x40\n      mstore\n      dup1\n      0x00\n      dup2\n      mstore\n      pop\n      swap1\n      pop\n        /* \"@openzeppelin/contracts/token/ERC721/ERC721.sol\":3174:3266  function _baseURI() internal view virtual returns (string memory) {... */\n      swap1\n      jump\t// out\n        /* \"@openzeppelin/contracts/utils/Strings.sol\":637:1335  function toString(uint256 value) internal pure returns (string memory) {... */\n    tag_228:\n        /* \"@openzeppelin/contracts/utils/Strings.sol\":693:706  string memory */\n      0x60\n        /* \"@openzeppelin/contracts/utils/Strings.sol\":742:756  uint256 length */\n      0x00\n        /* \"@openzeppelin/contracts/utils/Strings.sol\":779:780  1 */\n      0x01\n        /* \"@openzeppelin/contracts/utils/Strings.sol\":759:776  Math.log10(value) */\n      tag_314\n        /* \"@openzeppelin/contracts/utils/Strings.sol\":770:775  value */\n      dup5\n        /* \"@openzeppelin/contracts/utils/Strings.sol\":759:769  Math.log10 */\n      tag_315\n        /* \"@openzeppelin/contracts/utils/Strings.sol\":759:776  Math.log10(value) */\n      jump\t// in\n    tag_314:\n        /* \"@openzeppelin/contracts/utils/Strings.sol\":759:780  Math.log10(value) + 1 */\n      add\n        /* \"@openzeppelin/contracts/utils/Strings.sol\":742:780  uint256 length = Math.log10(value) + 1 */\n      swap1\n      pop\n        /* \"@openzeppelin/contracts/utils/Strings.sol\":794:814  string memory buffer */\n      0x00\n        /* \"@openzeppelin/contracts/utils/Strings.sol\":828:834  length */\n      dup2\n        /* \"@openzeppelin/contracts/utils/Strings.sol\":817:835  new string(length) */\n      0xffffffffffffffff\n      dup2\n      gt\n      iszero\n      tag_316\n      jumpi\n      tag_317\n      tag_318\n      jump\t// in\n    tag_317:\n    tag_316:\n      mload(0x40)\n      swap1\n      dup1\n      dup3\n      mstore\n      dup1\n      0x1f\n      add\n      not(0x1f)\n      and\n      0x20\n      add\n      dup3\n      add\n      0x40\n      mstore\n      dup1\n      iszero\n      tag_319\n      jumpi\n      dup2\n      0x20\n      add\n      0x01\n      dup3\n      mul\n      dup1\n      calldatasize\n      dup4\n      calldatacopy\n      dup1\n      dup3\n      add\n      swap2\n      pop\n      pop\n      swap1\n      pop\n    tag_319:\n      pop\n        /* \"@openzeppelin/contracts/utils/Strings.sol\":794:835  string memory buffer = new string(length) */\n      swap1\n      pop\n        /* \"@openzeppelin/contracts/utils/Strings.sol\":849:860  uint256 ptr */\n      0x00\n        /* \"@openzeppelin/contracts/utils/Strings.sol\":975:981  length */\n      dup3\n        /* \"@openzeppelin/contracts/utils/Strings.sol\":971:973  32 */\n      0x20\n        /* \"@openzeppelin/contracts/utils/Strings.sol\":967:982  add(32, length) */\n      add\n        /* \"@openzeppelin/contracts/utils/Strings.sol\":959:965  buffer */\n      dup3\n        /* \"@openzeppelin/contracts/utils/Strings.sol\":955:983  add(buffer, add(32, length)) */\n      add\n        /* \"@openzeppelin/contracts/utils/Strings.sol\":948:983  ptr := add(buffer, add(32, length)) */\n      swap1\n      pop\n        /* \"@openzeppelin/contracts/utils/Strings.sol\":1010:1292  while (true) {... */\n    tag_320:\n        /* \"@openzeppelin/contracts/utils/Strings.sol\":1017:1021  true */\n      0x01\n        /* \"@openzeppelin/contracts/utils/Strings.sol\":1010:1292  while (true) {... */\n      iszero\n      tag_321\n      jumpi\n        /* \"@openzeppelin/contracts/utils/Strings.sol\":1041:1046  ptr-- */\n      dup1\n      dup1\n      0x01\n      swap1\n      sub\n      swap2\n      pop\n      pop\n        /* \"@openzeppelin/contracts/utils/Strings.sol\":1180:1190  HEX_DIGITS */\n      0x3031323334353637383961626364656600000000000000000000000000000000\n        /* \"@openzeppelin/contracts/utils/Strings.sol\":1175:1177  10 */\n      0x0a\n        /* \"@openzeppelin/contracts/utils/Strings.sol\":1168:1173  value */\n      dup7\n        /* \"@openzeppelin/contracts/utils/Strings.sol\":1164:1178  mod(value, 10) */\n      mod\n        /* \"@openzeppelin/contracts/utils/Strings.sol\":1159:1191  byte(mod(value, 10), HEX_DIGITS) */\n      byte\n        /* \"@openzeppelin/contracts/utils/Strings.sol\":1154:1157  ptr */\n      dup2\n        /* \"@openzeppelin/contracts/utils/Strings.sol\":1146:1192  mstore8(ptr, byte(mod(value, 10), HEX_DIGITS)) */\n      mstore8\n        /* \"@openzeppelin/contracts/utils/Strings.sol\":1236:1238  10 */\n      0x0a\n        /* \"@openzeppelin/contracts/utils/Strings.sol\":1227:1238  value /= 10 */\n      dup6\n      dup2\n      tag_322\n      jumpi\n      tag_323\n      tag_324\n      jump\t// in\n    tag_323:\n    tag_322:\n      div\n      swap5\n      pop\n        /* \"@openzeppelin/contracts/utils/Strings.sol\":1269:1270  0 */\n      0x00\n        /* \"@openzeppelin/contracts/utils/Strings.sol\":1260:1265  value */\n      dup6\n        /* \"@openzeppelin/contracts/utils/Strings.sol\":1260:1270  value == 0 */\n      sub\n        /* \"@openzeppelin/contracts/utils/Strings.sol\":1010:1292  while (true) {... */\n      tag_320\n        /* \"@openzeppelin/contracts/utils/Strings.sol\":1256:1277  if (value == 0) break */\n      jumpi\n        /* \"@openzeppelin/contracts/utils/Strings.sol\":1010:1292  while (true) {... */\n    tag_321:\n        /* \"@openzeppelin/contracts/utils/Strings.sol\":1312:1318  buffer */\n      dup2\n        /* \"@openzeppelin/contracts/utils/Strings.sol\":1305:1318  return buffer */\n      swap4\n      pop\n      pop\n      pop\n      pop\n        /* \"@openzeppelin/contracts/utils/Strings.sol\":637:1335  function toString(uint256 value) internal pure returns (string memory) {... */\n      swap2\n      swap1\n      pop\n      jump\t// out\n        /* \"@openzeppelin/contracts/token/ERC721/ERC721.sol\":5707:5822  function _ownerOf(uint256 tokenId) internal view virtual returns (address) {... */\n    tag_257:\n        /* \"@openzeppelin/contracts/token/ERC721/ERC721.sol\":5773:5780  address */\n      0x00\n        /* \"@openzeppelin/contracts/token/ERC721/ERC721.sol\":5799:5806  _owners */\n      0x02\n        /* \"@openzeppelin/contracts/token/ERC721/ERC721.sol\":5799:5815  _owners[tokenId] */\n      0x00\n        /* \"@openzeppelin/contracts/token/ERC721/ERC721.sol\":5807:5814  tokenId */\n      dup4\n        /* \"@openzeppelin/contracts/token/ERC721/ERC721.sol\":5799:5815  _owners[tokenId] */\n      dup2\n      mstore\n      0x20\n      add\n      swap1\n      dup2\n      mstore\n      0x20\n      add\n      0x00\n      keccak256\n      0x00\n      swap1\n      sload\n      swap1\n      0x0100\n      exp\n      swap1\n      div\n      0xffffffffffffffffffffffffffffffffffffffff\n      and\n        /* \"@openzeppelin/contracts/token/ERC721/ERC721.sol\":5792:5815  return _owners[tokenId] */\n      swap1\n      pop\n        /* \"@openzeppelin/contracts/token/ERC721/ERC721.sol\":5707:5822  function _ownerOf(uint256 tokenId) internal view virtual returns (address) {... */\n      swap2\n      swap1\n      pop\n      jump\t// out\n        /* \"@openzeppelin/contracts/token/ERC721/ERC721.sol\":14720:15382  function _approve(address to, uint256 tokenId, address auth, bool emitEvent) internal virtual {... */\n    tag_264:\n        /* \"@openzeppelin/contracts/token/ERC721/ERC721.sol\":14880:14889  emitEvent */\n      dup1\n        /* \"@openzeppelin/contracts/token/ERC721/ERC721.sol\":14880:14911  emitEvent || auth != address(0) */\n      dup1\n      tag_328\n      jumpi\n      pop\n        /* \"@openzeppelin/contracts/token/ERC721/ERC721.sol\":14909:14910  0 */\n      0x00\n        /* \"@openzeppelin/contracts/token/ERC721/ERC721.sol\":14893:14911  auth != address(0) */\n      0xffffffffffffffffffffffffffffffffffffffff\n      and\n        /* \"@openzeppelin/contracts/token/ERC721/ERC721.sol\":14893:14897  auth */\n      dup3\n        /* \"@openzeppelin/contracts/token/ERC721/ERC721.sol\":14893:14911  auth != address(0) */\n      0xffffffffffffffffffffffffffffffffffffffff\n      and\n      eq\n      iszero\n        /* \"@openzeppelin/contracts/token/ERC721/ERC721.sol\":14880:14911  emitEvent || auth != address(0) */\n    tag_328:\n        /* \"@openzeppelin/contracts/token/ERC721/ERC721.sol\":14876:15336  if (emitEvent || auth != address(0)) {... */\n      iszero\n      tag_329\n      jumpi\n        /* \"@openzeppelin/contracts/token/ERC721/ERC721.sol\":14927:14940  address owner */\n      0x00\n        /* \"@openzeppelin/contracts/token/ERC721/ERC721.sol\":14943:14965  _requireOwned(tokenId) */\n      tag_330\n        /* \"@openzeppelin/contracts/token/ERC721/ERC721.sol\":14957:14964  tokenId */\n      dup5\n        /* \"@openzeppelin/contracts/token/ERC721/ERC721.sol\":14943:14956  _requireOwned */\n      tag_158\n        /* \"@openzeppelin/contracts/token/ERC721/ERC721.sol\":14943:14965  _requireOwned(tokenId) */\n      jump\t// in\n    tag_330:\n        /* \"@openzeppelin/contracts/token/ERC721/ERC721.sol\":14927:14965  address owner = _requireOwned(tokenId) */\n      swap1\n      pop\n        /* \"@openzeppelin/contracts/token/ERC721/ERC721.sol\":15109:15110  0 */\n      0x00\n        /* \"@openzeppelin/contracts/token/ERC721/ERC721.sol\":15093:15111  auth != address(0) */\n      0xffffffffffffffffffffffffffffffffffffffff\n      and\n        /* \"@openzeppelin/contracts/token/ERC721/ERC721.sol\":15093:15097  auth */\n      dup4\n        /* \"@openzeppelin/contracts/token/ERC721/ERC721.sol\":15093:15111  auth != address(0) */\n      0xffffffffffffffffffffffffffffffffffffffff\n      and\n      eq\n      iszero\n        /* \"@openzeppelin/contracts/token/ERC721/ERC721.sol\":15093:15128  auth != address(0) && owner != auth */\n      dup1\n      iszero\n      tag_331\n      jumpi\n      pop\n        /* \"@openzeppelin/contracts/token/ERC721/ERC721.sol\":15124:15128  auth */\n      dup3\n        /* \"@openzeppelin/contracts/token/ERC721/ERC721.sol\":15115:15128  owner != auth */\n      0xffffffffffffffffffffffffffffffffffffffff\n      and\n        /* \"@openzeppelin/contracts/token/ERC721/ERC721.sol\":15115:15120  owner */\n      dup2\n        /* \"@openzeppelin/contracts/token/ERC721/ERC721.sol\":15115:15128  owner != auth */\n      0xffffffffffffffffffffffffffffffffffffffff\n      and\n      eq\n      iszero\n        /* \"@openzeppelin/contracts/token/ERC721/ERC721.sol\":15093:15128  auth != address(0) && owner != auth */\n    tag_331:\n        /* \"@openzeppelin/contracts/token/ERC721/ERC721.sol\":15093:15162  auth != address(0) && owner != auth && !isApprovedForAll(owner, auth) */\n      dup1\n      iszero\n      tag_332\n      jumpi\n      pop\n        /* \"@openzeppelin/contracts/token/ERC721/ERC721.sol\":15133:15162  isApprovedForAll(owner, auth) */\n      tag_333\n        /* \"@openzeppelin/contracts/token/ERC721/ERC721.sol\":15150:15155  owner */\n      dup2\n        /* \"@openzeppelin/contracts/token/ERC721/ERC721.sol\":15157:15161  auth */\n      dup5\n        /* \"@openzeppelin/contracts/token/ERC721/ERC721.sol\":15133:15149  isApprovedForAll */\n      tag_142\n        /* \"@openzeppelin/contracts/token/ERC721/ERC721.sol\":15133:15162  isApprovedForAll(owner, auth) */\n      jump\t// in\n    tag_333:\n        /* \"@openzeppelin/contracts/token/ERC721/ERC721.sol\":15132:15162  !isApprovedForAll(owner, auth) */\n      iszero\n        /* \"@openzeppelin/contracts/token/ERC721/ERC721.sol\":15093:15162  auth != address(0) && owner != auth && !isApprovedForAll(owner, auth) */\n    tag_332:\n        /* \"@openzeppelin/contracts/token/ERC721/ERC721.sol\":15089:15231  if (auth != address(0) && owner != auth && !isApprovedForAll(owner, auth)) {... */\n      iszero\n      tag_334\n      jumpi\n        /* \"@openzeppelin/contracts/token/ERC721/ERC721.sol\":15211:15215  auth */\n      dup3\n        /* \"@openzeppelin/contracts/token/ERC721/ERC721.sol\":15189:15216  ERC721InvalidApprover(auth) */\n      mload(0x40)\n      0xa9fbf51f00000000000000000000000000000000000000000000000000000000\n      dup2\n      mstore\n      0x04\n      add\n      tag_335\n      swap2\n      swap1\n      tag_47\n      jump\t// in\n    tag_335:\n      mload(0x40)\n      dup1\n      swap2\n      sub\n      swap1\n      revert\n        /* \"@openzeppelin/contracts/token/ERC721/ERC721.sol\":15089:15231  if (auth != address(0) && owner != auth && !isApprovedForAll(owner, auth)) {... */\n    tag_334:\n        /* \"@openzeppelin/contracts/token/ERC721/ERC721.sol\":15249:15258  emitEvent */\n      dup2\n        /* \"@openzeppelin/contracts/token/ERC721/ERC721.sol\":15245:15326  if (emitEvent) {... */\n      iszero\n      tag_336\n      jumpi\n        /* \"@openzeppelin/contracts/token/ERC721/ERC721.sol\":15303:15310  tokenId */\n      dup4\n        /* \"@openzeppelin/contracts/token/ERC721/ERC721.sol\":15299:15301  to */\n      dup6\n        /* \"@openzeppelin/contracts/token/ERC721/ERC721.sol\":15283:15311  Approval(owner, to, tokenId) */\n      0xffffffffffffffffffffffffffffffffffffffff\n      and\n        /* \"@openzeppelin/contracts/token/ERC721/ERC721.sol\":15292:15297  owner */\n      dup3\n        /* \"@openzeppelin/contracts/token/ERC721/ERC721.sol\":15283:15311  Approval(owner, to, tokenId) */\n      0xffffffffffffffffffffffffffffffffffffffff\n      and\n      0x8c5be1e5ebec7d5bd14f71427d1e84f3dd0314c0f7b2291e5b200ac8c7c3b925\n      mload(0x40)\n      mload(0x40)\n      dup1\n      swap2\n      sub\n      swap1\n      log4\n        /* \"@openzeppelin/contracts/token/ERC721/ERC721.sol\":15245:15326  if (emitEvent) {... */\n    tag_336:\n        /* \"@openzeppelin/contracts/token/ERC721/ERC721.sol\":14913:15336  {... */\n      pop\n        /* \"@openzeppelin/contracts/token/ERC721/ERC721.sol\":14876:15336  if (emitEvent || auth != address(0)) {... */\n    tag_329:\n        /* \"@openzeppelin/contracts/token/ERC721/ERC721.sol\":15373:15375  to */\n      dup4\n        /* \"@openzeppelin/contracts/token/ERC721/ERC721.sol\":15346:15361  _tokenApprovals */\n      0x04\n        /* \"@openzeppelin/contracts/token/ERC721/ERC721.sol\":15346:15370  _tokenApprovals[tokenId] */\n      0x00\n        /* \"@openzeppelin/contracts/token/ERC721/ERC721.sol\":15362:15369  tokenId */\n      dup6\n        /* \"@openzeppelin/contracts/token/ERC721/ERC721.sol\":15346:15370  _tokenApprovals[tokenId] */\n      dup2\n      mstore\n      0x20\n      add\n      swap1\n      dup2\n      mstore\n      0x20\n      add\n      0x00\n      keccak256\n      0x00\n        /* \"@openzeppelin/contracts/token/ERC721/ERC721.sol\":15346:15375  _tokenApprovals[tokenId] = to */\n      0x0100\n      exp\n      dup2\n      sload\n      dup2\n      0xffffffffffffffffffffffffffffffffffffffff\n      mul\n      not\n      and\n      swap1\n      dup4\n      0xffffffffffffffffffffffffffffffffffffffff\n      and\n      mul\n      or\n      swap1\n      sstore\n      pop\n        /* \"@openzeppelin/contracts/token/ERC721/ERC721.sol\":14720:15382  function _approve(address to, uint256 tokenId, address auth, bool emitEvent) internal virtual {... */\n      pop\n      pop\n      pop\n      pop\n      jump\t// out\n        /* \"@openzeppelin/contracts/token/ERC721/ERC721.sol\":7082:7450  function _checkAuthorized(address owner, address spender, uint256 tokenId) internal view virtual {... */\n    tag_269:\n        /* \"@openzeppelin/contracts/token/ERC721/ERC721.sol\":7194:7232  _isAuthorized(owner, spender, tokenId) */\n      tag_338\n        /* \"@openzeppelin/contracts/token/ERC721/ERC721.sol\":7208:7213  owner */\n      dup4\n        /* \"@openzeppelin/contracts/token/ERC721/ERC721.sol\":7215:7222  spender */\n      dup4\n        /* \"@openzeppelin/contracts/token/ERC721/ERC721.sol\":7224:7231  tokenId */\n      dup4\n        /* \"@openzeppelin/contracts/token/ERC721/ERC721.sol\":7194:7207  _isAuthorized */\n      tag_339\n        /* \"@openzeppelin/contracts/token/ERC721/ERC721.sol\":7194:7232  _isAuthorized(owner, spender, tokenId) */\n      jump\t// in\n    tag_338:\n        /* \"@openzeppelin/contracts/token/ERC721/ERC721.sol\":7189:7444  if (!_isAuthorized(owner, spender, tokenId)) {... */\n      tag_340\n      jumpi\n        /* \"@openzeppelin/contracts/token/ERC721/ERC721.sol\":7269:7270  0 */\n      0x00\n        /* \"@openzeppelin/contracts/token/ERC721/ERC721.sol\":7252:7271  owner == address(0) */\n      0xffffffffffffffffffffffffffffffffffffffff\n      and\n        /* \"@openzeppelin/contracts/token/ERC721/ERC721.sol\":7252:7257  owner */\n      dup4\n        /* \"@openzeppelin/contracts/token/ERC721/ERC721.sol\":7252:7271  owner == address(0) */\n      0xffffffffffffffffffffffffffffffffffffffff\n      and\n      sub\n        /* \"@openzeppelin/contracts/token/ERC721/ERC721.sol\":7248:7434  if (owner == address(0)) {... */\n      tag_341\n      jumpi\n        /* \"@openzeppelin/contracts/token/ERC721/ERC721.sol\":7321:7328  tokenId */\n      dup1\n        /* \"@openzeppelin/contracts/token/ERC721/ERC721.sol\":7298:7329  ERC721NonexistentToken(tokenId) */\n      mload(0x40)\n      0x7e27328900000000000000000000000000000000000000000000000000000000\n      dup2\n      mstore\n      0x04\n      add\n      tag_342\n      swap2\n      swap1\n      tag_57\n      jump\t// in\n    tag_342:\n      mload(0x40)\n      dup1\n      swap2\n      sub\n      swap1\n      revert\n        /* \"@openzeppelin/contracts/token/ERC721/ERC721.sol\":7248:7434  if (owner == address(0)) {... */\n    tag_341:\n        /* \"@openzeppelin/contracts/token/ERC721/ERC721.sol\":7402:7409  spender */\n      dup2\n        /* \"@openzeppelin/contracts/token/ERC721/ERC721.sol\":7411:7418  tokenId */\n      dup2\n        /* \"@openzeppelin/contracts/token/ERC721/ERC721.sol\":7375:7419  ERC721InsufficientApproval(spender, tokenId) */\n      mload(0x40)\n      0x177e802f00000000000000000000000000000000000000000000000000000000\n      dup2\n      mstore\n      0x04\n      add\n      tag_344\n      swap3\n      swap2\n      swap1\n      tag_345\n      jump\t// in\n    tag_344:\n      mload(0x40)\n      dup1\n      swap2\n      sub\n      swap1\n      revert\n        /* \"@openzeppelin/contracts/token/ERC721/ERC721.sol\":7189:7444  if (!_isAuthorized(owner, spender, tokenId)) {... */\n    tag_340:\n        /* \"@openzeppelin/contracts/token/ERC721/ERC721.sol\":7082:7450  function _checkAuthorized(address owner, address spender, uint256 tokenId) internal view virtual {... */\n      pop\n      pop\n      pop\n      jump\t// out\n        /* \"contracts/PetRegistry.sol\":1943:2084  function _generatePetId() internal returns (uint256){... */\n    tag_275:\n        /* \"contracts/PetRegistry.sol\":1987:1994  uint256 */\n      0x00\n        /* \"contracts/PetRegistry.sol\":2006:2019  uint256 petId */\n      dup1\n        /* \"contracts/PetRegistry.sol\":2032:2033  1 */\n      0x01\n        /* \"contracts/PetRegistry.sol\":2022:2029  counter */\n      sload(0x09)\n        /* \"contracts/PetRegistry.sol\":2022:2033  counter + 1 */\n      tag_347\n      swap2\n      swap1\n      tag_348\n      jump\t// in\n    tag_347:\n        /* \"contracts/PetRegistry.sol\":2006:2033  uint256 petId = counter + 1 */\n      swap1\n      pop\n        /* \"contracts/PetRegistry.sol\":2044:2051  counter */\n      0x09\n      0x00\n        /* \"contracts/PetRegistry.sol\":2044:2053  counter++ */\n      dup2\n      sload\n      dup1\n      swap3\n      swap2\n      swap1\n      tag_349\n      swap1\n      tag_350\n      jump\t// in\n    tag_349:\n      swap2\n      swap1\n      pop\n      sstore\n      pop\n        /* \"contracts/PetRegistry.sol\":2071:2076  petId */\n      dup1\n        /* \"contracts/PetRegistry.sol\":2064:2076  return petId */\n      swap2\n      pop\n      pop\n        /* \"contracts/PetRegistry.sol\":1943:2084  function _generatePetId() internal returns (uint256){... */\n      swap1\n      jump\t// out\n        /* \"@openzeppelin/contracts/token/ERC721/ERC721.sol\":9955:10282  function _mint(address to, uint256 tokenId) internal {... */\n    tag_286:\n        /* \"@openzeppelin/contracts/token/ERC721/ERC721.sol\":10036:10037  0 */\n      0x00\n        /* \"@openzeppelin/contracts/token/ERC721/ERC721.sol\":10022:10038  to == address(0) */\n      0xffffffffffffffffffffffffffffffffffffffff\n      and\n        /* \"@openzeppelin/contracts/token/ERC721/ERC721.sol\":10022:10024  to */\n      dup3\n        /* \"@openzeppelin/contracts/token/ERC721/ERC721.sol\":10022:10038  to == address(0) */\n      0xffffffffffffffffffffffffffffffffffffffff\n      and\n      sub\n        /* \"@openzeppelin/contracts/token/ERC721/ERC721.sol\":10018:10105  if (to == address(0)) {... */\n      tag_352\n      jumpi\n        /* \"@openzeppelin/contracts/token/ERC721/ERC721.sol\":10091:10092  0 */\n      0x00\n        /* \"@openzeppelin/contracts/token/ERC721/ERC721.sol\":10061:10094  ERC721InvalidReceiver(address(0)) */\n      mload(0x40)\n      0x64a0ae9200000000000000000000000000000000000000000000000000000000\n      dup2\n      mstore\n      0x04\n      add\n      tag_353\n      swap2\n      swap1\n      tag_47\n      jump\t// in\n    tag_353:\n      mload(0x40)\n      dup1\n      swap2\n      sub\n      swap1\n      revert\n        /* \"@openzeppelin/contracts/token/ERC721/ERC721.sol\":10018:10105  if (to == address(0)) {... */\n    tag_352:\n        /* \"@openzeppelin/contracts/token/ERC721/ERC721.sol\":10114:10135  address previousOwner */\n      0x00\n        /* \"@openzeppelin/contracts/token/ERC721/ERC721.sol\":10138:10170  _update(to, tokenId, address(0)) */\n      tag_354\n        /* \"@openzeppelin/contracts/token/ERC721/ERC721.sol\":10146:10148  to */\n      dup4\n        /* \"@openzeppelin/contracts/token/ERC721/ERC721.sol\":10150:10157  tokenId */\n      dup4\n        /* \"@openzeppelin/contracts/token/ERC721/ERC721.sol\":10167:10168  0 */\n      0x00\n        /* \"@openzeppelin/contracts/token/ERC721/ERC721.sol\":10138:10145  _update */\n      tag_172\n        /* \"@openzeppelin/contracts/token/ERC721/ERC721.sol\":10138:10170  _update(to, tokenId, address(0)) */\n      jump\t// in\n    tag_354:\n        /* \"@openzeppelin/contracts/token/ERC721/ERC721.sol\":10114:10170  address previousOwner = _update(to, tokenId, address(0)) */\n      swap1\n      pop\n        /* \"@openzeppelin/contracts/token/ERC721/ERC721.sol\":10209:10210  0 */\n      0x00\n        /* \"@openzeppelin/contracts/token/ERC721/ERC721.sol\":10184:10211  previousOwner != address(0) */\n      0xffffffffffffffffffffffffffffffffffffffff\n      and\n        /* \"@openzeppelin/contracts/token/ERC721/ERC721.sol\":10184:10197  previousOwner */\n      dup2\n        /* \"@openzeppelin/contracts/token/ERC721/ERC721.sol\":10184:10211  previousOwner != address(0) */\n      0xffffffffffffffffffffffffffffffffffffffff\n      and\n      eq\n        /* \"@openzeppelin/contracts/token/ERC721/ERC721.sol\":10180:10276  if (previousOwner != address(0)) {... */\n      tag_355\n      jumpi\n        /* \"@openzeppelin/contracts/token/ERC721/ERC721.sol\":10262:10263  0 */\n      0x00\n        /* \"@openzeppelin/contracts/token/ERC721/ERC721.sol\":10234:10265  ERC721InvalidSender(address(0)) */\n      mload(0x40)\n      0x73c6ac6e00000000000000000000000000000000000000000000000000000000\n      dup2\n      mstore\n      0x04\n      add\n      tag_356\n      swap2\n      swap1\n      tag_47\n      jump\t// in\n    tag_356:\n      mload(0x40)\n      dup1\n      swap2\n      sub\n      swap1\n      revert\n        /* \"@openzeppelin/contracts/token/ERC721/ERC721.sol\":10180:10276  if (previousOwner != address(0)) {... */\n    tag_355:\n        /* \"@openzeppelin/contracts/token/ERC721/ERC721.sol\":10008:10282  {... */\n      pop\n        /* \"@openzeppelin/contracts/token/ERC721/ERC721.sol\":9955:10282  function _mint(address to, uint256 tokenId) internal {... */\n      pop\n      pop\n      jump\t// out\n        /* \"@openzeppelin/contracts/utils/math/Math.sol\":12214:13130  function log10(uint256 value) internal pure returns (uint256) {... */\n    tag_315:\n        /* \"@openzeppelin/contracts/utils/math/Math.sol\":12267:12274  uint256 */\n      0x00\n        /* \"@openzeppelin/contracts/utils/math/Math.sol\":12286:12300  uint256 result */\n      dup1\n        /* \"@openzeppelin/contracts/utils/math/Math.sol\":12303:12304  0 */\n      0x00\n        /* \"@openzeppelin/contracts/utils/math/Math.sol\":12286:12304  uint256 result = 0 */\n      swap1\n      pop\n        /* \"@openzeppelin/contracts/utils/math/Math.sol\":12351:12359  10 ** 64 */\n      0x184f03e93ff9f4daa797ed6e38ed64bf6a1f010000000000000000\n        /* \"@openzeppelin/contracts/utils/math/Math.sol\":12342:12347  value */\n      dup4\n        /* \"@openzeppelin/contracts/utils/math/Math.sol\":12342:12359  value >= 10 ** 64 */\n      lt\n        /* \"@openzeppelin/contracts/utils/math/Math.sol\":12338:12441  if (value >= 10 ** 64) {... */\n      tag_358\n      jumpi\n        /* \"@openzeppelin/contracts/utils/math/Math.sol\":12388:12396  10 ** 64 */\n      0x184f03e93ff9f4daa797ed6e38ed64bf6a1f010000000000000000\n        /* \"@openzeppelin/contracts/utils/math/Math.sol\":12379:12396  value /= 10 ** 64 */\n      dup4\n      dup2\n      tag_359\n      jumpi\n      tag_360\n      tag_324\n      jump\t// in\n    tag_360:\n    tag_359:\n      div\n      swap3\n      pop\n        /* \"@openzeppelin/contracts/utils/math/Math.sol\":12424:12426  64 */\n      0x40\n        /* \"@openzeppelin/contracts/utils/math/Math.sol\":12414:12426  result += 64 */\n      dup2\n      add\n      swap1\n      pop\n        /* \"@openzeppelin/contracts/utils/math/Math.sol\":12338:12441  if (value >= 10 ** 64) {... */\n    tag_358:\n        /* \"@openzeppelin/contracts/utils/math/Math.sol\":12467:12475  10 ** 32 */\n      0x04ee2d6d415b85acef8100000000\n        /* \"@openzeppelin/contracts/utils/math/Math.sol\":12458:12463  value */\n      dup4\n        /* \"@openzeppelin/contracts/utils/math/Math.sol\":12458:12475  value >= 10 ** 32 */\n      lt\n        /* \"@openzeppelin/contracts/utils/math/Math.sol\":12454:12557  if (value >= 10 ** 32) {... */\n      tag_361\n      jumpi\n        /* \"@openzeppelin/contracts/utils/math/Math.sol\":12504:12512  10 ** 32 */\n      0x04ee2d6d415b85acef8100000000\n        /* \"@openzeppelin/contracts/utils/math/Math.sol\":12495:12512  value /= 10 ** 32 */\n      dup4\n      dup2\n      tag_362\n      jumpi\n      tag_363\n      tag_324\n      jump\t// in\n    tag_363:\n    tag_362:\n      div\n      swap3\n      pop\n        /* \"@openzeppelin/contracts/utils/math/Math.sol\":12540:12542  32 */\n      0x20\n        /* \"@openzeppelin/contracts/utils/math/Math.sol\":12530:12542  result += 32 */\n      dup2\n      add\n      swap1\n      pop\n        /* \"@openzeppelin/contracts/utils/math/Math.sol\":12454:12557  if (value >= 10 ** 32) {... */\n    tag_361:\n        /* \"@openzeppelin/contracts/utils/math/Math.sol\":12583:12591  10 ** 16 */\n      0x2386f26fc10000\n        /* \"@openzeppelin/contracts/utils/math/Math.sol\":12574:12579  value */\n      dup4\n        /* \"@openzeppelin/contracts/utils/math/Math.sol\":12574:12591  value >= 10 ** 16 */\n      lt\n        /* \"@openzeppelin/contracts/utils/math/Math.sol\":12570:12673  if (value >= 10 ** 16) {... */\n      tag_364\n      jumpi\n        /* \"@openzeppelin/contracts/utils/math/Math.sol\":12620:12628  10 ** 16 */\n      0x2386f26fc10000\n        /* \"@openzeppelin/contracts/utils/math/Math.sol\":12611:12628  value /= 10 ** 16 */\n      dup4\n      dup2\n      tag_365\n      jumpi\n      tag_366\n      tag_324\n      jump\t// in\n    tag_366:\n    tag_365:\n      div\n      swap3\n      pop\n        /* \"@openzeppelin/contracts/utils/math/Math.sol\":12656:12658  16 */\n      0x10\n        /* \"@openzeppelin/contracts/utils/math/Math.sol\":12646:12658  result += 16 */\n      dup2\n      add\n      swap1\n      pop\n        /* \"@openzeppelin/contracts/utils/math/Math.sol\":12570:12673  if (value >= 10 ** 16) {... */\n    tag_364:\n        /* \"@openzeppelin/contracts/utils/math/Math.sol\":12699:12706  10 ** 8 */\n      0x05f5e100\n        /* \"@openzeppelin/contracts/utils/math/Math.sol\":12690:12695  value */\n      dup4\n        /* \"@openzeppelin/contracts/utils/math/Math.sol\":12690:12706  value >= 10 ** 8 */\n      lt\n        /* \"@openzeppelin/contracts/utils/math/Math.sol\":12686:12786  if (value >= 10 ** 8) {... */\n      tag_367\n      jumpi\n        /* \"@openzeppelin/contracts/utils/math/Math.sol\":12735:12742  10 ** 8 */\n      0x05f5e100\n        /* \"@openzeppelin/contracts/utils/math/Math.sol\":12726:12742  value /= 10 ** 8 */\n      dup4\n      dup2\n      tag_368\n      jumpi\n      tag_369\n      tag_324\n      jump\t// in\n    tag_369:\n    tag_368:\n      div\n      swap3\n      pop\n        /* \"@openzeppelin/contracts/utils/math/Math.sol\":12770:12771  8 */\n      0x08\n        /* \"@openzeppelin/contracts/utils/math/Math.sol\":12760:12771  result += 8 */\n      dup2\n      add\n      swap1\n      pop\n        /* \"@openzeppelin/contracts/utils/math/Math.sol\":12686:12786  if (value >= 10 ** 8) {... */\n    tag_367:\n        /* \"@openzeppelin/contracts/utils/math/Math.sol\":12812:12819  10 ** 4 */\n      0x2710\n        /* \"@openzeppelin/contracts/utils/math/Math.sol\":12803:12808  value */\n      dup4\n        /* \"@openzeppelin/contracts/utils/math/Math.sol\":12803:12819  value >= 10 ** 4 */\n      lt\n        /* \"@openzeppelin/contracts/utils/math/Math.sol\":12799:12899  if (value >= 10 ** 4) {... */\n      tag_370\n      jumpi\n        /* \"@openzeppelin/contracts/utils/math/Math.sol\":12848:12855  10 ** 4 */\n      0x2710\n        /* \"@openzeppelin/contracts/utils/math/Math.sol\":12839:12855  value /= 10 ** 4 */\n      dup4\n      dup2\n      tag_371\n      jumpi\n      tag_372\n      tag_324\n      jump\t// in\n    tag_372:\n    tag_371:\n      div\n      swap3\n      pop\n        /* \"@openzeppelin/contracts/utils/math/Math.sol\":12883:12884  4 */\n      0x04\n        /* \"@openzeppelin/contracts/utils/math/Math.sol\":12873:12884  result += 4 */\n      dup2\n      add\n      swap1\n      pop\n        /* \"@openzeppelin/contracts/utils/math/Math.sol\":12799:12899  if (value >= 10 ** 4) {... */\n    tag_370:\n        /* \"@openzeppelin/contracts/utils/math/Math.sol\":12925:12932  10 ** 2 */\n      0x64\n        /* \"@openzeppelin/contracts/utils/math/Math.sol\":12916:12921  value */\n      dup4\n        /* \"@openzeppelin/contracts/utils/math/Math.sol\":12916:12932  value >= 10 ** 2 */\n      lt\n        /* \"@openzeppelin/contracts/utils/math/Math.sol\":12912:13012  if (value >= 10 ** 2) {... */\n      tag_373\n      jumpi\n        /* \"@openzeppelin/contracts/utils/math/Math.sol\":12961:12968  10 ** 2 */\n      0x64\n        /* \"@openzeppelin/contracts/utils/math/Math.sol\":12952:12968  value /= 10 ** 2 */\n      dup4\n      dup2\n      tag_374\n      jumpi\n      tag_375\n      tag_324\n      jump\t// in\n    tag_375:\n    tag_374:\n      div\n      swap3\n      pop\n        /* \"@openzeppelin/contracts/utils/math/Math.sol\":12996:12997  2 */\n      0x02\n        /* \"@openzeppelin/contracts/utils/math/Math.sol\":12986:12997  result += 2 */\n      dup2\n      add\n      swap1\n      pop\n        /* \"@openzeppelin/contracts/utils/math/Math.sol\":12912:13012  if (value >= 10 ** 2) {... */\n    tag_373:\n        /* \"@openzeppelin/contracts/utils/math/Math.sol\":13038:13045  10 ** 1 */\n      0x0a\n        /* \"@openzeppelin/contracts/utils/math/Math.sol\":13029:13034  value */\n      dup4\n        /* \"@openzeppelin/contracts/utils/math/Math.sol\":13029:13045  value >= 10 ** 1 */\n      lt\n        /* \"@openzeppelin/contracts/utils/math/Math.sol\":13025:13091  if (value >= 10 ** 1) {... */\n      tag_376\n      jumpi\n        /* \"@openzeppelin/contracts/utils/math/Math.sol\":13075:13076  1 */\n      0x01\n        /* \"@openzeppelin/contracts/utils/math/Math.sol\":13065:13076  result += 1 */\n      dup2\n      add\n      swap1\n      pop\n        /* \"@openzeppelin/contracts/utils/math/Math.sol\":13025:13091  if (value >= 10 ** 1) {... */\n    tag_376:\n        /* \"@openzeppelin/contracts/utils/math/Math.sol\":13117:13123  result */\n      dup1\n        /* \"@openzeppelin/contracts/utils/math/Math.sol\":13110:13123  return result */\n      swap2\n      pop\n      pop\n        /* \"@openzeppelin/contracts/utils/math/Math.sol\":12214:13130  function log10(uint256 value) internal pure returns (uint256) {... */\n      swap2\n      swap1\n      pop\n      jump\t// out\n        /* \"@openzeppelin/contracts/token/ERC721/ERC721.sol\":6376:6648  function _isAuthorized(address owner, address spender, uint256 tokenId) internal view virtual returns (bool) {... */\n    tag_339:\n        /* \"@openzeppelin/contracts/token/ERC721/ERC721.sol\":6479:6483  bool */\n      0x00\n        /* \"@openzeppelin/contracts/token/ERC721/ERC721.sol\":6533:6534  0 */\n      dup1\n        /* \"@openzeppelin/contracts/token/ERC721/ERC721.sol\":6514:6535  spender != address(0) */\n      0xffffffffffffffffffffffffffffffffffffffff\n      and\n        /* \"@openzeppelin/contracts/token/ERC721/ERC721.sol\":6514:6521  spender */\n      dup4\n        /* \"@openzeppelin/contracts/token/ERC721/ERC721.sol\":6514:6535  spender != address(0) */\n      0xffffffffffffffffffffffffffffffffffffffff\n      and\n      eq\n      iszero\n        /* \"@openzeppelin/contracts/token/ERC721/ERC721.sol\":6514:6641  spender != address(0) &&... */\n      dup1\n      iszero\n      tag_378\n      jumpi\n      pop\n        /* \"@openzeppelin/contracts/token/ERC721/ERC721.sol\":6561:6568  spender */\n      dup3\n        /* \"@openzeppelin/contracts/token/ERC721/ERC721.sol\":6552:6568  owner == spender */\n      0xffffffffffffffffffffffffffffffffffffffff\n      and\n        /* \"@openzeppelin/contracts/token/ERC721/ERC721.sol\":6552:6557  owner */\n      dup5\n        /* \"@openzeppelin/contracts/token/ERC721/ERC721.sol\":6552:6568  owner == spender */\n      0xffffffffffffffffffffffffffffffffffffffff\n      and\n      eq\n        /* \"@openzeppelin/contracts/token/ERC721/ERC721.sol\":6552:6604  owner == spender || isApprovedForAll(owner, spender) */\n      dup1\n      tag_379\n      jumpi\n      pop\n        /* \"@openzeppelin/contracts/token/ERC721/ERC721.sol\":6572:6604  isApprovedForAll(owner, spender) */\n      tag_380\n        /* \"@openzeppelin/contracts/token/ERC721/ERC721.sol\":6589:6594  owner */\n      dup5\n        /* \"@openzeppelin/contracts/token/ERC721/ERC721.sol\":6596:6603  spender */\n      dup5\n        /* \"@openzeppelin/contracts/token/ERC721/ERC721.sol\":6572:6588  isApprovedForAll */\n      tag_142\n        /* \"@openzeppelin/contracts/token/ERC721/ERC721.sol\":6572:6604  isApprovedForAll(owner, spender) */\n      jump\t// in\n    tag_380:\n        /* \"@openzeppelin/contracts/token/ERC721/ERC721.sol\":6552:6604  owner == spender || isApprovedForAll(owner, spender) */\n    tag_379:\n        /* \"@openzeppelin/contracts/token/ERC721/ERC721.sol\":6552:6640  owner == spender || isApprovedForAll(owner, spender) || _getApproved(tokenId) == spender */\n      dup1\n      tag_381\n      jumpi\n      pop\n        /* \"@openzeppelin/contracts/token/ERC721/ERC721.sol\":6633:6640  spender */\n      dup3\n        /* \"@openzeppelin/contracts/token/ERC721/ERC721.sol\":6608:6640  _getApproved(tokenId) == spender */\n      0xffffffffffffffffffffffffffffffffffffffff\n      and\n        /* \"@openzeppelin/contracts/token/ERC721/ERC721.sol\":6608:6629  _getApproved(tokenId) */\n      tag_382\n        /* \"@openzeppelin/contracts/token/ERC721/ERC721.sol\":6621:6628  tokenId */\n      dup4\n        /* \"@openzeppelin/contracts/token/ERC721/ERC721.sol\":6608:6620  _getApproved */\n      tag_160\n        /* \"@openzeppelin/contracts/token/ERC721/ERC721.sol\":6608:6629  _getApproved(tokenId) */\n      jump\t// in\n    tag_382:\n        /* \"@openzeppelin/contracts/token/ERC721/ERC721.sol\":6608:6640  _getApproved(tokenId) == spender */\n      0xffffffffffffffffffffffffffffffffffffffff\n      and\n      eq\n        /* \"@openzeppelin/contracts/token/ERC721/ERC721.sol\":6552:6640  owner == spender || isApprovedForAll(owner, spender) || _getApproved(tokenId) == spender */\n    tag_381:\n        /* \"@openzeppelin/contracts/token/ERC721/ERC721.sol\":6514:6641  spender != address(0) &&... */\n    tag_378:\n        /* \"@openzeppelin/contracts/token/ERC721/ERC721.sol\":6495:6641  return... */\n      swap1\n      pop\n        /* \"@openzeppelin/contracts/token/ERC721/ERC721.sol\":6376:6648  function _isAuthorized(address owner, address spender, uint256 tokenId) internal view virtual returns (bool) {... */\n      swap4\n      swap3\n      pop\n      pop\n      pop\n      jump\t// out\n        /* \"#utility.yul\":7:82   */\n    tag_383:\n        /* \"#utility.yul\":40:46   */\n      0x00\n        /* \"#utility.yul\":73:75   */\n      0x40\n        /* \"#utility.yul\":67:76   */\n      mload\n        /* \"#utility.yul\":57:76   */\n      swap1\n      pop\n        /* \"#utility.yul\":7:82   */\n      swap1\n      jump\t// out\n        /* \"#utility.yul\":88:205   */\n    tag_384:\n        /* \"#utility.yul\":197:198   */\n      0x00\n        /* \"#utility.yul\":194:195   */\n      dup1\n        /* \"#utility.yul\":187:199   */\n      revert\n        /* \"#utility.yul\":211:328   */\n    tag_385:\n        /* \"#utility.yul\":320:321   */\n      0x00\n        /* \"#utility.yul\":317:318   */\n      dup1\n        /* \"#utility.yul\":310:322   */\n      revert\n        /* \"#utility.yul\":334:483   */\n    tag_386:\n        /* \"#utility.yul\":370:377   */\n      0x00\n        /* \"#utility.yul\":410:476   */\n      0xffffffff00000000000000000000000000000000000000000000000000000000\n        /* \"#utility.yul\":403:408   */\n      dup3\n        /* \"#utility.yul\":399:477   */\n      and\n        /* \"#utility.yul\":388:477   */\n      swap1\n      pop\n        /* \"#utility.yul\":334:483   */\n      swap2\n      swap1\n      pop\n      jump\t// out\n        /* \"#utility.yul\":489:609   */\n    tag_387:\n        /* \"#utility.yul\":561:584   */\n      tag_464\n        /* \"#utility.yul\":578:583   */\n      dup2\n        /* \"#utility.yul\":561:584   */\n      tag_386\n      jump\t// in\n    tag_464:\n        /* \"#utility.yul\":554:559   */\n      dup2\n        /* \"#utility.yul\":551:585   */\n      eq\n        /* \"#utility.yul\":541:603   */\n      tag_465\n      jumpi\n        /* \"#utility.yul\":599:600   */\n      0x00\n        /* \"#utility.yul\":596:597   */\n      dup1\n        /* \"#utility.yul\":589:601   */\n      revert\n        /* \"#utility.yul\":541:603   */\n    tag_465:\n        /* \"#utility.yul\":489:609   */\n      pop\n      jump\t// out\n        /* \"#utility.yul\":615:752   */\n    tag_388:\n        /* \"#utility.yul\":660:665   */\n      0x00\n        /* \"#utility.yul\":698:704   */\n      dup2\n        /* \"#utility.yul\":685:705   */\n      calldataload\n        /* \"#utility.yul\":676:705   */\n      swap1\n      pop\n        /* \"#utility.yul\":714:746   */\n      tag_467\n        /* \"#utility.yul\":740:745   */\n      dup2\n        /* \"#utility.yul\":714:746   */\n      tag_387\n      jump\t// in\n    tag_467:\n        /* \"#utility.yul\":615:752   */\n      swap3\n      swap2\n      pop\n      pop\n      jump\t// out\n        /* \"#utility.yul\":758:1085   */\n    tag_32:\n        /* \"#utility.yul\":816:822   */\n      0x00\n        /* \"#utility.yul\":865:867   */\n      0x20\n        /* \"#utility.yul\":853:862   */\n      dup3\n        /* \"#utility.yul\":844:851   */\n      dup5\n        /* \"#utility.yul\":840:863   */\n      sub\n        /* \"#utility.yul\":836:868   */\n      slt\n        /* \"#utility.yul\":833:952   */\n      iszero\n      tag_469\n      jumpi\n        /* \"#utility.yul\":871:950   */\n      tag_470\n      tag_384\n      jump\t// in\n    tag_470:\n        /* \"#utility.yul\":833:952   */\n    tag_469:\n        /* \"#utility.yul\":991:992   */\n      0x00\n        /* \"#utility.yul\":1016:1068   */\n      tag_471\n        /* \"#utility.yul\":1060:1067   */\n      dup5\n        /* \"#utility.yul\":1051:1057   */\n      dup3\n        /* \"#utility.yul\":1040:1049   */\n      dup6\n        /* \"#utility.yul\":1036:1058   */\n      add\n        /* \"#utility.yul\":1016:1068   */\n      tag_388\n      jump\t// in\n    tag_471:\n        /* \"#utility.yul\":1006:1068   */\n      swap2\n      pop\n        /* \"#utility.yul\":962:1078   */\n      pop\n        /* \"#utility.yul\":758:1085   */\n      swap3\n      swap2\n      pop\n      pop\n      jump\t// out\n        /* \"#utility.yul\":1091:1181   */\n    tag_389:\n        /* \"#utility.yul\":1125:1132   */\n      0x00\n        /* \"#utility.yul\":1168:1173   */\n      dup2\n        /* \"#utility.yul\":1161:1174   */\n      iszero\n        /* \"#utility.yul\":1154:1175   */\n      iszero\n        /* \"#utility.yul\":1143:1175   */\n      swap1\n      pop\n        /* \"#utility.yul\":1091:1181   */\n      swap2\n      swap1\n      pop\n      jump\t// out\n        /* \"#utility.yul\":1187:1296   */\n    tag_390:\n        /* \"#utility.yul\":1268:1289   */\n      tag_474\n        /* \"#utility.yul\":1283:1288   */\n      dup2\n        /* \"#utility.yul\":1268:1289   */\n      tag_389\n      jump\t// in\n    tag_474:\n        /* \"#utility.yul\":1263:1266   */\n      dup3\n        /* \"#utility.yul\":1256:1290   */\n      mstore\n        /* \"#utility.yul\":1187:1296   */\n      pop\n      pop\n      jump\t// out\n        /* \"#utility.yul\":1302:1512   */\n    tag_35:\n        /* \"#utility.yul\":1389:1393   */\n      0x00\n        /* \"#utility.yul\":1427:1429   */\n      0x20\n        /* \"#utility.yul\":1416:1425   */\n      dup3\n        /* \"#utility.yul\":1412:1430   */\n      add\n        /* \"#utility.yul\":1404:1430   */\n      swap1\n      pop\n        /* \"#utility.yul\":1440:1505   */\n      tag_476\n        /* \"#utility.yul\":1502:1503   */\n      0x00\n        /* \"#utility.yul\":1491:1500   */\n      dup4\n        /* \"#utility.yul\":1487:1504   */\n      add\n        /* \"#utility.yul\":1478:1484   */\n      dup5\n        /* \"#utility.yul\":1440:1505   */\n      tag_390\n      jump\t// in\n    tag_476:\n        /* \"#utility.yul\":1302:1512   */\n      swap3\n      swap2\n      pop\n      pop\n      jump\t// out\n        /* \"#utility.yul\":1518:1617   */\n    tag_391:\n        /* \"#utility.yul\":1570:1576   */\n      0x00\n        /* \"#utility.yul\":1604:1609   */\n      dup2\n        /* \"#utility.yul\":1598:1610   */\n      mload\n        /* \"#utility.yul\":1588:1610   */\n      swap1\n      pop\n        /* \"#utility.yul\":1518:1617   */\n      swap2\n      swap1\n      pop\n      jump\t// out\n        /* \"#utility.yul\":1623:1792   */\n    tag_392:\n        /* \"#utility.yul\":1707:1718   */\n      0x00\n        /* \"#utility.yul\":1741:1747   */\n      dup3\n        /* \"#utility.yul\":1736:1739   */\n      dup3\n        /* \"#utility.yul\":1729:1748   */\n      mstore\n        /* \"#utility.yul\":1781:1785   */\n      0x20\n        /* \"#utility.yul\":1776:1779   */\n      dup3\n        /* \"#utility.yul\":1772:1786   */\n      add\n        /* \"#utility.yul\":1757:1786   */\n      swap1\n      pop\n        /* \"#utility.yul\":1623:1792   */\n      swap3\n      swap2\n      pop\n      pop\n      jump\t// out\n        /* \"#utility.yul\":1798:2044   */\n    tag_393:\n        /* \"#utility.yul\":1879:1880   */\n      0x00\n        /* \"#utility.yul\":1889:2002   */\n    tag_480:\n        /* \"#utility.yul\":1903:1909   */\n      dup4\n        /* \"#utility.yul\":1900:1901   */\n      dup2\n        /* \"#utility.yul\":1897:1910   */\n      lt\n        /* \"#utility.yul\":1889:2002   */\n      iszero\n      tag_482\n      jumpi\n        /* \"#utility.yul\":1988:1989   */\n      dup1\n        /* \"#utility.yul\":1983:1986   */\n      dup3\n        /* \"#utility.yul\":1979:1990   */\n      add\n        /* \"#utility.yul\":1973:1991   */\n      mload\n        /* \"#utility.yul\":1969:1970   */\n      dup2\n        /* \"#utility.yul\":1964:1967   */\n      dup5\n        /* \"#utility.yul\":1960:1971   */\n      add\n        /* \"#utility.yul\":1953:1992   */\n      mstore\n        /* \"#utility.yul\":1925:1927   */\n      0x20\n        /* \"#utility.yul\":1922:1923   */\n      dup2\n        /* \"#utility.yul\":1918:1928   */\n      add\n        /* \"#utility.yul\":1913:1928   */\n      swap1\n      pop\n        /* \"#utility.yul\":1889:2002   */\n      jump(tag_480)\n    tag_482:\n        /* \"#utility.yul\":2036:2037   */\n      0x00\n        /* \"#utility.yul\":2027:2033   */\n      dup5\n        /* \"#utility.yul\":2022:2025   */\n      dup5\n        /* \"#utility.yul\":2018:2034   */\n      add\n        /* \"#utility.yul\":2011:2038   */\n      mstore\n        /* \"#utility.yul\":1860:2044   */\n      pop\n        /* \"#utility.yul\":1798:2044   */\n      pop\n      pop\n      pop\n      jump\t// out\n        /* \"#utility.yul\":2050:2152   */\n    tag_394:\n        /* \"#utility.yul\":2091:2097   */\n      0x00\n        /* \"#utility.yul\":2142:2144   */\n      0x1f\n        /* \"#utility.yul\":2138:2145   */\n      not\n        /* \"#utility.yul\":2133:2135   */\n      0x1f\n        /* \"#utility.yul\":2126:2131   */\n      dup4\n        /* \"#utility.yul\":2122:2136   */\n      add\n        /* \"#utility.yul\":2118:2146   */\n      and\n        /* \"#utility.yul\":2108:2146   */\n      swap1\n      pop\n        /* \"#utility.yul\":2050:2152   */\n      swap2\n      swap1\n      pop\n      jump\t// out\n        /* \"#utility.yul\":2158:2535   */\n    tag_395:\n        /* \"#utility.yul\":2246:2249   */\n      0x00\n        /* \"#utility.yul\":2274:2313   */\n      tag_485\n        /* \"#utility.yul\":2307:2312   */\n      dup3\n        /* \"#utility.yul\":2274:2313   */\n      tag_391\n      jump\t// in\n    tag_485:\n        /* \"#utility.yul\":2329:2400   */\n      tag_486\n        /* \"#utility.yul\":2393:2399   */\n      dup2\n        /* \"#utility.yul\":2388:2391   */\n      dup6\n        /* \"#utility.yul\":2329:2400   */\n      tag_392\n      jump\t// in\n    tag_486:\n        /* \"#utility.yul\":2322:2400   */\n      swap4\n      pop\n        /* \"#utility.yul\":2409:2474   */\n      tag_487\n        /* \"#utility.yul\":2467:2473   */\n      dup2\n        /* \"#utility.yul\":2462:2465   */\n      dup6\n        /* \"#utility.yul\":2455:2459   */\n      0x20\n        /* \"#utility.yul\":2448:2453   */\n      dup7\n        /* \"#utility.yul\":2444:2460   */\n      add\n        /* \"#utility.yul\":2409:2474   */\n      tag_393\n      jump\t// in\n    tag_487:\n        /* \"#utility.yul\":2499:2528   */\n      tag_488\n        /* \"#utility.yul\":2521:2527   */\n      dup2\n        /* \"#utility.yul\":2499:2528   */\n      tag_394\n      jump\t// in\n    tag_488:\n        /* \"#utility.yul\":2494:2497   */\n      dup5\n        /* \"#utility.yul\":2490:2529   */\n      add\n        /* \"#utility.yul\":2483:2529   */\n      swap2\n      pop\n        /* \"#utility.yul\":2250:2535   */\n      pop\n        /* \"#utility.yul\":2158:2535   */\n      swap3\n      swap2\n      pop\n      pop\n      jump\t// out\n        /* \"#utility.yul\":2541:2854   */\n    tag_40:\n        /* \"#utility.yul\":2654:2658   */\n      0x00\n        /* \"#utility.yul\":2692:2694   */\n      0x20\n        /* \"#utility.yul\":2681:2690   */\n      dup3\n        /* \"#utility.yul\":2677:2695   */\n      add\n        /* \"#utility.yul\":2669:2695   */\n      swap1\n      pop\n        /* \"#utility.yul\":2741:2750   */\n      dup2\n        /* \"#utility.yul\":2735:2739   */\n      dup2\n        /* \"#utility.yul\":2731:2751   */\n      sub\n        /* \"#utility.yul\":2727:2728   */\n      0x00\n        /* \"#utility.yul\":2716:2725   */\n      dup4\n        /* \"#utility.yul\":2712:2729   */\n      add\n        /* \"#utility.yul\":2705:2752   */\n      mstore\n        /* \"#utility.yul\":2769:2847   */\n      tag_490\n        /* \"#utility.yul\":2842:2846   */\n      dup2\n        /* \"#utility.yul\":2833:2839   */\n      dup5\n        /* \"#utility.yul\":2769:2847   */\n      tag_395\n      jump\t// in\n    tag_490:\n        /* \"#utility.yul\":2761:2847   */\n      swap1\n      pop\n        /* \"#utility.yul\":2541:2854   */\n      swap3\n      swap2\n      pop\n      pop\n      jump\t// out\n        /* \"#utility.yul\":2860:2937   */\n    tag_396:\n        /* \"#utility.yul\":2897:2904   */\n      0x00\n        /* \"#utility.yul\":2926:2931   */\n      dup2\n        /* \"#utility.yul\":2915:2931   */\n      swap1\n      pop\n        /* \"#utility.yul\":2860:2937   */\n      swap2\n      swap1\n      pop\n      jump\t// out\n        /* \"#utility.yul\":2943:3065   */\n    tag_397:\n        /* \"#utility.yul\":3016:3040   */\n      tag_493\n        /* \"#utility.yul\":3034:3039   */\n      dup2\n        /* \"#utility.yul\":3016:3040   */\n      tag_396\n      jump\t// in\n    tag_493:\n        /* \"#utility.yul\":3009:3014   */\n      dup2\n        /* \"#utility.yul\":3006:3041   */\n      eq\n        /* \"#utility.yul\":2996:3059   */\n      tag_494\n      jumpi\n        /* \"#utility.yul\":3055:3056   */\n      0x00\n        /* \"#utility.yul\":3052:3053   */\n      dup1\n        /* \"#utility.yul\":3045:3057   */\n      revert\n        /* \"#utility.yul\":2996:3059   */\n    tag_494:\n        /* \"#utility.yul\":2943:3065   */\n      pop\n      jump\t// out\n        /* \"#utility.yul\":3071:3210   */\n    tag_398:\n        /* \"#utility.yul\":3117:3122   */\n      0x00\n        /* \"#utility.yul\":3155:3161   */\n      dup2\n        /* \"#utility.yul\":3142:3162   */\n      calldataload\n        /* \"#utility.yul\":3133:3162   */\n      swap1\n      pop\n        /* \"#utility.yul\":3171:3204   */\n      tag_496\n        /* \"#utility.yul\":3198:3203   */\n      dup2\n        /* \"#utility.yul\":3171:3204   */\n      tag_397\n      jump\t// in\n    tag_496:\n        /* \"#utility.yul\":3071:3210   */\n      swap3\n      swap2\n      pop\n      pop\n      jump\t// out\n        /* \"#utility.yul\":3216:3545   */\n    tag_44:\n        /* \"#utility.yul\":3275:3281   */\n      0x00\n        /* \"#utility.yul\":3324:3326   */\n      0x20\n        /* \"#utility.yul\":3312:3321   */\n      dup3\n        /* \"#utility.yul\":3303:3310   */\n      dup5\n        /* \"#utility.yul\":3299:3322   */\n      sub\n        /* \"#utility.yul\":3295:3327   */\n      slt\n        /* \"#utility.yul\":3292:3411   */\n      iszero\n      tag_498\n      jumpi\n        /* \"#utility.yul\":3330:3409   */\n      tag_499\n      tag_384\n      jump\t// in\n    tag_499:\n        /* \"#utility.yul\":3292:3411   */\n    tag_498:\n        /* \"#utility.yul\":3450:3451   */\n      0x00\n        /* \"#utility.yul\":3475:3528   */\n      tag_500\n        /* \"#utility.yul\":3520:3527   */\n      dup5\n        /* \"#utility.yul\":3511:3517   */\n      dup3\n        /* \"#utility.yul\":3500:3509   */\n      dup6\n        /* \"#utility.yul\":3496:3518   */\n      add\n        /* \"#utility.yul\":3475:3528   */\n      tag_398\n      jump\t// in\n    tag_500:\n        /* \"#utility.yul\":3465:3528   */\n      swap2\n      pop\n        /* \"#utility.yul\":3421:3538   */\n      pop\n        /* \"#utility.yul\":3216:3545   */\n      swap3\n      swap2\n      pop\n      pop\n      jump\t// out\n        /* \"#utility.yul\":3551:3677   */\n    tag_399:\n        /* \"#utility.yul\":3588:3595   */\n      0x00\n        /* \"#utility.yul\":3628:3670   */\n      0xffffffffffffffffffffffffffffffffffffffff\n        /* \"#utility.yul\":3621:3626   */\n      dup3\n        /* \"#utility.yul\":3617:3671   */\n      and\n        /* \"#utility.yul\":3606:3671   */\n      swap1\n      pop\n        /* \"#utility.yul\":3551:3677   */\n      swap2\n      swap1\n      pop\n      jump\t// out\n        /* \"#utility.yul\":3683:3779   */\n    tag_400:\n        /* \"#utility.yul\":3720:3727   */\n      0x00\n        /* \"#utility.yul\":3749:3773   */\n      tag_503\n        /* \"#utility.yul\":3767:3772   */\n      dup3\n        /* \"#utility.yul\":3749:3773   */\n      tag_399\n      jump\t// in\n    tag_503:\n        /* \"#utility.yul\":3738:3773   */\n      swap1\n      pop\n        /* \"#utility.yul\":3683:3779   */\n      swap2\n      swap1\n      pop\n      jump\t// out\n        /* \"#utility.yul\":3785:3903   */\n    tag_401:\n        /* \"#utility.yul\":3872:3896   */\n      tag_505\n        /* \"#utility.yul\":3890:3895   */\n      dup2\n        /* \"#utility.yul\":3872:3896   */\n      tag_400\n      jump\t// in\n    tag_505:\n        /* \"#utility.yul\":3867:3870   */\n      dup3\n        /* \"#utility.yul\":3860:3897   */\n      mstore\n        /* \"#utility.yul\":3785:3903   */\n      pop\n      pop\n      jump\t// out\n        /* \"#utility.yul\":3909:4131   */\n    tag_47:\n        /* \"#utility.yul\":4002:4006   */\n      0x00\n        /* \"#utility.yul\":4040:4042   */\n      0x20\n        /* \"#utility.yul\":4029:4038   */\n      dup3\n        /* \"#utility.yul\":4025:4043   */\n      add\n        /* \"#utility.yul\":4017:4043   */\n      swap1\n      pop\n        /* \"#utility.yul\":4053:4124   */\n      tag_507\n        /* \"#utility.yul\":4121:4122   */\n      0x00\n        /* \"#utility.yul\":4110:4119   */\n      dup4\n        /* \"#utility.yul\":4106:4123   */\n      add\n        /* \"#utility.yul\":4097:4103   */\n      dup5\n        /* \"#utility.yul\":4053:4124   */\n      tag_401\n      jump\t// in\n    tag_507:\n        /* \"#utility.yul\":3909:4131   */\n      swap3\n      swap2\n      pop\n      pop\n      jump\t// out\n        /* \"#utility.yul\":4137:4259   */\n    tag_402:\n        /* \"#utility.yul\":4210:4234   */\n      tag_509\n        /* \"#utility.yul\":4228:4233   */\n      dup2\n        /* \"#utility.yul\":4210:4234   */\n      tag_400\n      jump\t// in\n    tag_509:\n        /* \"#utility.yul\":4203:4208   */\n      dup2\n        /* \"#utility.yul\":4200:4235   */\n      eq\n        /* \"#utility.yul\":4190:4253   */\n      tag_510\n      jumpi\n        /* \"#utility.yul\":4249:4250   */\n      0x00\n        /* \"#utility.yul\":4246:4247   */\n      dup1\n        /* \"#utility.yul\":4239:4251   */\n      revert\n        /* \"#utility.yul\":4190:4253   */\n    tag_510:\n        /* \"#utility.yul\":4137:4259   */\n      pop\n      jump\t// out\n        /* \"#utility.yul\":4265:4404   */\n    tag_403:\n        /* \"#utility.yul\":4311:4316   */\n      0x00\n        /* \"#utility.yul\":4349:4355   */\n      dup2\n        /* \"#utility.yul\":4336:4356   */\n      calldataload\n        /* \"#utility.yul\":4327:4356   */\n      swap1\n      pop\n        /* \"#utility.yul\":4365:4398   */\n      tag_512\n        /* \"#utility.yul\":4392:4397   */\n      dup2\n        /* \"#utility.yul\":4365:4398   */\n      tag_402\n      jump\t// in\n    tag_512:\n        /* \"#utility.yul\":4265:4404   */\n      swap3\n      swap2\n      pop\n      pop\n      jump\t// out\n        /* \"#utility.yul\":4410:4884   */\n    tag_51:\n        /* \"#utility.yul\":4478:4484   */\n      0x00\n        /* \"#utility.yul\":4486:4492   */\n      dup1\n        /* \"#utility.yul\":4535:4537   */\n      0x40\n        /* \"#utility.yul\":4523:4532   */\n      dup4\n        /* \"#utility.yul\":4514:4521   */\n      dup6\n        /* \"#utility.yul\":4510:4533   */\n      sub\n        /* \"#utility.yul\":4506:4538   */\n      slt\n        /* \"#utility.yul\":4503:4622   */\n      iszero\n      tag_514\n      jumpi\n        /* \"#utility.yul\":4541:4620   */\n      tag_515\n      tag_384\n      jump\t// in\n    tag_515:\n        /* \"#utility.yul\":4503:4622   */\n    tag_514:\n        /* \"#utility.yul\":4661:4662   */\n      0x00\n        /* \"#utility.yul\":4686:4739   */\n      tag_516\n        /* \"#utility.yul\":4731:4738   */\n      dup6\n        /* \"#utility.yul\":4722:4728   */\n      dup3\n        /* \"#utility.yul\":4711:4720   */\n      dup7\n        /* \"#utility.yul\":4707:4729   */\n      add\n        /* \"#utility.yul\":4686:4739   */\n      tag_403\n      jump\t// in\n    tag_516:\n        /* \"#utility.yul\":4676:4739   */\n      swap3\n      pop\n        /* \"#utility.yul\":4632:4749   */\n      pop\n        /* \"#utility.yul\":4788:4790   */\n      0x20\n        /* \"#utility.yul\":4814:4867   */\n      tag_517\n        /* \"#utility.yul\":4859:4866   */\n      dup6\n        /* \"#utility.yul\":4850:4856   */\n      dup3\n        /* \"#utility.yul\":4839:4848   */\n      dup7\n        /* \"#utility.yul\":4835:4857   */\n      add\n        /* \"#utility.yul\":4814:4867   */\n      tag_398\n      jump\t// in\n    tag_517:\n        /* \"#utility.yul\":4804:4867   */\n      swap2\n      pop\n        /* \"#utility.yul\":4759:4877   */\n      pop\n        /* \"#utility.yul\":4410:4884   */\n      swap3\n      pop\n      swap3\n      swap1\n      pop\n      jump\t// out\n        /* \"#utility.yul\":4890:5008   */\n    tag_404:\n        /* \"#utility.yul\":4977:5001   */\n      tag_519\n        /* \"#utility.yul\":4995:5000   */\n      dup2\n        /* \"#utility.yul\":4977:5001   */\n      tag_396\n      jump\t// in\n    tag_519:\n        /* \"#utility.yul\":4972:4975   */\n      dup3\n        /* \"#utility.yul\":4965:5002   */\n      mstore\n        /* \"#utility.yul\":4890:5008   */\n      pop\n      pop\n      jump\t// out\n        /* \"#utility.yul\":5014:5236   */\n    tag_57:\n        /* \"#utility.yul\":5107:5111   */\n      0x00\n        /* \"#utility.yul\":5145:5147   */\n      0x20\n        /* \"#utility.yul\":5134:5143   */\n      dup3\n        /* \"#utility.yul\":5130:5148   */\n      add\n        /* \"#utility.yul\":5122:5148   */\n      swap1\n      pop\n        /* \"#utility.yul\":5158:5229   */\n      tag_521\n        /* \"#utility.yul\":5226:5227   */\n      0x00\n        /* \"#utility.yul\":5215:5224   */\n      dup4\n        /* \"#utility.yul\":5211:5228   */\n      add\n        /* \"#utility.yul\":5202:5208   */\n      dup5\n        /* \"#utility.yul\":5158:5229   */\n      tag_404\n      jump\t// in\n    tag_521:\n        /* \"#utility.yul\":5014:5236   */\n      swap3\n      swap2\n      pop\n      pop\n      jump\t// out\n        /* \"#utility.yul\":5242:5861   */\n    tag_61:\n        /* \"#utility.yul\":5319:5325   */\n      0x00\n        /* \"#utility.yul\":5327:5333   */\n      dup1\n        /* \"#utility.yul\":5335:5341   */\n      0x00\n        /* \"#utility.yul\":5384:5386   */\n      0x60\n        /* \"#utility.yul\":5372:5381   */\n      dup5\n        /* \"#utility.yul\":5363:5370   */\n      dup7\n        /* \"#utility.yul\":5359:5382   */\n      sub\n        /* \"#utility.yul\":5355:5387   */\n      slt\n        /* \"#utility.yul\":5352:5471   */\n      iszero\n      tag_523\n      jumpi\n        /* \"#utility.yul\":5390:5469   */\n      tag_524\n      tag_384\n      jump\t// in\n    tag_524:\n        /* \"#utility.yul\":5352:5471   */\n    tag_523:\n        /* \"#utility.yul\":5510:5511   */\n      0x00\n        /* \"#utility.yul\":5535:5588   */\n      tag_525\n        /* \"#utility.yul\":5580:5587   */\n      dup7\n        /* \"#utility.yul\":5571:5577   */\n      dup3\n        /* \"#utility.yul\":5560:5569   */\n      dup8\n        /* \"#utility.yul\":5556:5578   */\n      add\n        /* \"#utility.yul\":5535:5588   */\n      tag_403\n      jump\t// in\n    tag_525:\n        /* \"#utility.yul\":5525:5588   */\n      swap4\n      pop\n        /* \"#utility.yul\":5481:5598   */\n      pop\n        /* \"#utility.yul\":5637:5639   */\n      0x20\n        /* \"#utility.yul\":5663:5716   */\n      tag_526\n        /* \"#utility.yul\":5708:5715   */\n      dup7\n        /* \"#utility.yul\":5699:5705   */\n      dup3\n        /* \"#utility.yul\":5688:5697   */\n      dup8\n        /* \"#utility.yul\":5684:5706   */\n      add\n        /* \"#utility.yul\":5663:5716   */\n      tag_403\n      jump\t// in\n    tag_526:\n        /* \"#utility.yul\":5653:5716   */\n      swap3\n      pop\n        /* \"#utility.yul\":5608:5726   */\n      pop\n        /* \"#utility.yul\":5765:5767   */\n      0x40\n        /* \"#utility.yul\":5791:5844   */\n      tag_527\n        /* \"#utility.yul\":5836:5843   */\n      dup7\n        /* \"#utility.yul\":5827:5833   */\n      dup3\n        /* \"#utility.yul\":5816:5825   */\n      dup8\n        /* \"#utility.yul\":5812:5834   */\n      add\n        /* \"#utility.yul\":5791:5844   */\n      tag_398\n      jump\t// in\n    tag_527:\n        /* \"#utility.yul\":5781:5844   */\n      swap2\n      pop\n        /* \"#utility.yul\":5736:5854   */\n      pop\n        /* \"#utility.yul\":5242:5861   */\n      swap3\n      pop\n      swap3\n      pop\n      swap3\n      jump\t// out\n        /* \"#utility.yul\":5867:5984   */\n    tag_405:\n        /* \"#utility.yul\":5976:5977   */\n      0x00\n        /* \"#utility.yul\":5973:5974   */\n      dup1\n        /* \"#utility.yul\":5966:5978   */\n      revert\n        /* \"#utility.yul\":5990:6107   */\n    tag_406:\n        /* \"#utility.yul\":6099:6100   */\n      0x00\n        /* \"#utility.yul\":6096:6097   */\n      dup1\n        /* \"#utility.yul\":6089:6101   */\n      revert\n        /* \"#utility.yul\":6113:6293   */\n    tag_318:\n        /* \"#utility.yul\":6161:6238   */\n      0x4e487b7100000000000000000000000000000000000000000000000000000000\n        /* \"#utility.yul\":6158:6159   */\n      0x00\n        /* \"#utility.yul\":6151:6239   */\n      mstore\n        /* \"#utility.yul\":6258:6262   */\n      0x41\n        /* \"#utility.yul\":6255:6256   */\n      0x04\n        /* \"#utility.yul\":6248:6263   */\n      mstore\n        /* \"#utility.yul\":6282:6286   */\n      0x24\n        /* \"#utility.yul\":6279:6280   */\n      0x00\n        /* \"#utility.yul\":6272:6287   */\n      revert\n        /* \"#utility.yul\":6299:6580   */\n    tag_407:\n        /* \"#utility.yul\":6382:6409   */\n      tag_532\n        /* \"#utility.yul\":6404:6408   */\n      dup3\n        /* \"#utility.yul\":6382:6409   */\n      tag_394\n      jump\t// in\n    tag_532:\n        /* \"#utility.yul\":6374:6380   */\n      dup2\n        /* \"#utility.yul\":6370:6410   */\n      add\n        /* \"#utility.yul\":6512:6518   */\n      dup2\n        /* \"#utility.yul\":6500:6510   */\n      dup2\n        /* \"#utility.yul\":6497:6519   */\n      lt\n        /* \"#utility.yul\":6476:6494   */\n      0xffffffffffffffff\n        /* \"#utility.yul\":6464:6474   */\n      dup3\n        /* \"#utility.yul\":6461:6495   */\n      gt\n        /* \"#utility.yul\":6458:6520   */\n      or\n        /* \"#utility.yul\":6455:6543   */\n      iszero\n      tag_533\n      jumpi\n        /* \"#utility.yul\":6523:6541   */\n      tag_534\n      tag_318\n      jump\t// in\n    tag_534:\n        /* \"#utility.yul\":6455:6543   */\n    tag_533:\n        /* \"#utility.yul\":6563:6573   */\n      dup1\n        /* \"#utility.yul\":6559:6561   */\n      0x40\n        /* \"#utility.yul\":6552:6574   */\n      mstore\n        /* \"#utility.yul\":6342:6580   */\n      pop\n        /* \"#utility.yul\":6299:6580   */\n      pop\n      pop\n      jump\t// out\n        /* \"#utility.yul\":6586:6715   */\n    tag_408:\n        /* \"#utility.yul\":6620:6626   */\n      0x00\n        /* \"#utility.yul\":6647:6667   */\n      tag_536\n      tag_383\n      jump\t// in\n    tag_536:\n        /* \"#utility.yul\":6637:6667   */\n      swap1\n      pop\n        /* \"#utility.yul\":6676:6709   */\n      tag_537\n        /* \"#utility.yul\":6704:6708   */\n      dup3\n        /* \"#utility.yul\":6696:6702   */\n      dup3\n        /* \"#utility.yul\":6676:6709   */\n      tag_407\n      jump\t// in\n    tag_537:\n        /* \"#utility.yul\":6586:6715   */\n      swap2\n      swap1\n      pop\n      jump\t// out\n        /* \"#utility.yul\":6721:7029   */\n    tag_409:\n        /* \"#utility.yul\":6783:6787   */\n      0x00\n        /* \"#utility.yul\":6873:6891   */\n      0xffffffffffffffff\n        /* \"#utility.yul\":6865:6871   */\n      dup3\n        /* \"#utility.yul\":6862:6892   */\n      gt\n        /* \"#utility.yul\":6859:6915   */\n      iszero\n      tag_539\n      jumpi\n        /* \"#utility.yul\":6895:6913   */\n      tag_540\n      tag_318\n      jump\t// in\n    tag_540:\n        /* \"#utility.yul\":6859:6915   */\n    tag_539:\n        /* \"#utility.yul\":6933:6962   */\n      tag_541\n        /* \"#utility.yul\":6955:6961   */\n      dup3\n        /* \"#utility.yul\":6933:6962   */\n      tag_394\n      jump\t// in\n    tag_541:\n        /* \"#utility.yul\":6925:6962   */\n      swap1\n      pop\n        /* \"#utility.yul\":7017:7021   */\n      0x20\n        /* \"#utility.yul\":7011:7015   */\n      dup2\n        /* \"#utility.yul\":7007:7022   */\n      add\n        /* \"#utility.yul\":6999:7022   */\n      swap1\n      pop\n        /* \"#utility.yul\":6721:7029   */\n      swap2\n      swap1\n      pop\n      jump\t// out\n        /* \"#utility.yul\":7035:7181   */\n    tag_410:\n        /* \"#utility.yul\":7132:7138   */\n      dup3\n        /* \"#utility.yul\":7127:7130   */\n      dup2\n        /* \"#utility.yul\":7122:7125   */\n      dup4\n        /* \"#utility.yul\":7109:7139   */\n      calldatacopy\n        /* \"#utility.yul\":7173:7174   */\n      0x00\n        /* \"#utility.yul\":7164:7170   */\n      dup4\n        /* \"#utility.yul\":7159:7162   */\n      dup4\n        /* \"#utility.yul\":7155:7171   */\n      add\n        /* \"#utility.yul\":7148:7175   */\n      mstore\n        /* \"#utility.yul\":7035:7181   */\n      pop\n      pop\n      pop\n      jump\t// out\n        /* \"#utility.yul\":7187:7612   */\n    tag_411:\n        /* \"#utility.yul\":7265:7270   */\n      0x00\n        /* \"#utility.yul\":7290:7356   */\n      tag_544\n        /* \"#utility.yul\":7306:7355   */\n      tag_545\n        /* \"#utility.yul\":7348:7354   */\n      dup5\n        /* \"#utility.yul\":7306:7355   */\n      tag_409\n      jump\t// in\n    tag_545:\n        /* \"#utility.yul\":7290:7356   */\n      tag_408\n      jump\t// in\n    tag_544:\n        /* \"#utility.yul\":7281:7356   */\n      swap1\n      pop\n        /* \"#utility.yul\":7379:7385   */\n      dup3\n        /* \"#utility.yul\":7372:7377   */\n      dup2\n        /* \"#utility.yul\":7365:7386   */\n      mstore\n        /* \"#utility.yul\":7417:7421   */\n      0x20\n        /* \"#utility.yul\":7410:7415   */\n      dup2\n        /* \"#utility.yul\":7406:7422   */\n      add\n        /* \"#utility.yul\":7455:7458   */\n      dup5\n        /* \"#utility.yul\":7446:7452   */\n      dup5\n        /* \"#utility.yul\":7441:7444   */\n      dup5\n        /* \"#utility.yul\":7437:7453   */\n      add\n        /* \"#utility.yul\":7434:7459   */\n      gt\n        /* \"#utility.yul\":7431:7543   */\n      iszero\n      tag_546\n      jumpi\n        /* \"#utility.yul\":7462:7541   */\n      tag_547\n      tag_406\n      jump\t// in\n    tag_547:\n        /* \"#utility.yul\":7431:7543   */\n    tag_546:\n        /* \"#utility.yul\":7552:7606   */\n      tag_548\n        /* \"#utility.yul\":7599:7605   */\n      dup5\n        /* \"#utility.yul\":7594:7597   */\n      dup3\n        /* \"#utility.yul\":7589:7592   */\n      dup6\n        /* \"#utility.yul\":7552:7606   */\n      tag_410\n      jump\t// in\n    tag_548:\n        /* \"#utility.yul\":7271:7612   */\n      pop\n        /* \"#utility.yul\":7187:7612   */\n      swap4\n      swap3\n      pop\n      pop\n      pop\n      jump\t// out\n        /* \"#utility.yul\":7632:7972   */\n    tag_412:\n        /* \"#utility.yul\":7688:7693   */\n      0x00\n        /* \"#utility.yul\":7737:7740   */\n      dup3\n        /* \"#utility.yul\":7730:7734   */\n      0x1f\n        /* \"#utility.yul\":7722:7728   */\n      dup4\n        /* \"#utility.yul\":7718:7735   */\n      add\n        /* \"#utility.yul\":7714:7741   */\n      slt\n        /* \"#utility.yul\":7704:7826   */\n      tag_550\n      jumpi\n        /* \"#utility.yul\":7745:7824   */\n      tag_551\n      tag_405\n      jump\t// in\n    tag_551:\n        /* \"#utility.yul\":7704:7826   */\n    tag_550:\n        /* \"#utility.yul\":7862:7868   */\n      dup2\n        /* \"#utility.yul\":7849:7869   */\n      calldataload\n        /* \"#utility.yul\":7887:7966   */\n      tag_552\n        /* \"#utility.yul\":7962:7965   */\n      dup5\n        /* \"#utility.yul\":7954:7960   */\n      dup3\n        /* \"#utility.yul\":7947:7951   */\n      0x20\n        /* \"#utility.yul\":7939:7945   */\n      dup7\n        /* \"#utility.yul\":7935:7952   */\n      add\n        /* \"#utility.yul\":7887:7966   */\n      tag_411\n      jump\t// in\n    tag_552:\n        /* \"#utility.yul\":7878:7966   */\n      swap2\n      pop\n        /* \"#utility.yul\":7694:7972   */\n      pop\n        /* \"#utility.yul\":7632:7972   */\n      swap3\n      swap2\n      pop\n      pop\n      jump\t// out\n        /* \"#utility.yul\":7978:8089   */\n    tag_413:\n        /* \"#utility.yul\":8063:8064   */\n      0x04\n        /* \"#utility.yul\":8056:8061   */\n      dup2\n        /* \"#utility.yul\":8053:8065   */\n      lt\n        /* \"#utility.yul\":8043:8083   */\n      tag_554\n      jumpi\n        /* \"#utility.yul\":8079:8080   */\n      0x00\n        /* \"#utility.yul\":8076:8077   */\n      dup1\n        /* \"#utility.yul\":8069:8081   */\n      revert\n        /* \"#utility.yul\":8043:8083   */\n    tag_554:\n        /* \"#utility.yul\":7978:8089   */\n      pop\n      jump\t// out\n        /* \"#utility.yul\":8095:8258   */\n    tag_414:\n        /* \"#utility.yul\":8153:8158   */\n      0x00\n        /* \"#utility.yul\":8191:8197   */\n      dup2\n        /* \"#utility.yul\":8178:8198   */\n      calldataload\n        /* \"#utility.yul\":8169:8198   */\n      swap1\n      pop\n        /* \"#utility.yul\":8207:8252   */\n      tag_556\n        /* \"#utility.yul\":8246:8251   */\n      dup2\n        /* \"#utility.yul\":8207:8252   */\n      tag_413\n      jump\t// in\n    tag_556:\n        /* \"#utility.yul\":8095:8258   */\n      swap3\n      swap2\n      pop\n      pop\n      jump\t// out\n        /* \"#utility.yul\":8264:9885   */\n    tag_76:\n        /* \"#utility.yul\":8410:8416   */\n      0x00\n        /* \"#utility.yul\":8418:8424   */\n      dup1\n        /* \"#utility.yul\":8426:8432   */\n      0x00\n        /* \"#utility.yul\":8434:8440   */\n      dup1\n        /* \"#utility.yul\":8442:8448   */\n      0x00\n        /* \"#utility.yul\":8450:8456   */\n      dup1\n        /* \"#utility.yul\":8499:8502   */\n      0xc0\n        /* \"#utility.yul\":8487:8496   */\n      dup8\n        /* \"#utility.yul\":8478:8485   */\n      dup10\n        /* \"#utility.yul\":8474:8497   */\n      sub\n        /* \"#utility.yul\":8470:8503   */\n      slt\n        /* \"#utility.yul\":8467:8587   */\n      iszero\n      tag_558\n      jumpi\n        /* \"#utility.yul\":8506:8585   */\n      tag_559\n      tag_384\n      jump\t// in\n    tag_559:\n        /* \"#utility.yul\":8467:8587   */\n    tag_558:\n        /* \"#utility.yul\":8654:8655   */\n      0x00\n        /* \"#utility.yul\":8643:8652   */\n      dup8\n        /* \"#utility.yul\":8639:8656   */\n      add\n        /* \"#utility.yul\":8626:8657   */\n      calldataload\n        /* \"#utility.yul\":8684:8702   */\n      0xffffffffffffffff\n        /* \"#utility.yul\":8676:8682   */\n      dup2\n        /* \"#utility.yul\":8673:8703   */\n      gt\n        /* \"#utility.yul\":8670:8787   */\n      iszero\n      tag_560\n      jumpi\n        /* \"#utility.yul\":8706:8785   */\n      tag_561\n      tag_385\n      jump\t// in\n    tag_561:\n        /* \"#utility.yul\":8670:8787   */\n    tag_560:\n        /* \"#utility.yul\":8811:8874   */\n      tag_562\n        /* \"#utility.yul\":8866:8873   */\n      dup10\n        /* \"#utility.yul\":8857:8863   */\n      dup3\n        /* \"#utility.yul\":8846:8855   */\n      dup11\n        /* \"#utility.yul\":8842:8864   */\n      add\n        /* \"#utility.yul\":8811:8874   */\n      tag_412\n      jump\t// in\n    tag_562:\n        /* \"#utility.yul\":8801:8874   */\n      swap7\n      pop\n        /* \"#utility.yul\":8597:8884   */\n      pop\n        /* \"#utility.yul\":8923:8925   */\n      0x20\n        /* \"#utility.yul\":8949:9014   */\n      tag_563\n        /* \"#utility.yul\":9006:9013   */\n      dup10\n        /* \"#utility.yul\":8997:9003   */\n      dup3\n        /* \"#utility.yul\":8986:8995   */\n      dup11\n        /* \"#utility.yul\":8982:9004   */\n      add\n        /* \"#utility.yul\":8949:9014   */\n      tag_414\n      jump\t// in\n    tag_563:\n        /* \"#utility.yul\":8939:9014   */\n      swap6\n      pop\n        /* \"#utility.yul\":8894:9024   */\n      pop\n        /* \"#utility.yul\":9091:9093   */\n      0x40\n        /* \"#utility.yul\":9080:9089   */\n      dup8\n        /* \"#utility.yul\":9076:9094   */\n      add\n        /* \"#utility.yul\":9063:9095   */\n      calldataload\n        /* \"#utility.yul\":9122:9140   */\n      0xffffffffffffffff\n        /* \"#utility.yul\":9114:9120   */\n      dup2\n        /* \"#utility.yul\":9111:9141   */\n      gt\n        /* \"#utility.yul\":9108:9225   */\n      iszero\n      tag_564\n      jumpi\n        /* \"#utility.yul\":9144:9223   */\n      tag_565\n      tag_385\n      jump\t// in\n    tag_565:\n        /* \"#utility.yul\":9108:9225   */\n    tag_564:\n        /* \"#utility.yul\":9249:9312   */\n      tag_566\n        /* \"#utility.yul\":9304:9311   */\n      dup10\n        /* \"#utility.yul\":9295:9301   */\n      dup3\n        /* \"#utility.yul\":9284:9293   */\n      dup11\n        /* \"#utility.yul\":9280:9302   */\n      add\n        /* \"#utility.yul\":9249:9312   */\n      tag_412\n      jump\t// in\n    tag_566:\n        /* \"#utility.yul\":9239:9312   */\n      swap5\n      pop\n        /* \"#utility.yul\":9034:9322   */\n      pop\n        /* \"#utility.yul\":9389:9391   */\n      0x60\n        /* \"#utility.yul\":9378:9387   */\n      dup8\n        /* \"#utility.yul\":9374:9392   */\n      add\n        /* \"#utility.yul\":9361:9393   */\n      calldataload\n        /* \"#utility.yul\":9420:9438   */\n      0xffffffffffffffff\n        /* \"#utility.yul\":9412:9418   */\n      dup2\n        /* \"#utility.yul\":9409:9439   */\n      gt\n        /* \"#utility.yul\":9406:9523   */\n      iszero\n      tag_567\n      jumpi\n        /* \"#utility.yul\":9442:9521   */\n      tag_568\n      tag_385\n      jump\t// in\n    tag_568:\n        /* \"#utility.yul\":9406:9523   */\n    tag_567:\n        /* \"#utility.yul\":9547:9610   */\n      tag_569\n        /* \"#utility.yul\":9602:9609   */\n      dup10\n        /* \"#utility.yul\":9593:9599   */\n      dup3\n        /* \"#utility.yul\":9582:9591   */\n      dup11\n        /* \"#utility.yul\":9578:9600   */\n      add\n        /* \"#utility.yul\":9547:9610   */\n      tag_412\n      jump\t// in\n    tag_569:\n        /* \"#utility.yul\":9537:9610   */\n      swap4\n      pop\n        /* \"#utility.yul\":9332:9620   */\n      pop\n        /* \"#utility.yul\":9659:9662   */\n      0x80\n        /* \"#utility.yul\":9686:9739   */\n      tag_570\n        /* \"#utility.yul\":9731:9738   */\n      dup10\n        /* \"#utility.yul\":9722:9728   */\n      dup3\n        /* \"#utility.yul\":9711:9720   */\n      dup11\n        /* \"#utility.yul\":9707:9729   */\n      add\n        /* \"#utility.yul\":9686:9739   */\n      tag_398\n      jump\t// in\n    tag_570:\n        /* \"#utility.yul\":9676:9739   */\n      swap3\n      pop\n        /* \"#utility.yul\":9630:9749   */\n      pop\n        /* \"#utility.yul\":9788:9791   */\n      0xa0\n        /* \"#utility.yul\":9815:9868   */\n      tag_571\n        /* \"#utility.yul\":9860:9867   */\n      dup10\n        /* \"#utility.yul\":9851:9857   */\n      dup3\n        /* \"#utility.yul\":9840:9849   */\n      dup11\n        /* \"#utility.yul\":9836:9858   */\n      add\n        /* \"#utility.yul\":9815:9868   */\n      tag_398\n      jump\t// in\n    tag_571:\n        /* \"#utility.yul\":9805:9868   */\n      swap2\n      pop\n        /* \"#utility.yul\":9759:9878   */\n      pop\n        /* \"#utility.yul\":8264:9885   */\n      swap3\n      swap6\n      pop\n      swap3\n      swap6\n      pop\n      swap3\n      swap6\n      jump\t// out\n        /* \"#utility.yul\":9891:10220   */\n    tag_90:\n        /* \"#utility.yul\":9950:9956   */\n      0x00\n        /* \"#utility.yul\":9999:10001   */\n      0x20\n        /* \"#utility.yul\":9987:9996   */\n      dup3\n        /* \"#utility.yul\":9978:9985   */\n      dup5\n        /* \"#utility.yul\":9974:9997   */\n      sub\n        /* \"#utility.yul\":9970:10002   */\n      slt\n        /* \"#utility.yul\":9967:10086   */\n      iszero\n      tag_573\n      jumpi\n        /* \"#utility.yul\":10005:10084   */\n      tag_574\n      tag_384\n      jump\t// in\n    tag_574:\n        /* \"#utility.yul\":9967:10086   */\n    tag_573:\n        /* \"#utility.yul\":10125:10126   */\n      0x00\n        /* \"#utility.yul\":10150:10203   */\n      tag_575\n        /* \"#utility.yul\":10195:10202   */\n      dup5\n        /* \"#utility.yul\":10186:10192   */\n      dup3\n        /* \"#utility.yul\":10175:10184   */\n      dup6\n        /* \"#utility.yul\":10171:10193   */\n      add\n        /* \"#utility.yul\":10150:10203   */\n      tag_403\n      jump\t// in\n    tag_575:\n        /* \"#utility.yul\":10140:10203   */\n      swap2\n      pop\n        /* \"#utility.yul\":10096:10213   */\n      pop\n        /* \"#utility.yul\":9891:10220   */\n      swap3\n      swap2\n      pop\n      pop\n      jump\t// out\n        /* \"#utility.yul\":10226:10342   */\n    tag_415:\n        /* \"#utility.yul\":10296:10317   */\n      tag_577\n        /* \"#utility.yul\":10311:10316   */\n      dup2\n        /* \"#utility.yul\":10296:10317   */\n      tag_389\n      jump\t// in\n    tag_577:\n        /* \"#utility.yul\":10289:10294   */\n      dup2\n        /* \"#utility.yul\":10286:10318   */\n      eq\n        /* \"#utility.yul\":10276:10336   */\n      tag_578\n      jumpi\n        /* \"#utility.yul\":10332:10333   */\n      0x00\n        /* \"#utility.yul\":10329:10330   */\n      dup1\n        /* \"#utility.yul\":10322:10334   */\n      revert\n        /* \"#utility.yul\":10276:10336   */\n    tag_578:\n        /* \"#utility.yul\":10226:10342   */\n      pop\n      jump\t// out\n        /* \"#utility.yul\":10348:10481   */\n    tag_416:\n        /* \"#utility.yul\":10391:10396   */\n      0x00\n        /* \"#utility.yul\":10429:10435   */\n      dup2\n        /* \"#utility.yul\":10416:10436   */\n      calldataload\n        /* \"#utility.yul\":10407:10436   */\n      swap1\n      pop\n        /* \"#utility.yul\":10445:10475   */\n      tag_580\n        /* \"#utility.yul\":10469:10474   */\n      dup2\n        /* \"#utility.yul\":10445:10475   */\n      tag_415\n      jump\t// in\n    tag_580:\n        /* \"#utility.yul\":10348:10481   */\n      swap3\n      swap2\n      pop\n      pop\n      jump\t// out\n        /* \"#utility.yul\":10487:10955   */\n    tag_104:\n        /* \"#utility.yul\":10552:10558   */\n      0x00\n        /* \"#utility.yul\":10560:10566   */\n      dup1\n        /* \"#utility.yul\":10609:10611   */\n      0x40\n        /* \"#utility.yul\":10597:10606   */\n      dup4\n        /* \"#utility.yul\":10588:10595   */\n      dup6\n        /* \"#utility.yul\":10584:10607   */\n      sub\n        /* \"#utility.yul\":10580:10612   */\n      slt\n        /* \"#utility.yul\":10577:10696   */\n      iszero\n      tag_582\n      jumpi\n        /* \"#utility.yul\":10615:10694   */\n      tag_583\n      tag_384\n      jump\t// in\n    tag_583:\n        /* \"#utility.yul\":10577:10696   */\n    tag_582:\n        /* \"#utility.yul\":10735:10736   */\n      0x00\n        /* \"#utility.yul\":10760:10813   */\n      tag_584\n        /* \"#utility.yul\":10805:10812   */\n      dup6\n        /* \"#utility.yul\":10796:10802   */\n      dup3\n        /* \"#utility.yul\":10785:10794   */\n      dup7\n        /* \"#utility.yul\":10781:10803   */\n      add\n        /* \"#utility.yul\":10760:10813   */\n      tag_403\n      jump\t// in\n    tag_584:\n        /* \"#utility.yul\":10750:10813   */\n      swap3\n      pop\n        /* \"#utility.yul\":10706:10823   */\n      pop\n        /* \"#utility.yul\":10862:10864   */\n      0x20\n        /* \"#utility.yul\":10888:10938   */\n      tag_585\n        /* \"#utility.yul\":10930:10937   */\n      dup6\n        /* \"#utility.yul\":10921:10927   */\n      dup3\n        /* \"#utility.yul\":10910:10919   */\n      dup7\n        /* \"#utility.yul\":10906:10928   */\n      add\n        /* \"#utility.yul\":10888:10938   */\n      tag_416\n      jump\t// in\n    tag_585:\n        /* \"#utility.yul\":10878:10938   */\n      swap2\n      pop\n        /* \"#utility.yul\":10833:10948   */\n      pop\n        /* \"#utility.yul\":10487:10955   */\n      swap3\n      pop\n      swap3\n      swap1\n      pop\n      jump\t// out\n        /* \"#utility.yul\":10961:11268   */\n    tag_417:\n        /* \"#utility.yul\":11022:11026   */\n      0x00\n        /* \"#utility.yul\":11112:11130   */\n      0xffffffffffffffff\n        /* \"#utility.yul\":11104:11110   */\n      dup3\n        /* \"#utility.yul\":11101:11131   */\n      gt\n        /* \"#utility.yul\":11098:11154   */\n      iszero\n      tag_587\n      jumpi\n        /* \"#utility.yul\":11134:11152   */\n      tag_588\n      tag_318\n      jump\t// in\n    tag_588:\n        /* \"#utility.yul\":11098:11154   */\n    tag_587:\n        /* \"#utility.yul\":11172:11201   */\n      tag_589\n        /* \"#utility.yul\":11194:11200   */\n      dup3\n        /* \"#utility.yul\":11172:11201   */\n      tag_394\n      jump\t// in\n    tag_589:\n        /* \"#utility.yul\":11164:11201   */\n      swap1\n      pop\n        /* \"#utility.yul\":11256:11260   */\n      0x20\n        /* \"#utility.yul\":11250:11254   */\n      dup2\n        /* \"#utility.yul\":11246:11261   */\n      add\n        /* \"#utility.yul\":11238:11261   */\n      swap1\n      pop\n        /* \"#utility.yul\":10961:11268   */\n      swap2\n      swap1\n      pop\n      jump\t// out\n        /* \"#utility.yul\":11274:11697   */\n    tag_418:\n        /* \"#utility.yul\":11351:11356   */\n      0x00\n        /* \"#utility.yul\":11376:11441   */\n      tag_591\n        /* \"#utility.yul\":11392:11440   */\n      tag_592\n        /* \"#utility.yul\":11433:11439   */\n      dup5\n        /* \"#utility.yul\":11392:11440   */\n      tag_417\n      jump\t// in\n    tag_592:\n        /* \"#utility.yul\":11376:11441   */\n      tag_408\n      jump\t// in\n    tag_591:\n        /* \"#utility.yul\":11367:11441   */\n      swap1\n      pop\n        /* \"#utility.yul\":11464:11470   */\n      dup3\n        /* \"#utility.yul\":11457:11462   */\n      dup2\n        /* \"#utility.yul\":11450:11471   */\n      mstore\n        /* \"#utility.yul\":11502:11506   */\n      0x20\n        /* \"#utility.yul\":11495:11500   */\n      dup2\n        /* \"#utility.yul\":11491:11507   */\n      add\n        /* \"#utility.yul\":11540:11543   */\n      dup5\n        /* \"#utility.yul\":11531:11537   */\n      dup5\n        /* \"#utility.yul\":11526:11529   */\n      dup5\n        /* \"#utility.yul\":11522:11538   */\n      add\n        /* \"#utility.yul\":11519:11544   */\n      gt\n        /* \"#utility.yul\":11516:11628   */\n      iszero\n      tag_593\n      jumpi\n        /* \"#utility.yul\":11547:11626   */\n      tag_594\n      tag_406\n      jump\t// in\n    tag_594:\n        /* \"#utility.yul\":11516:11628   */\n    tag_593:\n        /* \"#utility.yul\":11637:11691   */\n      tag_595\n        /* \"#utility.yul\":11684:11690   */\n      dup5\n        /* \"#utility.yul\":11679:11682   */\n      dup3\n        /* \"#utility.yul\":11674:11677   */\n      dup6\n        /* \"#utility.yul\":11637:11691   */\n      tag_410\n      jump\t// in\n    tag_595:\n        /* \"#utility.yul\":11357:11697   */\n      pop\n        /* \"#utility.yul\":11274:11697   */\n      swap4\n      swap3\n      pop\n      pop\n      pop\n      jump\t// out\n        /* \"#utility.yul\":11716:12054   */\n    tag_419:\n        /* \"#utility.yul\":11771:11776   */\n      0x00\n        /* \"#utility.yul\":11820:11823   */\n      dup3\n        /* \"#utility.yul\":11813:11817   */\n      0x1f\n        /* \"#utility.yul\":11805:11811   */\n      dup4\n        /* \"#utility.yul\":11801:11818   */\n      add\n        /* \"#utility.yul\":11797:11824   */\n      slt\n        /* \"#utility.yul\":11787:11909   */\n      tag_597\n      jumpi\n        /* \"#utility.yul\":11828:11907   */\n      tag_598\n      tag_405\n      jump\t// in\n    tag_598:\n        /* \"#utility.yul\":11787:11909   */\n    tag_597:\n        /* \"#utility.yul\":11945:11951   */\n      dup2\n        /* \"#utility.yul\":11932:11952   */\n      calldataload\n        /* \"#utility.yul\":11970:12048   */\n      tag_599\n        /* \"#utility.yul\":12044:12047   */\n      dup5\n        /* \"#utility.yul\":12036:12042   */\n      dup3\n        /* \"#utility.yul\":12029:12033   */\n      0x20\n        /* \"#utility.yul\":12021:12027   */\n      dup7\n        /* \"#utility.yul\":12017:12034   */\n      add\n        /* \"#utility.yul\":11970:12048   */\n      tag_418\n      jump\t// in\n    tag_599:\n        /* \"#utility.yul\":11961:12048   */\n      swap2\n      pop\n        /* \"#utility.yul\":11777:12054   */\n      pop\n        /* \"#utility.yul\":11716:12054   */\n      swap3\n      swap2\n      pop\n      pop\n      jump\t// out\n        /* \"#utility.yul\":12060:13003   */\n    tag_113:\n        /* \"#utility.yul\":12155:12161   */\n      0x00\n        /* \"#utility.yul\":12163:12169   */\n      dup1\n        /* \"#utility.yul\":12171:12177   */\n      0x00\n        /* \"#utility.yul\":12179:12185   */\n      dup1\n        /* \"#utility.yul\":12228:12231   */\n      0x80\n        /* \"#utility.yul\":12216:12225   */\n      dup6\n        /* \"#utility.yul\":12207:12214   */\n      dup8\n        /* \"#utility.yul\":12203:12226   */\n      sub\n        /* \"#utility.yul\":12199:12232   */\n      slt\n        /* \"#utility.yul\":12196:12316   */\n      iszero\n      tag_601\n      jumpi\n        /* \"#utility.yul\":12235:12314   */\n      tag_602\n      tag_384\n      jump\t// in\n    tag_602:\n        /* \"#utility.yul\":12196:12316   */\n    tag_601:\n        /* \"#utility.yul\":12355:12356   */\n      0x00\n        /* \"#utility.yul\":12380:12433   */\n      tag_603\n        /* \"#utility.yul\":12425:12432   */\n      dup8\n        /* \"#utility.yul\":12416:12422   */\n      dup3\n        /* \"#utility.yul\":12405:12414   */\n      dup9\n        /* \"#utility.yul\":12401:12423   */\n      add\n        /* \"#utility.yul\":12380:12433   */\n      tag_403\n      jump\t// in\n    tag_603:\n        /* \"#utility.yul\":12370:12433   */\n      swap5\n      pop\n        /* \"#utility.yul\":12326:12443   */\n      pop\n        /* \"#utility.yul\":12482:12484   */\n      0x20\n        /* \"#utility.yul\":12508:12561   */\n      tag_604\n        /* \"#utility.yul\":12553:12560   */\n      dup8\n        /* \"#utility.yul\":12544:12550   */\n      dup3\n        /* \"#utility.yul\":12533:12542   */\n      dup9\n        /* \"#utility.yul\":12529:12551   */\n      add\n        /* \"#utility.yul\":12508:12561   */\n      tag_403\n      jump\t// in\n    tag_604:\n        /* \"#utility.yul\":12498:12561   */\n      swap4\n      pop\n        /* \"#utility.yul\":12453:12571   */\n      pop\n        /* \"#utility.yul\":12610:12612   */\n      0x40\n        /* \"#utility.yul\":12636:12689   */\n      tag_605\n        /* \"#utility.yul\":12681:12688   */\n      dup8\n        /* \"#utility.yul\":12672:12678   */\n      dup3\n        /* \"#utility.yul\":12661:12670   */\n      dup9\n        /* \"#utility.yul\":12657:12679   */\n      add\n        /* \"#utility.yul\":12636:12689   */\n      tag_398\n      jump\t// in\n    tag_605:\n        /* \"#utility.yul\":12626:12689   */\n      swap3\n      pop\n        /* \"#utility.yul\":12581:12699   */\n      pop\n        /* \"#utility.yul\":12766:12768   */\n      0x60\n        /* \"#utility.yul\":12755:12764   */\n      dup6\n        /* \"#utility.yul\":12751:12769   */\n      add\n        /* \"#utility.yul\":12738:12770   */\n      calldataload\n        /* \"#utility.yul\":12797:12815   */\n      0xffffffffffffffff\n        /* \"#utility.yul\":12789:12795   */\n      dup2\n        /* \"#utility.yul\":12786:12816   */\n      gt\n        /* \"#utility.yul\":12783:12900   */\n      iszero\n      tag_606\n      jumpi\n        /* \"#utility.yul\":12819:12898   */\n      tag_607\n      tag_385\n      jump\t// in\n    tag_607:\n        /* \"#utility.yul\":12783:12900   */\n    tag_606:\n        /* \"#utility.yul\":12924:12986   */\n      tag_608\n        /* \"#utility.yul\":12978:12985   */\n      dup8\n        /* \"#utility.yul\":12969:12975   */\n      dup3\n        /* \"#utility.yul\":12958:12967   */\n      dup9\n        /* \"#utility.yul\":12954:12976   */\n      add\n        /* \"#utility.yul\":12924:12986   */\n      tag_419\n      jump\t// in\n    tag_608:\n        /* \"#utility.yul\":12914:12986   */\n      swap2\n      pop\n        /* \"#utility.yul\":12709:12996   */\n      pop\n        /* \"#utility.yul\":12060:13003   */\n      swap3\n      swap6\n      swap2\n      swap5\n      pop\n      swap3\n      pop\n      jump\t// out\n        /* \"#utility.yul\":13009:13189   */\n    tag_278:\n        /* \"#utility.yul\":13057:13134   */\n      0x4e487b7100000000000000000000000000000000000000000000000000000000\n        /* \"#utility.yul\":13054:13055   */\n      0x00\n        /* \"#utility.yul\":13047:13135   */\n      mstore\n        /* \"#utility.yul\":13154:13158   */\n      0x21\n        /* \"#utility.yul\":13151:13152   */\n      0x04\n        /* \"#utility.yul\":13144:13159   */\n      mstore\n        /* \"#utility.yul\":13178:13182   */\n      0x24\n        /* \"#utility.yul\":13175:13176   */\n      0x00\n        /* \"#utility.yul\":13168:13183   */\n      revert\n        /* \"#utility.yul\":13195:13312   */\n    tag_420:\n        /* \"#utility.yul\":13280:13281   */\n      0x04\n        /* \"#utility.yul\":13273:13278   */\n      dup2\n        /* \"#utility.yul\":13270:13282   */\n      lt\n        /* \"#utility.yul\":13260:13306   */\n      tag_611\n      jumpi\n        /* \"#utility.yul\":13286:13304   */\n      tag_612\n      tag_278\n      jump\t// in\n    tag_612:\n        /* \"#utility.yul\":13260:13306   */\n    tag_611:\n        /* \"#utility.yul\":13195:13312   */\n      pop\n      jump\t// out\n        /* \"#utility.yul\":13318:13453   */\n    tag_421:\n        /* \"#utility.yul\":13367:13374   */\n      0x00\n        /* \"#utility.yul\":13396:13401   */\n      dup2\n        /* \"#utility.yul\":13385:13401   */\n      swap1\n      pop\n        /* \"#utility.yul\":13402:13447   */\n      tag_614\n        /* \"#utility.yul\":13441:13446   */\n      dup3\n        /* \"#utility.yul\":13402:13447   */\n      tag_420\n      jump\t// in\n    tag_614:\n        /* \"#utility.yul\":13318:13453   */\n      swap2\n      swap1\n      pop\n      jump\t// out\n        /* \"#utility.yul\":13459:13594   */\n    tag_422:\n        /* \"#utility.yul\":13519:13528   */\n      0x00\n        /* \"#utility.yul\":13552:13588   */\n      tag_616\n        /* \"#utility.yul\":13582:13587   */\n      dup3\n        /* \"#utility.yul\":13552:13588   */\n      tag_421\n      jump\t// in\n    tag_616:\n        /* \"#utility.yul\":13539:13588   */\n      swap1\n      pop\n        /* \"#utility.yul\":13459:13594   */\n      swap2\n      swap1\n      pop\n      jump\t// out\n        /* \"#utility.yul\":13600:13751   */\n    tag_423:\n        /* \"#utility.yul\":13697:13744   */\n      tag_618\n        /* \"#utility.yul\":13738:13743   */\n      dup2\n        /* \"#utility.yul\":13697:13744   */\n      tag_422\n      jump\t// in\n    tag_618:\n        /* \"#utility.yul\":13692:13695   */\n      dup3\n        /* \"#utility.yul\":13685:13745   */\n      mstore\n        /* \"#utility.yul\":13600:13751   */\n      pop\n      pop\n      jump\t// out\n        /* \"#utility.yul\":13757:15047   */\n    tag_129:\n        /* \"#utility.yul\":14116:14120   */\n      0x00\n        /* \"#utility.yul\":14154:14157   */\n      0x0100\n        /* \"#utility.yul\":14143:14152   */\n      dup3\n        /* \"#utility.yul\":14139:14158   */\n      add\n        /* \"#utility.yul\":14131:14158   */\n      swap1\n      pop\n        /* \"#utility.yul\":14168:14239   */\n      tag_620\n        /* \"#utility.yul\":14236:14237   */\n      0x00\n        /* \"#utility.yul\":14225:14234   */\n      dup4\n        /* \"#utility.yul\":14221:14238   */\n      add\n        /* \"#utility.yul\":14212:14218   */\n      dup12\n        /* \"#utility.yul\":14168:14239   */\n      tag_404\n      jump\t// in\n    tag_620:\n        /* \"#utility.yul\":14286:14295   */\n      dup2\n        /* \"#utility.yul\":14280:14284   */\n      dup2\n        /* \"#utility.yul\":14276:14296   */\n      sub\n        /* \"#utility.yul\":14271:14273   */\n      0x20\n        /* \"#utility.yul\":14260:14269   */\n      dup4\n        /* \"#utility.yul\":14256:14274   */\n      add\n        /* \"#utility.yul\":14249:14297   */\n      mstore\n        /* \"#utility.yul\":14314:14392   */\n      tag_621\n        /* \"#utility.yul\":14387:14391   */\n      dup2\n        /* \"#utility.yul\":14378:14384   */\n      dup11\n        /* \"#utility.yul\":14314:14392   */\n      tag_395\n      jump\t// in\n    tag_621:\n        /* \"#utility.yul\":14306:14392   */\n      swap1\n      pop\n        /* \"#utility.yul\":14402:14484   */\n      tag_622\n        /* \"#utility.yul\":14480:14482   */\n      0x40\n        /* \"#utility.yul\":14469:14478   */\n      dup4\n        /* \"#utility.yul\":14465:14483   */\n      add\n        /* \"#utility.yul\":14456:14462   */\n      dup10\n        /* \"#utility.yul\":14402:14484   */\n      tag_423\n      jump\t// in\n    tag_622:\n        /* \"#utility.yul\":14531:14540   */\n      dup2\n        /* \"#utility.yul\":14525:14529   */\n      dup2\n        /* \"#utility.yul\":14521:14541   */\n      sub\n        /* \"#utility.yul\":14516:14518   */\n      0x60\n        /* \"#utility.yul\":14505:14514   */\n      dup4\n        /* \"#utility.yul\":14501:14519   */\n      add\n        /* \"#utility.yul\":14494:14542   */\n      mstore\n        /* \"#utility.yul\":14559:14637   */\n      tag_623\n        /* \"#utility.yul\":14632:14636   */\n      dup2\n        /* \"#utility.yul\":14623:14629   */\n      dup9\n        /* \"#utility.yul\":14559:14637   */\n      tag_395\n      jump\t// in\n    tag_623:\n        /* \"#utility.yul\":14551:14637   */\n      swap1\n      pop\n        /* \"#utility.yul\":14685:14694   */\n      dup2\n        /* \"#utility.yul\":14679:14683   */\n      dup2\n        /* \"#utility.yul\":14675:14695   */\n      sub\n        /* \"#utility.yul\":14669:14672   */\n      0x80\n        /* \"#utility.yul\":14658:14667   */\n      dup4\n        /* \"#utility.yul\":14654:14673   */\n      add\n        /* \"#utility.yul\":14647:14696   */\n      mstore\n        /* \"#utility.yul\":14713:14791   */\n      tag_624\n        /* \"#utility.yul\":14786:14790   */\n      dup2\n        /* \"#utility.yul\":14777:14783   */\n      dup8\n        /* \"#utility.yul\":14713:14791   */\n      tag_395\n      jump\t// in\n    tag_624:\n        /* \"#utility.yul\":14705:14791   */\n      swap1\n      pop\n        /* \"#utility.yul\":14801:14874   */\n      tag_625\n        /* \"#utility.yul\":14869:14872   */\n      0xa0\n        /* \"#utility.yul\":14858:14867   */\n      dup4\n        /* \"#utility.yul\":14854:14873   */\n      add\n        /* \"#utility.yul\":14845:14851   */\n      dup7\n        /* \"#utility.yul\":14801:14874   */\n      tag_404\n      jump\t// in\n    tag_625:\n        /* \"#utility.yul\":14884:14957   */\n      tag_626\n        /* \"#utility.yul\":14952:14955   */\n      0xc0\n        /* \"#utility.yul\":14941:14950   */\n      dup4\n        /* \"#utility.yul\":14937:14956   */\n      add\n        /* \"#utility.yul\":14928:14934   */\n      dup6\n        /* \"#utility.yul\":14884:14957   */\n      tag_404\n      jump\t// in\n    tag_626:\n        /* \"#utility.yul\":14967:15040   */\n      tag_627\n        /* \"#utility.yul\":15035:15038   */\n      0xe0\n        /* \"#utility.yul\":15024:15033   */\n      dup4\n        /* \"#utility.yul\":15020:15039   */\n      add\n        /* \"#utility.yul\":15011:15017   */\n      dup5\n        /* \"#utility.yul\":14967:15040   */\n      tag_401\n      jump\t// in\n    tag_627:\n        /* \"#utility.yul\":13757:15047   */\n      swap10\n      swap9\n      pop\n      pop\n      pop\n      pop\n      pop\n      pop\n      pop\n      pop\n      pop\n      jump\t// out\n        /* \"#utility.yul\":15053:15527   */\n    tag_141:\n        /* \"#utility.yul\":15121:15127   */\n      0x00\n        /* \"#utility.yul\":15129:15135   */\n      dup1\n        /* \"#utility.yul\":15178:15180   */\n      0x40\n        /* \"#utility.yul\":15166:15175   */\n      dup4\n        /* \"#utility.yul\":15157:15164   */\n      dup6\n        /* \"#utility.yul\":15153:15176   */\n      sub\n        /* \"#utility.yul\":15149:15181   */\n      slt\n        /* \"#utility.yul\":15146:15265   */\n      iszero\n      tag_629\n      jumpi\n        /* \"#utility.yul\":15184:15263   */\n      tag_630\n      tag_384\n      jump\t// in\n    tag_630:\n        /* \"#utility.yul\":15146:15265   */\n    tag_629:\n        /* \"#utility.yul\":15304:15305   */\n      0x00\n        /* \"#utility.yul\":15329:15382   */\n      tag_631\n        /* \"#utility.yul\":15374:15381   */\n      dup6\n        /* \"#utility.yul\":15365:15371   */\n      dup3\n        /* \"#utility.yul\":15354:15363   */\n      dup7\n        /* \"#utility.yul\":15350:15372   */\n      add\n        /* \"#utility.yul\":15329:15382   */\n      tag_403\n      jump\t// in\n    tag_631:\n        /* \"#utility.yul\":15319:15382   */\n      swap3\n      pop\n        /* \"#utility.yul\":15275:15392   */\n      pop\n        /* \"#utility.yul\":15431:15433   */\n      0x20\n        /* \"#utility.yul\":15457:15510   */\n      tag_632\n        /* \"#utility.yul\":15502:15509   */\n      dup6\n        /* \"#utility.yul\":15493:15499   */\n      dup3\n        /* \"#utility.yul\":15482:15491   */\n      dup7\n        /* \"#utility.yul\":15478:15500   */\n      add\n        /* \"#utility.yul\":15457:15510   */\n      tag_403\n      jump\t// in\n    tag_632:\n        /* \"#utility.yul\":15447:15510   */\n      swap2\n      pop\n        /* \"#utility.yul\":15402:15520   */\n      pop\n        /* \"#utility.yul\":15053:15527   */\n      swap3\n      pop\n      swap3\n      swap1\n      pop\n      jump\t// out\n        /* \"#utility.yul\":15533:15713   */\n    tag_424:\n        /* \"#utility.yul\":15581:15658   */\n      0x4e487b7100000000000000000000000000000000000000000000000000000000\n        /* \"#utility.yul\":15578:15579   */\n      0x00\n        /* \"#utility.yul\":15571:15659   */\n      mstore\n        /* \"#utility.yul\":15678:15682   */\n      0x22\n        /* \"#utility.yul\":15675:15676   */\n      0x04\n        /* \"#utility.yul\":15668:15683   */\n      mstore\n        /* \"#utility.yul\":15702:15706   */\n      0x24\n        /* \"#utility.yul\":15699:15700   */\n      0x00\n        /* \"#utility.yul\":15692:15707   */\n      revert\n        /* \"#utility.yul\":15719:16039   */\n    tag_151:\n        /* \"#utility.yul\":15763:15769   */\n      0x00\n        /* \"#utility.yul\":15800:15801   */\n      0x02\n        /* \"#utility.yul\":15794:15798   */\n      dup3\n        /* \"#utility.yul\":15790:15802   */\n      div\n        /* \"#utility.yul\":15780:15802   */\n      swap1\n      pop\n        /* \"#utility.yul\":15847:15848   */\n      0x01\n        /* \"#utility.yul\":15841:15845   */\n      dup3\n        /* \"#utility.yul\":15837:15849   */\n      and\n        /* \"#utility.yul\":15868:15886   */\n      dup1\n        /* \"#utility.yul\":15858:15939   */\n      tag_635\n      jumpi\n        /* \"#utility.yul\":15924:15928   */\n      0x7f\n        /* \"#utility.yul\":15916:15922   */\n      dup3\n        /* \"#utility.yul\":15912:15929   */\n      and\n        /* \"#utility.yul\":15902:15929   */\n      swap2\n      pop\n        /* \"#utility.yul\":15858:15939   */\n    tag_635:\n        /* \"#utility.yul\":15986:15988   */\n      0x20\n        /* \"#utility.yul\":15978:15984   */\n      dup3\n        /* \"#utility.yul\":15975:15989   */\n      lt\n        /* \"#utility.yul\":15955:15973   */\n      dup2\n        /* \"#utility.yul\":15952:15990   */\n      sub\n        /* \"#utility.yul\":15949:16033   */\n      tag_636\n      jumpi\n        /* \"#utility.yul\":16005:16023   */\n      tag_637\n      tag_424\n      jump\t// in\n    tag_637:\n        /* \"#utility.yul\":15949:16033   */\n    tag_636:\n        /* \"#utility.yul\":15770:16039   */\n      pop\n        /* \"#utility.yul\":15719:16039   */\n      swap2\n      swap1\n      pop\n      jump\t// out\n        /* \"#utility.yul\":16045:16487   */\n    tag_175:\n        /* \"#utility.yul\":16194:16198   */\n      0x00\n        /* \"#utility.yul\":16232:16234   */\n      0x60\n        /* \"#utility.yul\":16221:16230   */\n      dup3\n        /* \"#utility.yul\":16217:16235   */\n      add\n        /* \"#utility.yul\":16209:16235   */\n      swap1\n      pop\n        /* \"#utility.yul\":16245:16316   */\n      tag_639\n        /* \"#utility.yul\":16313:16314   */\n      0x00\n        /* \"#utility.yul\":16302:16311   */\n      dup4\n        /* \"#utility.yul\":16298:16315   */\n      add\n        /* \"#utility.yul\":16289:16295   */\n      dup7\n        /* \"#utility.yul\":16245:16316   */\n      tag_401\n      jump\t// in\n    tag_639:\n        /* \"#utility.yul\":16326:16398   */\n      tag_640\n        /* \"#utility.yul\":16394:16396   */\n      0x20\n        /* \"#utility.yul\":16383:16392   */\n      dup4\n        /* \"#utility.yul\":16379:16397   */\n      add\n        /* \"#utility.yul\":16370:16376   */\n      dup6\n        /* \"#utility.yul\":16326:16398   */\n      tag_404\n      jump\t// in\n    tag_640:\n        /* \"#utility.yul\":16408:16480   */\n      tag_641\n        /* \"#utility.yul\":16476:16478   */\n      0x40\n        /* \"#utility.yul\":16465:16474   */\n      dup4\n        /* \"#utility.yul\":16461:16479   */\n      add\n        /* \"#utility.yul\":16452:16458   */\n      dup5\n        /* \"#utility.yul\":16408:16480   */\n      tag_401\n      jump\t// in\n    tag_641:\n        /* \"#utility.yul\":16045:16487   */\n      swap5\n      swap4\n      pop\n      pop\n      pop\n      pop\n      jump\t// out\n        /* \"#utility.yul\":16493:16729   */\n    tag_425:\n        /* \"#utility.yul\":16633:16667   */\n      0x4f6e6c79206f776e6572206f6620636f6e74726163742063616e206578656375\n        /* \"#utility.yul\":16629:16630   */\n      0x00\n        /* \"#utility.yul\":16621:16627   */\n      dup3\n        /* \"#utility.yul\":16617:16631   */\n      add\n        /* \"#utility.yul\":16610:16668   */\n      mstore\n        /* \"#utility.yul\":16702:16721   */\n      0x746520746869732066756e6374696f6e2e000000000000000000000000000000\n        /* \"#utility.yul\":16697:16699   */\n      0x20\n        /* \"#utility.yul\":16689:16695   */\n      dup3\n        /* \"#utility.yul\":16685:16700   */\n      add\n        /* \"#utility.yul\":16678:16722   */\n      mstore\n        /* \"#utility.yul\":16493:16729   */\n      pop\n      jump\t// out\n        /* \"#utility.yul\":16735:17101   */\n    tag_426:\n        /* \"#utility.yul\":16877:16880   */\n      0x00\n        /* \"#utility.yul\":16898:16965   */\n      tag_644\n        /* \"#utility.yul\":16962:16964   */\n      0x31\n        /* \"#utility.yul\":16957:16960   */\n      dup4\n        /* \"#utility.yul\":16898:16965   */\n      tag_392\n      jump\t// in\n    tag_644:\n        /* \"#utility.yul\":16891:16965   */\n      swap2\n      pop\n        /* \"#utility.yul\":16974:17067   */\n      tag_645\n        /* \"#utility.yul\":17063:17066   */\n      dup3\n        /* \"#utility.yul\":16974:17067   */\n      tag_425\n      jump\t// in\n    tag_645:\n        /* \"#utility.yul\":17092:17094   */\n      0x40\n        /* \"#utility.yul\":17087:17090   */\n      dup3\n        /* \"#utility.yul\":17083:17095   */\n      add\n        /* \"#utility.yul\":17076:17095   */\n      swap1\n      pop\n        /* \"#utility.yul\":16735:17101   */\n      swap2\n      swap1\n      pop\n      jump\t// out\n        /* \"#utility.yul\":17107:17526   */\n    tag_179:\n        /* \"#utility.yul\":17273:17277   */\n      0x00\n        /* \"#utility.yul\":17311:17313   */\n      0x20\n        /* \"#utility.yul\":17300:17309   */\n      dup3\n        /* \"#utility.yul\":17296:17314   */\n      add\n        /* \"#utility.yul\":17288:17314   */\n      swap1\n      pop\n        /* \"#utility.yul\":17360:17369   */\n      dup2\n        /* \"#utility.yul\":17354:17358   */\n      dup2\n        /* \"#utility.yul\":17350:17370   */\n      sub\n        /* \"#utility.yul\":17346:17347   */\n      0x00\n        /* \"#utility.yul\":17335:17344   */\n      dup4\n        /* \"#utility.yul\":17331:17348   */\n      add\n        /* \"#utility.yul\":17324:17371   */\n      mstore\n        /* \"#utility.yul\":17388:17519   */\n      tag_647\n        /* \"#utility.yul\":17514:17518   */\n      dup2\n        /* \"#utility.yul\":17388:17519   */\n      tag_426\n      jump\t// in\n    tag_647:\n        /* \"#utility.yul\":17380:17519   */\n      swap1\n      pop\n        /* \"#utility.yul\":17107:17526   */\n      swap2\n      swap1\n      pop\n      jump\t// out\n        /* \"#utility.yul\":17532:17698   */\n    tag_427:\n        /* \"#utility.yul\":17672:17690   */\n      0x6e6f7420656e6f7567682066756e647300000000000000000000000000000000\n        /* \"#utility.yul\":17668:17669   */\n      0x00\n        /* \"#utility.yul\":17660:17666   */\n      dup3\n        /* \"#utility.yul\":17656:17670   */\n      add\n        /* \"#utility.yul\":17649:17691   */\n      mstore\n        /* \"#utility.yul\":17532:17698   */\n      pop\n      jump\t// out\n        /* \"#utility.yul\":17704:18070   */\n    tag_428:\n        /* \"#utility.yul\":17846:17849   */\n      0x00\n        /* \"#utility.yul\":17867:17934   */\n      tag_650\n        /* \"#utility.yul\":17931:17933   */\n      0x10\n        /* \"#utility.yul\":17926:17929   */\n      dup4\n        /* \"#utility.yul\":17867:17934   */\n      tag_392\n      jump\t// in\n    tag_650:\n        /* \"#utility.yul\":17860:17934   */\n      swap2\n      pop\n        /* \"#utility.yul\":17943:18036   */\n      tag_651\n        /* \"#utility.yul\":18032:18035   */\n      dup3\n        /* \"#utility.yul\":17943:18036   */\n      tag_427\n      jump\t// in\n    tag_651:\n        /* \"#utility.yul\":18061:18063   */\n      0x20\n        /* \"#utility.yul\":18056:18059   */\n      dup3\n        /* \"#utility.yul\":18052:18064   */\n      add\n        /* \"#utility.yul\":18045:18064   */\n      swap1\n      pop\n        /* \"#utility.yul\":17704:18070   */\n      swap2\n      swap1\n      pop\n      jump\t// out\n        /* \"#utility.yul\":18076:18495   */\n    tag_189:\n        /* \"#utility.yul\":18242:18246   */\n      0x00\n        /* \"#utility.yul\":18280:18282   */\n      0x20\n        /* \"#utility.yul\":18269:18278   */\n      dup3\n        /* \"#utility.yul\":18265:18283   */\n      add\n        /* \"#utility.yul\":18257:18283   */\n      swap1\n      pop\n        /* \"#utility.yul\":18329:18338   */\n      dup2\n        /* \"#utility.yul\":18323:18327   */\n      dup2\n        /* \"#utility.yul\":18319:18339   */\n      sub\n        /* \"#utility.yul\":18315:18316   */\n      0x00\n        /* \"#utility.yul\":18304:18313   */\n      dup4\n        /* \"#utility.yul\":18300:18317   */\n      add\n        /* \"#utility.yul\":18293:18340   */\n      mstore\n        /* \"#utility.yul\":18357:18488   */\n      tag_653\n        /* \"#utility.yul\":18483:18487   */\n      dup2\n        /* \"#utility.yul\":18357:18488   */\n      tag_428\n      jump\t// in\n    tag_653:\n        /* \"#utility.yul\":18349:18488   */\n      swap1\n      pop\n        /* \"#utility.yul\":18076:18495   */\n      swap2\n      swap1\n      pop\n      jump\t// out\n        /* \"#utility.yul\":18501:18681   */\n    tag_429:\n        /* \"#utility.yul\":18549:18626   */\n      0x4e487b7100000000000000000000000000000000000000000000000000000000\n        /* \"#utility.yul\":18546:18547   */\n      0x00\n        /* \"#utility.yul\":18539:18627   */\n      mstore\n        /* \"#utility.yul\":18646:18650   */\n      0x11\n        /* \"#utility.yul\":18643:18644   */\n      0x04\n        /* \"#utility.yul\":18636:18651   */\n      mstore\n        /* \"#utility.yul\":18670:18674   */\n      0x24\n        /* \"#utility.yul\":18667:18668   */\n      0x00\n        /* \"#utility.yul\":18660:18675   */\n      revert\n        /* \"#utility.yul\":18687:19097   */\n    tag_218:\n        /* \"#utility.yul\":18727:18734   */\n      0x00\n        /* \"#utility.yul\":18750:18770   */\n      tag_656\n        /* \"#utility.yul\":18768:18769   */\n      dup3\n        /* \"#utility.yul\":18750:18770   */\n      tag_396\n      jump\t// in\n    tag_656:\n        /* \"#utility.yul\":18745:18770   */\n      swap2\n      pop\n        /* \"#utility.yul\":18784:18804   */\n      tag_657\n        /* \"#utility.yul\":18802:18803   */\n      dup4\n        /* \"#utility.yul\":18784:18804   */\n      tag_396\n      jump\t// in\n    tag_657:\n        /* \"#utility.yul\":18779:18804   */\n      swap3\n      pop\n        /* \"#utility.yul\":18839:18840   */\n      dup3\n        /* \"#utility.yul\":18836:18837   */\n      dup3\n        /* \"#utility.yul\":18832:18841   */\n      mul\n        /* \"#utility.yul\":18861:18891   */\n      tag_658\n        /* \"#utility.yul\":18879:18890   */\n      dup2\n        /* \"#utility.yul\":18861:18891   */\n      tag_396\n      jump\t// in\n    tag_658:\n        /* \"#utility.yul\":18850:18891   */\n      swap2\n      pop\n        /* \"#utility.yul\":19040:19041   */\n      dup3\n        /* \"#utility.yul\":19031:19038   */\n      dup3\n        /* \"#utility.yul\":19027:19042   */\n      div\n        /* \"#utility.yul\":19024:19025   */\n      dup5\n        /* \"#utility.yul\":19021:19043   */\n      eq\n        /* \"#utility.yul\":19001:19002   */\n      dup4\n        /* \"#utility.yul\":18994:19003   */\n      iszero\n        /* \"#utility.yul\":18974:19057   */\n      or\n        /* \"#utility.yul\":18951:19090   */\n      tag_659\n      jumpi\n        /* \"#utility.yul\":19070:19088   */\n      tag_660\n      tag_429\n      jump\t// in\n    tag_660:\n        /* \"#utility.yul\":18951:19090   */\n    tag_659:\n        /* \"#utility.yul\":18735:19097   */\n      pop\n        /* \"#utility.yul\":18687:19097   */\n      swap3\n      swap2\n      pop\n      pop\n      jump\t// out\n        /* \"#utility.yul\":19103:19283   */\n    tag_324:\n        /* \"#utility.yul\":19151:19228   */\n      0x4e487b7100000000000000000000000000000000000000000000000000000000\n        /* \"#utility.yul\":19148:19149   */\n      0x00\n        /* \"#utility.yul\":19141:19229   */\n      mstore\n        /* \"#utility.yul\":19248:19252   */\n      0x12\n        /* \"#utility.yul\":19245:19246   */\n      0x04\n        /* \"#utility.yul\":19238:19253   */\n      mstore\n        /* \"#utility.yul\":19272:19276   */\n      0x24\n        /* \"#utility.yul\":19269:19270   */\n      0x00\n        /* \"#utility.yul\":19262:19277   */\n      revert\n        /* \"#utility.yul\":19289:19474   */\n    tag_220:\n        /* \"#utility.yul\":19329:19330   */\n      0x00\n        /* \"#utility.yul\":19346:19366   */\n      tag_663\n        /* \"#utility.yul\":19364:19365   */\n      dup3\n        /* \"#utility.yul\":19346:19366   */\n      tag_396\n      jump\t// in\n    tag_663:\n        /* \"#utility.yul\":19341:19366   */\n      swap2\n      pop\n        /* \"#utility.yul\":19380:19400   */\n      tag_664\n        /* \"#utility.yul\":19398:19399   */\n      dup4\n        /* \"#utility.yul\":19380:19400   */\n      tag_396\n      jump\t// in\n    tag_664:\n        /* \"#utility.yul\":19375:19400   */\n      swap3\n      pop\n        /* \"#utility.yul\":19419:19420   */\n      dup3\n        /* \"#utility.yul\":19409:19444   */\n      tag_665\n      jumpi\n        /* \"#utility.yul\":19424:19442   */\n      tag_666\n      tag_324\n      jump\t// in\n    tag_666:\n        /* \"#utility.yul\":19409:19444   */\n    tag_665:\n        /* \"#utility.yul\":19466:19467   */\n      dup3\n        /* \"#utility.yul\":19463:19464   */\n      dup3\n        /* \"#utility.yul\":19459:19468   */\n      div\n        /* \"#utility.yul\":19454:19468   */\n      swap1\n      pop\n        /* \"#utility.yul\":19289:19474   */\n      swap3\n      swap2\n      pop\n      pop\n      jump\t// out\n        /* \"#utility.yul\":19480:19628   */\n    tag_430:\n        /* \"#utility.yul\":19582:19593   */\n      0x00\n        /* \"#utility.yul\":19619:19622   */\n      dup2\n        /* \"#utility.yul\":19604:19622   */\n      swap1\n      pop\n        /* \"#utility.yul\":19480:19628   */\n      swap3\n      swap2\n      pop\n      pop\n      jump\t// out\n        /* \"#utility.yul\":19634:20024   */\n    tag_431:\n        /* \"#utility.yul\":19740:19743   */\n      0x00\n        /* \"#utility.yul\":19768:19807   */\n      tag_669\n        /* \"#utility.yul\":19801:19806   */\n      dup3\n        /* \"#utility.yul\":19768:19807   */\n      tag_391\n      jump\t// in\n    tag_669:\n        /* \"#utility.yul\":19823:19912   */\n      tag_670\n        /* \"#utility.yul\":19905:19911   */\n      dup2\n        /* \"#utility.yul\":19900:19903   */\n      dup6\n        /* \"#utility.yul\":19823:19912   */\n      tag_430\n      jump\t// in\n    tag_670:\n        /* \"#utility.yul\":19816:19912   */\n      swap4\n      pop\n        /* \"#utility.yul\":19921:19986   */\n      tag_671\n        /* \"#utility.yul\":19979:19985   */\n      dup2\n        /* \"#utility.yul\":19974:19977   */\n      dup6\n        /* \"#utility.yul\":19967:19971   */\n      0x20\n        /* \"#utility.yul\":19960:19965   */\n      dup7\n        /* \"#utility.yul\":19956:19972   */\n      add\n        /* \"#utility.yul\":19921:19986   */\n      tag_393\n      jump\t// in\n    tag_671:\n        /* \"#utility.yul\":20011:20017   */\n      dup1\n        /* \"#utility.yul\":20006:20009   */\n      dup5\n        /* \"#utility.yul\":20002:20018   */\n      add\n        /* \"#utility.yul\":19995:20018   */\n      swap2\n      pop\n        /* \"#utility.yul\":19744:20024   */\n      pop\n        /* \"#utility.yul\":19634:20024   */\n      swap3\n      swap2\n      pop\n      pop\n      jump\t// out\n        /* \"#utility.yul\":20030:20465   */\n    tag_230:\n        /* \"#utility.yul\":20210:20213   */\n      0x00\n        /* \"#utility.yul\":20232:20327   */\n      tag_673\n        /* \"#utility.yul\":20323:20326   */\n      dup3\n        /* \"#utility.yul\":20314:20320   */\n      dup6\n        /* \"#utility.yul\":20232:20327   */\n      tag_431\n      jump\t// in\n    tag_673:\n        /* \"#utility.yul\":20225:20327   */\n      swap2\n      pop\n        /* \"#utility.yul\":20344:20439   */\n      tag_674\n        /* \"#utility.yul\":20435:20438   */\n      dup3\n        /* \"#utility.yul\":20426:20432   */\n      dup5\n        /* \"#utility.yul\":20344:20439   */\n      tag_431\n      jump\t// in\n    tag_674:\n        /* \"#utility.yul\":20337:20439   */\n      swap2\n      pop\n        /* \"#utility.yul\":20456:20459   */\n      dup2\n        /* \"#utility.yul\":20449:20459   */\n      swap1\n      pop\n        /* \"#utility.yul\":20030:20465   */\n      swap4\n      swap3\n      pop\n      pop\n      pop\n      jump\t// out\n        /* \"#utility.yul\":20471:20576   */\n    tag_432:\n        /* \"#utility.yul\":20507:20514   */\n      0x00\n        /* \"#utility.yul\":20547:20569   */\n      0xffffffffffffffffffff\n        /* \"#utility.yul\":20540:20545   */\n      dup3\n        /* \"#utility.yul\":20536:20570   */\n      and\n        /* \"#utility.yul\":20525:20570   */\n      swap1\n      pop\n        /* \"#utility.yul\":20471:20576   */\n      swap2\n      swap1\n      pop\n      jump\t// out\n        /* \"#utility.yul\":20582:20702   */\n    tag_433:\n        /* \"#utility.yul\":20654:20677   */\n      tag_677\n        /* \"#utility.yul\":20671:20676   */\n      dup2\n        /* \"#utility.yul\":20654:20677   */\n      tag_432\n      jump\t// in\n    tag_677:\n        /* \"#utility.yul\":20647:20652   */\n      dup2\n        /* \"#utility.yul\":20644:20678   */\n      eq\n        /* \"#utility.yul\":20634:20696   */\n      tag_678\n      jumpi\n        /* \"#utility.yul\":20692:20693   */\n      0x00\n        /* \"#utility.yul\":20689:20690   */\n      dup1\n        /* \"#utility.yul\":20682:20694   */\n      revert\n        /* \"#utility.yul\":20634:20696   */\n    tag_678:\n        /* \"#utility.yul\":20582:20702   */\n      pop\n      jump\t// out\n        /* \"#utility.yul\":20708:20849   */\n    tag_434:\n        /* \"#utility.yul\":20764:20769   */\n      0x00\n        /* \"#utility.yul\":20795:20801   */\n      dup2\n        /* \"#utility.yul\":20789:20802   */\n      mload\n        /* \"#utility.yul\":20780:20802   */\n      swap1\n      pop\n        /* \"#utility.yul\":20811:20843   */\n      tag_680\n        /* \"#utility.yul\":20837:20842   */\n      dup2\n        /* \"#utility.yul\":20811:20843   */\n      tag_433\n      jump\t// in\n    tag_680:\n        /* \"#utility.yul\":20708:20849   */\n      swap3\n      swap2\n      pop\n      pop\n      jump\t// out\n        /* \"#utility.yul\":20855:20931   */\n    tag_435:\n        /* \"#utility.yul\":20891:20898   */\n      0x00\n        /* \"#utility.yul\":20920:20925   */\n      dup2\n        /* \"#utility.yul\":20909:20925   */\n      swap1\n      pop\n        /* \"#utility.yul\":20855:20931   */\n      swap2\n      swap1\n      pop\n      jump\t// out\n        /* \"#utility.yul\":20937:21057   */\n    tag_436:\n        /* \"#utility.yul\":21009:21032   */\n      tag_683\n        /* \"#utility.yul\":21026:21031   */\n      dup2\n        /* \"#utility.yul\":21009:21032   */\n      tag_435\n      jump\t// in\n    tag_683:\n        /* \"#utility.yul\":21002:21007   */\n      dup2\n        /* \"#utility.yul\":20999:21033   */\n      eq\n        /* \"#utility.yul\":20989:21051   */\n      tag_684\n      jumpi\n        /* \"#utility.yul\":21047:21048   */\n      0x00\n        /* \"#utility.yul\":21044:21045   */\n      dup1\n        /* \"#utility.yul\":21037:21049   */\n      revert\n        /* \"#utility.yul\":20989:21051   */\n    tag_684:\n        /* \"#utility.yul\":20937:21057   */\n      pop\n      jump\t// out\n        /* \"#utility.yul\":21063:21204   */\n    tag_437:\n        /* \"#utility.yul\":21119:21124   */\n      0x00\n        /* \"#utility.yul\":21150:21156   */\n      dup2\n        /* \"#utility.yul\":21144:21157   */\n      mload\n        /* \"#utility.yul\":21135:21157   */\n      swap1\n      pop\n        /* \"#utility.yul\":21166:21198   */\n      tag_686\n        /* \"#utility.yul\":21192:21197   */\n      dup2\n        /* \"#utility.yul\":21166:21198   */\n      tag_436\n      jump\t// in\n    tag_686:\n        /* \"#utility.yul\":21063:21204   */\n      swap3\n      swap2\n      pop\n      pop\n      jump\t// out\n        /* \"#utility.yul\":21210:21353   */\n    tag_438:\n        /* \"#utility.yul\":21267:21272   */\n      0x00\n        /* \"#utility.yul\":21298:21304   */\n      dup2\n        /* \"#utility.yul\":21292:21305   */\n      mload\n        /* \"#utility.yul\":21283:21305   */\n      swap1\n      pop\n        /* \"#utility.yul\":21314:21347   */\n      tag_688\n        /* \"#utility.yul\":21341:21346   */\n      dup2\n        /* \"#utility.yul\":21314:21347   */\n      tag_397\n      jump\t// in\n    tag_688:\n        /* \"#utility.yul\":21210:21353   */\n      swap3\n      swap2\n      pop\n      pop\n      jump\t// out\n        /* \"#utility.yul\":21359:22330   */\n    tag_250:\n        /* \"#utility.yul\":21462:21468   */\n      0x00\n        /* \"#utility.yul\":21470:21476   */\n      dup1\n        /* \"#utility.yul\":21478:21484   */\n      0x00\n        /* \"#utility.yul\":21486:21492   */\n      dup1\n        /* \"#utility.yul\":21494:21500   */\n      0x00\n        /* \"#utility.yul\":21543:21546   */\n      0xa0\n        /* \"#utility.yul\":21531:21540   */\n      dup7\n        /* \"#utility.yul\":21522:21529   */\n      dup9\n        /* \"#utility.yul\":21518:21541   */\n      sub\n        /* \"#utility.yul\":21514:21547   */\n      slt\n        /* \"#utility.yul\":21511:21631   */\n      iszero\n      tag_690\n      jumpi\n        /* \"#utility.yul\":21550:21629   */\n      tag_691\n      tag_384\n      jump\t// in\n    tag_691:\n        /* \"#utility.yul\":21511:21631   */\n    tag_690:\n        /* \"#utility.yul\":21670:21671   */\n      0x00\n        /* \"#utility.yul\":21695:21758   */\n      tag_692\n        /* \"#utility.yul\":21750:21757   */\n      dup9\n        /* \"#utility.yul\":21741:21747   */\n      dup3\n        /* \"#utility.yul\":21730:21739   */\n      dup10\n        /* \"#utility.yul\":21726:21748   */\n      add\n        /* \"#utility.yul\":21695:21758   */\n      tag_434\n      jump\t// in\n    tag_692:\n        /* \"#utility.yul\":21685:21758   */\n      swap6\n      pop\n        /* \"#utility.yul\":21641:21768   */\n      pop\n        /* \"#utility.yul\":21807:21809   */\n      0x20\n        /* \"#utility.yul\":21833:21896   */\n      tag_693\n        /* \"#utility.yul\":21888:21895   */\n      dup9\n        /* \"#utility.yul\":21879:21885   */\n      dup3\n        /* \"#utility.yul\":21868:21877   */\n      dup10\n        /* \"#utility.yul\":21864:21886   */\n      add\n        /* \"#utility.yul\":21833:21896   */\n      tag_437\n      jump\t// in\n    tag_693:\n        /* \"#utility.yul\":21823:21896   */\n      swap5\n      pop\n        /* \"#utility.yul\":21778:21906   */\n      pop\n        /* \"#utility.yul\":21945:21947   */\n      0x40\n        /* \"#utility.yul\":21971:22035   */\n      tag_694\n        /* \"#utility.yul\":22027:22034   */\n      dup9\n        /* \"#utility.yul\":22018:22024   */\n      dup3\n        /* \"#utility.yul\":22007:22016   */\n      dup10\n        /* \"#utility.yul\":22003:22025   */\n      add\n        /* \"#utility.yul\":21971:22035   */\n      tag_438\n      jump\t// in\n    tag_694:\n        /* \"#utility.yul\":21961:22035   */\n      swap4\n      pop\n        /* \"#utility.yul\":21916:22045   */\n      pop\n        /* \"#utility.yul\":22084:22086   */\n      0x60\n        /* \"#utility.yul\":22110:22174   */\n      tag_695\n        /* \"#utility.yul\":22166:22173   */\n      dup9\n        /* \"#utility.yul\":22157:22163   */\n      dup3\n        /* \"#utility.yul\":22146:22155   */\n      dup10\n        /* \"#utility.yul\":22142:22164   */\n      add\n        /* \"#utility.yul\":22110:22174   */\n      tag_438\n      jump\t// in\n    tag_695:\n        /* \"#utility.yul\":22100:22174   */\n      swap3\n      pop\n        /* \"#utility.yul\":22055:22184   */\n      pop\n        /* \"#utility.yul\":22223:22226   */\n      0x80\n        /* \"#utility.yul\":22250:22313   */\n      tag_696\n        /* \"#utility.yul\":22305:22312   */\n      dup9\n        /* \"#utility.yul\":22296:22302   */\n      dup3\n        /* \"#utility.yul\":22285:22294   */\n      dup10\n        /* \"#utility.yul\":22281:22303   */\n      add\n        /* \"#utility.yul\":22250:22313   */\n      tag_434\n      jump\t// in\n    tag_696:\n        /* \"#utility.yul\":22240:22313   */\n      swap2\n      pop\n        /* \"#utility.yul\":22194:22323   */\n      pop\n        /* \"#utility.yul\":21359:22330   */\n      swap3\n      swap6\n      pop\n      swap3\n      swap6\n      swap1\n      swap4\n      pop\n      jump\t// out\n        /* \"#utility.yul\":22336:22721   */\n    tag_252:\n        /* \"#utility.yul\":22375:22376   */\n      0x00\n        /* \"#utility.yul\":22392:22411   */\n      tag_698\n        /* \"#utility.yul\":22409:22410   */\n      dup3\n        /* \"#utility.yul\":22392:22411   */\n      tag_435\n      jump\t// in\n    tag_698:\n        /* \"#utility.yul\":22387:22411   */\n      swap2\n      pop\n        /* \"#utility.yul\":22425:22444   */\n      tag_699\n        /* \"#utility.yul\":22442:22443   */\n      dup4\n        /* \"#utility.yul\":22425:22444   */\n      tag_435\n      jump\t// in\n    tag_699:\n        /* \"#utility.yul\":22420:22444   */\n      swap3\n      pop\n        /* \"#utility.yul\":22463:22464   */\n      dup3\n        /* \"#utility.yul\":22453:22488   */\n      tag_700\n      jumpi\n        /* \"#utility.yul\":22468:22486   */\n      tag_701\n      tag_324\n      jump\t// in\n    tag_701:\n        /* \"#utility.yul\":22453:22488   */\n    tag_700:\n        /* \"#utility.yul\":22654:22655   */\n      0x01\n        /* \"#utility.yul\":22651:22652   */\n      0x00\n        /* \"#utility.yul\":22647:22656   */\n      sub\n        /* \"#utility.yul\":22644:22645   */\n      dup4\n        /* \"#utility.yul\":22641:22657   */\n      eq\n        /* \"#utility.yul\":22560:22626   */\n      0x8000000000000000000000000000000000000000000000000000000000000000\n        /* \"#utility.yul\":22557:22558   */\n      dup4\n        /* \"#utility.yul\":22554:22627   */\n      eq\n        /* \"#utility.yul\":22537:22667   */\n      and\n        /* \"#utility.yul\":22534:22690   */\n      iszero\n      tag_702\n      jumpi\n        /* \"#utility.yul\":22670:22688   */\n      tag_703\n      tag_429\n      jump\t// in\n    tag_703:\n        /* \"#utility.yul\":22534:22690   */\n    tag_702:\n        /* \"#utility.yul\":22713:22714   */\n      dup3\n        /* \"#utility.yul\":22710:22711   */\n      dup3\n        /* \"#utility.yul\":22705:22715   */\n      sdiv\n        /* \"#utility.yul\":22700:22715   */\n      swap1\n      pop\n        /* \"#utility.yul\":22336:22721   */\n      swap3\n      swap2\n      pop\n      pop\n      jump\t// out\n        /* \"#utility.yul\":22727:22868   */\n    tag_439:\n        /* \"#utility.yul\":22776:22780   */\n      0x00\n        /* \"#utility.yul\":22799:22802   */\n      dup2\n        /* \"#utility.yul\":22791:22802   */\n      swap1\n      pop\n        /* \"#utility.yul\":22822:22825   */\n      dup2\n        /* \"#utility.yul\":22819:22820   */\n      0x00\n        /* \"#utility.yul\":22812:22826   */\n      mstore\n        /* \"#utility.yul\":22856:22860   */\n      0x20\n        /* \"#utility.yul\":22853:22854   */\n      0x00\n        /* \"#utility.yul\":22843:22861   */\n      keccak256\n        /* \"#utility.yul\":22835:22861   */\n      swap1\n      pop\n        /* \"#utility.yul\":22727:22868   */\n      swap2\n      swap1\n      pop\n      jump\t// out\n        /* \"#utility.yul\":22874:22967   */\n    tag_440:\n        /* \"#utility.yul\":22911:22917   */\n      0x00\n        /* \"#utility.yul\":22958:22960   */\n      0x20\n        /* \"#utility.yul\":22953:22955   */\n      0x1f\n        /* \"#utility.yul\":22946:22951   */\n      dup4\n        /* \"#utility.yul\":22942:22956   */\n      add\n        /* \"#utility.yul\":22938:22961   */\n      div\n        /* \"#utility.yul\":22928:22961   */\n      swap1\n      pop\n        /* \"#utility.yul\":22874:22967   */\n      swap2\n      swap1\n      pop\n      jump\t// out\n        /* \"#utility.yul\":22973:23080   */\n    tag_441:\n        /* \"#utility.yul\":23017:23025   */\n      0x00\n        /* \"#utility.yul\":23067:23072   */\n      dup3\n        /* \"#utility.yul\":23061:23065   */\n      dup3\n        /* \"#utility.yul\":23057:23073   */\n      shl\n        /* \"#utility.yul\":23036:23073   */\n      swap1\n      pop\n        /* \"#utility.yul\":22973:23080   */\n      swap3\n      swap2\n      pop\n      pop\n      jump\t// out\n        /* \"#utility.yul\":23086:23479   */\n    tag_442:\n        /* \"#utility.yul\":23155:23161   */\n      0x00\n        /* \"#utility.yul\":23205:23206   */\n      0x08\n        /* \"#utility.yul\":23193:23203   */\n      dup4\n        /* \"#utility.yul\":23189:23207   */\n      mul\n        /* \"#utility.yul\":23228:23325   */\n      tag_708\n        /* \"#utility.yul\":23258:23324   */\n      0xffffffffffffffffffffffffffffffffffffffffffffffffffffffffffffffff\n        /* \"#utility.yul\":23247:23256   */\n      dup3\n        /* \"#utility.yul\":23228:23325   */\n      tag_441\n      jump\t// in\n    tag_708:\n        /* \"#utility.yul\":23346:23385   */\n      tag_709\n        /* \"#utility.yul\":23376:23384   */\n      dup7\n        /* \"#utility.yul\":23365:23374   */\n      dup4\n        /* \"#utility.yul\":23346:23385   */\n      tag_441\n      jump\t// in\n    tag_709:\n        /* \"#utility.yul\":23334:23385   */\n      swap6\n      pop\n        /* \"#utility.yul\":23418:23422   */\n      dup1\n        /* \"#utility.yul\":23414:23423   */\n      not\n        /* \"#utility.yul\":23407:23412   */\n      dup5\n        /* \"#utility.yul\":23403:23424   */\n      and\n        /* \"#utility.yul\":23394:23424   */\n      swap4\n      pop\n        /* \"#utility.yul\":23467:23471   */\n      dup1\n        /* \"#utility.yul\":23457:23465   */\n      dup7\n        /* \"#utility.yul\":23453:23472   */\n      and\n        /* \"#utility.yul\":23446:23451   */\n      dup5\n        /* \"#utility.yul\":23443:23473   */\n      or\n        /* \"#utility.yul\":23433:23473   */\n      swap3\n      pop\n        /* \"#utility.yul\":23162:23479   */\n      pop\n      pop\n        /* \"#utility.yul\":23086:23479   */\n      swap4\n      swap3\n      pop\n      pop\n      pop\n      jump\t// out\n        /* \"#utility.yul\":23485:23545   */\n    tag_443:\n        /* \"#utility.yul\":23513:23516   */\n      0x00\n        /* \"#utility.yul\":23534:23539   */\n      dup2\n        /* \"#utility.yul\":23527:23539   */\n      swap1\n      pop\n        /* \"#utility.yul\":23485:23545   */\n      swap2\n      swap1\n      pop\n      jump\t// out\n        /* \"#utility.yul\":23551:23693   */\n    tag_444:\n        /* \"#utility.yul\":23601:23610   */\n      0x00\n        /* \"#utility.yul\":23634:23687   */\n      tag_712\n        /* \"#utility.yul\":23652:23686   */\n      tag_713\n        /* \"#utility.yul\":23661:23685   */\n      tag_714\n        /* \"#utility.yul\":23679:23684   */\n      dup5\n        /* \"#utility.yul\":23661:23685   */\n      tag_396\n      jump\t// in\n    tag_714:\n        /* \"#utility.yul\":23652:23686   */\n      tag_443\n      jump\t// in\n    tag_713:\n        /* \"#utility.yul\":23634:23687   */\n      tag_396\n      jump\t// in\n    tag_712:\n        /* \"#utility.yul\":23621:23687   */\n      swap1\n      pop\n        /* \"#utility.yul\":23551:23693   */\n      swap2\n      swap1\n      pop\n      jump\t// out\n        /* \"#utility.yul\":23699:23774   */\n    tag_445:\n        /* \"#utility.yul\":23742:23745   */\n      0x00\n        /* \"#utility.yul\":23763:23768   */\n      dup2\n        /* \"#utility.yul\":23756:23768   */\n      swap1\n      pop\n        /* \"#utility.yul\":23699:23774   */\n      swap2\n      swap1\n      pop\n      jump\t// out\n        /* \"#utility.yul\":23780:24049   */\n    tag_446:\n        /* \"#utility.yul\":23890:23929   */\n      tag_717\n        /* \"#utility.yul\":23921:23928   */\n      dup4\n        /* \"#utility.yul\":23890:23929   */\n      tag_444\n      jump\t// in\n    tag_717:\n        /* \"#utility.yul\":23951:24042   */\n      tag_718\n        /* \"#utility.yul\":24000:24041   */\n      tag_719\n        /* \"#utility.yul\":24024:24040   */\n      dup3\n        /* \"#utility.yul\":24000:24041   */\n      tag_445\n      jump\t// in\n    tag_719:\n        /* \"#utility.yul\":23992:23998   */\n      dup5\n        /* \"#utility.yul\":23985:23989   */\n      dup5\n        /* \"#utility.yul\":23979:23990   */\n      sload\n        /* \"#utility.yul\":23951:24042   */\n      tag_442\n      jump\t// in\n    tag_718:\n        /* \"#utility.yul\":23945:23949   */\n      dup3\n        /* \"#utility.yul\":23938:24043   */\n      sstore\n        /* \"#utility.yul\":23856:24049   */\n      pop\n        /* \"#utility.yul\":23780:24049   */\n      pop\n      pop\n      pop\n      jump\t// out\n        /* \"#utility.yul\":24055:24128   */\n    tag_447:\n        /* \"#utility.yul\":24100:24103   */\n      0x00\n        /* \"#utility.yul\":24055:24128   */\n      swap1\n      jump\t// out\n        /* \"#utility.yul\":24134:24323   */\n    tag_448:\n        /* \"#utility.yul\":24211:24243   */\n      tag_722\n      tag_447\n      jump\t// in\n    tag_722:\n        /* \"#utility.yul\":24252:24317   */\n      tag_723\n        /* \"#utility.yul\":24310:24316   */\n      dup2\n        /* \"#utility.yul\":24302:24308   */\n      dup5\n        /* \"#utility.yul\":24296:24300   */\n      dup5\n        /* \"#utility.yul\":24252:24317   */\n      tag_446\n      jump\t// in\n    tag_723:\n        /* \"#utility.yul\":24187:24323   */\n      pop\n        /* \"#utility.yul\":24134:24323   */\n      pop\n      pop\n      jump\t// out\n        /* \"#utility.yul\":24329:24515   */\n    tag_449:\n        /* \"#utility.yul\":24389:24509   */\n    tag_725:\n        /* \"#utility.yul\":24406:24409   */\n      dup2\n        /* \"#utility.yul\":24399:24404   */\n      dup2\n        /* \"#utility.yul\":24396:24410   */\n      lt\n        /* \"#utility.yul\":24389:24509   */\n      iszero\n      tag_727\n      jumpi\n        /* \"#utility.yul\":24460:24499   */\n      tag_728\n        /* \"#utility.yul\":24497:24498   */\n      0x00\n        /* \"#utility.yul\":24490:24495   */\n      dup3\n        /* \"#utility.yul\":24460:24499   */\n      tag_448\n      jump\t// in\n    tag_728:\n        /* \"#utility.yul\":24433:24434   */\n      0x01\n        /* \"#utility.yul\":24426:24431   */\n      dup2\n        /* \"#utility.yul\":24422:24435   */\n      add\n        /* \"#utility.yul\":24413:24435   */\n      swap1\n      pop\n        /* \"#utility.yul\":24389:24509   */\n      jump(tag_725)\n    tag_727:\n        /* \"#utility.yul\":24329:24515   */\n      pop\n      pop\n      jump\t// out\n        /* \"#utility.yul\":24521:25064   */\n    tag_450:\n        /* \"#utility.yul\":24622:24624   */\n      0x1f\n        /* \"#utility.yul\":24617:24620   */\n      dup3\n        /* \"#utility.yul\":24614:24625   */\n      gt\n        /* \"#utility.yul\":24611:25057   */\n      iszero\n      tag_730\n      jumpi\n        /* \"#utility.yul\":24656:24694   */\n      tag_731\n        /* \"#utility.yul\":24688:24693   */\n      dup2\n        /* \"#utility.yul\":24656:24694   */\n      tag_439\n      jump\t// in\n    tag_731:\n        /* \"#utility.yul\":24740:24769   */\n      tag_732\n        /* \"#utility.yul\":24758:24768   */\n      dup5\n        /* \"#utility.yul\":24740:24769   */\n      tag_440\n      jump\t// in\n    tag_732:\n        /* \"#utility.yul\":24730:24738   */\n      dup2\n        /* \"#utility.yul\":24726:24770   */\n      add\n        /* \"#utility.yul\":24923:24925   */\n      0x20\n        /* \"#utility.yul\":24911:24921   */\n      dup6\n        /* \"#utility.yul\":24908:24926   */\n      lt\n        /* \"#utility.yul\":24905:24954   */\n      iszero\n      tag_733\n      jumpi\n        /* \"#utility.yul\":24944:24952   */\n      dup2\n        /* \"#utility.yul\":24929:24952   */\n      swap1\n      pop\n        /* \"#utility.yul\":24905:24954   */\n    tag_733:\n        /* \"#utility.yul\":24967:25047   */\n      tag_734\n        /* \"#utility.yul\":25023:25045   */\n      tag_735\n        /* \"#utility.yul\":25041:25044   */\n      dup6\n        /* \"#utility.yul\":25023:25045   */\n      tag_440\n      jump\t// in\n    tag_735:\n        /* \"#utility.yul\":25013:25021   */\n      dup4\n        /* \"#utility.yul\":25009:25046   */\n      add\n        /* \"#utility.yul\":24996:25007   */\n      dup3\n        /* \"#utility.yul\":24967:25047   */\n      tag_449\n      jump\t// in\n    tag_734:\n        /* \"#utility.yul\":24626:25057   */\n      pop\n      pop\n        /* \"#utility.yul\":24611:25057   */\n    tag_730:\n        /* \"#utility.yul\":24521:25064   */\n      pop\n      pop\n      pop\n      jump\t// out\n        /* \"#utility.yul\":25070:25187   */\n    tag_451:\n        /* \"#utility.yul\":25124:25132   */\n      0x00\n        /* \"#utility.yul\":25174:25179   */\n      dup3\n        /* \"#utility.yul\":25168:25172   */\n      dup3\n        /* \"#utility.yul\":25164:25180   */\n      shr\n        /* \"#utility.yul\":25143:25180   */\n      swap1\n      pop\n        /* \"#utility.yul\":25070:25187   */\n      swap3\n      swap2\n      pop\n      pop\n      jump\t// out\n        /* \"#utility.yul\":25193:25362   */\n    tag_452:\n        /* \"#utility.yul\":25237:25243   */\n      0x00\n        /* \"#utility.yul\":25270:25321   */\n      tag_738\n        /* \"#utility.yul\":25318:25319   */\n      0x00\n        /* \"#utility.yul\":25314:25320   */\n      not\n        /* \"#utility.yul\":25306:25311   */\n      dup5\n        /* \"#utility.yul\":25303:25304   */\n      0x08\n        /* \"#utility.yul\":25299:25312   */\n      mul\n        /* \"#utility.yul\":25270:25321   */\n      tag_451\n      jump\t// in\n    tag_738:\n        /* \"#utility.yul\":25266:25322   */\n      not\n        /* \"#utility.yul\":25351:25355   */\n      dup1\n        /* \"#utility.yul\":25345:25349   */\n      dup4\n        /* \"#utility.yul\":25341:25356   */\n      and\n        /* \"#utility.yul\":25331:25356   */\n      swap2\n      pop\n        /* \"#utility.yul\":25244:25362   */\n      pop\n        /* \"#utility.yul\":25193:25362   */\n      swap3\n      swap2\n      pop\n      pop\n      jump\t// out\n        /* \"#utility.yul\":25367:25662   */\n    tag_453:\n        /* \"#utility.yul\":25443:25447   */\n      0x00\n        /* \"#utility.yul\":25589:25618   */\n      tag_740\n        /* \"#utility.yul\":25614:25617   */\n      dup4\n        /* \"#utility.yul\":25608:25612   */\n      dup4\n        /* \"#utility.yul\":25589:25618   */\n      tag_452\n      jump\t// in\n    tag_740:\n        /* \"#utility.yul\":25581:25618   */\n      swap2\n      pop\n        /* \"#utility.yul\":25651:25654   */\n      dup3\n        /* \"#utility.yul\":25648:25649   */\n      0x02\n        /* \"#utility.yul\":25644:25655   */\n      mul\n        /* \"#utility.yul\":25638:25642   */\n      dup3\n        /* \"#utility.yul\":25635:25656   */\n      or\n        /* \"#utility.yul\":25627:25656   */\n      swap1\n      pop\n        /* \"#utility.yul\":25367:25662   */\n      swap3\n      swap2\n      pop\n      pop\n      jump\t// out\n        /* \"#utility.yul\":25667:27062   */\n    tag_280:\n        /* \"#utility.yul\":25784:25821   */\n      tag_742\n        /* \"#utility.yul\":25817:25820   */\n      dup3\n        /* \"#utility.yul\":25784:25821   */\n      tag_391\n      jump\t// in\n    tag_742:\n        /* \"#utility.yul\":25886:25904   */\n      0xffffffffffffffff\n        /* \"#utility.yul\":25878:25884   */\n      dup2\n        /* \"#utility.yul\":25875:25905   */\n      gt\n        /* \"#utility.yul\":25872:25928   */\n      iszero\n      tag_743\n      jumpi\n        /* \"#utility.yul\":25908:25926   */\n      tag_744\n      tag_318\n      jump\t// in\n    tag_744:\n        /* \"#utility.yul\":25872:25928   */\n    tag_743:\n        /* \"#utility.yul\":25952:25990   */\n      tag_745\n        /* \"#utility.yul\":25984:25988   */\n      dup3\n        /* \"#utility.yul\":25978:25989   */\n      sload\n        /* \"#utility.yul\":25952:25990   */\n      tag_151\n      jump\t// in\n    tag_745:\n        /* \"#utility.yul\":26037:26104   */\n      tag_746\n        /* \"#utility.yul\":26097:26103   */\n      dup3\n        /* \"#utility.yul\":26089:26095   */\n      dup3\n        /* \"#utility.yul\":26083:26087   */\n      dup6\n        /* \"#utility.yul\":26037:26104   */\n      tag_450\n      jump\t// in\n    tag_746:\n        /* \"#utility.yul\":26131:26132   */\n      0x00\n        /* \"#utility.yul\":26155:26159   */\n      0x20\n        /* \"#utility.yul\":26142:26159   */\n      swap1\n      pop\n        /* \"#utility.yul\":26187:26189   */\n      0x1f\n        /* \"#utility.yul\":26179:26185   */\n      dup4\n        /* \"#utility.yul\":26176:26190   */\n      gt\n        /* \"#utility.yul\":26204:26205   */\n      0x01\n        /* \"#utility.yul\":26199:26817   */\n      dup2\n      eq\n      tag_748\n      jumpi\n        /* \"#utility.yul\":26861:26862   */\n      0x00\n        /* \"#utility.yul\":26878:26884   */\n      dup5\n        /* \"#utility.yul\":26875:26952   */\n      iszero\n      tag_749\n      jumpi\n        /* \"#utility.yul\":26927:26936   */\n      dup3\n        /* \"#utility.yul\":26922:26925   */\n      dup8\n        /* \"#utility.yul\":26918:26937   */\n      add\n        /* \"#utility.yul\":26912:26938   */\n      mload\n        /* \"#utility.yul\":26903:26938   */\n      swap1\n      pop\n        /* \"#utility.yul\":26875:26952   */\n    tag_749:\n        /* \"#utility.yul\":26978:27045   */\n      tag_750\n        /* \"#utility.yul\":27038:27044   */\n      dup6\n        /* \"#utility.yul\":27031:27036   */\n      dup3\n        /* \"#utility.yul\":26978:27045   */\n      tag_453\n      jump\t// in\n    tag_750:\n        /* \"#utility.yul\":26972:26976   */\n      dup7\n        /* \"#utility.yul\":26965:27046   */\n      sstore\n        /* \"#utility.yul\":26834:27056   */\n      pop\n        /* \"#utility.yul\":26169:27056   */\n      jump(tag_747)\n        /* \"#utility.yul\":26199:26817   */\n    tag_748:\n        /* \"#utility.yul\":26251:26255   */\n      0x1f\n        /* \"#utility.yul\":26247:26256   */\n      not\n        /* \"#utility.yul\":26239:26245   */\n      dup5\n        /* \"#utility.yul\":26235:26257   */\n      and\n        /* \"#utility.yul\":26285:26322   */\n      tag_751\n        /* \"#utility.yul\":26317:26321   */\n      dup7\n        /* \"#utility.yul\":26285:26322   */\n      tag_439\n      jump\t// in\n    tag_751:\n        /* \"#utility.yul\":26344:26345   */\n      0x00\n        /* \"#utility.yul\":26358:26566   */\n    tag_752:\n        /* \"#utility.yul\":26372:26379   */\n      dup3\n        /* \"#utility.yul\":26369:26370   */\n      dup2\n        /* \"#utility.yul\":26366:26380   */\n      lt\n        /* \"#utility.yul\":26358:26566   */\n      iszero\n      tag_754\n      jumpi\n        /* \"#utility.yul\":26451:26460   */\n      dup5\n        /* \"#utility.yul\":26446:26449   */\n      dup10\n        /* \"#utility.yul\":26442:26461   */\n      add\n        /* \"#utility.yul\":26436:26462   */\n      mload\n        /* \"#utility.yul\":26428:26434   */\n      dup3\n        /* \"#utility.yul\":26421:26463   */\n      sstore\n        /* \"#utility.yul\":26502:26503   */\n      0x01\n        /* \"#utility.yul\":26494:26500   */\n      dup3\n        /* \"#utility.yul\":26490:26504   */\n      add\n        /* \"#utility.yul\":26480:26504   */\n      swap2\n      pop\n        /* \"#utility.yul\":26549:26551   */\n      0x20\n        /* \"#utility.yul\":26538:26547   */\n      dup6\n        /* \"#utility.yul\":26534:26552   */\n      add\n        /* \"#utility.yul\":26521:26552   */\n      swap5\n      pop\n        /* \"#utility.yul\":26395:26399   */\n      0x20\n        /* \"#utility.yul\":26392:26393   */\n      dup2\n        /* \"#utility.yul\":26388:26400   */\n      add\n        /* \"#utility.yul\":26383:26400   */\n      swap1\n      pop\n        /* \"#utility.yul\":26358:26566   */\n      jump(tag_752)\n    tag_754:\n        /* \"#utility.yul\":26594:26600   */\n      dup7\n        /* \"#utility.yul\":26585:26592   */\n      dup4\n        /* \"#utility.yul\":26582:26601   */\n      lt\n        /* \"#utility.yul\":26579:26758   */\n      iszero\n      tag_755\n      jumpi\n        /* \"#utility.yul\":26652:26661   */\n      dup5\n        /* \"#utility.yul\":26647:26650   */\n      dup10\n        /* \"#utility.yul\":26643:26662   */\n      add\n        /* \"#utility.yul\":26637:26663   */\n      mload\n        /* \"#utility.yul\":26695:26743   */\n      tag_756\n        /* \"#utility.yul\":26737:26741   */\n      0x1f\n        /* \"#utility.yul\":26729:26735   */\n      dup10\n        /* \"#utility.yul\":26725:26742   */\n      and\n        /* \"#utility.yul\":26714:26723   */\n      dup3\n        /* \"#utility.yul\":26695:26743   */\n      tag_452\n      jump\t// in\n    tag_756:\n        /* \"#utility.yul\":26687:26693   */\n      dup4\n        /* \"#utility.yul\":26680:26744   */\n      sstore\n        /* \"#utility.yul\":26602:26758   */\n      pop\n        /* \"#utility.yul\":26579:26758   */\n    tag_755:\n        /* \"#utility.yul\":26804:26805   */\n      0x01\n        /* \"#utility.yul\":26800:26801   */\n      0x02\n        /* \"#utility.yul\":26792:26798   */\n      dup9\n        /* \"#utility.yul\":26788:26802   */\n      mul\n        /* \"#utility.yul\":26784:26806   */\n      add\n        /* \"#utility.yul\":26778:26782   */\n      dup9\n        /* \"#utility.yul\":26771:26807   */\n      sstore\n        /* \"#utility.yul\":26206:26817   */\n      pop\n      pop\n      pop\n        /* \"#utility.yul\":26169:27056   */\n    tag_747:\n      pop\n        /* \"#utility.yul\":25759:27062   */\n      pop\n      pop\n      pop\n        /* \"#utility.yul\":25667:27062   */\n      pop\n      pop\n      jump\t// out\n        /* \"#utility.yul\":27068:27166   */\n    tag_454:\n        /* \"#utility.yul\":27119:27125   */\n      0x00\n        /* \"#utility.yul\":27153:27158   */\n      dup2\n        /* \"#utility.yul\":27147:27159   */\n      mload\n        /* \"#utility.yul\":27137:27159   */\n      swap1\n      pop\n        /* \"#utility.yul\":27068:27166   */\n      swap2\n      swap1\n      pop\n      jump\t// out\n        /* \"#utility.yul\":27172:27340   */\n    tag_455:\n        /* \"#utility.yul\":27255:27266   */\n      0x00\n        /* \"#utility.yul\":27289:27295   */\n      dup3\n        /* \"#utility.yul\":27284:27287   */\n      dup3\n        /* \"#utility.yul\":27277:27296   */\n      mstore\n        /* \"#utility.yul\":27329:27333   */\n      0x20\n        /* \"#utility.yul\":27324:27327   */\n      dup3\n        /* \"#utility.yul\":27320:27334   */\n      add\n        /* \"#utility.yul\":27305:27334   */\n      swap1\n      pop\n        /* \"#utility.yul\":27172:27340   */\n      swap3\n      swap2\n      pop\n      pop\n      jump\t// out\n        /* \"#utility.yul\":27346:27719   */\n    tag_456:\n        /* \"#utility.yul\":27432:27435   */\n      0x00\n        /* \"#utility.yul\":27460:27498   */\n      tag_760\n        /* \"#utility.yul\":27492:27497   */\n      dup3\n        /* \"#utility.yul\":27460:27498   */\n      tag_454\n      jump\t// in\n    tag_760:\n        /* \"#utility.yul\":27514:27584   */\n      tag_761\n        /* \"#utility.yul\":27577:27583   */\n      dup2\n        /* \"#utility.yul\":27572:27575   */\n      dup6\n        /* \"#utility.yul\":27514:27584   */\n      tag_455\n      jump\t// in\n    tag_761:\n        /* \"#utility.yul\":27507:27584   */\n      swap4\n      pop\n        /* \"#utility.yul\":27593:27658   */\n      tag_762\n        /* \"#utility.yul\":27651:27657   */\n      dup2\n        /* \"#utility.yul\":27646:27649   */\n      dup6\n        /* \"#utility.yul\":27639:27643   */\n      0x20\n        /* \"#utility.yul\":27632:27637   */\n      dup7\n        /* \"#utility.yul\":27628:27644   */\n      add\n        /* \"#utility.yul\":27593:27658   */\n      tag_393\n      jump\t// in\n    tag_762:\n        /* \"#utility.yul\":27683:27712   */\n      tag_763\n        /* \"#utility.yul\":27705:27711   */\n      dup2\n        /* \"#utility.yul\":27683:27712   */\n      tag_394\n      jump\t// in\n    tag_763:\n        /* \"#utility.yul\":27678:27681   */\n      dup5\n        /* \"#utility.yul\":27674:27713   */\n      add\n        /* \"#utility.yul\":27667:27713   */\n      swap2\n      pop\n        /* \"#utility.yul\":27436:27719   */\n      pop\n        /* \"#utility.yul\":27346:27719   */\n      swap3\n      swap2\n      pop\n      pop\n      jump\t// out\n        /* \"#utility.yul\":27725:28365   */\n    tag_296:\n        /* \"#utility.yul\":27920:27924   */\n      0x00\n        /* \"#utility.yul\":27958:27961   */\n      0x80\n        /* \"#utility.yul\":27947:27956   */\n      dup3\n        /* \"#utility.yul\":27943:27962   */\n      add\n        /* \"#utility.yul\":27935:27962   */\n      swap1\n      pop\n        /* \"#utility.yul\":27972:28043   */\n      tag_765\n        /* \"#utility.yul\":28040:28041   */\n      0x00\n        /* \"#utility.yul\":28029:28038   */\n      dup4\n        /* \"#utility.yul\":28025:28042   */\n      add\n        /* \"#utility.yul\":28016:28022   */\n      dup8\n        /* \"#utility.yul\":27972:28043   */\n      tag_401\n      jump\t// in\n    tag_765:\n        /* \"#utility.yul\":28053:28125   */\n      tag_766\n        /* \"#utility.yul\":28121:28123   */\n      0x20\n        /* \"#utility.yul\":28110:28119   */\n      dup4\n        /* \"#utility.yul\":28106:28124   */\n      add\n        /* \"#utility.yul\":28097:28103   */\n      dup7\n        /* \"#utility.yul\":28053:28125   */\n      tag_401\n      jump\t// in\n    tag_766:\n        /* \"#utility.yul\":28135:28207   */\n      tag_767\n        /* \"#utility.yul\":28203:28205   */\n      0x40\n        /* \"#utility.yul\":28192:28201   */\n      dup4\n        /* \"#utility.yul\":28188:28206   */\n      add\n        /* \"#utility.yul\":28179:28185   */\n      dup6\n        /* \"#utility.yul\":28135:28207   */\n      tag_404\n      jump\t// in\n    tag_767:\n        /* \"#utility.yul\":28254:28263   */\n      dup2\n        /* \"#utility.yul\":28248:28252   */\n      dup2\n        /* \"#utility.yul\":28244:28264   */\n      sub\n        /* \"#utility.yul\":28239:28241   */\n      0x60\n        /* \"#utility.yul\":28228:28237   */\n      dup4\n        /* \"#utility.yul\":28224:28242   */\n      add\n        /* \"#utility.yul\":28217:28265   */\n      mstore\n        /* \"#utility.yul\":28282:28358   */\n      tag_768\n        /* \"#utility.yul\":28353:28357   */\n      dup2\n        /* \"#utility.yul\":28344:28350   */\n      dup5\n        /* \"#utility.yul\":28282:28358   */\n      tag_456\n      jump\t// in\n    tag_768:\n        /* \"#utility.yul\":28274:28358   */\n      swap1\n      pop\n        /* \"#utility.yul\":27725:28365   */\n      swap6\n      swap5\n      pop\n      pop\n      pop\n      pop\n      pop\n      jump\t// out\n        /* \"#utility.yul\":28371:28512   */\n    tag_457:\n        /* \"#utility.yul\":28427:28432   */\n      0x00\n        /* \"#utility.yul\":28458:28464   */\n      dup2\n        /* \"#utility.yul\":28452:28465   */\n      mload\n        /* \"#utility.yul\":28443:28465   */\n      swap1\n      pop\n        /* \"#utility.yul\":28474:28506   */\n      tag_770\n        /* \"#utility.yul\":28500:28505   */\n      dup2\n        /* \"#utility.yul\":28474:28506   */\n      tag_387\n      jump\t// in\n    tag_770:\n        /* \"#utility.yul\":28371:28512   */\n      swap3\n      swap2\n      pop\n      pop\n      jump\t// out\n        /* \"#utility.yul\":28518:28867   */\n    tag_299:\n        /* \"#utility.yul\":28587:28593   */\n      0x00\n        /* \"#utility.yul\":28636:28638   */\n      0x20\n        /* \"#utility.yul\":28624:28633   */\n      dup3\n        /* \"#utility.yul\":28615:28622   */\n      dup5\n        /* \"#utility.yul\":28611:28634   */\n      sub\n        /* \"#utility.yul\":28607:28639   */\n      slt\n        /* \"#utility.yul\":28604:28723   */\n      iszero\n      tag_772\n      jumpi\n        /* \"#utility.yul\":28642:28721   */\n      tag_773\n      tag_384\n      jump\t// in\n    tag_773:\n        /* \"#utility.yul\":28604:28723   */\n    tag_772:\n        /* \"#utility.yul\":28762:28763   */\n      0x00\n        /* \"#utility.yul\":28787:28850   */\n      tag_774\n        /* \"#utility.yul\":28842:28849   */\n      dup5\n        /* \"#utility.yul\":28833:28839   */\n      dup3\n        /* \"#utility.yul\":28822:28831   */\n      dup6\n        /* \"#utility.yul\":28818:28840   */\n      add\n        /* \"#utility.yul\":28787:28850   */\n      tag_457\n      jump\t// in\n    tag_774:\n        /* \"#utility.yul\":28777:28850   */\n      swap2\n      pop\n        /* \"#utility.yul\":28733:28860   */\n      pop\n        /* \"#utility.yul\":28518:28867   */\n      swap3\n      swap2\n      pop\n      pop\n      jump\t// out\n        /* \"#utility.yul\":28873:29205   */\n    tag_345:\n        /* \"#utility.yul\":28994:28998   */\n      0x00\n        /* \"#utility.yul\":29032:29034   */\n      0x40\n        /* \"#utility.yul\":29021:29030   */\n      dup3\n        /* \"#utility.yul\":29017:29035   */\n      add\n        /* \"#utility.yul\":29009:29035   */\n      swap1\n      pop\n        /* \"#utility.yul\":29045:29116   */\n      tag_776\n        /* \"#utility.yul\":29113:29114   */\n      0x00\n        /* \"#utility.yul\":29102:29111   */\n      dup4\n        /* \"#utility.yul\":29098:29115   */\n      add\n        /* \"#utility.yul\":29089:29095   */\n      dup6\n        /* \"#utility.yul\":29045:29116   */\n      tag_401\n      jump\t// in\n    tag_776:\n        /* \"#utility.yul\":29126:29198   */\n      tag_777\n        /* \"#utility.yul\":29194:29196   */\n      0x20\n        /* \"#utility.yul\":29183:29192   */\n      dup4\n        /* \"#utility.yul\":29179:29197   */\n      add\n        /* \"#utility.yul\":29170:29176   */\n      dup5\n        /* \"#utility.yul\":29126:29198   */\n      tag_404\n      jump\t// in\n    tag_777:\n        /* \"#utility.yul\":28873:29205   */\n      swap4\n      swap3\n      pop\n      pop\n      pop\n      jump\t// out\n        /* \"#utility.yul\":29211:29402   */\n    tag_348:\n        /* \"#utility.yul\":29251:29254   */\n      0x00\n        /* \"#utility.yul\":29270:29290   */\n      tag_779\n        /* \"#utility.yul\":29288:29289   */\n      dup3\n        /* \"#utility.yul\":29270:29290   */\n      tag_396\n      jump\t// in\n    tag_779:\n        /* \"#utility.yul\":29265:29290   */\n      swap2\n      pop\n        /* \"#utility.yul\":29304:29324   */\n      tag_780\n        /* \"#utility.yul\":29322:29323   */\n      dup4\n        /* \"#utility.yul\":29304:29324   */\n      tag_396\n      jump\t// in\n    tag_780:\n        /* \"#utility.yul\":29299:29324   */\n      swap3\n      pop\n        /* \"#utility.yul\":29347:29348   */\n      dup3\n        /* \"#utility.yul\":29344:29345   */\n      dup3\n        /* \"#utility.yul\":29340:29349   */\n      add\n        /* \"#utility.yul\":29333:29349   */\n      swap1\n      pop\n        /* \"#utility.yul\":29368:29371   */\n      dup1\n        /* \"#utility.yul\":29365:29366   */\n      dup3\n        /* \"#utility.yul\":29362:29372   */\n      gt\n        /* \"#utility.yul\":29359:29395   */\n      iszero\n      tag_781\n      jumpi\n        /* \"#utility.yul\":29375:29393   */\n      tag_782\n      tag_429\n      jump\t// in\n    tag_782:\n        /* \"#utility.yul\":29359:29395   */\n    tag_781:\n        /* \"#utility.yul\":29211:29402   */\n      swap3\n      swap2\n      pop\n      pop\n      jump\t// out\n        /* \"#utility.yul\":29408:29641   */\n    tag_350:\n        /* \"#utility.yul\":29447:29450   */\n      0x00\n        /* \"#utility.yul\":29470:29494   */\n      tag_784\n        /* \"#utility.yul\":29488:29493   */\n      dup3\n        /* \"#utility.yul\":29470:29494   */\n      tag_396\n      jump\t// in\n    tag_784:\n        /* \"#utility.yul\":29461:29494   */\n      swap2\n      pop\n        /* \"#utility.yul\":29516:29582   */\n      0xffffffffffffffffffffffffffffffffffffffffffffffffffffffffffffffff\n        /* \"#utility.yul\":29509:29514   */\n      dup3\n        /* \"#utility.yul\":29506:29583   */\n      sub\n        /* \"#utility.yul\":29503:29606   */\n      tag_785\n      jumpi\n        /* \"#utility.yul\":29586:29604   */\n      tag_786\n      tag_429\n      jump\t// in\n    tag_786:\n        /* \"#utility.yul\":29503:29606   */\n    tag_785:\n        /* \"#utility.yul\":29633:29634   */\n      0x01\n        /* \"#utility.yul\":29626:29631   */\n      dup3\n        /* \"#utility.yul\":29622:29635   */\n      add\n        /* \"#utility.yul\":29615:29635   */\n      swap1\n      pop\n        /* \"#utility.yul\":29408:29641   */\n      swap2\n      swap1\n      pop\n      jump\t// out\n\n    auxdata: 0xa2646970667358221220a9444eae0dfd70aa1a601570f4e3575e0bb2e6a328f194b8ac2a2c9a2409b0b764736f6c63430008160033\n}\n",
				"bytecode": {
					"linkReferences": {},
					"object": "608060405234801562000010575f80fd5b506040518060400160405280600681526020017f5065744e465400000000000000000000000000000000000000000000000000008152506040518060400160405280600381526020017f5045540000000000000000000000000000000000000000000000000000000000815250815f90816200008d91906200040f565b5080600190816200009f91906200040f565b5050505f60098190555033600b5f6101000a81548173ffffffffffffffffffffffffffffffffffffffff021916908373ffffffffffffffffffffffffffffffffffffffff160217905550600a808190555073694aa1769357215de4fac081bf1f309adc32530660075f6101000a81548173ffffffffffffffffffffffffffffffffffffffff021916908373ffffffffffffffffffffffffffffffffffffffff16021790555060075f9054906101000a900473ffffffffffffffffffffffffffffffffffffffff1660065f6101000a81548173ffffffffffffffffffffffffffffffffffffffff021916908373ffffffffffffffffffffffffffffffffffffffff160217905550620004f3565b5f81519050919050565b7f4e487b71000000000000000000000000000000000000000000000000000000005f52604160045260245ffd5b7f4e487b71000000000000000000000000000000000000000000000000000000005f52602260045260245ffd5b5f60028204905060018216806200022757607f821691505b6020821081036200023d576200023c620001e2565b5b50919050565b5f819050815f5260205f209050919050565b5f6020601f8301049050919050565b5f82821b905092915050565b5f60088302620002a17fffffffffffffffffffffffffffffffffffffffffffffffffffffffffffffffff8262000264565b620002ad868362000264565b95508019841693508086168417925050509392505050565b5f819050919050565b5f819050919050565b5f620002f7620002f1620002eb84620002c5565b620002ce565b620002c5565b9050919050565b5f819050919050565b6200031283620002d7565b6200032a6200032182620002fe565b84845462000270565b825550505050565b5f90565b6200034062000332565b6200034d81848462000307565b505050565b5b818110156200037457620003685f8262000336565b60018101905062000353565b5050565b601f821115620003c3576200038d8162000243565b620003988462000255565b81016020851015620003a8578190505b620003c0620003b78562000255565b83018262000352565b50505b505050565b5f82821c905092915050565b5f620003e55f1984600802620003c8565b1980831691505092915050565b5f620003ff8383620003d4565b9150826002028217905092915050565b6200041a82620001ab565b67ffffffffffffffff811115620004365762000435620001b5565b5b6200044282546200020f565b6200044f82828562000378565b5f60209050601f83116001811462000485575f841562000470578287015190505b6200047c8582620003f2565b865550620004eb565b601f198416620004958662000243565b5f5b82811015620004be5784890151825560018201915060208501945060208101905062000497565b86831015620004de5784890151620004da601f891682620003d4565b8355505b6001600288020188555050505b505050505050565b612f4b80620005015f395ff3fe60806040526004361061014a575f3560e01c806370a08231116100b5578063b92d9ad21161006e578063b92d9ad21461045c578063c87b56dd14610486578063cfb869bf146104c2578063d67b98a914610505578063e0abca0b1461052f578063e985e9c5146105595761014a565b806370a08231146103545780638da5cb5b1461039057806395d89b41146103ba578063a22cb465146103e4578063af582c6b1461040c578063b88d4fde146104345761014a565b806323fb9afb1161010757806323fb9afb1461026a5780633ccfd60b1461029457806342842e0e146102aa57806343e62f28146102d257806361bc221a146102ee5780636352211e146103185761014a565b806301ffc9a71461014e57806306fdde031461018a578063081812fc146101b4578063095ea7b3146101f057806312065fe01461021857806323b872dd14610242575b5f80fd5b348015610159575f80fd5b50610174600480360381019061016f9190611f5b565b610595565b6040516101819190611fa0565b60405180910390f35b348015610195575f80fd5b5061019e610676565b6040516101ab9190612043565b60405180910390f35b3480156101bf575f80fd5b506101da60048036038101906101d59190612096565b610705565b6040516101e79190612100565b60405180910390f35b3480156101fb575f80fd5b5061021660048036038101906102119190612143565b610720565b005b348015610223575f80fd5b5061022c610736565b6040516102399190612190565b60405180910390f35b34801561024d575f80fd5b50610268600480360381019061026391906121a9565b61073d565b005b348015610275575f80fd5b5061027e61083c565b60405161028b9190612190565b60405180910390f35b34801561029f575f80fd5b506102a8610842565b005b3480156102b5575f80fd5b506102d060048036038101906102cb91906121a9565b610938565b005b6102ec60048036038101906102e79190612348565b610957565b005b3480156102f9575f80fd5b506103026109bc565b60405161030f9190612190565b60405180910390f35b348015610323575f80fd5b5061033e60048036038101906103399190612096565b6109c2565b60405161034b9190612100565b60405180910390f35b34801561035f575f80fd5b5061037a60048036038101906103759190612425565b6109d3565b6040516103879190612190565b60405180910390f35b34801561039b575f80fd5b506103a4610a89565b6040516103b19190612100565b60405180910390f35b3480156103c5575f80fd5b506103ce610aae565b6040516103db9190612043565b60405180910390f35b3480156103ef575f80fd5b5061040a6004803603810190610405919061247a565b610b3e565b005b348015610417575f80fd5b50610432600480360381019061042d9190612096565b610b54565b005b34801561043f575f80fd5b5061045a60048036038101906104559190612556565b610bed565b005b348015610467575f80fd5b50610470610c0a565b60405161047d9190612190565b60405180910390f35b348015610491575f80fd5b506104ac60048036038101906104a79190612096565b610c42565b6040516104b99190612043565b60405180910390f35b3480156104cd575f80fd5b506104e860048036038101906104e39190612096565b610ca8565b6040516104fc989796959493929190612649565b60405180910390f35b348015610510575f80fd5b50610519610ea9565b6040516105269190612190565b60405180910390f35b34801561053a575f80fd5b50610543610f55565b6040516105509190612100565b60405180910390f35b348015610564575f80fd5b5061057f600480360381019061057a91906126da565b610f7a565b60405161058c9190611fa0565b60405180910390f35b5f7f80ac58cd000000000000000000000000000000000000000000000000000000007bffffffffffffffffffffffffffffffffffffffffffffffffffffffff1916827bffffffffffffffffffffffffffffffffffffffffffffffffffffffff1916148061065f57507f5b5e139f000000000000000000000000000000000000000000000000000000007bffffffffffffffffffffffffffffffffffffffffffffffffffffffff1916827bffffffffffffffffffffffffffffffffffffffffffffffffffffffff1916145b8061066f575061066e82611008565b5b9050919050565b60605f805461068490612745565b80601f01602080910402602001604051908101604052809291908181526020018280546106b090612745565b80156106fb5780601f106106d2576101008083540402835291602001916106fb565b820191905f5260205f20905b8154815290600101906020018083116106de57829003601f168201915b5050505050905090565b5f61070f82611071565b50610719826110f7565b9050919050565b610732828261072d611130565b611137565b5050565b5f47905090565b5f73ffffffffffffffffffffffffffffffffffffffff168273ffffffffffffffffffffffffffffffffffffffff16036107ad575f6040517f64a0ae920000000000000000000000000000000000000000000000000000000081526004016107a49190612100565b60405180910390fd5b5f6107c083836107bb611130565b611149565b90508373ffffffffffffffffffffffffffffffffffffffff168173ffffffffffffffffffffffffffffffffffffffff1614610836578382826040517f64283d7b00000000000000000000000000000000000000000000000000000000815260040161082d93929190612775565b60405180910390fd5b50505050565b600a5481565b600b5f9054906101000a900473ffffffffffffffffffffffffffffffffffffffff1673ffffffffffffffffffffffffffffffffffffffff163373ffffffffffffffffffffffffffffffffffffffff16146108d1576040517f08c379a00000000000000000000000000000000000000000000000000000000081526004016108c89061281a565b60405180910390fd5b600b5f9054906101000a900473ffffffffffffffffffffffffffffffffffffffff1673ffffffffffffffffffffffffffffffffffffffff166108fc4790811502906040515f60405180830381858888f19350505050158015610935573d5f803e3d5ffd5b50565b61095283838360405180602001604052805f815250610bed565b505050565b5f610960610c0a565b9050803410156109a5576040517f08c379a000000000000000000000000000000000000000000000000000000000815260040161099c90612882565b60405180910390fd5b6109b3878787878787611354565b50505050505050565b60095481565b5f6109cc82611071565b9050919050565b5f8073ffffffffffffffffffffffffffffffffffffffff168273ffffffffffffffffffffffffffffffffffffffff1603610a44575f6040517f89c62b64000000000000000000000000000000000000000000000000000000008152600401610a3b9190612100565b60405180910390fd5b60035f8373ffffffffffffffffffffffffffffffffffffffff1673ffffffffffffffffffffffffffffffffffffffff1681526020019081526020015f20549050919050565b600b5f9054906101000a900473ffffffffffffffffffffffffffffffffffffffff1681565b606060018054610abd90612745565b80601f0160208091040260200160405190810160405280929190818152602001828054610ae990612745565b8015610b345780601f10610b0b57610100808354040283529160200191610b34565b820191905f5260205f20905b815481529060010190602001808311610b1757829003601f168201915b5050505050905090565b610b50610b49611130565b838361150a565b5050565b600b5f9054906101000a900473ffffffffffffffffffffffffffffffffffffffff1673ffffffffffffffffffffffffffffffffffffffff163373ffffffffffffffffffffffffffffffffffffffff1614610be3576040517f08c379a0000000000000000000000000000000000000000000000000000000008152600401610bda9061281a565b60405180910390fd5b80600a8190555050565b610bf884848461073d565b610c0484848484611673565b50505050565b5f80610c14610ea9565b90505f81670de0b6b3a7640000600a54610c2e91906128cd565b610c38919061293b565b9050809250505090565b6060610c4d82611071565b505f610c57611825565b90505f815111610c755760405180602001604052805f815250610ca0565b80610c7f8461183b565b604051602001610c909291906129a5565b6040516020818303038152906040525b915050919050565b6008602052805f5260405f205f91509050805f015490806001018054610ccd90612745565b80601f0160208091040260200160405190810160405280929190818152602001828054610cf990612745565b8015610d445780601f10610d1b57610100808354040283529160200191610d44565b820191905f5260205f20905b815481529060010190602001808311610d2757829003601f168201915b505050505090806002015f9054906101000a900460ff1690806003018054610d6b90612745565b80601f0160208091040260200160405190810160405280929190818152602001828054610d9790612745565b8015610de25780601f10610db957610100808354040283529160200191610de2565b820191905f5260205f20905b815481529060010190602001808311610dc557829003601f168201915b505050505090806004018054610df790612745565b80601f0160208091040260200160405190810160405280929190818152602001828054610e2390612745565b8015610e6e5780601f10610e4557610100808354040283529160200191610e6e565b820191905f5260205f20905b815481529060010190602001808311610e5157829003601f168201915b505050505090806005015490806006015490806007015f9054906101000a900473ffffffffffffffffffffffffffffffffffffffff16905088565b5f8060065f9054906101000a900473ffffffffffffffffffffffffffffffffffffffff1673ffffffffffffffffffffffffffffffffffffffff1663feaf968c6040518163ffffffff1660e01b815260040160a060405180830381865afa158015610f15573d5f803e3d5ffd5b505050506040513d601f19601f82011682018060405250810190610f399190612a4e565b5050509150506305f5e10081610f4f9190612ac5565b91505090565b60075f9054906101000a900473ffffffffffffffffffffffffffffffffffffffff1681565b5f60055f8473ffffffffffffffffffffffffffffffffffffffff1673ffffffffffffffffffffffffffffffffffffffff1681526020019081526020015f205f8373ffffffffffffffffffffffffffffffffffffffff1673ffffffffffffffffffffffffffffffffffffffff1681526020019081526020015f205f9054906101000a900460ff16905092915050565b5f7f01ffc9a7000000000000000000000000000000000000000000000000000000007bffffffffffffffffffffffffffffffffffffffffffffffffffffffff1916827bffffffffffffffffffffffffffffffffffffffffffffffffffffffff1916149050919050565b5f8061107c83611905565b90505f73ffffffffffffffffffffffffffffffffffffffff168173ffffffffffffffffffffffffffffffffffffffff16036110ee57826040517f7e2732890000000000000000000000000000000000000000000000000000000081526004016110e59190612190565b60405180910390fd5b80915050919050565b5f60045f8381526020019081526020015f205f9054906101000a900473ffffffffffffffffffffffffffffffffffffffff169050919050565b5f33905090565b611144838383600161193e565b505050565b5f8061115484611905565b90505f73ffffffffffffffffffffffffffffffffffffffff168373ffffffffffffffffffffffffffffffffffffffff161461119557611194818486611afd565b5b5f73ffffffffffffffffffffffffffffffffffffffff168173ffffffffffffffffffffffffffffffffffffffff1614611220576111d45f855f8061193e565b600160035f8373ffffffffffffffffffffffffffffffffffffffff1673ffffffffffffffffffffffffffffffffffffffff1681526020019081526020015f205f82825403925050819055505b5f73ffffffffffffffffffffffffffffffffffffffff168573ffffffffffffffffffffffffffffffffffffffff161461129f57600160035f8773ffffffffffffffffffffffffffffffffffffffff1673ffffffffffffffffffffffffffffffffffffffff1681526020019081526020015f205f82825401925050819055505b8460025f8681526020019081526020015f205f6101000a81548173ffffffffffffffffffffffffffffffffffffffff021916908373ffffffffffffffffffffffffffffffffffffffff160217905550838573ffffffffffffffffffffffffffffffffffffffff168273ffffffffffffffffffffffffffffffffffffffff167fddf252ad1be2c89b69c2b068fc378daa952ba7f163c4a11628f55a4df523b3ef60405160405180910390a4809150509392505050565b5f61135d611bc0565b905060405180610100016040528082815260200188815260200187600381111561138a576113896125d6565b5b81526020018681526020018581526020018481526020018381526020013373ffffffffffffffffffffffffffffffffffffffff1681525060085f8381526020019081526020015f205f820151815f015560208201518160010190816113ef9190612cca565b506040820151816002015f6101000a81548160ff0219169083600381111561141a576114196125d6565b5b021790555060608201518160030190816114349190612cca565b50608082015181600401908161144a9190612cca565b5060a0820151816005015560c0820151816006015560e0820151816007015f6101000a81548173ffffffffffffffffffffffffffffffffffffffff021916908373ffffffffffffffffffffffffffffffffffffffff1602179055509050506114b23382611bf1565b3373ffffffffffffffffffffffffffffffffffffffff16817f3c0aadacdb910e58fe38928aad07e1b89dc0baee588d7ca1e9bba80e1e3f3964896040516114f99190612043565b60405180910390a350505050505050565b5f73ffffffffffffffffffffffffffffffffffffffff168273ffffffffffffffffffffffffffffffffffffffff160361157a57816040517f5b08ba180000000000000000000000000000000000000000000000000000000081526004016115719190612100565b60405180910390fd5b8060055f8573ffffffffffffffffffffffffffffffffffffffff1673ffffffffffffffffffffffffffffffffffffffff1681526020019081526020015f205f8473ffffffffffffffffffffffffffffffffffffffff1673ffffffffffffffffffffffffffffffffffffffff1681526020019081526020015f205f6101000a81548160ff0219169083151502179055508173ffffffffffffffffffffffffffffffffffffffff168373ffffffffffffffffffffffffffffffffffffffff167f17307eab39ab6107e8899845ad3d59bd9653f200f220920489ca2b5937696c31836040516116669190611fa0565b60405180910390a3505050565b5f8373ffffffffffffffffffffffffffffffffffffffff163b111561181f578273ffffffffffffffffffffffffffffffffffffffff1663150b7a026116b6611130565b8685856040518563ffffffff1660e01b81526004016116d89493929190612deb565b6020604051808303815f875af192505050801561171357506040513d601f19601f820116820180604052508101906117109190612e49565b60015b611794573d805f8114611741576040519150601f19603f3d011682016040523d82523d5f602084013e611746565b606091505b505f81510361178c57836040517f64a0ae920000000000000000000000000000000000000000000000000000000081526004016117839190612100565b60405180910390fd5b805181602001fd5b63150b7a0260e01b7bffffffffffffffffffffffffffffffffffffffffffffffffffffffff1916817bffffffffffffffffffffffffffffffffffffffffffffffffffffffff19161461181d57836040517f64a0ae920000000000000000000000000000000000000000000000000000000081526004016118149190612100565b60405180910390fd5b505b50505050565b606060405180602001604052805f815250905090565b60605f600161184984611ce4565b0190505f8167ffffffffffffffff81111561186757611866612201565b5b6040519080825280601f01601f1916602001820160405280156118995781602001600182028036833780820191505090505b5090505f82602001820190505b6001156118fa578080600190039150507f3031323334353637383961626364656600000000000000000000000000000000600a86061a8153600a85816118ef576118ee61290e565b5b0494505f85036118a6575b819350505050919050565b5f60025f8381526020019081526020015f205f9054906101000a900473ffffffffffffffffffffffffffffffffffffffff169050919050565b808061197657505f73ffffffffffffffffffffffffffffffffffffffff168273ffffffffffffffffffffffffffffffffffffffff1614155b15611aa8575f61198584611071565b90505f73ffffffffffffffffffffffffffffffffffffffff168373ffffffffffffffffffffffffffffffffffffffff16141580156119ef57508273ffffffffffffffffffffffffffffffffffffffff168173ffffffffffffffffffffffffffffffffffffffff1614155b8015611a025750611a008184610f7a565b155b15611a4457826040517fa9fbf51f000000000000000000000000000000000000000000000000000000008152600401611a3b9190612100565b60405180910390fd5b8115611aa657838573ffffffffffffffffffffffffffffffffffffffff168273ffffffffffffffffffffffffffffffffffffffff167f8c5be1e5ebec7d5bd14f71427d1e84f3dd0314c0f7b2291e5b200ac8c7c3b92560405160405180910390a45b505b8360045f8581526020019081526020015f205f6101000a81548173ffffffffffffffffffffffffffffffffffffffff021916908373ffffffffffffffffffffffffffffffffffffffff16021790555050505050565b611b08838383611e35565b611bbb575f73ffffffffffffffffffffffffffffffffffffffff168373ffffffffffffffffffffffffffffffffffffffff1603611b7c57806040517f7e273289000000000000000000000000000000000000000000000000000000008152600401611b739190612190565b60405180910390fd5b81816040517f177e802f000000000000000000000000000000000000000000000000000000008152600401611bb2929190612e74565b60405180910390fd5b505050565b5f806001600954611bd19190612e9b565b905060095f815480929190611be590612ece565b91905055508091505090565b5f73ffffffffffffffffffffffffffffffffffffffff168273ffffffffffffffffffffffffffffffffffffffff1603611c61575f6040517f64a0ae92000000000000000000000000000000000000000000000000000000008152600401611c589190612100565b60405180910390fd5b5f611c6d83835f611149565b90505f73ffffffffffffffffffffffffffffffffffffffff168173ffffffffffffffffffffffffffffffffffffffff1614611cdf575f6040517f73c6ac6e000000000000000000000000000000000000000000000000000000008152600401611cd69190612100565b60405180910390fd5b505050565b5f805f90507a184f03e93ff9f4daa797ed6e38ed64bf6a1f0100000000000000008310611d40577a184f03e93ff9f4daa797ed6e38ed64bf6a1f0100000000000000008381611d3657611d3561290e565b5b0492506040810190505b6d04ee2d6d415b85acef81000000008310611d7d576d04ee2d6d415b85acef81000000008381611d7357611d7261290e565b5b0492506020810190505b662386f26fc100008310611dac57662386f26fc100008381611da257611da161290e565b5b0492506010810190505b6305f5e1008310611dd5576305f5e1008381611dcb57611dca61290e565b5b0492506008810190505b6127108310611dfa576127108381611df057611def61290e565b5b0492506004810190505b60648310611e1d5760648381611e1357611e1261290e565b5b0492506002810190505b600a8310611e2c576001810190505b80915050919050565b5f8073ffffffffffffffffffffffffffffffffffffffff168373ffffffffffffffffffffffffffffffffffffffff1614158015611eec57508273ffffffffffffffffffffffffffffffffffffffff168473ffffffffffffffffffffffffffffffffffffffff161480611ead5750611eac8484610f7a565b5b80611eeb57508273ffffffffffffffffffffffffffffffffffffffff16611ed3836110f7565b73ffffffffffffffffffffffffffffffffffffffff16145b5b90509392505050565b5f604051905090565b5f80fd5b5f80fd5b5f7fffffffff0000000000000000000000000000000000000000000000000000000082169050919050565b611f3a81611f06565b8114611f44575f80fd5b50565b5f81359050611f5581611f31565b92915050565b5f60208284031215611f7057611f6f611efe565b5b5f611f7d84828501611f47565b91505092915050565b5f8115159050919050565b611f9a81611f86565b82525050565b5f602082019050611fb35f830184611f91565b92915050565b5f81519050919050565b5f82825260208201905092915050565b5f5b83811015611ff0578082015181840152602081019050611fd5565b5f8484015250505050565b5f601f19601f8301169050919050565b5f61201582611fb9565b61201f8185611fc3565b935061202f818560208601611fd3565b61203881611ffb565b840191505092915050565b5f6020820190508181035f83015261205b818461200b565b905092915050565b5f819050919050565b61207581612063565b811461207f575f80fd5b50565b5f813590506120908161206c565b92915050565b5f602082840312156120ab576120aa611efe565b5b5f6120b884828501612082565b91505092915050565b5f73ffffffffffffffffffffffffffffffffffffffff82169050919050565b5f6120ea826120c1565b9050919050565b6120fa816120e0565b82525050565b5f6020820190506121135f8301846120f1565b92915050565b612122816120e0565b811461212c575f80fd5b50565b5f8135905061213d81612119565b92915050565b5f806040838503121561215957612158611efe565b5b5f6121668582860161212f565b925050602061217785828601612082565b9150509250929050565b61218a81612063565b82525050565b5f6020820190506121a35f830184612181565b92915050565b5f805f606084860312156121c0576121bf611efe565b5b5f6121cd8682870161212f565b93505060206121de8682870161212f565b92505060406121ef86828701612082565b9150509250925092565b5f80fd5b5f80fd5b7f4e487b71000000000000000000000000000000000000000000000000000000005f52604160045260245ffd5b61223782611ffb565b810181811067ffffffffffffffff8211171561225657612255612201565b5b80604052505050565b5f612268611ef5565b9050612274828261222e565b919050565b5f67ffffffffffffffff82111561229357612292612201565b5b61229c82611ffb565b9050602081019050919050565b828183375f83830152505050565b5f6122c96122c484612279565b61225f565b9050828152602081018484840111156122e5576122e46121fd565b5b6122f08482856122a9565b509392505050565b5f82601f83011261230c5761230b6121f9565b5b813561231c8482602086016122b7565b91505092915050565b60048110612331575f80fd5b50565b5f8135905061234281612325565b92915050565b5f805f805f8060c0878903121561236257612361611efe565b5b5f87013567ffffffffffffffff81111561237f5761237e611f02565b5b61238b89828a016122f8565b965050602061239c89828a01612334565b955050604087013567ffffffffffffffff8111156123bd576123bc611f02565b5b6123c989828a016122f8565b945050606087013567ffffffffffffffff8111156123ea576123e9611f02565b5b6123f689828a016122f8565b935050608061240789828a01612082565b92505060a061241889828a01612082565b9150509295509295509295565b5f6020828403121561243a57612439611efe565b5b5f6124478482850161212f565b91505092915050565b61245981611f86565b8114612463575f80fd5b50565b5f8135905061247481612450565b92915050565b5f80604083850312156124905761248f611efe565b5b5f61249d8582860161212f565b92505060206124ae85828601612466565b9150509250929050565b5f67ffffffffffffffff8211156124d2576124d1612201565b5b6124db82611ffb565b9050602081019050919050565b5f6124fa6124f5846124b8565b61225f565b905082815260208101848484011115612516576125156121fd565b5b6125218482856122a9565b509392505050565b5f82601f83011261253d5761253c6121f9565b5b813561254d8482602086016124e8565b91505092915050565b5f805f806080858703121561256e5761256d611efe565b5b5f61257b8782880161212f565b945050602061258c8782880161212f565b935050604061259d87828801612082565b925050606085013567ffffffffffffffff8111156125be576125bd611f02565b5b6125ca87828801612529565b91505092959194509250565b7f4e487b71000000000000000000000000000000000000000000000000000000005f52602160045260245ffd5b60048110612614576126136125d6565b5b50565b5f81905061262482612603565b919050565b5f61263382612617565b9050919050565b61264381612629565b82525050565b5f6101008201905061265d5f83018b612181565b818103602083015261266f818a61200b565b905061267e604083018961263a565b8181036060830152612690818861200b565b905081810360808301526126a4818761200b565b90506126b360a0830186612181565b6126c060c0830185612181565b6126cd60e08301846120f1565b9998505050505050505050565b5f80604083850312156126f0576126ef611efe565b5b5f6126fd8582860161212f565b925050602061270e8582860161212f565b9150509250929050565b7f4e487b71000000000000000000000000000000000000000000000000000000005f52602260045260245ffd5b5f600282049050600182168061275c57607f821691505b60208210810361276f5761276e612718565b5b50919050565b5f6060820190506127885f8301866120f1565b6127956020830185612181565b6127a260408301846120f1565b949350505050565b7f4f6e6c79206f776e6572206f6620636f6e74726163742063616e2065786563755f8201527f746520746869732066756e6374696f6e2e000000000000000000000000000000602082015250565b5f612804603183611fc3565b915061280f826127aa565b604082019050919050565b5f6020820190508181035f830152612831816127f8565b9050919050565b7f6e6f7420656e6f7567682066756e6473000000000000000000000000000000005f82015250565b5f61286c601083611fc3565b915061287782612838565b602082019050919050565b5f6020820190508181035f83015261289981612860565b9050919050565b7f4e487b71000000000000000000000000000000000000000000000000000000005f52601160045260245ffd5b5f6128d782612063565b91506128e283612063565b92508282026128f081612063565b91508282048414831517612907576129066128a0565b5b5092915050565b7f4e487b71000000000000000000000000000000000000000000000000000000005f52601260045260245ffd5b5f61294582612063565b915061295083612063565b9250826129605761295f61290e565b5b828204905092915050565b5f81905092915050565b5f61297f82611fb9565b612989818561296b565b9350612999818560208601611fd3565b80840191505092915050565b5f6129b08285612975565b91506129bc8284612975565b91508190509392505050565b5f69ffffffffffffffffffff82169050919050565b6129e6816129c8565b81146129f0575f80fd5b50565b5f81519050612a01816129dd565b92915050565b5f819050919050565b612a1981612a07565b8114612a23575f80fd5b50565b5f81519050612a3481612a10565b92915050565b5f81519050612a488161206c565b92915050565b5f805f805f60a08688031215612a6757612a66611efe565b5b5f612a74888289016129f3565b9550506020612a8588828901612a26565b9450506040612a9688828901612a3a565b9350506060612aa788828901612a3a565b9250506080612ab8888289016129f3565b9150509295509295909350565b5f612acf82612a07565b9150612ada83612a07565b925082612aea57612ae961290e565b5b60015f0383147f800000000000000000000000000000000000000000000000000000000000000083141615612b2257612b216128a0565b5b828205905092915050565b5f819050815f5260205f209050919050565b5f6020601f8301049050919050565b5f82821b905092915050565b5f60088302612b897fffffffffffffffffffffffffffffffffffffffffffffffffffffffffffffffff82612b4e565b612b938683612b4e565b95508019841693508086168417925050509392505050565b5f819050919050565b5f612bce612bc9612bc484612063565b612bab565b612063565b9050919050565b5f819050919050565b612be783612bb4565b612bfb612bf382612bd5565b848454612b5a565b825550505050565b5f90565b612c0f612c03565b612c1a818484612bde565b505050565b5b81811015612c3d57612c325f82612c07565b600181019050612c20565b5050565b601f821115612c8257612c5381612b2d565b612c5c84612b3f565b81016020851015612c6b578190505b612c7f612c7785612b3f565b830182612c1f565b50505b505050565b5f82821c905092915050565b5f612ca25f1984600802612c87565b1980831691505092915050565b5f612cba8383612c93565b9150826002028217905092915050565b612cd382611fb9565b67ffffffffffffffff811115612cec57612ceb612201565b5b612cf68254612745565b612d01828285612c41565b5f60209050601f831160018114612d32575f8415612d20578287015190505b612d2a8582612caf565b865550612d91565b601f198416612d4086612b2d565b5f5b82811015612d6757848901518255600182019150602085019450602081019050612d42565b86831015612d845784890151612d80601f891682612c93565b8355505b6001600288020188555050505b505050505050565b5f81519050919050565b5f82825260208201905092915050565b5f612dbd82612d99565b612dc78185612da3565b9350612dd7818560208601611fd3565b612de081611ffb565b840191505092915050565b5f608082019050612dfe5f8301876120f1565b612e0b60208301866120f1565b612e186040830185612181565b8181036060830152612e2a8184612db3565b905095945050505050565b5f81519050612e4381611f31565b92915050565b5f60208284031215612e5e57612e5d611efe565b5b5f612e6b84828501612e35565b91505092915050565b5f604082019050612e875f8301856120f1565b612e946020830184612181565b9392505050565b5f612ea582612063565b9150612eb083612063565b9250828201905080821115612ec857612ec76128a0565b5b92915050565b5f612ed882612063565b91507fffffffffffffffffffffffffffffffffffffffffffffffffffffffffffffffff8203612f0a57612f096128a0565b5b60018201905091905056fea2646970667358221220a9444eae0dfd70aa1a601570f4e3575e0bb2e6a328f194b8ac2a2c9a2409b0b764736f6c63430008160033",
					"opcodes": "PUSH1 0x80 PUSH1 0x40 MSTORE CALLVALUE DUP1 ISZERO PUSH3 0x10 JUMPI PUSH0 DUP1 REVERT JUMPDEST POP PUSH1 0x40 MLOAD DUP1 PUSH1 0x40 ADD PUSH1 0x40 MSTORE DUP1 PUSH1 0x6 DUP2 MSTORE PUSH1 0x20 ADD PUSH32 0x5065744E46540000000000000000000000000000000000000000000000000000 DUP2 MSTORE POP PUSH1 0x40 MLOAD DUP1 PUSH1 0x40 ADD PUSH1 0x40 MSTORE DUP1 PUSH1 0x3 DUP2 MSTORE PUSH1 0x20 ADD PUSH32 0x5045540000000000000000000000000000000000000000000000000000000000 DUP2 MSTORE POP DUP2 PUSH0 SWAP1 DUP2 PUSH3 0x8D SWAP2 SWAP1 PUSH3 0x40F JUMP JUMPDEST POP DUP1 PUSH1 0x1 SWAP1 DUP2 PUSH3 0x9F SWAP2 SWAP1 PUSH3 0x40F JUMP JUMPDEST POP POP POP PUSH0 PUSH1 0x9 DUP2 SWAP1 SSTORE POP CALLER PUSH1 0xB PUSH0 PUSH2 0x100 EXP DUP2 SLOAD DUP2 PUSH20 0xFFFFFFFFFFFFFFFFFFFFFFFFFFFFFFFFFFFFFFFF MUL NOT AND SWAP1 DUP4 PUSH20 0xFFFFFFFFFFFFFFFFFFFFFFFFFFFFFFFFFFFFFFFF AND MUL OR SWAP1 SSTORE POP PUSH1 0xA DUP1 DUP2 SWAP1 SSTORE POP PUSH20 0x694AA1769357215DE4FAC081BF1F309ADC325306 PUSH1 0x7 PUSH0 PUSH2 0x100 EXP DUP2 SLOAD DUP2 PUSH20 0xFFFFFFFFFFFFFFFFFFFFFFFFFFFFFFFFFFFFFFFF MUL NOT AND SWAP1 DUP4 PUSH20 0xFFFFFFFFFFFFFFFFFFFFFFFFFFFFFFFFFFFFFFFF AND MUL OR SWAP1 SSTORE POP PUSH1 0x7 PUSH0 SWAP1 SLOAD SWAP1 PUSH2 0x100 EXP SWAP1 DIV PUSH20 0xFFFFFFFFFFFFFFFFFFFFFFFFFFFFFFFFFFFFFFFF AND PUSH1 0x6 PUSH0 PUSH2 0x100 EXP DUP2 SLOAD DUP2 PUSH20 0xFFFFFFFFFFFFFFFFFFFFFFFFFFFFFFFFFFFFFFFF MUL NOT AND SWAP1 DUP4 PUSH20 0xFFFFFFFFFFFFFFFFFFFFFFFFFFFFFFFFFFFFFFFF AND MUL OR SWAP1 SSTORE POP PUSH3 0x4F3 JUMP JUMPDEST PUSH0 DUP2 MLOAD SWAP1 POP SWAP2 SWAP1 POP JUMP JUMPDEST PUSH32 0x4E487B7100000000000000000000000000000000000000000000000000000000 PUSH0 MSTORE PUSH1 0x41 PUSH1 0x4 MSTORE PUSH1 0x24 PUSH0 REVERT JUMPDEST PUSH32 0x4E487B7100000000000000000000000000000000000000000000000000000000 PUSH0 MSTORE PUSH1 0x22 PUSH1 0x4 MSTORE PUSH1 0x24 PUSH0 REVERT JUMPDEST PUSH0 PUSH1 0x2 DUP3 DIV SWAP1 POP PUSH1 0x1 DUP3 AND DUP1 PUSH3 0x227 JUMPI PUSH1 0x7F DUP3 AND SWAP2 POP JUMPDEST PUSH1 0x20 DUP3 LT DUP2 SUB PUSH3 0x23D JUMPI PUSH3 0x23C PUSH3 0x1E2 JUMP JUMPDEST JUMPDEST POP SWAP2 SWAP1 POP JUMP JUMPDEST PUSH0 DUP2 SWAP1 POP DUP2 PUSH0 MSTORE PUSH1 0x20 PUSH0 KECCAK256 SWAP1 POP SWAP2 SWAP1 POP JUMP JUMPDEST PUSH0 PUSH1 0x20 PUSH1 0x1F DUP4 ADD DIV SWAP1 POP SWAP2 SWAP1 POP JUMP JUMPDEST PUSH0 DUP3 DUP3 SHL SWAP1 POP SWAP3 SWAP2 POP POP JUMP JUMPDEST PUSH0 PUSH1 0x8 DUP4 MUL PUSH3 0x2A1 PUSH32 0xFFFFFFFFFFFFFFFFFFFFFFFFFFFFFFFFFFFFFFFFFFFFFFFFFFFFFFFFFFFFFFFF DUP3 PUSH3 0x264 JUMP JUMPDEST PUSH3 0x2AD DUP7 DUP4 PUSH3 0x264 JUMP JUMPDEST SWAP6 POP DUP1 NOT DUP5 AND SWAP4 POP DUP1 DUP7 AND DUP5 OR SWAP3 POP POP POP SWAP4 SWAP3 POP POP POP JUMP JUMPDEST PUSH0 DUP2 SWAP1 POP SWAP2 SWAP1 POP JUMP JUMPDEST PUSH0 DUP2 SWAP1 POP SWAP2 SWAP1 POP JUMP JUMPDEST PUSH0 PUSH3 0x2F7 PUSH3 0x2F1 PUSH3 0x2EB DUP5 PUSH3 0x2C5 JUMP JUMPDEST PUSH3 0x2CE JUMP JUMPDEST PUSH3 0x2C5 JUMP JUMPDEST SWAP1 POP SWAP2 SWAP1 POP JUMP JUMPDEST PUSH0 DUP2 SWAP1 POP SWAP2 SWAP1 POP JUMP JUMPDEST PUSH3 0x312 DUP4 PUSH3 0x2D7 JUMP JUMPDEST PUSH3 0x32A PUSH3 0x321 DUP3 PUSH3 0x2FE JUMP JUMPDEST DUP5 DUP5 SLOAD PUSH3 0x270 JUMP JUMPDEST DUP3 SSTORE POP POP POP POP JUMP JUMPDEST PUSH0 SWAP1 JUMP JUMPDEST PUSH3 0x340 PUSH3 0x332 JUMP JUMPDEST PUSH3 0x34D DUP2 DUP5 DUP5 PUSH3 0x307 JUMP JUMPDEST POP POP POP JUMP JUMPDEST JUMPDEST DUP2 DUP2 LT ISZERO PUSH3 0x374 JUMPI PUSH3 0x368 PUSH0 DUP3 PUSH3 0x336 JUMP JUMPDEST PUSH1 0x1 DUP2 ADD SWAP1 POP PUSH3 0x353 JUMP JUMPDEST POP POP JUMP JUMPDEST PUSH1 0x1F DUP3 GT ISZERO PUSH3 0x3C3 JUMPI PUSH3 0x38D DUP2 PUSH3 0x243 JUMP JUMPDEST PUSH3 0x398 DUP5 PUSH3 0x255 JUMP JUMPDEST DUP2 ADD PUSH1 0x20 DUP6 LT ISZERO PUSH3 0x3A8 JUMPI DUP2 SWAP1 POP JUMPDEST PUSH3 0x3C0 PUSH3 0x3B7 DUP6 PUSH3 0x255 JUMP JUMPDEST DUP4 ADD DUP3 PUSH3 0x352 JUMP JUMPDEST POP POP JUMPDEST POP POP POP JUMP JUMPDEST PUSH0 DUP3 DUP3 SHR SWAP1 POP SWAP3 SWAP2 POP POP JUMP JUMPDEST PUSH0 PUSH3 0x3E5 PUSH0 NOT DUP5 PUSH1 0x8 MUL PUSH3 0x3C8 JUMP JUMPDEST NOT DUP1 DUP4 AND SWAP2 POP POP SWAP3 SWAP2 POP POP JUMP JUMPDEST PUSH0 PUSH3 0x3FF DUP4 DUP4 PUSH3 0x3D4 JUMP JUMPDEST SWAP2 POP DUP3 PUSH1 0x2 MUL DUP3 OR SWAP1 POP SWAP3 SWAP2 POP POP JUMP JUMPDEST PUSH3 0x41A DUP3 PUSH3 0x1AB JUMP JUMPDEST PUSH8 0xFFFFFFFFFFFFFFFF DUP2 GT ISZERO PUSH3 0x436 JUMPI PUSH3 0x435 PUSH3 0x1B5 JUMP JUMPDEST JUMPDEST PUSH3 0x442 DUP3 SLOAD PUSH3 0x20F JUMP JUMPDEST PUSH3 0x44F DUP3 DUP3 DUP6 PUSH3 0x378 JUMP JUMPDEST PUSH0 PUSH1 0x20 SWAP1 POP PUSH1 0x1F DUP4 GT PUSH1 0x1 DUP2 EQ PUSH3 0x485 JUMPI PUSH0 DUP5 ISZERO PUSH3 0x470 JUMPI DUP3 DUP8 ADD MLOAD SWAP1 POP JUMPDEST PUSH3 0x47C DUP6 DUP3 PUSH3 0x3F2 JUMP JUMPDEST DUP7 SSTORE POP PUSH3 0x4EB JUMP JUMPDEST PUSH1 0x1F NOT DUP5 AND PUSH3 0x495 DUP7 PUSH3 0x243 JUMP JUMPDEST PUSH0 JUMPDEST DUP3 DUP2 LT ISZERO PUSH3 0x4BE JUMPI DUP5 DUP10 ADD MLOAD DUP3 SSTORE PUSH1 0x1 DUP3 ADD SWAP2 POP PUSH1 0x20 DUP6 ADD SWAP5 POP PUSH1 0x20 DUP2 ADD SWAP1 POP PUSH3 0x497 JUMP JUMPDEST DUP7 DUP4 LT ISZERO PUSH3 0x4DE JUMPI DUP5 DUP10 ADD MLOAD PUSH3 0x4DA PUSH1 0x1F DUP10 AND DUP3 PUSH3 0x3D4 JUMP JUMPDEST DUP4 SSTORE POP JUMPDEST PUSH1 0x1 PUSH1 0x2 DUP9 MUL ADD DUP9 SSTORE POP POP POP JUMPDEST POP POP POP POP POP POP JUMP JUMPDEST PUSH2 0x2F4B DUP1 PUSH3 0x501 PUSH0 CODECOPY PUSH0 RETURN INVALID PUSH1 0x80 PUSH1 0x40 MSTORE PUSH1 0x4 CALLDATASIZE LT PUSH2 0x14A JUMPI PUSH0 CALLDATALOAD PUSH1 0xE0 SHR DUP1 PUSH4 0x70A08231 GT PUSH2 0xB5 JUMPI DUP1 PUSH4 0xB92D9AD2 GT PUSH2 0x6E JUMPI DUP1 PUSH4 0xB92D9AD2 EQ PUSH2 0x45C JUMPI DUP1 PUSH4 0xC87B56DD EQ PUSH2 0x486 JUMPI DUP1 PUSH4 0xCFB869BF EQ PUSH2 0x4C2 JUMPI DUP1 PUSH4 0xD67B98A9 EQ PUSH2 0x505 JUMPI DUP1 PUSH4 0xE0ABCA0B EQ PUSH2 0x52F JUMPI DUP1 PUSH4 0xE985E9C5 EQ PUSH2 0x559 JUMPI PUSH2 0x14A JUMP JUMPDEST DUP1 PUSH4 0x70A08231 EQ PUSH2 0x354 JUMPI DUP1 PUSH4 0x8DA5CB5B EQ PUSH2 0x390 JUMPI DUP1 PUSH4 0x95D89B41 EQ PUSH2 0x3BA JUMPI DUP1 PUSH4 0xA22CB465 EQ PUSH2 0x3E4 JUMPI DUP1 PUSH4 0xAF582C6B EQ PUSH2 0x40C JUMPI DUP1 PUSH4 0xB88D4FDE EQ PUSH2 0x434 JUMPI PUSH2 0x14A JUMP JUMPDEST DUP1 PUSH4 0x23FB9AFB GT PUSH2 0x107 JUMPI DUP1 PUSH4 0x23FB9AFB EQ PUSH2 0x26A JUMPI DUP1 PUSH4 0x3CCFD60B EQ PUSH2 0x294 JUMPI DUP1 PUSH4 0x42842E0E EQ PUSH2 0x2AA JUMPI DUP1 PUSH4 0x43E62F28 EQ PUSH2 0x2D2 JUMPI DUP1 PUSH4 0x61BC221A EQ PUSH2 0x2EE JUMPI DUP1 PUSH4 0x6352211E EQ PUSH2 0x318 JUMPI PUSH2 0x14A JUMP JUMPDEST DUP1 PUSH4 0x1FFC9A7 EQ PUSH2 0x14E JUMPI DUP1 PUSH4 0x6FDDE03 EQ PUSH2 0x18A JUMPI DUP1 PUSH4 0x81812FC EQ PUSH2 0x1B4 JUMPI DUP1 PUSH4 0x95EA7B3 EQ PUSH2 0x1F0 JUMPI DUP1 PUSH4 0x12065FE0 EQ PUSH2 0x218 JUMPI DUP1 PUSH4 0x23B872DD EQ PUSH2 0x242 JUMPI JUMPDEST PUSH0 DUP1 REVERT JUMPDEST CALLVALUE DUP1 ISZERO PUSH2 0x159 JUMPI PUSH0 DUP1 REVERT JUMPDEST POP PUSH2 0x174 PUSH1 0x4 DUP1 CALLDATASIZE SUB DUP2 ADD SWAP1 PUSH2 0x16F SWAP2 SWAP1 PUSH2 0x1F5B JUMP JUMPDEST PUSH2 0x595 JUMP JUMPDEST PUSH1 0x40 MLOAD PUSH2 0x181 SWAP2 SWAP1 PUSH2 0x1FA0 JUMP JUMPDEST PUSH1 0x40 MLOAD DUP1 SWAP2 SUB SWAP1 RETURN JUMPDEST CALLVALUE DUP1 ISZERO PUSH2 0x195 JUMPI PUSH0 DUP1 REVERT JUMPDEST POP PUSH2 0x19E PUSH2 0x676 JUMP JUMPDEST PUSH1 0x40 MLOAD PUSH2 0x1AB SWAP2 SWAP1 PUSH2 0x2043 JUMP JUMPDEST PUSH1 0x40 MLOAD DUP1 SWAP2 SUB SWAP1 RETURN JUMPDEST CALLVALUE DUP1 ISZERO PUSH2 0x1BF JUMPI PUSH0 DUP1 REVERT JUMPDEST POP PUSH2 0x1DA PUSH1 0x4 DUP1 CALLDATASIZE SUB DUP2 ADD SWAP1 PUSH2 0x1D5 SWAP2 SWAP1 PUSH2 0x2096 JUMP JUMPDEST PUSH2 0x705 JUMP JUMPDEST PUSH1 0x40 MLOAD PUSH2 0x1E7 SWAP2 SWAP1 PUSH2 0x2100 JUMP JUMPDEST PUSH1 0x40 MLOAD DUP1 SWAP2 SUB SWAP1 RETURN JUMPDEST CALLVALUE DUP1 ISZERO PUSH2 0x1FB JUMPI PUSH0 DUP1 REVERT JUMPDEST POP PUSH2 0x216 PUSH1 0x4 DUP1 CALLDATASIZE SUB DUP2 ADD SWAP1 PUSH2 0x211 SWAP2 SWAP1 PUSH2 0x2143 JUMP JUMPDEST PUSH2 0x720 JUMP JUMPDEST STOP JUMPDEST CALLVALUE DUP1 ISZERO PUSH2 0x223 JUMPI PUSH0 DUP1 REVERT JUMPDEST POP PUSH2 0x22C PUSH2 0x736 JUMP JUMPDEST PUSH1 0x40 MLOAD PUSH2 0x239 SWAP2 SWAP1 PUSH2 0x2190 JUMP JUMPDEST PUSH1 0x40 MLOAD DUP1 SWAP2 SUB SWAP1 RETURN JUMPDEST CALLVALUE DUP1 ISZERO PUSH2 0x24D JUMPI PUSH0 DUP1 REVERT JUMPDEST POP PUSH2 0x268 PUSH1 0x4 DUP1 CALLDATASIZE SUB DUP2 ADD SWAP1 PUSH2 0x263 SWAP2 SWAP1 PUSH2 0x21A9 JUMP JUMPDEST PUSH2 0x73D JUMP JUMPDEST STOP JUMPDEST CALLVALUE DUP1 ISZERO PUSH2 0x275 JUMPI PUSH0 DUP1 REVERT JUMPDEST POP PUSH2 0x27E PUSH2 0x83C JUMP JUMPDEST PUSH1 0x40 MLOAD PUSH2 0x28B SWAP2 SWAP1 PUSH2 0x2190 JUMP JUMPDEST PUSH1 0x40 MLOAD DUP1 SWAP2 SUB SWAP1 RETURN JUMPDEST CALLVALUE DUP1 ISZERO PUSH2 0x29F JUMPI PUSH0 DUP1 REVERT JUMPDEST POP PUSH2 0x2A8 PUSH2 0x842 JUMP JUMPDEST STOP JUMPDEST CALLVALUE DUP1 ISZERO PUSH2 0x2B5 JUMPI PUSH0 DUP1 REVERT JUMPDEST POP PUSH2 0x2D0 PUSH1 0x4 DUP1 CALLDATASIZE SUB DUP2 ADD SWAP1 PUSH2 0x2CB SWAP2 SWAP1 PUSH2 0x21A9 JUMP JUMPDEST PUSH2 0x938 JUMP JUMPDEST STOP JUMPDEST PUSH2 0x2EC PUSH1 0x4 DUP1 CALLDATASIZE SUB DUP2 ADD SWAP1 PUSH2 0x2E7 SWAP2 SWAP1 PUSH2 0x2348 JUMP JUMPDEST PUSH2 0x957 JUMP JUMPDEST STOP JUMPDEST CALLVALUE DUP1 ISZERO PUSH2 0x2F9 JUMPI PUSH0 DUP1 REVERT JUMPDEST POP PUSH2 0x302 PUSH2 0x9BC JUMP JUMPDEST PUSH1 0x40 MLOAD PUSH2 0x30F SWAP2 SWAP1 PUSH2 0x2190 JUMP JUMPDEST PUSH1 0x40 MLOAD DUP1 SWAP2 SUB SWAP1 RETURN JUMPDEST CALLVALUE DUP1 ISZERO PUSH2 0x323 JUMPI PUSH0 DUP1 REVERT JUMPDEST POP PUSH2 0x33E PUSH1 0x4 DUP1 CALLDATASIZE SUB DUP2 ADD SWAP1 PUSH2 0x339 SWAP2 SWAP1 PUSH2 0x2096 JUMP JUMPDEST PUSH2 0x9C2 JUMP JUMPDEST PUSH1 0x40 MLOAD PUSH2 0x34B SWAP2 SWAP1 PUSH2 0x2100 JUMP JUMPDEST PUSH1 0x40 MLOAD DUP1 SWAP2 SUB SWAP1 RETURN JUMPDEST CALLVALUE DUP1 ISZERO PUSH2 0x35F JUMPI PUSH0 DUP1 REVERT JUMPDEST POP PUSH2 0x37A PUSH1 0x4 DUP1 CALLDATASIZE SUB DUP2 ADD SWAP1 PUSH2 0x375 SWAP2 SWAP1 PUSH2 0x2425 JUMP JUMPDEST PUSH2 0x9D3 JUMP JUMPDEST PUSH1 0x40 MLOAD PUSH2 0x387 SWAP2 SWAP1 PUSH2 0x2190 JUMP JUMPDEST PUSH1 0x40 MLOAD DUP1 SWAP2 SUB SWAP1 RETURN JUMPDEST CALLVALUE DUP1 ISZERO PUSH2 0x39B JUMPI PUSH0 DUP1 REVERT JUMPDEST POP PUSH2 0x3A4 PUSH2 0xA89 JUMP JUMPDEST PUSH1 0x40 MLOAD PUSH2 0x3B1 SWAP2 SWAP1 PUSH2 0x2100 JUMP JUMPDEST PUSH1 0x40 MLOAD DUP1 SWAP2 SUB SWAP1 RETURN JUMPDEST CALLVALUE DUP1 ISZERO PUSH2 0x3C5 JUMPI PUSH0 DUP1 REVERT JUMPDEST POP PUSH2 0x3CE PUSH2 0xAAE JUMP JUMPDEST PUSH1 0x40 MLOAD PUSH2 0x3DB SWAP2 SWAP1 PUSH2 0x2043 JUMP JUMPDEST PUSH1 0x40 MLOAD DUP1 SWAP2 SUB SWAP1 RETURN JUMPDEST CALLVALUE DUP1 ISZERO PUSH2 0x3EF JUMPI PUSH0 DUP1 REVERT JUMPDEST POP PUSH2 0x40A PUSH1 0x4 DUP1 CALLDATASIZE SUB DUP2 ADD SWAP1 PUSH2 0x405 SWAP2 SWAP1 PUSH2 0x247A JUMP JUMPDEST PUSH2 0xB3E JUMP JUMPDEST STOP JUMPDEST CALLVALUE DUP1 ISZERO PUSH2 0x417 JUMPI PUSH0 DUP1 REVERT JUMPDEST POP PUSH2 0x432 PUSH1 0x4 DUP1 CALLDATASIZE SUB DUP2 ADD SWAP1 PUSH2 0x42D SWAP2 SWAP1 PUSH2 0x2096 JUMP JUMPDEST PUSH2 0xB54 JUMP JUMPDEST STOP JUMPDEST CALLVALUE DUP1 ISZERO PUSH2 0x43F JUMPI PUSH0 DUP1 REVERT JUMPDEST POP PUSH2 0x45A PUSH1 0x4 DUP1 CALLDATASIZE SUB DUP2 ADD SWAP1 PUSH2 0x455 SWAP2 SWAP1 PUSH2 0x2556 JUMP JUMPDEST PUSH2 0xBED JUMP JUMPDEST STOP JUMPDEST CALLVALUE DUP1 ISZERO PUSH2 0x467 JUMPI PUSH0 DUP1 REVERT JUMPDEST POP PUSH2 0x470 PUSH2 0xC0A JUMP JUMPDEST PUSH1 0x40 MLOAD PUSH2 0x47D SWAP2 SWAP1 PUSH2 0x2190 JUMP JUMPDEST PUSH1 0x40 MLOAD DUP1 SWAP2 SUB SWAP1 RETURN JUMPDEST CALLVALUE DUP1 ISZERO PUSH2 0x491 JUMPI PUSH0 DUP1 REVERT JUMPDEST POP PUSH2 0x4AC PUSH1 0x4 DUP1 CALLDATASIZE SUB DUP2 ADD SWAP1 PUSH2 0x4A7 SWAP2 SWAP1 PUSH2 0x2096 JUMP JUMPDEST PUSH2 0xC42 JUMP JUMPDEST PUSH1 0x40 MLOAD PUSH2 0x4B9 SWAP2 SWAP1 PUSH2 0x2043 JUMP JUMPDEST PUSH1 0x40 MLOAD DUP1 SWAP2 SUB SWAP1 RETURN JUMPDEST CALLVALUE DUP1 ISZERO PUSH2 0x4CD JUMPI PUSH0 DUP1 REVERT JUMPDEST POP PUSH2 0x4E8 PUSH1 0x4 DUP1 CALLDATASIZE SUB DUP2 ADD SWAP1 PUSH2 0x4E3 SWAP2 SWAP1 PUSH2 0x2096 JUMP JUMPDEST PUSH2 0xCA8 JUMP JUMPDEST PUSH1 0x40 MLOAD PUSH2 0x4FC SWAP9 SWAP8 SWAP7 SWAP6 SWAP5 SWAP4 SWAP3 SWAP2 SWAP1 PUSH2 0x2649 JUMP JUMPDEST PUSH1 0x40 MLOAD DUP1 SWAP2 SUB SWAP1 RETURN JUMPDEST CALLVALUE DUP1 ISZERO PUSH2 0x510 JUMPI PUSH0 DUP1 REVERT JUMPDEST POP PUSH2 0x519 PUSH2 0xEA9 JUMP JUMPDEST PUSH1 0x40 MLOAD PUSH2 0x526 SWAP2 SWAP1 PUSH2 0x2190 JUMP JUMPDEST PUSH1 0x40 MLOAD DUP1 SWAP2 SUB SWAP1 RETURN JUMPDEST CALLVALUE DUP1 ISZERO PUSH2 0x53A JUMPI PUSH0 DUP1 REVERT JUMPDEST POP PUSH2 0x543 PUSH2 0xF55 JUMP JUMPDEST PUSH1 0x40 MLOAD PUSH2 0x550 SWAP2 SWAP1 PUSH2 0x2100 JUMP JUMPDEST PUSH1 0x40 MLOAD DUP1 SWAP2 SUB SWAP1 RETURN JUMPDEST CALLVALUE DUP1 ISZERO PUSH2 0x564 JUMPI PUSH0 DUP1 REVERT JUMPDEST POP PUSH2 0x57F PUSH1 0x4 DUP1 CALLDATASIZE SUB DUP2 ADD SWAP1 PUSH2 0x57A SWAP2 SWAP1 PUSH2 0x26DA JUMP JUMPDEST PUSH2 0xF7A JUMP JUMPDEST PUSH1 0x40 MLOAD PUSH2 0x58C SWAP2 SWAP1 PUSH2 0x1FA0 JUMP JUMPDEST PUSH1 0x40 MLOAD DUP1 SWAP2 SUB SWAP1 RETURN JUMPDEST PUSH0 PUSH32 0x80AC58CD00000000000000000000000000000000000000000000000000000000 PUSH28 0xFFFFFFFFFFFFFFFFFFFFFFFFFFFFFFFFFFFFFFFFFFFFFFFFFFFFFFFF NOT AND DUP3 PUSH28 0xFFFFFFFFFFFFFFFFFFFFFFFFFFFFFFFFFFFFFFFFFFFFFFFFFFFFFFFF NOT AND EQ DUP1 PUSH2 0x65F JUMPI POP PUSH32 0x5B5E139F00000000000000000000000000000000000000000000000000000000 PUSH28 0xFFFFFFFFFFFFFFFFFFFFFFFFFFFFFFFFFFFFFFFFFFFFFFFFFFFFFFFF NOT AND DUP3 PUSH28 0xFFFFFFFFFFFFFFFFFFFFFFFFFFFFFFFFFFFFFFFFFFFFFFFFFFFFFFFF NOT AND EQ JUMPDEST DUP1 PUSH2 0x66F JUMPI POP PUSH2 0x66E DUP3 PUSH2 0x1008 JUMP JUMPDEST JUMPDEST SWAP1 POP SWAP2 SWAP1 POP JUMP JUMPDEST PUSH1 0x60 PUSH0 DUP1 SLOAD PUSH2 0x684 SWAP1 PUSH2 0x2745 JUMP JUMPDEST DUP1 PUSH1 0x1F ADD PUSH1 0x20 DUP1 SWAP2 DIV MUL PUSH1 0x20 ADD PUSH1 0x40 MLOAD SWAP1 DUP2 ADD PUSH1 0x40 MSTORE DUP1 SWAP3 SWAP2 SWAP1 DUP2 DUP2 MSTORE PUSH1 0x20 ADD DUP3 DUP1 SLOAD PUSH2 0x6B0 SWAP1 PUSH2 0x2745 JUMP JUMPDEST DUP1 ISZERO PUSH2 0x6FB JUMPI DUP1 PUSH1 0x1F LT PUSH2 0x6D2 JUMPI PUSH2 0x100 DUP1 DUP4 SLOAD DIV MUL DUP4 MSTORE SWAP2 PUSH1 0x20 ADD SWAP2 PUSH2 0x6FB JUMP JUMPDEST DUP3 ADD SWAP2 SWAP1 PUSH0 MSTORE PUSH1 0x20 PUSH0 KECCAK256 SWAP1 JUMPDEST DUP2 SLOAD DUP2 MSTORE SWAP1 PUSH1 0x1 ADD SWAP1 PUSH1 0x20 ADD DUP1 DUP4 GT PUSH2 0x6DE JUMPI DUP3 SWAP1 SUB PUSH1 0x1F AND DUP3 ADD SWAP2 JUMPDEST POP POP POP POP POP SWAP1 POP SWAP1 JUMP JUMPDEST PUSH0 PUSH2 0x70F DUP3 PUSH2 0x1071 JUMP JUMPDEST POP PUSH2 0x719 DUP3 PUSH2 0x10F7 JUMP JUMPDEST SWAP1 POP SWAP2 SWAP1 POP JUMP JUMPDEST PUSH2 0x732 DUP3 DUP3 PUSH2 0x72D PUSH2 0x1130 JUMP JUMPDEST PUSH2 0x1137 JUMP JUMPDEST POP POP JUMP JUMPDEST PUSH0 SELFBALANCE SWAP1 POP SWAP1 JUMP JUMPDEST PUSH0 PUSH20 0xFFFFFFFFFFFFFFFFFFFFFFFFFFFFFFFFFFFFFFFF AND DUP3 PUSH20 0xFFFFFFFFFFFFFFFFFFFFFFFFFFFFFFFFFFFFFFFF AND SUB PUSH2 0x7AD JUMPI PUSH0 PUSH1 0x40 MLOAD PUSH32 0x64A0AE9200000000000000000000000000000000000000000000000000000000 DUP2 MSTORE PUSH1 0x4 ADD PUSH2 0x7A4 SWAP2 SWAP1 PUSH2 0x2100 JUMP JUMPDEST PUSH1 0x40 MLOAD DUP1 SWAP2 SUB SWAP1 REVERT JUMPDEST PUSH0 PUSH2 0x7C0 DUP4 DUP4 PUSH2 0x7BB PUSH2 0x1130 JUMP JUMPDEST PUSH2 0x1149 JUMP JUMPDEST SWAP1 POP DUP4 PUSH20 0xFFFFFFFFFFFFFFFFFFFFFFFFFFFFFFFFFFFFFFFF AND DUP2 PUSH20 0xFFFFFFFFFFFFFFFFFFFFFFFFFFFFFFFFFFFFFFFF AND EQ PUSH2 0x836 JUMPI DUP4 DUP3 DUP3 PUSH1 0x40 MLOAD PUSH32 0x64283D7B00000000000000000000000000000000000000000000000000000000 DUP2 MSTORE PUSH1 0x4 ADD PUSH2 0x82D SWAP4 SWAP3 SWAP2 SWAP1 PUSH2 0x2775 JUMP JUMPDEST PUSH1 0x40 MLOAD DUP1 SWAP2 SUB SWAP1 REVERT JUMPDEST POP POP POP POP JUMP JUMPDEST PUSH1 0xA SLOAD DUP2 JUMP JUMPDEST PUSH1 0xB PUSH0 SWAP1 SLOAD SWAP1 PUSH2 0x100 EXP SWAP1 DIV PUSH20 0xFFFFFFFFFFFFFFFFFFFFFFFFFFFFFFFFFFFFFFFF AND PUSH20 0xFFFFFFFFFFFFFFFFFFFFFFFFFFFFFFFFFFFFFFFF AND CALLER PUSH20 0xFFFFFFFFFFFFFFFFFFFFFFFFFFFFFFFFFFFFFFFF AND EQ PUSH2 0x8D1 JUMPI PUSH1 0x40 MLOAD PUSH32 0x8C379A000000000000000000000000000000000000000000000000000000000 DUP2 MSTORE PUSH1 0x4 ADD PUSH2 0x8C8 SWAP1 PUSH2 0x281A JUMP JUMPDEST PUSH1 0x40 MLOAD DUP1 SWAP2 SUB SWAP1 REVERT JUMPDEST PUSH1 0xB PUSH0 SWAP1 SLOAD SWAP1 PUSH2 0x100 EXP SWAP1 DIV PUSH20 0xFFFFFFFFFFFFFFFFFFFFFFFFFFFFFFFFFFFFFFFF AND PUSH20 0xFFFFFFFFFFFFFFFFFFFFFFFFFFFFFFFFFFFFFFFF AND PUSH2 0x8FC SELFBALANCE SWAP1 DUP2 ISZERO MUL SWAP1 PUSH1 0x40 MLOAD PUSH0 PUSH1 0x40 MLOAD DUP1 DUP4 SUB DUP2 DUP6 DUP9 DUP9 CALL SWAP4 POP POP POP POP ISZERO DUP1 ISZERO PUSH2 0x935 JUMPI RETURNDATASIZE PUSH0 DUP1 RETURNDATACOPY RETURNDATASIZE PUSH0 REVERT JUMPDEST POP JUMP JUMPDEST PUSH2 0x952 DUP4 DUP4 DUP4 PUSH1 0x40 MLOAD DUP1 PUSH1 0x20 ADD PUSH1 0x40 MSTORE DUP1 PUSH0 DUP2 MSTORE POP PUSH2 0xBED JUMP JUMPDEST POP POP POP JUMP JUMPDEST PUSH0 PUSH2 0x960 PUSH2 0xC0A JUMP JUMPDEST SWAP1 POP DUP1 CALLVALUE LT ISZERO PUSH2 0x9A5 JUMPI PUSH1 0x40 MLOAD PUSH32 0x8C379A000000000000000000000000000000000000000000000000000000000 DUP2 MSTORE PUSH1 0x4 ADD PUSH2 0x99C SWAP1 PUSH2 0x2882 JUMP JUMPDEST PUSH1 0x40 MLOAD DUP1 SWAP2 SUB SWAP1 REVERT JUMPDEST PUSH2 0x9B3 DUP8 DUP8 DUP8 DUP8 DUP8 DUP8 PUSH2 0x1354 JUMP JUMPDEST POP POP POP POP POP POP POP JUMP JUMPDEST PUSH1 0x9 SLOAD DUP2 JUMP JUMPDEST PUSH0 PUSH2 0x9CC DUP3 PUSH2 0x1071 JUMP JUMPDEST SWAP1 POP SWAP2 SWAP1 POP JUMP JUMPDEST PUSH0 DUP1 PUSH20 0xFFFFFFFFFFFFFFFFFFFFFFFFFFFFFFFFFFFFFFFF AND DUP3 PUSH20 0xFFFFFFFFFFFFFFFFFFFFFFFFFFFFFFFFFFFFFFFF AND SUB PUSH2 0xA44 JUMPI PUSH0 PUSH1 0x40 MLOAD PUSH32 0x89C62B6400000000000000000000000000000000000000000000000000000000 DUP2 MSTORE PUSH1 0x4 ADD PUSH2 0xA3B SWAP2 SWAP1 PUSH2 0x2100 JUMP JUMPDEST PUSH1 0x40 MLOAD DUP1 SWAP2 SUB SWAP1 REVERT JUMPDEST PUSH1 0x3 PUSH0 DUP4 PUSH20 0xFFFFFFFFFFFFFFFFFFFFFFFFFFFFFFFFFFFFFFFF AND PUSH20 0xFFFFFFFFFFFFFFFFFFFFFFFFFFFFFFFFFFFFFFFF AND DUP2 MSTORE PUSH1 0x20 ADD SWAP1 DUP2 MSTORE PUSH1 0x20 ADD PUSH0 KECCAK256 SLOAD SWAP1 POP SWAP2 SWAP1 POP JUMP JUMPDEST PUSH1 0xB PUSH0 SWAP1 SLOAD SWAP1 PUSH2 0x100 EXP SWAP1 DIV PUSH20 0xFFFFFFFFFFFFFFFFFFFFFFFFFFFFFFFFFFFFFFFF AND DUP2 JUMP JUMPDEST PUSH1 0x60 PUSH1 0x1 DUP1 SLOAD PUSH2 0xABD SWAP1 PUSH2 0x2745 JUMP JUMPDEST DUP1 PUSH1 0x1F ADD PUSH1 0x20 DUP1 SWAP2 DIV MUL PUSH1 0x20 ADD PUSH1 0x40 MLOAD SWAP1 DUP2 ADD PUSH1 0x40 MSTORE DUP1 SWAP3 SWAP2 SWAP1 DUP2 DUP2 MSTORE PUSH1 0x20 ADD DUP3 DUP1 SLOAD PUSH2 0xAE9 SWAP1 PUSH2 0x2745 JUMP JUMPDEST DUP1 ISZERO PUSH2 0xB34 JUMPI DUP1 PUSH1 0x1F LT PUSH2 0xB0B JUMPI PUSH2 0x100 DUP1 DUP4 SLOAD DIV MUL DUP4 MSTORE SWAP2 PUSH1 0x20 ADD SWAP2 PUSH2 0xB34 JUMP JUMPDEST DUP3 ADD SWAP2 SWAP1 PUSH0 MSTORE PUSH1 0x20 PUSH0 KECCAK256 SWAP1 JUMPDEST DUP2 SLOAD DUP2 MSTORE SWAP1 PUSH1 0x1 ADD SWAP1 PUSH1 0x20 ADD DUP1 DUP4 GT PUSH2 0xB17 JUMPI DUP3 SWAP1 SUB PUSH1 0x1F AND DUP3 ADD SWAP2 JUMPDEST POP POP POP POP POP SWAP1 POP SWAP1 JUMP JUMPDEST PUSH2 0xB50 PUSH2 0xB49 PUSH2 0x1130 JUMP JUMPDEST DUP4 DUP4 PUSH2 0x150A JUMP JUMPDEST POP POP JUMP JUMPDEST PUSH1 0xB PUSH0 SWAP1 SLOAD SWAP1 PUSH2 0x100 EXP SWAP1 DIV PUSH20 0xFFFFFFFFFFFFFFFFFFFFFFFFFFFFFFFFFFFFFFFF AND PUSH20 0xFFFFFFFFFFFFFFFFFFFFFFFFFFFFFFFFFFFFFFFF AND CALLER PUSH20 0xFFFFFFFFFFFFFFFFFFFFFFFFFFFFFFFFFFFFFFFF AND EQ PUSH2 0xBE3 JUMPI PUSH1 0x40 MLOAD PUSH32 0x8C379A000000000000000000000000000000000000000000000000000000000 DUP2 MSTORE PUSH1 0x4 ADD PUSH2 0xBDA SWAP1 PUSH2 0x281A JUMP JUMPDEST PUSH1 0x40 MLOAD DUP1 SWAP2 SUB SWAP1 REVERT JUMPDEST DUP1 PUSH1 0xA DUP2 SWAP1 SSTORE POP POP JUMP JUMPDEST PUSH2 0xBF8 DUP5 DUP5 DUP5 PUSH2 0x73D JUMP JUMPDEST PUSH2 0xC04 DUP5 DUP5 DUP5 DUP5 PUSH2 0x1673 JUMP JUMPDEST POP POP POP POP JUMP JUMPDEST PUSH0 DUP1 PUSH2 0xC14 PUSH2 0xEA9 JUMP JUMPDEST SWAP1 POP PUSH0 DUP2 PUSH8 0xDE0B6B3A7640000 PUSH1 0xA SLOAD PUSH2 0xC2E SWAP2 SWAP1 PUSH2 0x28CD JUMP JUMPDEST PUSH2 0xC38 SWAP2 SWAP1 PUSH2 0x293B JUMP JUMPDEST SWAP1 POP DUP1 SWAP3 POP POP POP SWAP1 JUMP JUMPDEST PUSH1 0x60 PUSH2 0xC4D DUP3 PUSH2 0x1071 JUMP JUMPDEST POP PUSH0 PUSH2 0xC57 PUSH2 0x1825 JUMP JUMPDEST SWAP1 POP PUSH0 DUP2 MLOAD GT PUSH2 0xC75 JUMPI PUSH1 0x40 MLOAD DUP1 PUSH1 0x20 ADD PUSH1 0x40 MSTORE DUP1 PUSH0 DUP2 MSTORE POP PUSH2 0xCA0 JUMP JUMPDEST DUP1 PUSH2 0xC7F DUP5 PUSH2 0x183B JUMP JUMPDEST PUSH1 0x40 MLOAD PUSH1 0x20 ADD PUSH2 0xC90 SWAP3 SWAP2 SWAP1 PUSH2 0x29A5 JUMP JUMPDEST PUSH1 0x40 MLOAD PUSH1 0x20 DUP2 DUP4 SUB SUB DUP2 MSTORE SWAP1 PUSH1 0x40 MSTORE JUMPDEST SWAP2 POP POP SWAP2 SWAP1 POP JUMP JUMPDEST PUSH1 0x8 PUSH1 0x20 MSTORE DUP1 PUSH0 MSTORE PUSH1 0x40 PUSH0 KECCAK256 PUSH0 SWAP2 POP SWAP1 POP DUP1 PUSH0 ADD SLOAD SWAP1 DUP1 PUSH1 0x1 ADD DUP1 SLOAD PUSH2 0xCCD SWAP1 PUSH2 0x2745 JUMP JUMPDEST DUP1 PUSH1 0x1F ADD PUSH1 0x20 DUP1 SWAP2 DIV MUL PUSH1 0x20 ADD PUSH1 0x40 MLOAD SWAP1 DUP2 ADD PUSH1 0x40 MSTORE DUP1 SWAP3 SWAP2 SWAP1 DUP2 DUP2 MSTORE PUSH1 0x20 ADD DUP3 DUP1 SLOAD PUSH2 0xCF9 SWAP1 PUSH2 0x2745 JUMP JUMPDEST DUP1 ISZERO PUSH2 0xD44 JUMPI DUP1 PUSH1 0x1F LT PUSH2 0xD1B JUMPI PUSH2 0x100 DUP1 DUP4 SLOAD DIV MUL DUP4 MSTORE SWAP2 PUSH1 0x20 ADD SWAP2 PUSH2 0xD44 JUMP JUMPDEST DUP3 ADD SWAP2 SWAP1 PUSH0 MSTORE PUSH1 0x20 PUSH0 KECCAK256 SWAP1 JUMPDEST DUP2 SLOAD DUP2 MSTORE SWAP1 PUSH1 0x1 ADD SWAP1 PUSH1 0x20 ADD DUP1 DUP4 GT PUSH2 0xD27 JUMPI DUP3 SWAP1 SUB PUSH1 0x1F AND DUP3 ADD SWAP2 JUMPDEST POP POP POP POP POP SWAP1 DUP1 PUSH1 0x2 ADD PUSH0 SWAP1 SLOAD SWAP1 PUSH2 0x100 EXP SWAP1 DIV PUSH1 0xFF AND SWAP1 DUP1 PUSH1 0x3 ADD DUP1 SLOAD PUSH2 0xD6B SWAP1 PUSH2 0x2745 JUMP JUMPDEST DUP1 PUSH1 0x1F ADD PUSH1 0x20 DUP1 SWAP2 DIV MUL PUSH1 0x20 ADD PUSH1 0x40 MLOAD SWAP1 DUP2 ADD PUSH1 0x40 MSTORE DUP1 SWAP3 SWAP2 SWAP1 DUP2 DUP2 MSTORE PUSH1 0x20 ADD DUP3 DUP1 SLOAD PUSH2 0xD97 SWAP1 PUSH2 0x2745 JUMP JUMPDEST DUP1 ISZERO PUSH2 0xDE2 JUMPI DUP1 PUSH1 0x1F LT PUSH2 0xDB9 JUMPI PUSH2 0x100 DUP1 DUP4 SLOAD DIV MUL DUP4 MSTORE SWAP2 PUSH1 0x20 ADD SWAP2 PUSH2 0xDE2 JUMP JUMPDEST DUP3 ADD SWAP2 SWAP1 PUSH0 MSTORE PUSH1 0x20 PUSH0 KECCAK256 SWAP1 JUMPDEST DUP2 SLOAD DUP2 MSTORE SWAP1 PUSH1 0x1 ADD SWAP1 PUSH1 0x20 ADD DUP1 DUP4 GT PUSH2 0xDC5 JUMPI DUP3 SWAP1 SUB PUSH1 0x1F AND DUP3 ADD SWAP2 JUMPDEST POP POP POP POP POP SWAP1 DUP1 PUSH1 0x4 ADD DUP1 SLOAD PUSH2 0xDF7 SWAP1 PUSH2 0x2745 JUMP JUMPDEST DUP1 PUSH1 0x1F ADD PUSH1 0x20 DUP1 SWAP2 DIV MUL PUSH1 0x20 ADD PUSH1 0x40 MLOAD SWAP1 DUP2 ADD PUSH1 0x40 MSTORE DUP1 SWAP3 SWAP2 SWAP1 DUP2 DUP2 MSTORE PUSH1 0x20 ADD DUP3 DUP1 SLOAD PUSH2 0xE23 SWAP1 PUSH2 0x2745 JUMP JUMPDEST DUP1 ISZERO PUSH2 0xE6E JUMPI DUP1 PUSH1 0x1F LT PUSH2 0xE45 JUMPI PUSH2 0x100 DUP1 DUP4 SLOAD DIV MUL DUP4 MSTORE SWAP2 PUSH1 0x20 ADD SWAP2 PUSH2 0xE6E JUMP JUMPDEST DUP3 ADD SWAP2 SWAP1 PUSH0 MSTORE PUSH1 0x20 PUSH0 KECCAK256 SWAP1 JUMPDEST DUP2 SLOAD DUP2 MSTORE SWAP1 PUSH1 0x1 ADD SWAP1 PUSH1 0x20 ADD DUP1 DUP4 GT PUSH2 0xE51 JUMPI DUP3 SWAP1 SUB PUSH1 0x1F AND DUP3 ADD SWAP2 JUMPDEST POP POP POP POP POP SWAP1 DUP1 PUSH1 0x5 ADD SLOAD SWAP1 DUP1 PUSH1 0x6 ADD SLOAD SWAP1 DUP1 PUSH1 0x7 ADD PUSH0 SWAP1 SLOAD SWAP1 PUSH2 0x100 EXP SWAP1 DIV PUSH20 0xFFFFFFFFFFFFFFFFFFFFFFFFFFFFFFFFFFFFFFFF AND SWAP1 POP DUP9 JUMP JUMPDEST PUSH0 DUP1 PUSH1 0x6 PUSH0 SWAP1 SLOAD SWAP1 PUSH2 0x100 EXP SWAP1 DIV PUSH20 0xFFFFFFFFFFFFFFFFFFFFFFFFFFFFFFFFFFFFFFFF AND PUSH20 0xFFFFFFFFFFFFFFFFFFFFFFFFFFFFFFFFFFFFFFFF AND PUSH4 0xFEAF968C PUSH1 0x40 MLOAD DUP2 PUSH4 0xFFFFFFFF AND PUSH1 0xE0 SHL DUP2 MSTORE PUSH1 0x4 ADD PUSH1 0xA0 PUSH1 0x40 MLOAD DUP1 DUP4 SUB DUP2 DUP7 GAS STATICCALL ISZERO DUP1 ISZERO PUSH2 0xF15 JUMPI RETURNDATASIZE PUSH0 DUP1 RETURNDATACOPY RETURNDATASIZE PUSH0 REVERT JUMPDEST POP POP POP POP PUSH1 0x40 MLOAD RETURNDATASIZE PUSH1 0x1F NOT PUSH1 0x1F DUP3 ADD AND DUP3 ADD DUP1 PUSH1 0x40 MSTORE POP DUP2 ADD SWAP1 PUSH2 0xF39 SWAP2 SWAP1 PUSH2 0x2A4E JUMP JUMPDEST POP POP POP SWAP2 POP POP PUSH4 0x5F5E100 DUP2 PUSH2 0xF4F SWAP2 SWAP1 PUSH2 0x2AC5 JUMP JUMPDEST SWAP2 POP POP SWAP1 JUMP JUMPDEST PUSH1 0x7 PUSH0 SWAP1 SLOAD SWAP1 PUSH2 0x100 EXP SWAP1 DIV PUSH20 0xFFFFFFFFFFFFFFFFFFFFFFFFFFFFFFFFFFFFFFFF AND DUP2 JUMP JUMPDEST PUSH0 PUSH1 0x5 PUSH0 DUP5 PUSH20 0xFFFFFFFFFFFFFFFFFFFFFFFFFFFFFFFFFFFFFFFF AND PUSH20 0xFFFFFFFFFFFFFFFFFFFFFFFFFFFFFFFFFFFFFFFF AND DUP2 MSTORE PUSH1 0x20 ADD SWAP1 DUP2 MSTORE PUSH1 0x20 ADD PUSH0 KECCAK256 PUSH0 DUP4 PUSH20 0xFFFFFFFFFFFFFFFFFFFFFFFFFFFFFFFFFFFFFFFF AND PUSH20 0xFFFFFFFFFFFFFFFFFFFFFFFFFFFFFFFFFFFFFFFF AND DUP2 MSTORE PUSH1 0x20 ADD SWAP1 DUP2 MSTORE PUSH1 0x20 ADD PUSH0 KECCAK256 PUSH0 SWAP1 SLOAD SWAP1 PUSH2 0x100 EXP SWAP1 DIV PUSH1 0xFF AND SWAP1 POP SWAP3 SWAP2 POP POP JUMP JUMPDEST PUSH0 PUSH32 0x1FFC9A700000000000000000000000000000000000000000000000000000000 PUSH28 0xFFFFFFFFFFFFFFFFFFFFFFFFFFFFFFFFFFFFFFFFFFFFFFFFFFFFFFFF NOT AND DUP3 PUSH28 0xFFFFFFFFFFFFFFFFFFFFFFFFFFFFFFFFFFFFFFFFFFFFFFFFFFFFFFFF NOT AND EQ SWAP1 POP SWAP2 SWAP1 POP JUMP JUMPDEST PUSH0 DUP1 PUSH2 0x107C DUP4 PUSH2 0x1905 JUMP JUMPDEST SWAP1 POP PUSH0 PUSH20 0xFFFFFFFFFFFFFFFFFFFFFFFFFFFFFFFFFFFFFFFF AND DUP2 PUSH20 0xFFFFFFFFFFFFFFFFFFFFFFFFFFFFFFFFFFFFFFFF AND SUB PUSH2 0x10EE JUMPI DUP3 PUSH1 0x40 MLOAD PUSH32 0x7E27328900000000000000000000000000000000000000000000000000000000 DUP2 MSTORE PUSH1 0x4 ADD PUSH2 0x10E5 SWAP2 SWAP1 PUSH2 0x2190 JUMP JUMPDEST PUSH1 0x40 MLOAD DUP1 SWAP2 SUB SWAP1 REVERT JUMPDEST DUP1 SWAP2 POP POP SWAP2 SWAP1 POP JUMP JUMPDEST PUSH0 PUSH1 0x4 PUSH0 DUP4 DUP2 MSTORE PUSH1 0x20 ADD SWAP1 DUP2 MSTORE PUSH1 0x20 ADD PUSH0 KECCAK256 PUSH0 SWAP1 SLOAD SWAP1 PUSH2 0x100 EXP SWAP1 DIV PUSH20 0xFFFFFFFFFFFFFFFFFFFFFFFFFFFFFFFFFFFFFFFF AND SWAP1 POP SWAP2 SWAP1 POP JUMP JUMPDEST PUSH0 CALLER SWAP1 POP SWAP1 JUMP JUMPDEST PUSH2 0x1144 DUP4 DUP4 DUP4 PUSH1 0x1 PUSH2 0x193E JUMP JUMPDEST POP POP POP JUMP JUMPDEST PUSH0 DUP1 PUSH2 0x1154 DUP5 PUSH2 0x1905 JUMP JUMPDEST SWAP1 POP PUSH0 PUSH20 0xFFFFFFFFFFFFFFFFFFFFFFFFFFFFFFFFFFFFFFFF AND DUP4 PUSH20 0xFFFFFFFFFFFFFFFFFFFFFFFFFFFFFFFFFFFFFFFF AND EQ PUSH2 0x1195 JUMPI PUSH2 0x1194 DUP2 DUP5 DUP7 PUSH2 0x1AFD JUMP JUMPDEST JUMPDEST PUSH0 PUSH20 0xFFFFFFFFFFFFFFFFFFFFFFFFFFFFFFFFFFFFFFFF AND DUP2 PUSH20 0xFFFFFFFFFFFFFFFFFFFFFFFFFFFFFFFFFFFFFFFF AND EQ PUSH2 0x1220 JUMPI PUSH2 0x11D4 PUSH0 DUP6 PUSH0 DUP1 PUSH2 0x193E JUMP JUMPDEST PUSH1 0x1 PUSH1 0x3 PUSH0 DUP4 PUSH20 0xFFFFFFFFFFFFFFFFFFFFFFFFFFFFFFFFFFFFFFFF AND PUSH20 0xFFFFFFFFFFFFFFFFFFFFFFFFFFFFFFFFFFFFFFFF AND DUP2 MSTORE PUSH1 0x20 ADD SWAP1 DUP2 MSTORE PUSH1 0x20 ADD PUSH0 KECCAK256 PUSH0 DUP3 DUP3 SLOAD SUB SWAP3 POP POP DUP2 SWAP1 SSTORE POP JUMPDEST PUSH0 PUSH20 0xFFFFFFFFFFFFFFFFFFFFFFFFFFFFFFFFFFFFFFFF AND DUP6 PUSH20 0xFFFFFFFFFFFFFFFFFFFFFFFFFFFFFFFFFFFFFFFF AND EQ PUSH2 0x129F JUMPI PUSH1 0x1 PUSH1 0x3 PUSH0 DUP8 PUSH20 0xFFFFFFFFFFFFFFFFFFFFFFFFFFFFFFFFFFFFFFFF AND PUSH20 0xFFFFFFFFFFFFFFFFFFFFFFFFFFFFFFFFFFFFFFFF AND DUP2 MSTORE PUSH1 0x20 ADD SWAP1 DUP2 MSTORE PUSH1 0x20 ADD PUSH0 KECCAK256 PUSH0 DUP3 DUP3 SLOAD ADD SWAP3 POP POP DUP2 SWAP1 SSTORE POP JUMPDEST DUP5 PUSH1 0x2 PUSH0 DUP7 DUP2 MSTORE PUSH1 0x20 ADD SWAP1 DUP2 MSTORE PUSH1 0x20 ADD PUSH0 KECCAK256 PUSH0 PUSH2 0x100 EXP DUP2 SLOAD DUP2 PUSH20 0xFFFFFFFFFFFFFFFFFFFFFFFFFFFFFFFFFFFFFFFF MUL NOT AND SWAP1 DUP4 PUSH20 0xFFFFFFFFFFFFFFFFFFFFFFFFFFFFFFFFFFFFFFFF AND MUL OR SWAP1 SSTORE POP DUP4 DUP6 PUSH20 0xFFFFFFFFFFFFFFFFFFFFFFFFFFFFFFFFFFFFFFFF AND DUP3 PUSH20 0xFFFFFFFFFFFFFFFFFFFFFFFFFFFFFFFFFFFFFFFF AND PUSH32 0xDDF252AD1BE2C89B69C2B068FC378DAA952BA7F163C4A11628F55A4DF523B3EF PUSH1 0x40 MLOAD PUSH1 0x40 MLOAD DUP1 SWAP2 SUB SWAP1 LOG4 DUP1 SWAP2 POP POP SWAP4 SWAP3 POP POP POP JUMP JUMPDEST PUSH0 PUSH2 0x135D PUSH2 0x1BC0 JUMP JUMPDEST SWAP1 POP PUSH1 0x40 MLOAD DUP1 PUSH2 0x100 ADD PUSH1 0x40 MSTORE DUP1 DUP3 DUP2 MSTORE PUSH1 0x20 ADD DUP9 DUP2 MSTORE PUSH1 0x20 ADD DUP8 PUSH1 0x3 DUP2 GT ISZERO PUSH2 0x138A JUMPI PUSH2 0x1389 PUSH2 0x25D6 JUMP JUMPDEST JUMPDEST DUP2 MSTORE PUSH1 0x20 ADD DUP7 DUP2 MSTORE PUSH1 0x20 ADD DUP6 DUP2 MSTORE PUSH1 0x20 ADD DUP5 DUP2 MSTORE PUSH1 0x20 ADD DUP4 DUP2 MSTORE PUSH1 0x20 ADD CALLER PUSH20 0xFFFFFFFFFFFFFFFFFFFFFFFFFFFFFFFFFFFFFFFF AND DUP2 MSTORE POP PUSH1 0x8 PUSH0 DUP4 DUP2 MSTORE PUSH1 0x20 ADD SWAP1 DUP2 MSTORE PUSH1 0x20 ADD PUSH0 KECCAK256 PUSH0 DUP3 ADD MLOAD DUP2 PUSH0 ADD SSTORE PUSH1 0x20 DUP3 ADD MLOAD DUP2 PUSH1 0x1 ADD SWAP1 DUP2 PUSH2 0x13EF SWAP2 SWAP1 PUSH2 0x2CCA JUMP JUMPDEST POP PUSH1 0x40 DUP3 ADD MLOAD DUP2 PUSH1 0x2 ADD PUSH0 PUSH2 0x100 EXP DUP2 SLOAD DUP2 PUSH1 0xFF MUL NOT AND SWAP1 DUP4 PUSH1 0x3 DUP2 GT ISZERO PUSH2 0x141A JUMPI PUSH2 0x1419 PUSH2 0x25D6 JUMP JUMPDEST JUMPDEST MUL OR SWAP1 SSTORE POP PUSH1 0x60 DUP3 ADD MLOAD DUP2 PUSH1 0x3 ADD SWAP1 DUP2 PUSH2 0x1434 SWAP2 SWAP1 PUSH2 0x2CCA JUMP JUMPDEST POP PUSH1 0x80 DUP3 ADD MLOAD DUP2 PUSH1 0x4 ADD SWAP1 DUP2 PUSH2 0x144A SWAP2 SWAP1 PUSH2 0x2CCA JUMP JUMPDEST POP PUSH1 0xA0 DUP3 ADD MLOAD DUP2 PUSH1 0x5 ADD SSTORE PUSH1 0xC0 DUP3 ADD MLOAD DUP2 PUSH1 0x6 ADD SSTORE PUSH1 0xE0 DUP3 ADD MLOAD DUP2 PUSH1 0x7 ADD PUSH0 PUSH2 0x100 EXP DUP2 SLOAD DUP2 PUSH20 0xFFFFFFFFFFFFFFFFFFFFFFFFFFFFFFFFFFFFFFFF MUL NOT AND SWAP1 DUP4 PUSH20 0xFFFFFFFFFFFFFFFFFFFFFFFFFFFFFFFFFFFFFFFF AND MUL OR SWAP1 SSTORE POP SWAP1 POP POP PUSH2 0x14B2 CALLER DUP3 PUSH2 0x1BF1 JUMP JUMPDEST CALLER PUSH20 0xFFFFFFFFFFFFFFFFFFFFFFFFFFFFFFFFFFFFFFFF AND DUP2 PUSH32 0x3C0AADACDB910E58FE38928AAD07E1B89DC0BAEE588D7CA1E9BBA80E1E3F3964 DUP10 PUSH1 0x40 MLOAD PUSH2 0x14F9 SWAP2 SWAP1 PUSH2 0x2043 JUMP JUMPDEST PUSH1 0x40 MLOAD DUP1 SWAP2 SUB SWAP1 LOG3 POP POP POP POP POP POP POP JUMP JUMPDEST PUSH0 PUSH20 0xFFFFFFFFFFFFFFFFFFFFFFFFFFFFFFFFFFFFFFFF AND DUP3 PUSH20 0xFFFFFFFFFFFFFFFFFFFFFFFFFFFFFFFFFFFFFFFF AND SUB PUSH2 0x157A JUMPI DUP2 PUSH1 0x40 MLOAD PUSH32 0x5B08BA1800000000000000000000000000000000000000000000000000000000 DUP2 MSTORE PUSH1 0x4 ADD PUSH2 0x1571 SWAP2 SWAP1 PUSH2 0x2100 JUMP JUMPDEST PUSH1 0x40 MLOAD DUP1 SWAP2 SUB SWAP1 REVERT JUMPDEST DUP1 PUSH1 0x5 PUSH0 DUP6 PUSH20 0xFFFFFFFFFFFFFFFFFFFFFFFFFFFFFFFFFFFFFFFF AND PUSH20 0xFFFFFFFFFFFFFFFFFFFFFFFFFFFFFFFFFFFFFFFF AND DUP2 MSTORE PUSH1 0x20 ADD SWAP1 DUP2 MSTORE PUSH1 0x20 ADD PUSH0 KECCAK256 PUSH0 DUP5 PUSH20 0xFFFFFFFFFFFFFFFFFFFFFFFFFFFFFFFFFFFFFFFF AND PUSH20 0xFFFFFFFFFFFFFFFFFFFFFFFFFFFFFFFFFFFFFFFF AND DUP2 MSTORE PUSH1 0x20 ADD SWAP1 DUP2 MSTORE PUSH1 0x20 ADD PUSH0 KECCAK256 PUSH0 PUSH2 0x100 EXP DUP2 SLOAD DUP2 PUSH1 0xFF MUL NOT AND SWAP1 DUP4 ISZERO ISZERO MUL OR SWAP1 SSTORE POP DUP2 PUSH20 0xFFFFFFFFFFFFFFFFFFFFFFFFFFFFFFFFFFFFFFFF AND DUP4 PUSH20 0xFFFFFFFFFFFFFFFFFFFFFFFFFFFFFFFFFFFFFFFF AND PUSH32 0x17307EAB39AB6107E8899845AD3D59BD9653F200F220920489CA2B5937696C31 DUP4 PUSH1 0x40 MLOAD PUSH2 0x1666 SWAP2 SWAP1 PUSH2 0x1FA0 JUMP JUMPDEST PUSH1 0x40 MLOAD DUP1 SWAP2 SUB SWAP1 LOG3 POP POP POP JUMP JUMPDEST PUSH0 DUP4 PUSH20 0xFFFFFFFFFFFFFFFFFFFFFFFFFFFFFFFFFFFFFFFF AND EXTCODESIZE GT ISZERO PUSH2 0x181F JUMPI DUP3 PUSH20 0xFFFFFFFFFFFFFFFFFFFFFFFFFFFFFFFFFFFFFFFF AND PUSH4 0x150B7A02 PUSH2 0x16B6 PUSH2 0x1130 JUMP JUMPDEST DUP7 DUP6 DUP6 PUSH1 0x40 MLOAD DUP6 PUSH4 0xFFFFFFFF AND PUSH1 0xE0 SHL DUP2 MSTORE PUSH1 0x4 ADD PUSH2 0x16D8 SWAP5 SWAP4 SWAP3 SWAP2 SWAP1 PUSH2 0x2DEB JUMP JUMPDEST PUSH1 0x20 PUSH1 0x40 MLOAD DUP1 DUP4 SUB DUP2 PUSH0 DUP8 GAS CALL SWAP3 POP POP POP DUP1 ISZERO PUSH2 0x1713 JUMPI POP PUSH1 0x40 MLOAD RETURNDATASIZE PUSH1 0x1F NOT PUSH1 0x1F DUP3 ADD AND DUP3 ADD DUP1 PUSH1 0x40 MSTORE POP DUP2 ADD SWAP1 PUSH2 0x1710 SWAP2 SWAP1 PUSH2 0x2E49 JUMP JUMPDEST PUSH1 0x1 JUMPDEST PUSH2 0x1794 JUMPI RETURNDATASIZE DUP1 PUSH0 DUP2 EQ PUSH2 0x1741 JUMPI PUSH1 0x40 MLOAD SWAP2 POP PUSH1 0x1F NOT PUSH1 0x3F RETURNDATASIZE ADD AND DUP3 ADD PUSH1 0x40 MSTORE RETURNDATASIZE DUP3 MSTORE RETURNDATASIZE PUSH0 PUSH1 0x20 DUP5 ADD RETURNDATACOPY PUSH2 0x1746 JUMP JUMPDEST PUSH1 0x60 SWAP2 POP JUMPDEST POP PUSH0 DUP2 MLOAD SUB PUSH2 0x178C JUMPI DUP4 PUSH1 0x40 MLOAD PUSH32 0x64A0AE9200000000000000000000000000000000000000000000000000000000 DUP2 MSTORE PUSH1 0x4 ADD PUSH2 0x1783 SWAP2 SWAP1 PUSH2 0x2100 JUMP JUMPDEST PUSH1 0x40 MLOAD DUP1 SWAP2 SUB SWAP1 REVERT JUMPDEST DUP1 MLOAD DUP2 PUSH1 0x20 ADD REVERT JUMPDEST PUSH4 0x150B7A02 PUSH1 0xE0 SHL PUSH28 0xFFFFFFFFFFFFFFFFFFFFFFFFFFFFFFFFFFFFFFFFFFFFFFFFFFFFFFFF NOT AND DUP2 PUSH28 0xFFFFFFFFFFFFFFFFFFFFFFFFFFFFFFFFFFFFFFFFFFFFFFFFFFFFFFFF NOT AND EQ PUSH2 0x181D JUMPI DUP4 PUSH1 0x40 MLOAD PUSH32 0x64A0AE9200000000000000000000000000000000000000000000000000000000 DUP2 MSTORE PUSH1 0x4 ADD PUSH2 0x1814 SWAP2 SWAP1 PUSH2 0x2100 JUMP JUMPDEST PUSH1 0x40 MLOAD DUP1 SWAP2 SUB SWAP1 REVERT JUMPDEST POP JUMPDEST POP POP POP POP JUMP JUMPDEST PUSH1 0x60 PUSH1 0x40 MLOAD DUP1 PUSH1 0x20 ADD PUSH1 0x40 MSTORE DUP1 PUSH0 DUP2 MSTORE POP SWAP1 POP SWAP1 JUMP JUMPDEST PUSH1 0x60 PUSH0 PUSH1 0x1 PUSH2 0x1849 DUP5 PUSH2 0x1CE4 JUMP JUMPDEST ADD SWAP1 POP PUSH0 DUP2 PUSH8 0xFFFFFFFFFFFFFFFF DUP2 GT ISZERO PUSH2 0x1867 JUMPI PUSH2 0x1866 PUSH2 0x2201 JUMP JUMPDEST JUMPDEST PUSH1 0x40 MLOAD SWAP1 DUP1 DUP3 MSTORE DUP1 PUSH1 0x1F ADD PUSH1 0x1F NOT AND PUSH1 0x20 ADD DUP3 ADD PUSH1 0x40 MSTORE DUP1 ISZERO PUSH2 0x1899 JUMPI DUP2 PUSH1 0x20 ADD PUSH1 0x1 DUP3 MUL DUP1 CALLDATASIZE DUP4 CALLDATACOPY DUP1 DUP3 ADD SWAP2 POP POP SWAP1 POP JUMPDEST POP SWAP1 POP PUSH0 DUP3 PUSH1 0x20 ADD DUP3 ADD SWAP1 POP JUMPDEST PUSH1 0x1 ISZERO PUSH2 0x18FA JUMPI DUP1 DUP1 PUSH1 0x1 SWAP1 SUB SWAP2 POP POP PUSH32 0x3031323334353637383961626364656600000000000000000000000000000000 PUSH1 0xA DUP7 MOD BYTE DUP2 MSTORE8 PUSH1 0xA DUP6 DUP2 PUSH2 0x18EF JUMPI PUSH2 0x18EE PUSH2 0x290E JUMP JUMPDEST JUMPDEST DIV SWAP5 POP PUSH0 DUP6 SUB PUSH2 0x18A6 JUMPI JUMPDEST DUP2 SWAP4 POP POP POP POP SWAP2 SWAP1 POP JUMP JUMPDEST PUSH0 PUSH1 0x2 PUSH0 DUP4 DUP2 MSTORE PUSH1 0x20 ADD SWAP1 DUP2 MSTORE PUSH1 0x20 ADD PUSH0 KECCAK256 PUSH0 SWAP1 SLOAD SWAP1 PUSH2 0x100 EXP SWAP1 DIV PUSH20 0xFFFFFFFFFFFFFFFFFFFFFFFFFFFFFFFFFFFFFFFF AND SWAP1 POP SWAP2 SWAP1 POP JUMP JUMPDEST DUP1 DUP1 PUSH2 0x1976 JUMPI POP PUSH0 PUSH20 0xFFFFFFFFFFFFFFFFFFFFFFFFFFFFFFFFFFFFFFFF AND DUP3 PUSH20 0xFFFFFFFFFFFFFFFFFFFFFFFFFFFFFFFFFFFFFFFF AND EQ ISZERO JUMPDEST ISZERO PUSH2 0x1AA8 JUMPI PUSH0 PUSH2 0x1985 DUP5 PUSH2 0x1071 JUMP JUMPDEST SWAP1 POP PUSH0 PUSH20 0xFFFFFFFFFFFFFFFFFFFFFFFFFFFFFFFFFFFFFFFF AND DUP4 PUSH20 0xFFFFFFFFFFFFFFFFFFFFFFFFFFFFFFFFFFFFFFFF AND EQ ISZERO DUP1 ISZERO PUSH2 0x19EF JUMPI POP DUP3 PUSH20 0xFFFFFFFFFFFFFFFFFFFFFFFFFFFFFFFFFFFFFFFF AND DUP2 PUSH20 0xFFFFFFFFFFFFFFFFFFFFFFFFFFFFFFFFFFFFFFFF AND EQ ISZERO JUMPDEST DUP1 ISZERO PUSH2 0x1A02 JUMPI POP PUSH2 0x1A00 DUP2 DUP5 PUSH2 0xF7A JUMP JUMPDEST ISZERO JUMPDEST ISZERO PUSH2 0x1A44 JUMPI DUP3 PUSH1 0x40 MLOAD PUSH32 0xA9FBF51F00000000000000000000000000000000000000000000000000000000 DUP2 MSTORE PUSH1 0x4 ADD PUSH2 0x1A3B SWAP2 SWAP1 PUSH2 0x2100 JUMP JUMPDEST PUSH1 0x40 MLOAD DUP1 SWAP2 SUB SWAP1 REVERT JUMPDEST DUP2 ISZERO PUSH2 0x1AA6 JUMPI DUP4 DUP6 PUSH20 0xFFFFFFFFFFFFFFFFFFFFFFFFFFFFFFFFFFFFFFFF AND DUP3 PUSH20 0xFFFFFFFFFFFFFFFFFFFFFFFFFFFFFFFFFFFFFFFF AND PUSH32 0x8C5BE1E5EBEC7D5BD14F71427D1E84F3DD0314C0F7B2291E5B200AC8C7C3B925 PUSH1 0x40 MLOAD PUSH1 0x40 MLOAD DUP1 SWAP2 SUB SWAP1 LOG4 JUMPDEST POP JUMPDEST DUP4 PUSH1 0x4 PUSH0 DUP6 DUP2 MSTORE PUSH1 0x20 ADD SWAP1 DUP2 MSTORE PUSH1 0x20 ADD PUSH0 KECCAK256 PUSH0 PUSH2 0x100 EXP DUP2 SLOAD DUP2 PUSH20 0xFFFFFFFFFFFFFFFFFFFFFFFFFFFFFFFFFFFFFFFF MUL NOT AND SWAP1 DUP4 PUSH20 0xFFFFFFFFFFFFFFFFFFFFFFFFFFFFFFFFFFFFFFFF AND MUL OR SWAP1 SSTORE POP POP POP POP POP JUMP JUMPDEST PUSH2 0x1B08 DUP4 DUP4 DUP4 PUSH2 0x1E35 JUMP JUMPDEST PUSH2 0x1BBB JUMPI PUSH0 PUSH20 0xFFFFFFFFFFFFFFFFFFFFFFFFFFFFFFFFFFFFFFFF AND DUP4 PUSH20 0xFFFFFFFFFFFFFFFFFFFFFFFFFFFFFFFFFFFFFFFF AND SUB PUSH2 0x1B7C JUMPI DUP1 PUSH1 0x40 MLOAD PUSH32 0x7E27328900000000000000000000000000000000000000000000000000000000 DUP2 MSTORE PUSH1 0x4 ADD PUSH2 0x1B73 SWAP2 SWAP1 PUSH2 0x2190 JUMP JUMPDEST PUSH1 0x40 MLOAD DUP1 SWAP2 SUB SWAP1 REVERT JUMPDEST DUP2 DUP2 PUSH1 0x40 MLOAD PUSH32 0x177E802F00000000000000000000000000000000000000000000000000000000 DUP2 MSTORE PUSH1 0x4 ADD PUSH2 0x1BB2 SWAP3 SWAP2 SWAP1 PUSH2 0x2E74 JUMP JUMPDEST PUSH1 0x40 MLOAD DUP1 SWAP2 SUB SWAP1 REVERT JUMPDEST POP POP POP JUMP JUMPDEST PUSH0 DUP1 PUSH1 0x1 PUSH1 0x9 SLOAD PUSH2 0x1BD1 SWAP2 SWAP1 PUSH2 0x2E9B JUMP JUMPDEST SWAP1 POP PUSH1 0x9 PUSH0 DUP2 SLOAD DUP1 SWAP3 SWAP2 SWAP1 PUSH2 0x1BE5 SWAP1 PUSH2 0x2ECE JUMP JUMPDEST SWAP2 SWAP1 POP SSTORE POP DUP1 SWAP2 POP POP SWAP1 JUMP JUMPDEST PUSH0 PUSH20 0xFFFFFFFFFFFFFFFFFFFFFFFFFFFFFFFFFFFFFFFF AND DUP3 PUSH20 0xFFFFFFFFFFFFFFFFFFFFFFFFFFFFFFFFFFFFFFFF AND SUB PUSH2 0x1C61 JUMPI PUSH0 PUSH1 0x40 MLOAD PUSH32 0x64A0AE9200000000000000000000000000000000000000000000000000000000 DUP2 MSTORE PUSH1 0x4 ADD PUSH2 0x1C58 SWAP2 SWAP1 PUSH2 0x2100 JUMP JUMPDEST PUSH1 0x40 MLOAD DUP1 SWAP2 SUB SWAP1 REVERT JUMPDEST PUSH0 PUSH2 0x1C6D DUP4 DUP4 PUSH0 PUSH2 0x1149 JUMP JUMPDEST SWAP1 POP PUSH0 PUSH20 0xFFFFFFFFFFFFFFFFFFFFFFFFFFFFFFFFFFFFFFFF AND DUP2 PUSH20 0xFFFFFFFFFFFFFFFFFFFFFFFFFFFFFFFFFFFFFFFF AND EQ PUSH2 0x1CDF JUMPI PUSH0 PUSH1 0x40 MLOAD PUSH32 0x73C6AC6E00000000000000000000000000000000000000000000000000000000 DUP2 MSTORE PUSH1 0x4 ADD PUSH2 0x1CD6 SWAP2 SWAP1 PUSH2 0x2100 JUMP JUMPDEST PUSH1 0x40 MLOAD DUP1 SWAP2 SUB SWAP1 REVERT JUMPDEST POP POP POP JUMP JUMPDEST PUSH0 DUP1 PUSH0 SWAP1 POP PUSH27 0x184F03E93FF9F4DAA797ED6E38ED64BF6A1F010000000000000000 DUP4 LT PUSH2 0x1D40 JUMPI PUSH27 0x184F03E93FF9F4DAA797ED6E38ED64BF6A1F010000000000000000 DUP4 DUP2 PUSH2 0x1D36 JUMPI PUSH2 0x1D35 PUSH2 0x290E JUMP JUMPDEST JUMPDEST DIV SWAP3 POP PUSH1 0x40 DUP2 ADD SWAP1 POP JUMPDEST PUSH14 0x4EE2D6D415B85ACEF8100000000 DUP4 LT PUSH2 0x1D7D JUMPI PUSH14 0x4EE2D6D415B85ACEF8100000000 DUP4 DUP2 PUSH2 0x1D73 JUMPI PUSH2 0x1D72 PUSH2 0x290E JUMP JUMPDEST JUMPDEST DIV SWAP3 POP PUSH1 0x20 DUP2 ADD SWAP1 POP JUMPDEST PUSH7 0x2386F26FC10000 DUP4 LT PUSH2 0x1DAC JUMPI PUSH7 0x2386F26FC10000 DUP4 DUP2 PUSH2 0x1DA2 JUMPI PUSH2 0x1DA1 PUSH2 0x290E JUMP JUMPDEST JUMPDEST DIV SWAP3 POP PUSH1 0x10 DUP2 ADD SWAP1 POP JUMPDEST PUSH4 0x5F5E100 DUP4 LT PUSH2 0x1DD5 JUMPI PUSH4 0x5F5E100 DUP4 DUP2 PUSH2 0x1DCB JUMPI PUSH2 0x1DCA PUSH2 0x290E JUMP JUMPDEST JUMPDEST DIV SWAP3 POP PUSH1 0x8 DUP2 ADD SWAP1 POP JUMPDEST PUSH2 0x2710 DUP4 LT PUSH2 0x1DFA JUMPI PUSH2 0x2710 DUP4 DUP2 PUSH2 0x1DF0 JUMPI PUSH2 0x1DEF PUSH2 0x290E JUMP JUMPDEST JUMPDEST DIV SWAP3 POP PUSH1 0x4 DUP2 ADD SWAP1 POP JUMPDEST PUSH1 0x64 DUP4 LT PUSH2 0x1E1D JUMPI PUSH1 0x64 DUP4 DUP2 PUSH2 0x1E13 JUMPI PUSH2 0x1E12 PUSH2 0x290E JUMP JUMPDEST JUMPDEST DIV SWAP3 POP PUSH1 0x2 DUP2 ADD SWAP1 POP JUMPDEST PUSH1 0xA DUP4 LT PUSH2 0x1E2C JUMPI PUSH1 0x1 DUP2 ADD SWAP1 POP JUMPDEST DUP1 SWAP2 POP POP SWAP2 SWAP1 POP JUMP JUMPDEST PUSH0 DUP1 PUSH20 0xFFFFFFFFFFFFFFFFFFFFFFFFFFFFFFFFFFFFFFFF AND DUP4 PUSH20 0xFFFFFFFFFFFFFFFFFFFFFFFFFFFFFFFFFFFFFFFF AND EQ ISZERO DUP1 ISZERO PUSH2 0x1EEC JUMPI POP DUP3 PUSH20 0xFFFFFFFFFFFFFFFFFFFFFFFFFFFFFFFFFFFFFFFF AND DUP5 PUSH20 0xFFFFFFFFFFFFFFFFFFFFFFFFFFFFFFFFFFFFFFFF AND EQ DUP1 PUSH2 0x1EAD JUMPI POP PUSH2 0x1EAC DUP5 DUP5 PUSH2 0xF7A JUMP JUMPDEST JUMPDEST DUP1 PUSH2 0x1EEB JUMPI POP DUP3 PUSH20 0xFFFFFFFFFFFFFFFFFFFFFFFFFFFFFFFFFFFFFFFF AND PUSH2 0x1ED3 DUP4 PUSH2 0x10F7 JUMP JUMPDEST PUSH20 0xFFFFFFFFFFFFFFFFFFFFFFFFFFFFFFFFFFFFFFFF AND EQ JUMPDEST JUMPDEST SWAP1 POP SWAP4 SWAP3 POP POP POP JUMP JUMPDEST PUSH0 PUSH1 0x40 MLOAD SWAP1 POP SWAP1 JUMP JUMPDEST PUSH0 DUP1 REVERT JUMPDEST PUSH0 DUP1 REVERT JUMPDEST PUSH0 PUSH32 0xFFFFFFFF00000000000000000000000000000000000000000000000000000000 DUP3 AND SWAP1 POP SWAP2 SWAP1 POP JUMP JUMPDEST PUSH2 0x1F3A DUP2 PUSH2 0x1F06 JUMP JUMPDEST DUP2 EQ PUSH2 0x1F44 JUMPI PUSH0 DUP1 REVERT JUMPDEST POP JUMP JUMPDEST PUSH0 DUP2 CALLDATALOAD SWAP1 POP PUSH2 0x1F55 DUP2 PUSH2 0x1F31 JUMP JUMPDEST SWAP3 SWAP2 POP POP JUMP JUMPDEST PUSH0 PUSH1 0x20 DUP3 DUP5 SUB SLT ISZERO PUSH2 0x1F70 JUMPI PUSH2 0x1F6F PUSH2 0x1EFE JUMP JUMPDEST JUMPDEST PUSH0 PUSH2 0x1F7D DUP5 DUP3 DUP6 ADD PUSH2 0x1F47 JUMP JUMPDEST SWAP2 POP POP SWAP3 SWAP2 POP POP JUMP JUMPDEST PUSH0 DUP2 ISZERO ISZERO SWAP1 POP SWAP2 SWAP1 POP JUMP JUMPDEST PUSH2 0x1F9A DUP2 PUSH2 0x1F86 JUMP JUMPDEST DUP3 MSTORE POP POP JUMP JUMPDEST PUSH0 PUSH1 0x20 DUP3 ADD SWAP1 POP PUSH2 0x1FB3 PUSH0 DUP4 ADD DUP5 PUSH2 0x1F91 JUMP JUMPDEST SWAP3 SWAP2 POP POP JUMP JUMPDEST PUSH0 DUP2 MLOAD SWAP1 POP SWAP2 SWAP1 POP JUMP JUMPDEST PUSH0 DUP3 DUP3 MSTORE PUSH1 0x20 DUP3 ADD SWAP1 POP SWAP3 SWAP2 POP POP JUMP JUMPDEST PUSH0 JUMPDEST DUP4 DUP2 LT ISZERO PUSH2 0x1FF0 JUMPI DUP1 DUP3 ADD MLOAD DUP2 DUP5 ADD MSTORE PUSH1 0x20 DUP2 ADD SWAP1 POP PUSH2 0x1FD5 JUMP JUMPDEST PUSH0 DUP5 DUP5 ADD MSTORE POP POP POP POP JUMP JUMPDEST PUSH0 PUSH1 0x1F NOT PUSH1 0x1F DUP4 ADD AND SWAP1 POP SWAP2 SWAP1 POP JUMP JUMPDEST PUSH0 PUSH2 0x2015 DUP3 PUSH2 0x1FB9 JUMP JUMPDEST PUSH2 0x201F DUP2 DUP6 PUSH2 0x1FC3 JUMP JUMPDEST SWAP4 POP PUSH2 0x202F DUP2 DUP6 PUSH1 0x20 DUP7 ADD PUSH2 0x1FD3 JUMP JUMPDEST PUSH2 0x2038 DUP2 PUSH2 0x1FFB JUMP JUMPDEST DUP5 ADD SWAP2 POP POP SWAP3 SWAP2 POP POP JUMP JUMPDEST PUSH0 PUSH1 0x20 DUP3 ADD SWAP1 POP DUP2 DUP2 SUB PUSH0 DUP4 ADD MSTORE PUSH2 0x205B DUP2 DUP5 PUSH2 0x200B JUMP JUMPDEST SWAP1 POP SWAP3 SWAP2 POP POP JUMP JUMPDEST PUSH0 DUP2 SWAP1 POP SWAP2 SWAP1 POP JUMP JUMPDEST PUSH2 0x2075 DUP2 PUSH2 0x2063 JUMP JUMPDEST DUP2 EQ PUSH2 0x207F JUMPI PUSH0 DUP1 REVERT JUMPDEST POP JUMP JUMPDEST PUSH0 DUP2 CALLDATALOAD SWAP1 POP PUSH2 0x2090 DUP2 PUSH2 0x206C JUMP JUMPDEST SWAP3 SWAP2 POP POP JUMP JUMPDEST PUSH0 PUSH1 0x20 DUP3 DUP5 SUB SLT ISZERO PUSH2 0x20AB JUMPI PUSH2 0x20AA PUSH2 0x1EFE JUMP JUMPDEST JUMPDEST PUSH0 PUSH2 0x20B8 DUP5 DUP3 DUP6 ADD PUSH2 0x2082 JUMP JUMPDEST SWAP2 POP POP SWAP3 SWAP2 POP POP JUMP JUMPDEST PUSH0 PUSH20 0xFFFFFFFFFFFFFFFFFFFFFFFFFFFFFFFFFFFFFFFF DUP3 AND SWAP1 POP SWAP2 SWAP1 POP JUMP JUMPDEST PUSH0 PUSH2 0x20EA DUP3 PUSH2 0x20C1 JUMP JUMPDEST SWAP1 POP SWAP2 SWAP1 POP JUMP JUMPDEST PUSH2 0x20FA DUP2 PUSH2 0x20E0 JUMP JUMPDEST DUP3 MSTORE POP POP JUMP JUMPDEST PUSH0 PUSH1 0x20 DUP3 ADD SWAP1 POP PUSH2 0x2113 PUSH0 DUP4 ADD DUP5 PUSH2 0x20F1 JUMP JUMPDEST SWAP3 SWAP2 POP POP JUMP JUMPDEST PUSH2 0x2122 DUP2 PUSH2 0x20E0 JUMP JUMPDEST DUP2 EQ PUSH2 0x212C JUMPI PUSH0 DUP1 REVERT JUMPDEST POP JUMP JUMPDEST PUSH0 DUP2 CALLDATALOAD SWAP1 POP PUSH2 0x213D DUP2 PUSH2 0x2119 JUMP JUMPDEST SWAP3 SWAP2 POP POP JUMP JUMPDEST PUSH0 DUP1 PUSH1 0x40 DUP4 DUP6 SUB SLT ISZERO PUSH2 0x2159 JUMPI PUSH2 0x2158 PUSH2 0x1EFE JUMP JUMPDEST JUMPDEST PUSH0 PUSH2 0x2166 DUP6 DUP3 DUP7 ADD PUSH2 0x212F JUMP JUMPDEST SWAP3 POP POP PUSH1 0x20 PUSH2 0x2177 DUP6 DUP3 DUP7 ADD PUSH2 0x2082 JUMP JUMPDEST SWAP2 POP POP SWAP3 POP SWAP3 SWAP1 POP JUMP JUMPDEST PUSH2 0x218A DUP2 PUSH2 0x2063 JUMP JUMPDEST DUP3 MSTORE POP POP JUMP JUMPDEST PUSH0 PUSH1 0x20 DUP3 ADD SWAP1 POP PUSH2 0x21A3 PUSH0 DUP4 ADD DUP5 PUSH2 0x2181 JUMP JUMPDEST SWAP3 SWAP2 POP POP JUMP JUMPDEST PUSH0 DUP1 PUSH0 PUSH1 0x60 DUP5 DUP7 SUB SLT ISZERO PUSH2 0x21C0 JUMPI PUSH2 0x21BF PUSH2 0x1EFE JUMP JUMPDEST JUMPDEST PUSH0 PUSH2 0x21CD DUP7 DUP3 DUP8 ADD PUSH2 0x212F JUMP JUMPDEST SWAP4 POP POP PUSH1 0x20 PUSH2 0x21DE DUP7 DUP3 DUP8 ADD PUSH2 0x212F JUMP JUMPDEST SWAP3 POP POP PUSH1 0x40 PUSH2 0x21EF DUP7 DUP3 DUP8 ADD PUSH2 0x2082 JUMP JUMPDEST SWAP2 POP POP SWAP3 POP SWAP3 POP SWAP3 JUMP JUMPDEST PUSH0 DUP1 REVERT JUMPDEST PUSH0 DUP1 REVERT JUMPDEST PUSH32 0x4E487B7100000000000000000000000000000000000000000000000000000000 PUSH0 MSTORE PUSH1 0x41 PUSH1 0x4 MSTORE PUSH1 0x24 PUSH0 REVERT JUMPDEST PUSH2 0x2237 DUP3 PUSH2 0x1FFB JUMP JUMPDEST DUP2 ADD DUP2 DUP2 LT PUSH8 0xFFFFFFFFFFFFFFFF DUP3 GT OR ISZERO PUSH2 0x2256 JUMPI PUSH2 0x2255 PUSH2 0x2201 JUMP JUMPDEST JUMPDEST DUP1 PUSH1 0x40 MSTORE POP POP POP JUMP JUMPDEST PUSH0 PUSH2 0x2268 PUSH2 0x1EF5 JUMP JUMPDEST SWAP1 POP PUSH2 0x2274 DUP3 DUP3 PUSH2 0x222E JUMP JUMPDEST SWAP2 SWAP1 POP JUMP JUMPDEST PUSH0 PUSH8 0xFFFFFFFFFFFFFFFF DUP3 GT ISZERO PUSH2 0x2293 JUMPI PUSH2 0x2292 PUSH2 0x2201 JUMP JUMPDEST JUMPDEST PUSH2 0x229C DUP3 PUSH2 0x1FFB JUMP JUMPDEST SWAP1 POP PUSH1 0x20 DUP2 ADD SWAP1 POP SWAP2 SWAP1 POP JUMP JUMPDEST DUP3 DUP2 DUP4 CALLDATACOPY PUSH0 DUP4 DUP4 ADD MSTORE POP POP POP JUMP JUMPDEST PUSH0 PUSH2 0x22C9 PUSH2 0x22C4 DUP5 PUSH2 0x2279 JUMP JUMPDEST PUSH2 0x225F JUMP JUMPDEST SWAP1 POP DUP3 DUP2 MSTORE PUSH1 0x20 DUP2 ADD DUP5 DUP5 DUP5 ADD GT ISZERO PUSH2 0x22E5 JUMPI PUSH2 0x22E4 PUSH2 0x21FD JUMP JUMPDEST JUMPDEST PUSH2 0x22F0 DUP5 DUP3 DUP6 PUSH2 0x22A9 JUMP JUMPDEST POP SWAP4 SWAP3 POP POP POP JUMP JUMPDEST PUSH0 DUP3 PUSH1 0x1F DUP4 ADD SLT PUSH2 0x230C JUMPI PUSH2 0x230B PUSH2 0x21F9 JUMP JUMPDEST JUMPDEST DUP2 CALLDATALOAD PUSH2 0x231C DUP5 DUP3 PUSH1 0x20 DUP7 ADD PUSH2 0x22B7 JUMP JUMPDEST SWAP2 POP POP SWAP3 SWAP2 POP POP JUMP JUMPDEST PUSH1 0x4 DUP2 LT PUSH2 0x2331 JUMPI PUSH0 DUP1 REVERT JUMPDEST POP JUMP JUMPDEST PUSH0 DUP2 CALLDATALOAD SWAP1 POP PUSH2 0x2342 DUP2 PUSH2 0x2325 JUMP JUMPDEST SWAP3 SWAP2 POP POP JUMP JUMPDEST PUSH0 DUP1 PUSH0 DUP1 PUSH0 DUP1 PUSH1 0xC0 DUP8 DUP10 SUB SLT ISZERO PUSH2 0x2362 JUMPI PUSH2 0x2361 PUSH2 0x1EFE JUMP JUMPDEST JUMPDEST PUSH0 DUP8 ADD CALLDATALOAD PUSH8 0xFFFFFFFFFFFFFFFF DUP2 GT ISZERO PUSH2 0x237F JUMPI PUSH2 0x237E PUSH2 0x1F02 JUMP JUMPDEST JUMPDEST PUSH2 0x238B DUP10 DUP3 DUP11 ADD PUSH2 0x22F8 JUMP JUMPDEST SWAP7 POP POP PUSH1 0x20 PUSH2 0x239C DUP10 DUP3 DUP11 ADD PUSH2 0x2334 JUMP JUMPDEST SWAP6 POP POP PUSH1 0x40 DUP8 ADD CALLDATALOAD PUSH8 0xFFFFFFFFFFFFFFFF DUP2 GT ISZERO PUSH2 0x23BD JUMPI PUSH2 0x23BC PUSH2 0x1F02 JUMP JUMPDEST JUMPDEST PUSH2 0x23C9 DUP10 DUP3 DUP11 ADD PUSH2 0x22F8 JUMP JUMPDEST SWAP5 POP POP PUSH1 0x60 DUP8 ADD CALLDATALOAD PUSH8 0xFFFFFFFFFFFFFFFF DUP2 GT ISZERO PUSH2 0x23EA JUMPI PUSH2 0x23E9 PUSH2 0x1F02 JUMP JUMPDEST JUMPDEST PUSH2 0x23F6 DUP10 DUP3 DUP11 ADD PUSH2 0x22F8 JUMP JUMPDEST SWAP4 POP POP PUSH1 0x80 PUSH2 0x2407 DUP10 DUP3 DUP11 ADD PUSH2 0x2082 JUMP JUMPDEST SWAP3 POP POP PUSH1 0xA0 PUSH2 0x2418 DUP10 DUP3 DUP11 ADD PUSH2 0x2082 JUMP JUMPDEST SWAP2 POP POP SWAP3 SWAP6 POP SWAP3 SWAP6 POP SWAP3 SWAP6 JUMP JUMPDEST PUSH0 PUSH1 0x20 DUP3 DUP5 SUB SLT ISZERO PUSH2 0x243A JUMPI PUSH2 0x2439 PUSH2 0x1EFE JUMP JUMPDEST JUMPDEST PUSH0 PUSH2 0x2447 DUP5 DUP3 DUP6 ADD PUSH2 0x212F JUMP JUMPDEST SWAP2 POP POP SWAP3 SWAP2 POP POP JUMP JUMPDEST PUSH2 0x2459 DUP2 PUSH2 0x1F86 JUMP JUMPDEST DUP2 EQ PUSH2 0x2463 JUMPI PUSH0 DUP1 REVERT JUMPDEST POP JUMP JUMPDEST PUSH0 DUP2 CALLDATALOAD SWAP1 POP PUSH2 0x2474 DUP2 PUSH2 0x2450 JUMP JUMPDEST SWAP3 SWAP2 POP POP JUMP JUMPDEST PUSH0 DUP1 PUSH1 0x40 DUP4 DUP6 SUB SLT ISZERO PUSH2 0x2490 JUMPI PUSH2 0x248F PUSH2 0x1EFE JUMP JUMPDEST JUMPDEST PUSH0 PUSH2 0x249D DUP6 DUP3 DUP7 ADD PUSH2 0x212F JUMP JUMPDEST SWAP3 POP POP PUSH1 0x20 PUSH2 0x24AE DUP6 DUP3 DUP7 ADD PUSH2 0x2466 JUMP JUMPDEST SWAP2 POP POP SWAP3 POP SWAP3 SWAP1 POP JUMP JUMPDEST PUSH0 PUSH8 0xFFFFFFFFFFFFFFFF DUP3 GT ISZERO PUSH2 0x24D2 JUMPI PUSH2 0x24D1 PUSH2 0x2201 JUMP JUMPDEST JUMPDEST PUSH2 0x24DB DUP3 PUSH2 0x1FFB JUMP JUMPDEST SWAP1 POP PUSH1 0x20 DUP2 ADD SWAP1 POP SWAP2 SWAP1 POP JUMP JUMPDEST PUSH0 PUSH2 0x24FA PUSH2 0x24F5 DUP5 PUSH2 0x24B8 JUMP JUMPDEST PUSH2 0x225F JUMP JUMPDEST SWAP1 POP DUP3 DUP2 MSTORE PUSH1 0x20 DUP2 ADD DUP5 DUP5 DUP5 ADD GT ISZERO PUSH2 0x2516 JUMPI PUSH2 0x2515 PUSH2 0x21FD JUMP JUMPDEST JUMPDEST PUSH2 0x2521 DUP5 DUP3 DUP6 PUSH2 0x22A9 JUMP JUMPDEST POP SWAP4 SWAP3 POP POP POP JUMP JUMPDEST PUSH0 DUP3 PUSH1 0x1F DUP4 ADD SLT PUSH2 0x253D JUMPI PUSH2 0x253C PUSH2 0x21F9 JUMP JUMPDEST JUMPDEST DUP2 CALLDATALOAD PUSH2 0x254D DUP5 DUP3 PUSH1 0x20 DUP7 ADD PUSH2 0x24E8 JUMP JUMPDEST SWAP2 POP POP SWAP3 SWAP2 POP POP JUMP JUMPDEST PUSH0 DUP1 PUSH0 DUP1 PUSH1 0x80 DUP6 DUP8 SUB SLT ISZERO PUSH2 0x256E JUMPI PUSH2 0x256D PUSH2 0x1EFE JUMP JUMPDEST JUMPDEST PUSH0 PUSH2 0x257B DUP8 DUP3 DUP9 ADD PUSH2 0x212F JUMP JUMPDEST SWAP5 POP POP PUSH1 0x20 PUSH2 0x258C DUP8 DUP3 DUP9 ADD PUSH2 0x212F JUMP JUMPDEST SWAP4 POP POP PUSH1 0x40 PUSH2 0x259D DUP8 DUP3 DUP9 ADD PUSH2 0x2082 JUMP JUMPDEST SWAP3 POP POP PUSH1 0x60 DUP6 ADD CALLDATALOAD PUSH8 0xFFFFFFFFFFFFFFFF DUP2 GT ISZERO PUSH2 0x25BE JUMPI PUSH2 0x25BD PUSH2 0x1F02 JUMP JUMPDEST JUMPDEST PUSH2 0x25CA DUP8 DUP3 DUP9 ADD PUSH2 0x2529 JUMP JUMPDEST SWAP2 POP POP SWAP3 SWAP6 SWAP2 SWAP5 POP SWAP3 POP JUMP JUMPDEST PUSH32 0x4E487B7100000000000000000000000000000000000000000000000000000000 PUSH0 MSTORE PUSH1 0x21 PUSH1 0x4 MSTORE PUSH1 0x24 PUSH0 REVERT JUMPDEST PUSH1 0x4 DUP2 LT PUSH2 0x2614 JUMPI PUSH2 0x2613 PUSH2 0x25D6 JUMP JUMPDEST JUMPDEST POP JUMP JUMPDEST PUSH0 DUP2 SWAP1 POP PUSH2 0x2624 DUP3 PUSH2 0x2603 JUMP JUMPDEST SWAP2 SWAP1 POP JUMP JUMPDEST PUSH0 PUSH2 0x2633 DUP3 PUSH2 0x2617 JUMP JUMPDEST SWAP1 POP SWAP2 SWAP1 POP JUMP JUMPDEST PUSH2 0x2643 DUP2 PUSH2 0x2629 JUMP JUMPDEST DUP3 MSTORE POP POP JUMP JUMPDEST PUSH0 PUSH2 0x100 DUP3 ADD SWAP1 POP PUSH2 0x265D PUSH0 DUP4 ADD DUP12 PUSH2 0x2181 JUMP JUMPDEST DUP2 DUP2 SUB PUSH1 0x20 DUP4 ADD MSTORE PUSH2 0x266F DUP2 DUP11 PUSH2 0x200B JUMP JUMPDEST SWAP1 POP PUSH2 0x267E PUSH1 0x40 DUP4 ADD DUP10 PUSH2 0x263A JUMP JUMPDEST DUP2 DUP2 SUB PUSH1 0x60 DUP4 ADD MSTORE PUSH2 0x2690 DUP2 DUP9 PUSH2 0x200B JUMP JUMPDEST SWAP1 POP DUP2 DUP2 SUB PUSH1 0x80 DUP4 ADD MSTORE PUSH2 0x26A4 DUP2 DUP8 PUSH2 0x200B JUMP JUMPDEST SWAP1 POP PUSH2 0x26B3 PUSH1 0xA0 DUP4 ADD DUP7 PUSH2 0x2181 JUMP JUMPDEST PUSH2 0x26C0 PUSH1 0xC0 DUP4 ADD DUP6 PUSH2 0x2181 JUMP JUMPDEST PUSH2 0x26CD PUSH1 0xE0 DUP4 ADD DUP5 PUSH2 0x20F1 JUMP JUMPDEST SWAP10 SWAP9 POP POP POP POP POP POP POP POP POP JUMP JUMPDEST PUSH0 DUP1 PUSH1 0x40 DUP4 DUP6 SUB SLT ISZERO PUSH2 0x26F0 JUMPI PUSH2 0x26EF PUSH2 0x1EFE JUMP JUMPDEST JUMPDEST PUSH0 PUSH2 0x26FD DUP6 DUP3 DUP7 ADD PUSH2 0x212F JUMP JUMPDEST SWAP3 POP POP PUSH1 0x20 PUSH2 0x270E DUP6 DUP3 DUP7 ADD PUSH2 0x212F JUMP JUMPDEST SWAP2 POP POP SWAP3 POP SWAP3 SWAP1 POP JUMP JUMPDEST PUSH32 0x4E487B7100000000000000000000000000000000000000000000000000000000 PUSH0 MSTORE PUSH1 0x22 PUSH1 0x4 MSTORE PUSH1 0x24 PUSH0 REVERT JUMPDEST PUSH0 PUSH1 0x2 DUP3 DIV SWAP1 POP PUSH1 0x1 DUP3 AND DUP1 PUSH2 0x275C JUMPI PUSH1 0x7F DUP3 AND SWAP2 POP JUMPDEST PUSH1 0x20 DUP3 LT DUP2 SUB PUSH2 0x276F JUMPI PUSH2 0x276E PUSH2 0x2718 JUMP JUMPDEST JUMPDEST POP SWAP2 SWAP1 POP JUMP JUMPDEST PUSH0 PUSH1 0x60 DUP3 ADD SWAP1 POP PUSH2 0x2788 PUSH0 DUP4 ADD DUP7 PUSH2 0x20F1 JUMP JUMPDEST PUSH2 0x2795 PUSH1 0x20 DUP4 ADD DUP6 PUSH2 0x2181 JUMP JUMPDEST PUSH2 0x27A2 PUSH1 0x40 DUP4 ADD DUP5 PUSH2 0x20F1 JUMP JUMPDEST SWAP5 SWAP4 POP POP POP POP JUMP JUMPDEST PUSH32 0x4F6E6C79206F776E6572206F6620636F6E74726163742063616E206578656375 PUSH0 DUP3 ADD MSTORE PUSH32 0x746520746869732066756E6374696F6E2E000000000000000000000000000000 PUSH1 0x20 DUP3 ADD MSTORE POP JUMP JUMPDEST PUSH0 PUSH2 0x2804 PUSH1 0x31 DUP4 PUSH2 0x1FC3 JUMP JUMPDEST SWAP2 POP PUSH2 0x280F DUP3 PUSH2 0x27AA JUMP JUMPDEST PUSH1 0x40 DUP3 ADD SWAP1 POP SWAP2 SWAP1 POP JUMP JUMPDEST PUSH0 PUSH1 0x20 DUP3 ADD SWAP1 POP DUP2 DUP2 SUB PUSH0 DUP4 ADD MSTORE PUSH2 0x2831 DUP2 PUSH2 0x27F8 JUMP JUMPDEST SWAP1 POP SWAP2 SWAP1 POP JUMP JUMPDEST PUSH32 0x6E6F7420656E6F7567682066756E647300000000000000000000000000000000 PUSH0 DUP3 ADD MSTORE POP JUMP JUMPDEST PUSH0 PUSH2 0x286C PUSH1 0x10 DUP4 PUSH2 0x1FC3 JUMP JUMPDEST SWAP2 POP PUSH2 0x2877 DUP3 PUSH2 0x2838 JUMP JUMPDEST PUSH1 0x20 DUP3 ADD SWAP1 POP SWAP2 SWAP1 POP JUMP JUMPDEST PUSH0 PUSH1 0x20 DUP3 ADD SWAP1 POP DUP2 DUP2 SUB PUSH0 DUP4 ADD MSTORE PUSH2 0x2899 DUP2 PUSH2 0x2860 JUMP JUMPDEST SWAP1 POP SWAP2 SWAP1 POP JUMP JUMPDEST PUSH32 0x4E487B7100000000000000000000000000000000000000000000000000000000 PUSH0 MSTORE PUSH1 0x11 PUSH1 0x4 MSTORE PUSH1 0x24 PUSH0 REVERT JUMPDEST PUSH0 PUSH2 0x28D7 DUP3 PUSH2 0x2063 JUMP JUMPDEST SWAP2 POP PUSH2 0x28E2 DUP4 PUSH2 0x2063 JUMP JUMPDEST SWAP3 POP DUP3 DUP3 MUL PUSH2 0x28F0 DUP2 PUSH2 0x2063 JUMP JUMPDEST SWAP2 POP DUP3 DUP3 DIV DUP5 EQ DUP4 ISZERO OR PUSH2 0x2907 JUMPI PUSH2 0x2906 PUSH2 0x28A0 JUMP JUMPDEST JUMPDEST POP SWAP3 SWAP2 POP POP JUMP JUMPDEST PUSH32 0x4E487B7100000000000000000000000000000000000000000000000000000000 PUSH0 MSTORE PUSH1 0x12 PUSH1 0x4 MSTORE PUSH1 0x24 PUSH0 REVERT JUMPDEST PUSH0 PUSH2 0x2945 DUP3 PUSH2 0x2063 JUMP JUMPDEST SWAP2 POP PUSH2 0x2950 DUP4 PUSH2 0x2063 JUMP JUMPDEST SWAP3 POP DUP3 PUSH2 0x2960 JUMPI PUSH2 0x295F PUSH2 0x290E JUMP JUMPDEST JUMPDEST DUP3 DUP3 DIV SWAP1 POP SWAP3 SWAP2 POP POP JUMP JUMPDEST PUSH0 DUP2 SWAP1 POP SWAP3 SWAP2 POP POP JUMP JUMPDEST PUSH0 PUSH2 0x297F DUP3 PUSH2 0x1FB9 JUMP JUMPDEST PUSH2 0x2989 DUP2 DUP6 PUSH2 0x296B JUMP JUMPDEST SWAP4 POP PUSH2 0x2999 DUP2 DUP6 PUSH1 0x20 DUP7 ADD PUSH2 0x1FD3 JUMP JUMPDEST DUP1 DUP5 ADD SWAP2 POP POP SWAP3 SWAP2 POP POP JUMP JUMPDEST PUSH0 PUSH2 0x29B0 DUP3 DUP6 PUSH2 0x2975 JUMP JUMPDEST SWAP2 POP PUSH2 0x29BC DUP3 DUP5 PUSH2 0x2975 JUMP JUMPDEST SWAP2 POP DUP2 SWAP1 POP SWAP4 SWAP3 POP POP POP JUMP JUMPDEST PUSH0 PUSH10 0xFFFFFFFFFFFFFFFFFFFF DUP3 AND SWAP1 POP SWAP2 SWAP1 POP JUMP JUMPDEST PUSH2 0x29E6 DUP2 PUSH2 0x29C8 JUMP JUMPDEST DUP2 EQ PUSH2 0x29F0 JUMPI PUSH0 DUP1 REVERT JUMPDEST POP JUMP JUMPDEST PUSH0 DUP2 MLOAD SWAP1 POP PUSH2 0x2A01 DUP2 PUSH2 0x29DD JUMP JUMPDEST SWAP3 SWAP2 POP POP JUMP JUMPDEST PUSH0 DUP2 SWAP1 POP SWAP2 SWAP1 POP JUMP JUMPDEST PUSH2 0x2A19 DUP2 PUSH2 0x2A07 JUMP JUMPDEST DUP2 EQ PUSH2 0x2A23 JUMPI PUSH0 DUP1 REVERT JUMPDEST POP JUMP JUMPDEST PUSH0 DUP2 MLOAD SWAP1 POP PUSH2 0x2A34 DUP2 PUSH2 0x2A10 JUMP JUMPDEST SWAP3 SWAP2 POP POP JUMP JUMPDEST PUSH0 DUP2 MLOAD SWAP1 POP PUSH2 0x2A48 DUP2 PUSH2 0x206C JUMP JUMPDEST SWAP3 SWAP2 POP POP JUMP JUMPDEST PUSH0 DUP1 PUSH0 DUP1 PUSH0 PUSH1 0xA0 DUP7 DUP9 SUB SLT ISZERO PUSH2 0x2A67 JUMPI PUSH2 0x2A66 PUSH2 0x1EFE JUMP JUMPDEST JUMPDEST PUSH0 PUSH2 0x2A74 DUP9 DUP3 DUP10 ADD PUSH2 0x29F3 JUMP JUMPDEST SWAP6 POP POP PUSH1 0x20 PUSH2 0x2A85 DUP9 DUP3 DUP10 ADD PUSH2 0x2A26 JUMP JUMPDEST SWAP5 POP POP PUSH1 0x40 PUSH2 0x2A96 DUP9 DUP3 DUP10 ADD PUSH2 0x2A3A JUMP JUMPDEST SWAP4 POP POP PUSH1 0x60 PUSH2 0x2AA7 DUP9 DUP3 DUP10 ADD PUSH2 0x2A3A JUMP JUMPDEST SWAP3 POP POP PUSH1 0x80 PUSH2 0x2AB8 DUP9 DUP3 DUP10 ADD PUSH2 0x29F3 JUMP JUMPDEST SWAP2 POP POP SWAP3 SWAP6 POP SWAP3 SWAP6 SWAP1 SWAP4 POP JUMP JUMPDEST PUSH0 PUSH2 0x2ACF DUP3 PUSH2 0x2A07 JUMP JUMPDEST SWAP2 POP PUSH2 0x2ADA DUP4 PUSH2 0x2A07 JUMP JUMPDEST SWAP3 POP DUP3 PUSH2 0x2AEA JUMPI PUSH2 0x2AE9 PUSH2 0x290E JUMP JUMPDEST JUMPDEST PUSH1 0x1 PUSH0 SUB DUP4 EQ PUSH32 0x8000000000000000000000000000000000000000000000000000000000000000 DUP4 EQ AND ISZERO PUSH2 0x2B22 JUMPI PUSH2 0x2B21 PUSH2 0x28A0 JUMP JUMPDEST JUMPDEST DUP3 DUP3 SDIV SWAP1 POP SWAP3 SWAP2 POP POP JUMP JUMPDEST PUSH0 DUP2 SWAP1 POP DUP2 PUSH0 MSTORE PUSH1 0x20 PUSH0 KECCAK256 SWAP1 POP SWAP2 SWAP1 POP JUMP JUMPDEST PUSH0 PUSH1 0x20 PUSH1 0x1F DUP4 ADD DIV SWAP1 POP SWAP2 SWAP1 POP JUMP JUMPDEST PUSH0 DUP3 DUP3 SHL SWAP1 POP SWAP3 SWAP2 POP POP JUMP JUMPDEST PUSH0 PUSH1 0x8 DUP4 MUL PUSH2 0x2B89 PUSH32 0xFFFFFFFFFFFFFFFFFFFFFFFFFFFFFFFFFFFFFFFFFFFFFFFFFFFFFFFFFFFFFFFF DUP3 PUSH2 0x2B4E JUMP JUMPDEST PUSH2 0x2B93 DUP7 DUP4 PUSH2 0x2B4E JUMP JUMPDEST SWAP6 POP DUP1 NOT DUP5 AND SWAP4 POP DUP1 DUP7 AND DUP5 OR SWAP3 POP POP POP SWAP4 SWAP3 POP POP POP JUMP JUMPDEST PUSH0 DUP2 SWAP1 POP SWAP2 SWAP1 POP JUMP JUMPDEST PUSH0 PUSH2 0x2BCE PUSH2 0x2BC9 PUSH2 0x2BC4 DUP5 PUSH2 0x2063 JUMP JUMPDEST PUSH2 0x2BAB JUMP JUMPDEST PUSH2 0x2063 JUMP JUMPDEST SWAP1 POP SWAP2 SWAP1 POP JUMP JUMPDEST PUSH0 DUP2 SWAP1 POP SWAP2 SWAP1 POP JUMP JUMPDEST PUSH2 0x2BE7 DUP4 PUSH2 0x2BB4 JUMP JUMPDEST PUSH2 0x2BFB PUSH2 0x2BF3 DUP3 PUSH2 0x2BD5 JUMP JUMPDEST DUP5 DUP5 SLOAD PUSH2 0x2B5A JUMP JUMPDEST DUP3 SSTORE POP POP POP POP JUMP JUMPDEST PUSH0 SWAP1 JUMP JUMPDEST PUSH2 0x2C0F PUSH2 0x2C03 JUMP JUMPDEST PUSH2 0x2C1A DUP2 DUP5 DUP5 PUSH2 0x2BDE JUMP JUMPDEST POP POP POP JUMP JUMPDEST JUMPDEST DUP2 DUP2 LT ISZERO PUSH2 0x2C3D JUMPI PUSH2 0x2C32 PUSH0 DUP3 PUSH2 0x2C07 JUMP JUMPDEST PUSH1 0x1 DUP2 ADD SWAP1 POP PUSH2 0x2C20 JUMP JUMPDEST POP POP JUMP JUMPDEST PUSH1 0x1F DUP3 GT ISZERO PUSH2 0x2C82 JUMPI PUSH2 0x2C53 DUP2 PUSH2 0x2B2D JUMP JUMPDEST PUSH2 0x2C5C DUP5 PUSH2 0x2B3F JUMP JUMPDEST DUP2 ADD PUSH1 0x20 DUP6 LT ISZERO PUSH2 0x2C6B JUMPI DUP2 SWAP1 POP JUMPDEST PUSH2 0x2C7F PUSH2 0x2C77 DUP6 PUSH2 0x2B3F JUMP JUMPDEST DUP4 ADD DUP3 PUSH2 0x2C1F JUMP JUMPDEST POP POP JUMPDEST POP POP POP JUMP JUMPDEST PUSH0 DUP3 DUP3 SHR SWAP1 POP SWAP3 SWAP2 POP POP JUMP JUMPDEST PUSH0 PUSH2 0x2CA2 PUSH0 NOT DUP5 PUSH1 0x8 MUL PUSH2 0x2C87 JUMP JUMPDEST NOT DUP1 DUP4 AND SWAP2 POP POP SWAP3 SWAP2 POP POP JUMP JUMPDEST PUSH0 PUSH2 0x2CBA DUP4 DUP4 PUSH2 0x2C93 JUMP JUMPDEST SWAP2 POP DUP3 PUSH1 0x2 MUL DUP3 OR SWAP1 POP SWAP3 SWAP2 POP POP JUMP JUMPDEST PUSH2 0x2CD3 DUP3 PUSH2 0x1FB9 JUMP JUMPDEST PUSH8 0xFFFFFFFFFFFFFFFF DUP2 GT ISZERO PUSH2 0x2CEC JUMPI PUSH2 0x2CEB PUSH2 0x2201 JUMP JUMPDEST JUMPDEST PUSH2 0x2CF6 DUP3 SLOAD PUSH2 0x2745 JUMP JUMPDEST PUSH2 0x2D01 DUP3 DUP3 DUP6 PUSH2 0x2C41 JUMP JUMPDEST PUSH0 PUSH1 0x20 SWAP1 POP PUSH1 0x1F DUP4 GT PUSH1 0x1 DUP2 EQ PUSH2 0x2D32 JUMPI PUSH0 DUP5 ISZERO PUSH2 0x2D20 JUMPI DUP3 DUP8 ADD MLOAD SWAP1 POP JUMPDEST PUSH2 0x2D2A DUP6 DUP3 PUSH2 0x2CAF JUMP JUMPDEST DUP7 SSTORE POP PUSH2 0x2D91 JUMP JUMPDEST PUSH1 0x1F NOT DUP5 AND PUSH2 0x2D40 DUP7 PUSH2 0x2B2D JUMP JUMPDEST PUSH0 JUMPDEST DUP3 DUP2 LT ISZERO PUSH2 0x2D67 JUMPI DUP5 DUP10 ADD MLOAD DUP3 SSTORE PUSH1 0x1 DUP3 ADD SWAP2 POP PUSH1 0x20 DUP6 ADD SWAP5 POP PUSH1 0x20 DUP2 ADD SWAP1 POP PUSH2 0x2D42 JUMP JUMPDEST DUP7 DUP4 LT ISZERO PUSH2 0x2D84 JUMPI DUP5 DUP10 ADD MLOAD PUSH2 0x2D80 PUSH1 0x1F DUP10 AND DUP3 PUSH2 0x2C93 JUMP JUMPDEST DUP4 SSTORE POP JUMPDEST PUSH1 0x1 PUSH1 0x2 DUP9 MUL ADD DUP9 SSTORE POP POP POP JUMPDEST POP POP POP POP POP POP JUMP JUMPDEST PUSH0 DUP2 MLOAD SWAP1 POP SWAP2 SWAP1 POP JUMP JUMPDEST PUSH0 DUP3 DUP3 MSTORE PUSH1 0x20 DUP3 ADD SWAP1 POP SWAP3 SWAP2 POP POP JUMP JUMPDEST PUSH0 PUSH2 0x2DBD DUP3 PUSH2 0x2D99 JUMP JUMPDEST PUSH2 0x2DC7 DUP2 DUP6 PUSH2 0x2DA3 JUMP JUMPDEST SWAP4 POP PUSH2 0x2DD7 DUP2 DUP6 PUSH1 0x20 DUP7 ADD PUSH2 0x1FD3 JUMP JUMPDEST PUSH2 0x2DE0 DUP2 PUSH2 0x1FFB JUMP JUMPDEST DUP5 ADD SWAP2 POP POP SWAP3 SWAP2 POP POP JUMP JUMPDEST PUSH0 PUSH1 0x80 DUP3 ADD SWAP1 POP PUSH2 0x2DFE PUSH0 DUP4 ADD DUP8 PUSH2 0x20F1 JUMP JUMPDEST PUSH2 0x2E0B PUSH1 0x20 DUP4 ADD DUP7 PUSH2 0x20F1 JUMP JUMPDEST PUSH2 0x2E18 PUSH1 0x40 DUP4 ADD DUP6 PUSH2 0x2181 JUMP JUMPDEST DUP2 DUP2 SUB PUSH1 0x60 DUP4 ADD MSTORE PUSH2 0x2E2A DUP2 DUP5 PUSH2 0x2DB3 JUMP JUMPDEST SWAP1 POP SWAP6 SWAP5 POP POP POP POP POP JUMP JUMPDEST PUSH0 DUP2 MLOAD SWAP1 POP PUSH2 0x2E43 DUP2 PUSH2 0x1F31 JUMP JUMPDEST SWAP3 SWAP2 POP POP JUMP JUMPDEST PUSH0 PUSH1 0x20 DUP3 DUP5 SUB SLT ISZERO PUSH2 0x2E5E JUMPI PUSH2 0x2E5D PUSH2 0x1EFE JUMP JUMPDEST JUMPDEST PUSH0 PUSH2 0x2E6B DUP5 DUP3 DUP6 ADD PUSH2 0x2E35 JUMP JUMPDEST SWAP2 POP POP SWAP3 SWAP2 POP POP JUMP JUMPDEST PUSH0 PUSH1 0x40 DUP3 ADD SWAP1 POP PUSH2 0x2E87 PUSH0 DUP4 ADD DUP6 PUSH2 0x20F1 JUMP JUMPDEST PUSH2 0x2E94 PUSH1 0x20 DUP4 ADD DUP5 PUSH2 0x2181 JUMP JUMPDEST SWAP4 SWAP3 POP POP POP JUMP JUMPDEST PUSH0 PUSH2 0x2EA5 DUP3 PUSH2 0x2063 JUMP JUMPDEST SWAP2 POP PUSH2 0x2EB0 DUP4 PUSH2 0x2063 JUMP JUMPDEST SWAP3 POP DUP3 DUP3 ADD SWAP1 POP DUP1 DUP3 GT ISZERO PUSH2 0x2EC8 JUMPI PUSH2 0x2EC7 PUSH2 0x28A0 JUMP JUMPDEST JUMPDEST SWAP3 SWAP2 POP POP JUMP JUMPDEST PUSH0 PUSH2 0x2ED8 DUP3 PUSH2 0x2063 JUMP JUMPDEST SWAP2 POP PUSH32 0xFFFFFFFFFFFFFFFFFFFFFFFFFFFFFFFFFFFFFFFFFFFFFFFFFFFFFFFFFFFFFFFF DUP3 SUB PUSH2 0x2F0A JUMPI PUSH2 0x2F09 PUSH2 0x28A0 JUMP JUMPDEST JUMPDEST PUSH1 0x1 DUP3 ADD SWAP1 POP SWAP2 SWAP1 POP JUMP INVALID LOG2 PUSH5 0x6970667358 0x22 SLT KECCAK256 0xA9 PREVRANDAO 0x4E 0xAE 0xD REVERT PUSH17 0xAA1A601570F4E3575E0BB2E6A328F194B8 0xAC 0x2A 0x2C SWAP11 0x24 MULMOD 0xB0 0xB7 PUSH5 0x736F6C6343 STOP ADDMOD AND STOP CALLER "
				},
				"gasEstimates": {
					"creation": {
						"codeDepositCost": "2421400",
						"executionCost": "infinite",
						"totalCost": "infinite"
					},
					"external": {
						"approve(address,uint256)": "infinite",
						"balanceOf(address)": "infinite",
						"counter()": "2536",
						"getApproved(uint256)": "infinite",
						"getBalance()": "446",
						"getEthPriceInUsd()": "infinite",
						"getEthRegistrationFeeInWei()": "infinite",
						"isApprovedForAll(address,address)": "infinite",
						"name()": "infinite",
						"owner()": "2553",
						"ownerOf(uint256)": "infinite",
						"pets(uint256)": "infinite",
						"priceFeedAddress()": "2618",
						"registerPet(string,uint8,string,string,uint256,uint256)": "infinite",
						"safeTransferFrom(address,address,uint256)": "infinite",
						"safeTransferFrom(address,address,uint256,bytes)": "infinite",
						"setApprovalForAll(address,bool)": "infinite",
						"supportsInterface(bytes4)": "787",
						"symbol()": "infinite",
						"tokenURI(uint256)": "infinite",
						"transferFrom(address,address,uint256)": "infinite",
						"updateRegistrationFee(uint256)": "24795",
						"usdRegistrationFee()": "2448",
						"withdraw()": "infinite"
					},
					"internal": {
						"_createPet(string memory,enum PetRegistry.Species,string memory,string memory,uint256,uint256)": "infinite",
						"_generatePetId()": "infinite"
					}
				},
				"methodIdentifiers": {
					"approve(address,uint256)": "095ea7b3",
					"balanceOf(address)": "70a08231",
					"counter()": "61bc221a",
					"getApproved(uint256)": "081812fc",
					"getBalance()": "12065fe0",
					"getEthPriceInUsd()": "d67b98a9",
					"getEthRegistrationFeeInWei()": "b92d9ad2",
					"isApprovedForAll(address,address)": "e985e9c5",
					"name()": "06fdde03",
					"owner()": "8da5cb5b",
					"ownerOf(uint256)": "6352211e",
					"pets(uint256)": "cfb869bf",
					"priceFeedAddress()": "e0abca0b",
					"registerPet(string,uint8,string,string,uint256,uint256)": "43e62f28",
					"safeTransferFrom(address,address,uint256)": "42842e0e",
					"safeTransferFrom(address,address,uint256,bytes)": "b88d4fde",
					"setApprovalForAll(address,bool)": "a22cb465",
					"supportsInterface(bytes4)": "01ffc9a7",
					"symbol()": "95d89b41",
					"tokenURI(uint256)": "c87b56dd",
					"transferFrom(address,address,uint256)": "23b872dd",
					"updateRegistrationFee(uint256)": "af582c6b",
					"usdRegistrationFee()": "23fb9afb",
					"withdraw()": "3ccfd60b"
				}
			},
			"storageLayout": {
				"storage": [
					{
						"astId": 215,
						"contract": "contracts/PetRegistry.sol:PetRegistry",
						"label": "_name",
						"offset": 0,
						"slot": "0",
						"type": "t_string_storage"
					},
					{
						"astId": 217,
						"contract": "contracts/PetRegistry.sol:PetRegistry",
						"label": "_symbol",
						"offset": 0,
						"slot": "1",
						"type": "t_string_storage"
					},
					{
						"astId": 221,
						"contract": "contracts/PetRegistry.sol:PetRegistry",
						"label": "_owners",
						"offset": 0,
						"slot": "2",
						"type": "t_mapping(t_uint256,t_address)"
					},
					{
						"astId": 225,
						"contract": "contracts/PetRegistry.sol:PetRegistry",
						"label": "_balances",
						"offset": 0,
						"slot": "3",
						"type": "t_mapping(t_address,t_uint256)"
					},
					{
						"astId": 229,
						"contract": "contracts/PetRegistry.sol:PetRegistry",
						"label": "_tokenApprovals",
						"offset": 0,
						"slot": "4",
						"type": "t_mapping(t_uint256,t_address)"
					},
					{
						"astId": 235,
						"contract": "contracts/PetRegistry.sol:PetRegistry",
						"label": "_operatorApprovals",
						"offset": 0,
						"slot": "5",
						"type": "t_mapping(t_address,t_mapping(t_address,t_bool))"
					},
					{
						"astId": 2843,
						"contract": "contracts/PetRegistry.sol:PetRegistry",
						"label": "priceFeed",
						"offset": 0,
						"slot": "6",
						"type": "t_contract(AggregatorV3Interface)45"
					},
					{
						"astId": 2845,
						"contract": "contracts/PetRegistry.sol:PetRegistry",
						"label": "priceFeedAddress",
						"offset": 0,
						"slot": "7",
						"type": "t_address"
					},
					{
						"astId": 2873,
						"contract": "contracts/PetRegistry.sol:PetRegistry",
						"label": "pets",
						"offset": 0,
						"slot": "8",
						"type": "t_mapping(t_uint256,t_struct(Pet)2868_storage)"
					},
					{
						"astId": 2875,
						"contract": "contracts/PetRegistry.sol:PetRegistry",
						"label": "counter",
						"offset": 0,
						"slot": "9",
						"type": "t_uint256"
					},
					{
						"astId": 2877,
						"contract": "contracts/PetRegistry.sol:PetRegistry",
						"label": "usdRegistrationFee",
						"offset": 0,
						"slot": "10",
						"type": "t_uint256"
					},
					{
						"astId": 2879,
						"contract": "contracts/PetRegistry.sol:PetRegistry",
						"label": "owner",
						"offset": 0,
						"slot": "11",
						"type": "t_address"
					}
				],
				"types": {
					"t_address": {
						"encoding": "inplace",
						"label": "address",
						"numberOfBytes": "20"
					},
					"t_bool": {
						"encoding": "inplace",
						"label": "bool",
						"numberOfBytes": "1"
					},
					"t_contract(AggregatorV3Interface)45": {
						"encoding": "inplace",
						"label": "contract AggregatorV3Interface",
						"numberOfBytes": "20"
					},
					"t_enum(Species)2850": {
						"encoding": "inplace",
						"label": "enum PetRegistry.Species",
						"numberOfBytes": "1"
					},
					"t_mapping(t_address,t_bool)": {
						"encoding": "mapping",
						"key": "t_address",
						"label": "mapping(address => bool)",
						"numberOfBytes": "32",
						"value": "t_bool"
					},
					"t_mapping(t_address,t_mapping(t_address,t_bool))": {
						"encoding": "mapping",
						"key": "t_address",
						"label": "mapping(address => mapping(address => bool))",
						"numberOfBytes": "32",
						"value": "t_mapping(t_address,t_bool)"
					},
					"t_mapping(t_address,t_uint256)": {
						"encoding": "mapping",
						"key": "t_address",
						"label": "mapping(address => uint256)",
						"numberOfBytes": "32",
						"value": "t_uint256"
					},
					"t_mapping(t_uint256,t_address)": {
						"encoding": "mapping",
						"key": "t_uint256",
						"label": "mapping(uint256 => address)",
						"numberOfBytes": "32",
						"value": "t_address"
					},
					"t_mapping(t_uint256,t_struct(Pet)2868_storage)": {
						"encoding": "mapping",
						"key": "t_uint256",
						"label": "mapping(uint256 => struct PetRegistry.Pet)",
						"numberOfBytes": "32",
						"value": "t_struct(Pet)2868_storage"
					},
					"t_string_storage": {
						"encoding": "bytes",
						"label": "string",
						"numberOfBytes": "32"
					},
					"t_struct(Pet)2868_storage": {
						"encoding": "inplace",
						"label": "struct PetRegistry.Pet",
						"members": [
							{
								"astId": 2852,
								"contract": "contracts/PetRegistry.sol:PetRegistry",
								"label": "petId",
								"offset": 0,
								"slot": "0",
								"type": "t_uint256"
							},
							{
								"astId": 2854,
								"contract": "contracts/PetRegistry.sol:PetRegistry",
								"label": "name",
								"offset": 0,
								"slot": "1",
								"type": "t_string_storage"
							},
							{
								"astId": 2857,
								"contract": "contracts/PetRegistry.sol:PetRegistry",
								"label": "species",
								"offset": 0,
								"slot": "2",
								"type": "t_enum(Species)2850"
							},
							{
								"astId": 2859,
								"contract": "contracts/PetRegistry.sol:PetRegistry",
								"label": "breed",
								"offset": 0,
								"slot": "3",
								"type": "t_string_storage"
							},
							{
								"astId": 2861,
								"contract": "contracts/PetRegistry.sol:PetRegistry",
								"label": "color",
								"offset": 0,
								"slot": "4",
								"type": "t_string_storage"
							},
							{
								"astId": 2863,
								"contract": "contracts/PetRegistry.sol:PetRegistry",
								"label": "birthDate",
								"offset": 0,
								"slot": "5",
								"type": "t_uint256"
							},
							{
								"astId": 2865,
								"contract": "contracts/PetRegistry.sol:PetRegistry",
								"label": "weight",
								"offset": 0,
								"slot": "6",
								"type": "t_uint256"
							},
							{
								"astId": 2867,
								"contract": "contracts/PetRegistry.sol:PetRegistry",
								"label": "owner",
								"offset": 0,
								"slot": "7",
								"type": "t_address"
							}
						],
						"numberOfBytes": "256"
					},
					"t_uint256": {
						"encoding": "inplace",
						"label": "uint256",
						"numberOfBytes": "32"
					}
				}
			},
			"userdoc": {
				"kind": "user",
				"methods": {},
				"version": 1
			}
		}
	}
}